:020000040800F2
:10000000FC1A00203107000891070008910700083A
:100010009107000891070008910700080000000000
:100020000000000000000000000000009998000897
:1000300091070008000000006D990008A9990008C8
:100040009107000891070008910700089107000830
:100050009107000891070008492900086529000850
:1000600081290008910700089107000891070008FE
:100070009107000891070008D9240008ED24000822
:100080009107000891070008910700080000000090
:10009000000000000000000000000000AD29000882
:1000A000E93E000839400008754000089107000843
:1000B000910700087D3D000891070008910700089E
:1000C00091070008910700089107000891070008B0
:1000D00091070008451200089107000891070008E1
:1000E0008D29000891070008910700080000000012
:1000F0000000000000000000000000000000000000
:1001000000000000000000000000000000000000EF
:10011000000000000000000091070008910700089F
:100120005FF808F180B485B000AF786039600023D3
:10013000FB817B681B88FB817A682E4B9A4213D027
:100140007A682D4B9A420FD07B68B3F1804F0BD069
:100150007A682A4B9A4207D07A68294B9A4203D090
:100160007A68284B9A4208D1FB8923F07003FB81FF
:100170003B685A88FB891343FB817A68224B9A4279
:100180000CD07A68214B9A4208D0FB8923F4407343
:10019000FB813B68DA88FB891343FB817B68FA8922
:1001A0001A803B689A887B689A853B681A887B68C6
:1001B0001A857A680F4B9A420FD07A680E4B9A4292
:1001C0000BD07A68124B9A4207D07A68114B9A4248
:1001D00003D07A68104B9A4204D13B681B7A1A46C6
:1001E0007B681A867B6801229A821437BD465DF8C7
:1001F000047B7047002C01400034014000040040A3
:1002000000080040000C00400010004000140040B6
:1002100000400140004401400048014080B485B0E6
:1002200000AF7860396000237B810023FB810023CD
:10023000BB817B681B8C9BB223F001039AB27B6865
:100240001A847B681B8CFB817B689B88BB817B68E5
:100250001B8B7B817B8923F070037B817B8923F05F
:1002600003037B813B681A887B8913437B81FB896D
:1002700023F00203FB813B681A89FB891343FB814E
:100280003B685A88FB891343FB817A68244B9A4266
:100290000FD07A68234B9A420BD07A68224B9A424D
:1002A00007D07A68214B9A4203D07A68204B9A4251
:1002B00023D1FB8923F00803FB813B685A89FB8922
:1002C0001343FB81FB8923F00403FB813B689A887D
:1002D000FB891343FB81BB8923F48073BB81BB89FA
:1002E00023F40073BB813B689A89BB891343BB81AC
:1002F0003B68DA89BB891343BB817B68BA899A80E2
:100300007B687A891A833B68DA887B689A867B687F
:10031000FA891A841437BD465DF8047B704700BF24
:10032000002C0140003401400040014000440140E5
:100330000048014080B485B000AF78603960002388
:100340007B810023FB810023BB817B681B8C9BB2DC
:1003500023F010039AB27B681A847B681B8CFB81A4
:100360007B689B88BB817B681B8B7B817B8923F4AB
:10037000E0437B817B8923F440737B813B681B884E
:100380001B029AB27B8913437B81FB8923F02003F4
:10039000FB813B681B891B019AB2FB891343FB81DC
:1003A0003B685B881B019AB2FB891343FB817A6827
:1003B000224B9A4203D07A68214B9A422BD1FB8977
:1003C00023F08003FB813B685B891B019AB2FB89A8
:1003D0001343FB81FB8923F04003FB813B689B882F
:1003E0001B019AB2FB891343FB81BB8923F4806311
:1003F000BB81BB8923F40063BB813B689B899B0065
:100400009AB2BB891343BB813B68DB899B009AB2DC
:10041000BB891343BB817B68BA899A807B687A89E0
:100420001A833B68DA887B681A877B68FA891A84A2
:100430001437BD465DF8047B704700BF002C0140B7
:100440000034014080B485B000AF7860396000238B
:100450007B810023FB810023BB817B681B8C9BB2CB
:1004600023F480739AB27B681A847B681B8CFB81AF
:100470007B689B88BB817B689B8B7B817B8923F01E
:1004800070037B817B8923F003037B813B681A889F
:100490007B8913437B81FB8923F40073FB813B68D9
:1004A0001B891B029AB2FB891343FB813B685B8863
:1004B0001B029AB2FB891343FB817A68224B9A4252
:1004C00003D07A68214B9A422BD1FB8923F4006335
:1004D000FB813B685B891B029AB2FB891343FB815A
:1004E000FB8923F48063FB813B689B881B029AB2E3
:1004F000FB891343FB81BB8923F48053BB81BB89F8
:1005000023F40053BB813B689B891B019AB2BB89D2
:100510001343BB813B68DB891B019AB2BB89134340
:10052000BB817B68BA899A807B687A899A833B68A9
:10053000DA887B689A877B68FA891A841437BD4603
:100540005DF8047B704700BF002C0140003401407F
:1005500080B485B000AF786039600023BB81002390
:100560007B810023FB817B681B8C9BB223F480532F
:100570009AB27B681A847B681B8C7B817B689B8822
:10058000FB817B689B8BBB81BB8923F4E043BB81F0
:10059000BB8923F44073BB813B681B881B029AB262
:1005A000BB891343BB817B8923F400537B813B6868
:1005B0001B891B039AB27B8913437B813B685B8851
:1005C0001B039AB27B8913437B817A68124B9A4250
:1005D00003D07A68114B9A420AD1FB8923F48043F5
:1005E000FB813B689B899B019AB2FB891343FB818A
:1005F0007B68FA899A807B68BA899A833B68DA8833
:100600007B68A3F840207B687A891A841437BD463A
:100610005DF8047B704700BF002C014000340140AE
:1006200080B483B000AF78607B684FF6FF729A8029
:100630007B6800221A807B680022DA807B680022B7
:100640005A807B6800221A720C37BD465DF8047B25
:10065000704700BF80B483B000AF78607B68002231
:100660001A807B6800225A807B6800229A807B680F
:100670000022DA807B6800221A817B6800225A817E
:100680007B6800229A817B680022DA810C37BD46A4
:100690005DF8047B704700BF80B483B000AF786022
:1006A0000B46FB70FB78002B08D07B681B889BB245
:1006B00043F001039AB27B681A8007E07B681B88CD
:1006C0009BB223F001039AB27B681A800C37BD46B7
:1006D0005DF8047B704700BF80B483B000AF7860E2
:1006E0007B689B8E9BB218460C37BD465DF8047B39
:1006F000704700BF80B483B000AF78607B681B8F09
:100700009BB218460C37BD465DF8047B704700BFAE
:1007100080B483B000AF78600B467B807B88DB437E
:100720009AB27B681A820C37BD465DF8047B70472D
:1007300080B582B000AF114B7B60114B3B6007E08E
:100740003B681A1D3A607A68111D796012681A6058
:100750003A680C4B9A42F3D30B480C494FF0000215
:100760008842B8BF40F8042BFFF6FAAF00F014F847
:1007700006F04CFB0837BD4680BD00BF2CAE00081C
:100780000000002044000020480000200017002046
:1007900080B400AFFEE700BF80B500AF164B164A2D
:1007A000126842F001021A60134A134B5968134B46
:1007B0000B405360104A104B1B6823F0847323F4E2
:1007C000803313600C4B0C4A126822F480221A60AA
:1007D000094B094A526822F4FE025A60064B4FF454
:1007E0001F029A60044B0022DA6200F00BF8044BFF
:1007F0004FF000629A6080BD001002400000FFF8D8
:1008000000ED00E080B500AF00F002F880BD00BF51
:1008100080B483B000AF00237B6000233B60304B8B
:100820002F4A126842F480321A602D4B1B6803F481
:1008300000333B607B6801337B603B68002B03D156
:100840007B68B3F5A06FF0D1254B1B6803F0020362
:10085000002B02D001233B6001E000233B603B689A
:10086000012B37D11E4B1E4A52685A601C4B1C4A42
:1008700052685A601A4B1A4A52685A60184B184A02
:10088000526822F47C125A60154B154A526842F4A1
:1008900098125A60124B124A126842F080721A6023
:1008A00000BF0F4B1B6803F00073002BF9D00C4BFB
:1008B0000B4A526822F003025A60094B084A5268F8
:1008C00042F002025A6000BF054B5B6803F00C0364
:1008D000082BF9D10C37BD465DF8047B704700BF8B
:1008E0000010024080B489B000AF78603960002306
:1008F000FB6100233B610023BB610023FB600023FD
:100900007B610023BB603B68DB7803F00F03FB6176
:100910003B68DB7803F01003002B04D03B689B7826
:10092000FA691343FB613B681B88DBB2002B44D0A0
:100930007B681B687B610023BB6138E0BB690122D7
:1009400002FA03F3FB603B681B881A46FB681340FE
:100950003B613A69FB689A4226D1BB699B00FB6008
:10096000FB680F2202FA03F3BB60BB68DB437A69C2
:1009700013407B61FB68FA6902FA03F37A69134357
:100980007B613B68DB78282B05D1BB6901229A404B
:100990007B685A6108E03B68DB78482B04D1BB696F
:1009A00001229A407B681A61BB690133BB61BB6954
:1009B000072BC3D97B687A691A603B681B88FF2BB9
:1009C00046D97B685B687B610023BB613AE0BB6909
:1009D0000833012202FA03F3FB603B681B881A46C6
:1009E000FB6813403B613A69FB689A4227D1BB69B7
:1009F0009B00FB60FB680F2202FA03F3BB60BB683D
:100A0000DB437A6913407B61FB68FA6902FA03F3FE
:100A10007A6913437B613B68DB78282B05D1BB697E
:100A2000083301229A407B685A613B68DB78482B87
:100A300005D1BB69083301229A407B681A61BB6902
:100A40000133BB61BB69072BC1D97B687A695A60E6
:100A50002437BD465DF8047B704700BF80B483B087
:100A600000AF78607B684FF6FF721A807B680222C5
:100A70009A707B680422DA700C37BD465DF8047BFF
:100A8000704700BF80B487B000AF78600B46FB7042
:100A900000233B610023FB6000237B610023BB60DC
:100AA0007B68002B03DA2E4BDB697B6102E02C4B69
:100AB0005B687B617B6803F470231B0CBB607B6805
:100AC0009BB23B617B6803F44013B3F5401F0AD12E
:100AD0007B6923F070637B61214B214A526822F0CD
:100AE00070625A6021E07B6803F48013002B0ED003
:100AF000BB68032202FA03F3FB60FB68DB437A69FD
:100B000013407B617B6943F070637B610DE07B6820
:100B10005B0D1B013A6902FA03F3DB437A69134068
:100B20007B617B6943F070637B61FB78002B08D0AD
:100B30007B685B0D1B013A6902FA03F37A69134380
:100B40007B617B68002B03DA054B7A69DA6102E08E
:100B5000034B7A695A601C37BD465DF8047B7047C9
:100B60000000014080B483B000AF0346FB71084B26
:100B700097F907205209F97901F01F01012000FAC5
:100B800001F143F822100C37BD465DF8047B704735
:100B900000E100E080B582B000AF404B1B78DBB2D3
:100BA00003F004039B10012B72D13D4B9B889AB23A
:100BB00040F68C239A4204D904F03EF8394B3D228A
:100BC0001A70012007F062FA05F078FB7860334B69
:100BD0001B78DBB203F00803DB10012B22D1304B72
:100BE0009B889AB2304B1B889BB29A421AD22B4BED
:100BF0001B78DBB203F00103002B13D02B4B1B68D7
:100C00007A689A420DD9274B3E221A7004F014F8E4
:100C1000274B1B78DBB243F00803DAB2244B1A707F
:100C200009E008E005F04AFB0246224B1B889BB214
:100C30001A441E4B1A60012007F028FA1E4B1B882D
:100C40009AB21E4B1B889BB29A4207D21A4B1B8842
:100C50009BB2002B02D0002001F044FE012007F0DF
:100C600015FA154B5B889AB2144B5B889BB29A427B
:100C700007D2114B5B889BB2002B02D0042001F0FD
:100C800031FE012007F002FA0B4B5B880C4B5B88AE
:100C9000012007F0FBF90837BD4680BD1700002092
:100CA000F0000020C2000020D0000020CC00002076
:100CB000C3000020D200002048000020E8000020EF
:100CC000EC00002080B582B000AF0346FB711C4BE6
:100CD0001B78DBB2002B11D11A4B1B78DBB25A1CEC
:100CE000D1B2184A1170F979174AA2FB01025209D0
:100CF000D2B23032D1B2154AD15410E0114B1B7828
:100D0000DBB25A1CD1B20F4A1170F9790E4AA2FB1C
:100D100001025209D2B23032D1B20D4AD154FB791C
:100D2000094AA2FB03125209642101FB02F29B1A39
:100D3000DBB2184605F032FE0837BD4680BD00BF65
:100D4000AD000020AC0000201F85EB518C0000207E
:100D50009C00002080B584B000AF0023FB7300230B
:100D6000BB7300237B7300237B8100237B60002304
:100D70003B6006F093FC744806F058FA4FF4FA70A2
:100D800007F084F9714B00221A7034E005F0E6FC9C
:100D900003461A466D4B1A700020002106F082FAB5
:100DA0006B4806F043FA6B4B1B689BB2184600F089
:100DB000EDF9694806F03AFA664B5B689BB2184653
:100DC00000F0E4F90120002106F06CFA0A2007F097
:100DD0005DF9624806F02AFA5E4B9B689BB21846A2
:100DE00000F0D4F95E4806F021FA5A4BDB689BB25A
:100DF000184600F0CBF9554B1B78DBB2002BC5D061
:100E000006F04CFC514B1B78DBB2013BBB734F4BE4
:100E100000221A70534806F009FAFB7B184604F0CA
:100E2000F3FA0346FB73FB7B184601F05BFD06F00B
:100E300035FC4D4806F0FAF97B7B184604F0E4FADD
:100E400003467B73BA7B434B53F822307B6006F03A
:100E500025FC464806F0EAF9FB7B184601F012FD36
:100E60003A4B00221A7019E00A2007F00FF905F03A
:100E700075FC03461A46354B1A7006F00FFC3C48C9
:100E800006F0D4F90120002106F00CFABA7B314BB0
:100E900053F822309BB2184600F078F92B4B1B78A0
:100EA000DBB2022BE0D1BA7B2A4B53F822303B60F5
:100EB000FB7B184601F016FDC82007F0E7F83B68F9
:100EC0009AB27B689BB2D31A9BB21A467B7B92FB89
:100ED000F3F37B81BA7B274B798923F8121006F054
:100EE000DDFB254806F0A2F93B689BB2184600F0EE
:100EF0004DF90120002106F0D5F9204806F096F9B9
:100F00007B89184600F042F97B8940F2426019461D
:100F100009F040F80D4B00221A7008E00A2007F093
:100F2000B5F805F01BFC03461A46084B1A70074B30
:100F30001B78DBB2022BF1D106F0B0FBC82007F022
:100F4000A5F81037BD4680BDF0A60008C1000020FE
:100F5000FCA600088016002000A7000804A70008CF
:100F600008A700080CA700081CA700082CA7000869
:100F70003CA70008941600204CA7000854A70008BE
:100F800080B584B000AF13460246FA710A46BA71C2
:100F9000BB800023FB60BB88104A128892B202FB20
:100FA00003F20F4BA3FB0213DB08FB60002001F0F0
:100FB00069FCBA790B4B002143F8221002E00A20A9
:100FC00007F064F8074B1A68FB689A42F7D30020D1
:100FD00001F088FC1037BD4680BD00BF941600208C
:100FE000CDCCCCCC8016002080B584B000AF1346A9
:100FF0000246FA710A46BA71BB800023BB60002327
:10100000FB8106F04BFB564806F010F908E00A2079
:1010100007F03CF805F0A2FB03461A46514B1A7044
:10102000504B1B78DBB2002BF1D04E4B1B78DBB260
:10103000022B01D1FFF78EFE01237B7389E006F0BE
:101040002DFB494806F0F2F8484B1B889BB2184626
:1010500000F09CF8FB891846052104F087FA034646
:10106000FB81FB89414A128892B202FB03F2404B9A
:10107000A3FB0213DB08BB6006F010FB3D4806F043
:10108000D5F8BB689BB2184600F080F8012000211B
:1010900006F008F9384806F0C9F8BA79374B53F822
:1010A0002220364B53F822309BB2184600F06EF8DF
:1010B0002C4B00221A70002001F0E4FBBA792F4B70
:1010C000002143F822101BE00A2006F0DFFF06F0A3
:1010D000E5FA2B4806F0AAF8BA79284B53F82230E3
:1010E0009BB2184600F052F80120002106F0DAF811
:1010F000244806F09BF8BB689BB2184600F046F8FF
:101100001E4B1A68BB689A42DED3002001F0EAFB4E
:1011100006F0C4FA1C4806F089F808E00A2006F038
:10112000B5FF05F01BFB03461A460E4B1A700D4B1C
:101130001B78DBB2002BF1D00A4B1B78DBB2022B01
:1011400005D101237B730D4B00221A6001E00023BF
:101150007B737B7B012B3FF472AF1037BD4680BDA4
:101160005CA70008C10000206CA7000894160020AE
:10117000CDCCCCCC78A7000880A700088016002032
:1011800084A700088CA7000890A7000880B582B04B
:1011900000AF0346FB80FA88164BA3FB02135B0BE0
:1011A0009BB2DBB2184605F0F9FBFB88114AA2FBA3
:1011B0000312520B42F2107101FB02F29B1A9AB217
:1011C0000D4BA3FB02135B099BB2DBB2184605F083
:1011D000E5FBFB88084AA2FB03125209642101FBCC
:1011E00002F29B1A9BB2DBB2184605F0D7FB083718
:1011F000BD4680BD5917B7D11F85EB5180B485B06E
:1012000000AF396013460246FA71BB710023FB73CD
:101210000023FB730AE0FB7B3A6813441B78DAB2C5
:10122000FB795340FB71FB7B0133FB73FA7BBB798A
:101230009A42F0D3FB7918461437BD465DF8047B1B
:10124000704700BF80B582B000AF0023FB716248D9
:1012500040F2255107F09CFD0346002B1AD05E4852
:1012600007F076FD0346DAB25C4B1A705C4B1B78D4
:10127000DBB25A1CD1B25A4A1170584A1278D1B214
:10128000584AD154544B544A128892B222F0200248
:1012900092B21A80544B1B78DBB2012B13D1534B03
:1012A0001B78DAB2524B1B78DBB29A420BD24A4A15
:1012B0004E4B1B78DBB2591CC8B24C4908704D49E3
:1012C000CB5CDBB29380444B434A128892B222F04B
:1012D000400292B21A80484B1B78DBB2002B77D1C8
:1012E000464B1B78DBB2042B3BD1454B1B78DBB262
:1012F000002B04D1394B1B78DAB2424B1A70404BA9
:101300001B78DBB25A1CD1B23D4A1170334A1278B5
:10131000D1B2344AD1543A4B1B78DBB21A46394B1E
:101320001B78DBB201339A421BD1364B1B78DBB200
:1013300030202C491A46FFF761FF0346FB712F4B03
:1013400000221A702E4B00221A702F4B00221A70A6
:10135000FB79002B03D1284B01221A7001E000F029
:10136000A1F81E4B1B78DBB25A2B03D1264B01226E
:101370001A702DE0194B1B78DBB2582B08D1224B89
:101380001B78DBB2012B03D11F4B02221A701FE026
:101390001D4B1B78DBB2022B1AD1104B1B78DBB232
:1013A000302B12D00D4B1B78DBB2312B03D1134BFA
:1013B00003221A7009E0094B1B78DBB2322B04D1EF
:1013C0000E4B04221A7000F06DF80F4B00221A70B9
:1013D0000837BD4680BD00BF0038014051000020E5
:1013E00054000020A01600205200002053000020CE
:1013F00015000020C8160020FF000020FE0000207D
:10140000FC000020FD000020FB00002080B582B021
:1014100000AF78604FF47A6006F038FE01F0FAF918
:1014200003F01CFCFFF7B6FB09F00AF8052006F0F4
:101430002DFEF3E780B582B000AF786009F04EF87A
:10144000144B1B78DBB203F00803DAB2114B1A70AD
:10145000114B1B78DBB2012B17D100F0E5F80F4BD5
:101460005B78DBB2312B0DD80C4B1B78DBB20B4A0F
:10147000D35CDBB2184600F08BF800F013F8084B91
:1014800000221A70044B00221A700A2006F0FEFD9A
:10149000D4E700BF00010020FF000020A0160020BC
:1014A000FC00002080B483B000AF0023FB71002358
:1014B000FB7106E0FB79074A0021D154FB79013327
:1014C000FB71FB79292BF5D90C37BD465DF8047B00
:1014D000704700BFA016002080B582B000AF002387
:1014E000FB710B4B00221A700023FB7109E0FB79A2
:1014F000084A0021D154012006F0C8FDFB790133D0
:10150000FB71FB79292BF2D90837BD4680BD00BF9E
:1015100015000020C816002080B500AF174B002230
:101520001A70174BDB78DBB20133DAB2154B1A7045
:10153000134BDB78DBB2124A0D21D154124B00223F
:101540001A700E4B01221A70104B00229A8004E090
:10155000052006F09BFD08F0C1FF0B4B1B78DAB2AB
:10156000084B1B78DBB29A42F2D3064B00221A706A
:10157000FFF7B2FF014B00221A7080BD520000201D
:10158000C81600201500002053000020003801403C
:1015900090B583B000AF0346FB71FFF79DFF134B7F
:1015A0005A221A70114B58225A70104B37229A70D7
:1015B0000E4B0622DA700D4BFA791A710B4BDB7861
:1015C000DBB25C1E094B9B78DBB2002007491A4650
:1015D000FFF714FE03461A46044B1A55012006F085
:1015E00055FDFFF799FF0C37BD4690BDC81600208A
:1015F00080B582B000AF0023FB800023BB800DE0EC
:10160000FB8803F5B863BB80BB88184600F006FC76
:10161000FB881033FB80022006F038FDFB88C72BC7
:10162000EED90837BD4680BD80B582B000AF00233B
:10163000FB80BF4B5B78DBB23C2B00F2628201A2E5
:1016400052F823F039170008651700087B170008C7
:10165000871700088F1700089D170008AB170008B0
:10166000031B0008B9170008D11700083718000835
:1016700059180008B9180008E51800084D190008A5
:10168000AB190008CD190008EF190008111A00085D
:10169000331A0008031B0008031B0008391A00084E
:1016A000451A0008511A0008031B0008031B000814
:1016B000031B0008031B0008031B0008031B000892
:1016C000031B0008031B0008031B0008031B000882
:1016D000031B0008031B0008031B0008031B000872
:1016E000031B0008031B0008031B0008031B000862
:1016F000031B0008031B0008031B0008031B000852
:10170000031B0008031B0008031B0008031B000841
:101710005D1A00086B1A0008031B0008031B000871
:10172000031B0008791A00089B1A0008BB1A00085E
:10173000DD1A0008FD1A00087D4B9B78D9B27C4B5E
:10174000DB78DAB27A4B1B79DBB21B0298B2784BAA
:101750005B79DBB203449BB2084611461A46FFF799
:101760000FFCCEE1724B9B78DAB2714BDB78DBB2C7
:101770001046194603F026FDC3E16E4B33221A7062
:1017800003F05AFABDE16B4B30221A70B9E1684B95
:101790009B78DBB2184601F075F8B2E1644B9B7898
:1017A000DBB2184601F09EF8ABE1614B9B78DBB2EF
:1017B000184600F0BFFBA4E15E4B1B78DBB2332B75
:1017C00005D15B4B9B78DAB25B4B1A7099E198E1DB
:1017D000574B1B78DBB2564AD35CDBB21846FFF797
:1017E000D7FE052006F052FC514B1B78DBB2504A65
:1017F000D35CDBB21846FFF7CBFE052006F046FCB3
:101800004B4B1B78DBB24A4AD35CDBB21846FFF77E
:10181000BFFE052006F03AFC454B9B78D9B2444BFD
:10182000DB78DAB2424B1B79DBB2084611461A4626
:1018300000F072F965E104F041FD034603F13C025A
:101840003E4B1A603E4B00221A703E4B00221A702B
:101850003D4B00221A7054E1374B00221A70354B71
:1018600033221A70364B1B78DBB203F00103DAB275
:10187000334B1A700020002103F0A4FC012000214A
:1018800003F0A0FC0220002103F09CFC03200021B7
:1018900003F098FC03F0D0F9022001F023F80320B4
:1018A00001F020F8002001F01DF8012001F01AF8E5
:1018B000042001F017F824E11D4B9B78DBB21A02DB
:1018C0001B4BDB78DBB213441A02194B1B79DBB2DA
:1018D00013441A02164B5B79DBB21344184604F02A
:1018E000FFFC0EE1124B1B78DBB2114AD35CDBB27A
:1018F0001846FFF74DFE052006F0C8FB0C4B1B7881
:10190000DBB20B4AD35CDBB21846FFF741FE052081
:1019100006F0BCFB064B1B78DBB2054AD35CDBB29E
:101920001846FFF735FE42F2107006F0AFFBE8E014
:10193000A01600201400002017000020CC0000207A
:10194000C3000020C2000020000100206E4B1B7865
:10195000DBB26D4AD35CDBB21846FFF719FE0520F7
:1019600006F094FB684B1B78DBB2674AD35CDBB2B2
:101970001846FFF70DFE052006F088FB624B1B782A
:10198000DBB2614AD35CDBB21846FFF701FE0520EB
:1019900006F07CFB5C4B9B78DAB25B4BDB78DBB20E
:1019A0001046194602F0AEF8ABE0574B9B78DBB21D
:1019B0001A46554BDB78DBB21B029BB21344FB800B
:1019C000FB881846012100F0E5F89AE04E4B9B7821
:1019D000DBB21A464C4BDB78DBB21B029BB21344E2
:1019E000FB80FB881846102100F0D4F889E0464BB4
:1019F0009B78DBB21A46444BDB78DBB21B029BB20E
:101A00001344FB80FB8818460A2100F0C3F878E0F5
:101A10003D4B9B78DBB21A463B4BDB78DBB21B02BB
:101A20009BB21344FB80FB8818460B2100F0B2F8F0
:101A300067E005F01DFB64E0334B9B78DAB2334B73
:101A40001A705EE0304B9B78DAB2314B1A7058E076
:101A50002D4B9B78DAB22F4B1A7052E02A4B9B78B1
:101A6000DBB2184600F0BCFA4BE0012000F0B8FAF7
:101A7000022000F0B5FA44E0234B9B78DBB21A4613
:101A8000214BDB78DBB21B029BB213409BB29BB2B3
:101A90001846022100F07EF833E01B4B9B78DBB246
:101AA0001A46194BDB78DBB21B029BB213449BB284
:101AB0001846012100F020F923E0134B9B78DBB29C
:101AC0001A46114BDB78DBB21B029BB21344FB803E
:101AD000FB881846022100F00FF912E00A4B9B78B0
:101AE000DBB21A46084BDB78DBB21B029BB2134415
:101AF000FB80FB88184600F091F902E0FFF778FDC3
:101B000000BF0837BD4680BDA0160020DD000020C4
:101B1000DE000020DF00002080B584B000AF134657
:101B20000246FA710A46BA717B710023BB6000233A
:101B3000FB6004F0C3FBF860BA79FB681344BB6038
:101B4000FB791846012101F05FFF022006F09EFAA2
:101B5000FA797B791046194601F056FF0DE004F042
:101B6000ADFBF86008F0BAFC0A2006F08FFA0120FD
:101B700000F036FA0A2006F089FAFA68BB689A4241
:101B8000EDD3FB791846002101F03EFF1037BD462A
:101B900080BD00BF80B586B000AF02460B46FA801C
:101BA0007B7100233B610023FB757B79012B13D1F3
:101BB0004F4B1B79DBB21A464D4B5B79DBB21B02F4
:101BC0009BB213449AB24B4B1A804A4B1B88FA883B
:101BD0001046194608F0DEF97B79022B18D1444BE8
:101BE0001B79DBB21A46424B5B79DBB21B021A440B
:101BF0003F4B9B79DBB21B041A443D4BDB79DBB2D4
:101C00001B0613443B61FB881846396903F020FB2F
:101C10007B79102B29D10023FB7523E0354B002263
:101C20001A80FB7D02335B00314AD35CDBB21A467B
:101C3000FB7D5B0203F5A0632D49CB5CDBB2134453
:101C40009AB22C4B1A80FB885A1CFA80294A1288B7
:101C50001846114608F09EF9012006F017FAFB7DA0
:101C60000133FB75FB7D1F2BD8D97B790A2B1DD146
:101C70000023FB81FA8807F10E031046194608F08D
:101C80003DF9FB89DBB29BB2FB81194B1B79DBB2BF
:101C90001B029AB2FB899BB213409BB29BB2FB81A1
:101CA000FB89FA881046194608F074F97B790B2BEA
:101CB0001BD10023BB81FA8807F10C03104619469B
:101CC00008F01CF9BB8923F0FF039BB2BB81084BD2
:101CD0001B79DBB21A46BB8913409BB2BB81BB891F
:101CE000FA881046194608F055F91837BD4680BDE8
:101CF000A01600201C01002090B585B000AF024660
:101D00000B46FA807B71404B5A221A703E4B582288
:101D10005A703D4B31229A707B79012B1DD1FA8884
:101D200007F10A031046194608F0E8F8364B092275
:101D3000DA70364B9B78DAB2334B1A71334BDB785F
:101D4000DAB2314B5A717B89DAB22F4B9A717B89A7
:101D50001B0A9BB2DAB22C4BDA717B79022B24D1AD
:101D6000FB88184604F0EAFFF860274B0B22DA7074
:101D7000264B9B78DAB2244B1A71244BDB78DAB20B
:101D8000214B5A71FB68DAB21F4B9A71FB681B0A30
:101D9000DAB21D4BDA71FB681B0CDAB21A4B1A72FD
:101DA000FB681B0EDAB2184B5A72174BDB78DBB2AA
:101DB0005C1E154BDB78DBB2013BDBB20020124925
:101DC0001A46FFF71BFA03461A460F4B1A550E4BDD
:101DD000DB78DAB20E4B1A700E4B00221A700E4BE3
:101DE00001221A7002E0012006F050F9094B1B781D
:101DF000DAB2074B1B78DBB29A42F4D3064B0022CF
:101E00001A701437BD4690BDC8160020A0160020D9
:101E100015000020530000205200002090B585B02E
:101E200000AF0346FB800023FB730623BB733C4BD0
:101E30005A221A703A4B58225A70394B31229A70F2
:101E4000374B2722DA70374B9B78DAB2344B1A7152
:101E5000344BDB78DAB2324B5A710023FB732EE03D
:101E60000023BB60FB7B9BB25B009AB2FB881344F0
:101E70009BB2184604F062FFB860BB7B5A1CBA7371
:101E8000BA68120ED1B2264AD154BB7B5A1CBA731F
:101E9000BA68120CD1B2224AD154BB7B5A1CBA7315
:101EA000BA68120AD1B21E4AD154BB7B5A1CBA730B
:101EB000BA68D1B21A4AD154FB7B0133FB73FB7B66
:101EC000072BCDD9BC7B164BDB78DBB2013BDBB2F9
:101ED000002013491A46FFF791F903461A46104BA2
:101EE0001A550F4BDB78DAB20F4B1A700F4B0022EA
:101EF0001A700F4B01221A7002E0012006F0C6F89A
:101F00000A4B1B78DAB2084B1B78DBB29A42F4D347
:101F1000074B00221A70FFF7DFFA1437BD4690BD59
:101F2000C8160020A0160020150000205300002035
:101F30005200002080B584B000AF0346FB7100233F
:101F4000FB730023BB8100237B81234B5A221A7031
:101F5000214B58225A70204B31229A701E4B2A2254
:101F6000DA701D4BFA791A710023FB732AE0FB79B2
:101F70009BB21A46D20013449AB2FB7B9BB2134425
:101F80009BB203F538739BB25B00BB81BA8907F142
:101F90000A031046194607F0B1FFFB7B5B000533CF
:101FA0000D4A0021D154FB7B03335B007A89D2B206
:101FB0005242D1B2084AD154012006F067F8FB7BA7
:101FC0000133FB73FB7B112BD1D9044B01221A7017
:101FD0001037BD4680BD00BFC8160020520000204B
:101FE00090B583B000AF0346FB71984B1B78DBB212
:101FF000002B40F05B82964B5A221A70944B582269
:102000005A70934B33229A70914B2822DA70FB79E5
:10201000012B40F0DE808F4B1B78DAB28C4B1A71AB
:102020008D4B1B68DAB28A4B5A718C4B1B68DAB243
:10203000874B9A718A4B1B78DAB2854BDA71894BE0
:102040001B889BB2DAB2824B1A72874B1B78DAB2CA
:102050007F4B5A72854B1B78DAB27D4B9A72834B59
:102060005B78DAB27A4BDA72804B9B78DAB2784BD3
:102070001A737E4BDB78DAB2754B5A737C4B1B8B31
:102080009BB2DAB2724B9A73794B1B8B9BB21B0AD1
:102090009BB2DAB26E4BDA73754B9B8B9BB2DAB2A2
:1020A0006B4B1A74724B9B8B9BB21B0A9BB2DAB2BE
:1020B000674B5A746F4B1B889BB2DAB2644B9A74AD
:1020C0006C4B1B889BB21B0A9BB2DAB2604BDA7472
:1020D000684B5B889BB2DAB25D4B1A75654B5B88C7
:1020E0009BB21B0A9BB2DAB2594B5A75624B1B88E2
:1020F0009BB2DAB2564B9A755F4B1B889BB21B0A98
:102100009BB2DAB2524BDA755B4B5B889BB2DAB2A8
:102110004F4B1A76584B5B889BB21B0A9BB2DAB2C4
:102120004B4B5A76544B9B889BB2DAB2484B9A760B
:10213000514B9B889BB21B0A9BB2DAB2444BDA76B6
:102140004D4BDB889BB2DAB2414B1A774A4BDB88A6
:102150009BB21B0A9BB2DAB23D4B5A77474B1B78B6
:10216000DAB23B4B9A77464B1B681B0ADAB2384B04
:10217000DA77434B1B681B0CDAB2354B83F820200F
:102180004FF080439B8F9AB23E4BA3FB0213DB08B8
:102190009BB2DAB22E4B83F821203B4B1B78DAB28C
:1021A0002B4B83F82220394B1B78DAB2284B83F86B
:1021B0002320374B1B78DAB2254B83F82420354B8C
:1021C0001B78DAB2224B83F82520214BFA7983F869
:1021D0002620FB79022B72D12F4B1B889BB2DAB2DF
:1021E0001B4B1A712C4B1B889BB21B0A9BB2DAB299
:1021F000174B5A71294B1B889BB2DAB2144B9A7158
:10220000264B1B889BB21B0A9BB2DAB2104BDA71C9
:102210000F4B00221A72184B1B889BB21B0A9BB2F1
:10222000DAB20B4B5A72144B5B889BB2DAB2084B92
:102230009A72114B5B889BB21B0A9BB2DAB2044BB9
:10224000DA720D4B9B889BB22AE000BF520000203F
:10225000C816002014000020C4000020C800002080
:1022600050000020DA000020F80000206800002064
:102270000028004048000020F0000020000100205D
:1022800080160020CDCCCCCCFA0000201700002016
:10229000C2000020C3000020E2000020E400002073
:1022A000DAB2844B1A73844B9B889BB21B0A9BB295
:1022B000DAB2804B5A737F4BFA7983F82620FB7988
:1022C000032B3BD17D4B9B68DAB27A4B1A717B4B67
:1022D0009B681B0ADAB2774B5A71784B9B681B0CD0
:1022E000DAB2744B9A71754B9B681B0EDAB2714B64
:1022F000DA71734B9B68DAB26E4B1A72704B9B6843
:102300001B0ADAB26B4B5A726D4B9B681B0CDAB22C
:10231000684B9A726A4B9B681B0EDAB2654BDA7295
:10232000684B9B78DAB2634B1A73664BDB78DAB290
:10233000604B5A735F4BFA7983F82620FB79042BA4
:102340001CD15C4B00225A725F4B1B78DAB2594B9E
:102350009A725E4B1B889BB2DAB2564BDA725B4BB9
:102360001B889BB21B0A9BB2DAB2524B1A73514BB9
:102370004D225A734F4BFA7983F82620FB79052BAF
:1023800039D1534B1B889BB2DAB24A4B1A71504B6E
:102390001B889BB21B0A9BB2DAB2464B5A714C4B5C
:1023A0005B889BB2DAB2434B9A71494B5B889BB214
:1023B0001B0A9BB2DAB23F4BDA71464B1B68DAB2AA
:1023C0003C4B1A72434B1B681B0ADAB2394B5A72E8
:1023D000404B1B681B0CDAB2364B9A723D4B1B68A4
:1023E0001B0EDAB2334BDA72324B4D225A73314B39
:1023F000FA7983F82620FB79062B43D1344B1B88CE
:102400009BB2DAB22B4B1A71314B1B889BB21B0A61
:102410009BB2DAB2274B5A712D4B5B889BB2DAB272
:10242000244B9A712A4B5B889BB21B0A9BB2DAB28F
:10243000204B5A71274B5B68DAB21E4B1A72254B40
:102440005B681B0ADAB21B4B5A72224B5B681B0C8F
:10245000DAB2184B9A721F4B5B681B0EDAB2154B3F
:10246000DA721A4B5B889BB2DAB2124B1A73174BB3
:102470005B889BB21B0A9BB2DAB20E4B5A730D4BB0
:10248000FA799A750B4BDB78DBB25C1E094BDB7873
:10249000DBB2013BDBB2002006491A46FEF7AEFE76
:1024A00003461A46034B1A55FFF736F80C37BD465C
:1024B00090BD00BFC8160020F000002000080140B9
:1024C000000C014070000020FA000020941600204B
:1024D000480000208016002080B400AF024B1B682B
:1024E000BD465DF8047B70470000024080B400AF39
:1024F000024B1B68BD465DF8047B7047000002403C
:1025000080B586B000AF0120012105F005FC052053
:10251000012105F01FFC25233B7500237B7500235B
:10252000BB750123FB7507F11403184607F066FA23
:102530004FF400733B820323BB741823FB7407F131
:10254000100324481946FEF7CDF94FF480633B820F
:102550000423FB7407F110031E481946FEF7C2F965
:102560001D4806F0BFFA4FF48040012105F0F2FB50
:102570004FF416533B600023BB800023FB800023F5
:102580003B810023BB810C237B813B4612481946CB
:1025900006F004FB10484FF4587106F0E9FB0E4BAF
:1025A0000D4A928992B242F0200292B29A810A4B6D
:1025B000094A928992B242F0400292B29A81064848
:1025C000012106F0A5FB2520FEF7CCFA1837BD4601
:1025D00080BD00BF000801400038014080B588B0D0
:1025E00000AF1020012105F0B5FB0220012105F00C
:1025F000CFFB07F11C031846FEF730FA4FF4707357
:10260000BB830323BB771823FB7707F11C03204808
:102610001946FEF767F91F480121FEF733FA07F163
:1026200010031846FDF7FCFF4FF40073FB8240F2E5
:10263000E733BB82EF233B8207F1100316481946AC
:10264000FDF770FD3B461846FEF704F801237B803A
:1026500060233B800023FB803B460F481946FDF773
:10266000DDFD3B460C481946FDF764FE3B460A4833
:102670001946FDF7E7FE3B4607481946FDF768FF98
:1026800005480121FEF708F82037BD4680BD00BF90
:1026900000100140000C1A000004004080B588B012
:1026A00000AF0820012105F055FB0120012105F0B4
:1026B0006FFB07F11C031846FEF7D0F94FF4406397
:1026C000BB830323BB771823FB7707F11C031E484A
:1026D0001946FEF707F91D480121FEF7D3F907F166
:1026E00010031846FDF79CFF4FF40073FB8240F285
:1026F000E733BB82EF233B8207F110034FF08040AA
:102700001946FDF70FFD3B461846FDF7A3FF0123D1
:102710007B8060233B800023FB803B464FF0804062
:102720001946FDF78FFE3B464FF080401946FDF7F6
:102730000FFF4FF080400121FDF7AEFF02F07CFA61
:102740002037BD4680BD00BF000C014000031800CB
:1027500080B582B000AF04F0A1FF0023FB8000230E
:102760007B7104F09BFF0A2005F090FC04F096FFBB
:10277000234804F05BFD234B00221A701EE003F097
:10278000EDFF03461A461F4B1A701F4B1B88FB8038
:10279000052005F07BFC0120002104F083FDFA8870
:1027A0001A4BA3FB02135B099BB2DBB2184604F081
:1027B000F5F8FB88DBB2184604F0F0F8114B1B78F3
:1027C000DBB2022BDBD10A2005F060FCFB8840F273
:1027D000D650194607F0DEFB02F018FA4FF4FA6003
:1027E00005F054FC0A4804F021FD064B00221A7043
:1027F00004F054FF04F03CFC0837BD4680BD00BF28
:10280000A4A70008C1000020480000201F85EB514C
:10281000B8A7000880B582B000AF012005F036FCF3
:102820000023FB71012005F031FC134B1B78DBB258
:1028300003F002035B10012B1AD1104B1B889BB2D3
:102840001A460F4B1B889BB202339A4202DD0020CE
:1028500000F018F8012005F019FC084B1B889AB20B
:10286000074B1B889BB29A4202D2002000F03AF834
:102870000837BD4680BD00BF17000020480000207B
:10288000E800002080B483B000AF0346FB71FB7901
:10289000002B06D1114B114A526942F480725A61E1
:1028A00009E00E4B0D4A5169FA790A32012000FA0B
:1028B00002F20A435A61FB79012202FA03F3DAB207
:1028C000074B1B78DBB2DBB21343DBB2DAB2044B4B
:1028D0001A700C37BD465DF8047B70470008014054
:1028E0005000002080B483B000AF0346FB71FB7939
:1028F000002B06D1124B124A126942F480721A61FF
:1029000009E00F4B0E4A1169FA790A32012000FAE8
:1029100002F20A431A61FB79012202FA03F3DBB2E5
:10292000DB43DAB2074B1B78DBB2DBB21340DBB21E
:10293000DAB2044B1A700C37BD465DF8047B704761
:10294000000801405000002080B500AF012005F0D4
:10295000C1FA034B1B685A1C014B1A6080BD00BFB3
:102960008016002080B500AF022005F0B3FA034BBB
:102970005B685A1C014B5A6080BD00BF8016002066
:1029800080B500AF042005F0A5FA80BD80B500AF8A
:102990004FF4806005F09EFA4FF4006005F09AFA5B
:1029A0004FF4805005F096FA80BD00BF80B500AFAF
:1029B000202005F08FFA402005F08CFA802005F0E9
:1029C00089FA80BD80B582B000AF40F2DC53FB8055
:1029D0000023BB80294B00221A7047E003F0BEFEA3
:1029E00003461A46254B1A700023BB80FA883B1D0C
:1029F0001046194607F082FA052005F047FB04F05F
:102A00004DFE1F4804F012FCFB881846FEF7BEFB83
:102A10000120002104F046FC1A4804F007FCBB88A2
:102A20001846FEF7B3FB154B1B78DBB2022B0AD11D
:102A3000FB88B3F5FA6F03D2FB880133FB8002E019
:102A40004FF4AF63FB800D4B1B78DBB2012B0AD137
:102A5000FB88B3F5AF6F03D9FB88013BFB8002E035
:102A60004FF4FA63FB80192005F010FB034B1B7831
:102A7000DBB2042BB2D10837BD4680BDC1000020B7
:102A8000C4A70008CCA7000880B582B000AF05201D
:102A900005F0FCFA0023FB7104F000FE464B002217
:102AA0001A707DE0142005F0F1FA03F057FE03469A
:102AB0001A46414B1A700020002104F0F3FB3F48F6
:102AC00004F0B4FBFB79184603F068FF3A4B1B781F
:102AD000DBB2042B03D1FB791846FFF7D3FE364B4C
:102AE0001B78DBB2032B03D1FB791846FFF7FAFE04
:102AF000314B1B78DBB2012B08D1FB79012B03D8BA
:102B0000FB790133FB7101E00023FB71012005F02B
:102B1000BDFA0120002104F0C5FB294804F086FB22
:102B2000284B1B78DBB2184603F038FF012005F074
:102B3000ADFA254804F07AFB244B9B6803F01003A0
:102B4000002B03D0224804F071FB02E0214804F07E
:102B50006DFB1E4B9B6803F02003002B03D01C4829
:102B600004F064FB1CE01B4804F060FB174B9B68FF
:102B700003F04003002B03D0154804F057FB02E09C
:102B8000144804F053FB114B9B6803F48073002B33
:102B900003D00F4804F04AFB02E00E4804F046FB65
:102BA000054B1B78DBB2022B7FF47CAF04F076FD83
:102BB0000837BD4680BD00BFC1000020D4A7000873
:102BC000E0A7000850000020E4A70008000801402A
:102BD000ECA70008F0A7000880B584B000AF13464A
:102BE0000246FA800A467A713B710023FB73002388
:102BF000BB7300237B73FA887B7942FA03F37B7300
:102C00000020002104F04EFB514804F00FFB514B13
:102C100000221A7060E003F0A1FD03461A464D4BF6
:102C20001A700120002104F03DFB0023FB7305E036
:102C3000494804F0FBFAFB7B0133FB73FA7B3979DB
:102C40007B79CB1A9A42F3DB012005F01FFA0023AF
:102C5000FB7309E00020002104F024FB3F4804F04E
:102C6000E5FAFB7B0133FB73FA7B39797B79CB1A6D
:102C70009A42EFDBBB7B0020194604F013FB34487B
:102C800004F0D4FA052005F001FA324B1B78DBB2D0
:102C9000042B08D1BA7B39797B79CB1A9A4202DAB4
:102CA000BB7B0133BB732B4B1B78DBB2012B05D1F4
:102CB000BB7B002B02D0BB7B013BBB73254B1B783E
:102CC000DBB2032B08D1BB7B012202FA03F3DAB299
:102CD0007B7B5340DBB27B731E4B1B78DBB2022B3A
:102CE00099D10023FB7325E07A7BFB7B42FA03F347
:102CF00003F00103002B0DD0FA7B7B791344012BE9
:102D0000D4BF00230123DBB21A46FB8813439BB2D6
:102D1000FB800CE0FA7B7B791344012202FA03F377
:102D20009BB2DB439AB2FB8813409BB2FB80FB7BD8
:102D30000133FB73FA7B39797B79CB1A9A42D3DB67
:102D400001F064FFFB8818461037BD4680BD00BF08
:102D500004A80008C1000020ECA70008FCA7000898
:102D600080B586B000AF0346FB710023BB82002311
:102D70007B8100233B8100233B6104F08FFC65488D
:102D800004F054FAC82005F081F9FB799BB21A4689
:102D90001201D31A9BB203F21E63BB82BA8A07F1F7
:102DA0000A031046194607F0A9F87B89DBB21846DA
:102DB00002F02AFB03467B817B89BA8A10461946BA
:102DC00007F0E8F804F06AFC0020052104F06AFA34
:102DD000514804F02BFAC82005F058F9FB799BB252
:102DE0001A461201D31A9BB203F22763BB82BA8A36
:102DF00007F108031046194607F080F83B8918468A
:102E000000210322FFF7E8FE03463B810023FB7508
:102E100011E003F0A3FC03461A46404B1A703F4BE7
:102E20001B78DBB2042B03D1FB7DC3F10103FB75DF
:102E3000192005F02BF9394B1B78DBB2002BE8D0B9
:102E4000FB7D012B05D13B8943F001039BB23B8104
:102E500004E03B8923F001039BB23B813B89BA8AA2
:102E60001046194607F096F8052005F00FF901F015
:102E7000CDFE0023FB60FB799BB21A461201D31AE8
:102E80009BB203F22163BB82BB8A184603F056FF54
:102E9000F860F868012102F0C7FDF860FB689BB29A
:102EA000BA8A1046194607F075F8FB799BB21A46A4
:102EB0001201D31A9BB203F22363BB82BB8A18466A
:102EC00003F03CFFF860F868012102F0ADFDF86006
:102ED000FB689BB2BA8A1046194607F05BF8FB798B
:102EE0009BB21A461201D31A9BB203F21F63BB8234
:102EF000BB8A184603F022FFF860F86802F098FBDE
:102F0000F860BB8A1846F96802F0A2F91837BD4686
:102F100080BD00BF08A8000810A80008C10000205C
:102F200080B582B000AF0023FB7104F0B7FB094805
:102F300004F07CF9C82005F0A9F8FB79184602F0E6
:102F400063FA0346FB71FB79184600F021F8083755
:102F5000BD4680BD1CA8000880B582B000AF00232C
:102F6000FB7104F09BFB094804F060F9C82005F0F0
:102F70008DF8FB79184602F047FA0346FB71FB799E
:102F80001846FFF7EDFE0837BD4680BD1CA80008B7
:102F900080B584B000AF0346FB710023FB810023A2
:102FA000BB81FB799BB21A46920013449BB203F299
:102FB000A563FB81FA8907F10C031046194606F058
:102FC0009DFF04F06BFB574804F030F9BB891846AD
:102FD00002F070FA0346BB81BB89FA891046194694
:102FE00006F0D8FFFB799BB21A46920013449BB2BD
:102FF00003F2A663FB81FA8907F10C031046194618
:1030000006F07CFF04F04AFB474804F00FF9BB8947
:10301000184602F04FFA0346BB81BB89FA89104675
:10302000194606F0B7FFFA8907F10C031046194656
:1030300006F064FF04F032FB3C4804F0F7F8BB896B
:10304000184602F037FA0346BB81BB89FA8910465D
:10305000194606F09FFFFB799BB21A469200134473
:103060009BB203F2A763FB81FA8907F10C031046B8
:10307000194606F043FF04F011FB2D4804F0D6F882
:10308000BB89184602F016FA0346BB81BB89FA8950
:103090001046194606F07EFFFB799BB21A46920055
:1030A00013449BB203F2A763FB81FA8907F10C0377
:1030B0001046194606F022FF04F0F0FA1D4804F00D
:1030C000B5F8BB89184602F0F5F90346BB81BB8908
:1030D000FA891046194606F05DFFFA8907F10C03DC
:1030E0001046194606F00AFF04F0D8FA124804F018
:1030F0009DF8BB89184602F0DDF90346BB810A2022
:1031000004F0C4FFBB89FA891046194606F042FF55
:1031100004F0C4FA0A2004F0B9FF03F0A9FF103745
:10312000BD4680BD28A800083CA800084CA800089F
:103130005CA8000868A8000878A8000890B585B0C9
:1031400000AF0023BB730023FB7304F0A7FA3348DE
:1031500004F06CF8C82004F099FFBB7B184602F01D
:1031600053F90346BB7304F099FA2D4804F05EF856
:10317000BB7B184603F012FC2A4804F057F80023E2
:10318000FB7306E01E2004F081FF03F0E7FA03461C
:10319000FB73FB7B022B02D0FB7B032BF2D1C820FD
:1031A00004F074FFFB7B022B2FD1BA7B13461B016B
:1031B0009B1A03F21F63BB60BB689BB2184603F007
:1031C000BDFD7860BA7B13461B019B1A03F2216395
:1031D000BB6003F073F83860BB689BB2184639686F
:1031E00002F036F8BA7B13461B019B1A03F22563E3
:1031F000BB60BB689CB203F061F802467B68D31ADF
:1032000005332046194602F023F804F047FAC82097
:1032100004F03CFF1437BD4690BD00BF1CA8000859
:1032200084A8000890A8000880B590B000AF0346BD
:10323000FB71A14B00221A70A04B02221A70FB797D
:10324000012202FA03F3DAB29D4B1B78DBB2DBB248
:103250001343DBB2DAB29A4B1A700023FB6203F01D
:103260002DF8F862954B03221A700023BB810023CE
:1032700087F83F300023BB6200237B6200233B6260
:103280000023BB638F4B7B630023FB830023BB8343
:1032900000237B8300237B8100233B830023FB826D
:1032A00000233B810023BB820023FB740023BB74FB
:1032B00003F004F8B863BB6B3B62804B04221A70C6
:1032C000642004F0E3FE804B5B88BB83FB799BB2F8
:1032D0001A461201D31A9BB203F21E633B833A8B48
:1032E00007F10A031046194606F008FE7B89DBB297
:1032F0009BB27B81642004F0C9FE744B5B889AB258
:10330000714B5B889BB2D31AFB8304F0C7F97048FA
:1033100003F08CFFFA8B6F4BA3FB02135B099BB28C
:10332000DBB2184603F03AFBFB8BDBB2184603F026
:1033300035FB694803F07AFF634B5B889BB2184604
:10334000FDF724FF0120002103F0ACFF634803F0E8
:103350006DFF5E4B5B889BB21846FDF717FF604818
:1033600003F064FF7B891846FDF710FF4FF4FA5015
:1033700004F08CFE7A895B4BA3FB02135B089BB2C3
:10338000FA8B9A4280F05A817B89BA8BD31AFB83DD
:1033900004F084F9544803F049FFFB8B1846FDF70D
:1033A000F5FE0120002103F07DFF504803F03EFFB1
:1033B000BB8B1846FDF7EAFE494803F037FF7B89CF
:1033C0001846FDF7E3FE42F2107004F05FFE0420A1
:1033D000FFF758FA04F062F948E03B4B5B889BB278
:1033E000DAB2FB8BDBB2D31ADAB2414B1A70364B2E
:1033F0005B889BB2FA8B9A4207D802F05FFF0346C4
:1034000005337B630420FFF73DFA0020002103F021
:1034100049FF384803F00AFF354B1B78DAB22D4BD1
:10342000A3FB02135B09DBB2184603F0B7FA304B7B
:103430001B78DBB2184603F0B1FA0A2004F026FE2E
:103440000120002103F02EFF2B4803F0EFFE1E4B5E
:103450005B889BB21846FDF799FEC82004F016FE63
:1034600002F02CFFB863154B05221A707A6BBB6B08
:103470009A42B2D80420FFF735FA4FF47A7004F07C
:1034800005FE0E4B06221A70BB8BDAB20E4B5B8820
:103490009BB2DBB2D31AFB747B891A461346DB005E
:1034A0001344164A82FB03129210DB17D31ABB7423
:1034B000002387F83F30BCE01C000020C200002041
:1034C000F800002000286BEE48000020EC000020EF
:1034D00094A800081F85EB5198A800089CA8000834
:1034E000A0A80008ABAAAAAAA4A80008A8A8000837
:1034F0001E010020ACA80008B4A800086766666634
:103500000A2004F0C3FD97F83F305733DAB2904BEE
:103510001A7000233B83FB799BB21A461201D31A1F
:103520009BB203F21F633B833B8B184603F006FC00
:103530007862FB799BB21A461201D31A9BB203F24E
:1035400021633B833B8B184603F0F8FB3862642011
:1035500004F09CFD97F83F309BB21A46920013444A
:103560009BB203F2A7633B833A8B07F10C0310462F
:10357000194606F0C3FC00237B8600237B7464207D
:1035800004F084FDBB899BB2002B1ED002F096FE96
:1035900002463B6AD21A7B6AB2FBF3F3BB62642039
:1035A00004F074FD6A4BC8221A70C82004F06EFD46
:1035B000BB899BB2DAB2BB6AB3FBF2F102FB01F248
:1035C0009B1A7B7401237B8601E000237B863220DB
:1035D00004F05CFDBB899BB21B0AFB8200233B838A
:1035E000FB799BB2FA8A9A4218D17B8E002B15D0B8
:1035F000574B63221A704FF4C87004F047FD97F8D8
:103600003F30184600F034F997F83F306433DAB2AF
:103610004F4B1A704FF4FA6004F038FD642004F048
:1036200035FD4B4B08221A7097F83F30013387F86D
:103630003F3097F83F30082B7FF662AF322004F01E
:1036400025FD434B09221A70FB799BB21A461201E1
:10365000D31A9BB203F227633B833A8B07F108032B
:103660001046194606F04AFC012387F83F301CE05B
:103670003B891A4697F83F3042FA03F303F00103FF
:10368000002B05D097F83F301846FFF7FBF804E011
:1036900097F83F301846FFF725F9642004F0F6FC50
:1036A00097F83F30013387F83F3097F83F30042BCD
:1036B000DED9274B0A221A7000233B740023FB81BA
:1036C000244B1B783B74234B30221A70322004F0B9
:1036D000DDFCFB799BB21A461201D31A9BB203F2AE
:1036E0001D633B8300237B813A8B07F10A0310465D
:1036F000194606F003FC02F0E1FD78637B897A6BE2
:1037000013447B63144B1B78DBB243F00403DAB23F
:10371000114B1A70114B1B78DBB223F00103DAB2A4
:103720000E4B1A700D4B1B78DBB223F00803DAB294
:103730000A4B1A700023BB63074B1B78DBB243F0C4
:103740000903DAB2044B1A701E2004F09FFC28E033
:10375000C20000201400002017000020C300002039
:103760000020002103F09EFD3A4803F05FFD3A4B34
:103770001B78DBB2184603F011F94FF4FA7004F02D
:1037800085FC01F06BFA7B6BDAB2BB6BDBB2D31A50
:10379000DAB2314B1A7002F091FDB863322004F0B6
:1037A00075FC2E4B1B78DBB203F00803DB10002BFB
:1037B00003D1BA6B7B6B9A42D2D3294B1B78DBB215
:1037C00023F00103DAB2264B1A7001F035FA224BCE
:1037D0000C221A7044F6206004F058FC214B3A7C0D
:1037E0001A701E4B1B78DBB223F00803DAB21B4BB6
:1037F0001A70194B0D221A704FF47A7004F046FCBF
:1038000000F0B6F9FB799BB21A461201D31A9BB2AB
:1038100003F225633B833B8B1846F96A01F018FDE0
:10382000FB79012202FA03F3DBB2DB43DAB20E4B7F
:103830001B78DBB2DBB21340DBB2DAB20A4B1A7090
:103840000A4B01221A70C82004F020FC4037BD4604
:1038500080BD00BFBCA80008C2000020C30000203B
:103860001700002014000020F80000201C00002099
:1038700080B586B000AF0346FB710020012100F047
:10388000C3F80420FFF72EF8322004F0FFFB0023DA
:103890007B61FB799BB21A46920013449BB203F200
:1038A000A6637B827A8A07F110031046194606F058
:1038B00025FB322004F0EAFBFB799BB21A4692000A
:1038C00013449BB203F2A5637B827A8A07F10E034D
:1038D0001046194606F012FB354B5F221A704FF462
:1038E000C87004F0D3FB00237B82FB799BB21A469D
:1038F000920013449BB203F5D5637B822C4B5E226E
:103900001A704FF4C87004F0C1FB7A8A07F10C03F7
:103910001046194606F0F2FA254B5D221A704FF454
:10392000C87004F0B3FB02F0C9FC02463B8A1344A2
:103930007B611F4B5C221A704FF4C87004F0A6FB29
:10394000FB89DBB21846652100F05EF8184B5B225C
:103950001A704FF4C87004F099FB05E0144B5B2219
:103960001A70642004F092FB02F0A8FC02467B6906
:103970009A42F3D30E4B5A221A704FF4C87004F0D7
:1039800085FBFB89DBB21846002100F03DF8084BAF
:1039900059221A704FF4C87004F078FBBB8918469E
:1039A00000F008F8322004F071FB1837BD4680BDE6
:1039B000C200002080B584B000AF0346FB80002326
:1039C000FB6002F07BFC0246FB881344FB60002096
:1039D000012100F019F80420FEF784FF06E00A2018
:1039E00004F054FB0020012100F00EF802F066FC08
:1039F0000246FB689A42F2D30020002100F004F84E
:103A00001037BD4680BD00BF80B584B000AF024610
:103A10000B46FA71BB710023FB81BB79002B0ED0E2
:103A2000FB79012202FA03F3DAB2344B1B78DBB2E2
:103A3000DBB21343DBB2DAB2304B1A700FE0FB7922
:103A4000012202FA03F3DBB2DB43DAB22B4B1B7821
:103A5000DBB2DBB21340DBB2DAB2284B1A70BB79AF
:103A6000012B02D10023BB7113E0BB79652B0CD174
:103A700007F10E0340F21760194606F03FFA0220E4
:103A800004F004FBFB89BB7103E0BB79C3F1640361
:103A9000BB71FB79002B08D1194ABB799BB219463F
:103AA00089000B445B009BB29386FB79012B08D104
:103AB000134ABB799BB2194689000B445B009BB249
:103AC0001387FB79022B08D10D4ABB799BB21946AB
:103AD00089000B445B009BB29387FB79032B09D1D0
:103AE000074ABB799BB2194689000B445B009BB225
:103AF000A2F840301037BD4680BD00BFFA0000205C
:103B00000004004080B584B000AF02460B46FA7155
:103B1000BB710023FB6002F0D1FB03460133FB6065
:103B200002E0022004F0B2FA02F0C8FB0246FB6891
:103B30009A42F6D302F0C2FB0246BB791344FB6003
:103B4000FB7918460121FFF75FFF02E0022004F035
:103B50009DFA02F0B3FB0246FB689A42F6D3FB796A
:103B600018460021FFF750FF1037BD4680BD00BF4B
:103B700080B500AF0320FEF7B5FE0420FEF7B2FECD
:103B80000020FEF7AFFE0120FEF7ACFE0220FEF79C
:103B9000A9FE80BD80B58CB000AF786000237B6249
:103BA00000233B620023FB610023FB620023BB6117
:103BB00000237B6100237B820023FB8100237B7435
:103BC000002387F82B3000233B74002387F82A302A
:103BD000FFF7CEFF44F6206004F058FA002387F880
:103BE0002B30C2E00A2004F051FA97F82B309BB238
:103BF0001A461201D31A9BB203F221637B827B8A9D
:103C0000184603F09BF8B86197F82B309BB21A4620
:103C10001201D31A9BB203F223637B827B8A18467C
:103C200003F08CF87861322004F030FA97F82B30EA
:103C30009BB21A461201D31A9BB203F21E637B8217
:103C40007A8A07F10E031046194606F057F9FB89E8
:103C50001B0A9BB287F82A30322004F017FA464B31
:103C60001B68DAB297F82A3013403B743B7C002B78
:103C700003D0012387F82A3002E0002387F82A3096
:103C8000142004F003FA00233B7497F82B309BB206
:103C90001A461201D31A9BB203F227637B820023D8
:103CA000FB817A8A07F10E031046194606F026F9C1
:103CB0004FF4FA7004F0EAF94FF4FA7004F0E6F900
:103CC000FB893B7497F82B309BB21A461201D31A2A
:103CD0009BB203F225637B827B8A184603F02EF8A1
:103CE000386297F82B309BB21A461201D31A9BB256
:103CF00003F21F637B827B8A184603F01FF8F8618A
:103D00000A2004F0C3F902F0D9FA02463B6A9A424B
:103D100006D902F0D3FA02463B6AD31AFB6201E0ED
:103D20000023FB6202F0CAFA7862FA6AFB699A42DF
:103D300013D97A6ABB699A420FD97A6A7B699A4227
:103D40000BD23B7C002B08D097F82A30012B04D1F2
:103D500097F82B301846FFF767FA322004F096F9EF
:103D600097F82B30013387F82B3097F82B30072B3F
:103D70007FF638AF32E700BFC400002080B500AF47
:103D80004E480421FCF7C4FC4C48FCF7B3FC034646
:103D90001A464B4B1A804A4B1B889BB2002B18D0FB
:103DA0004648FCF799FC0346642202FB03F2444BAD
:103DB0001B889BB292FBF3F39AB2424B1A80424BA0
:103DC0001A683F4B1B889BB2B2FBF3F23F4B1A6061
:103DD00005E03C4B00221A803C4B00221A603C4B11
:103DE0001B78DBB20133DAB2394B1A70384B1B78CF
:103DF000DAB2384B1B78DBB29A425ED9364B1B786D
:103E0000DBB2002B59D12F4B1B889BB2192B1BD92E
:103E10002C4B1B889BB2222B16D8304B1B78DBB265
:103E20001A462F49CB5CDBB2D9B22E4B1B78DBB2E2
:103E3000012000FA03F3DBB2DB43DBB20B40DBB261
:103E4000D9B2274B995413E0244B1B78DBB21A46A6
:103E50002349CB5CDBB2D9B2224B1B78DBB2012009
:103E600000FA03F3DBB20B43DBB2D9B21C4B99541B
:103E70001C4B1B78DBB2002B18D11A4B07221A708F
:103E8000164B1B78DBB20133DAB2144B1A70134BAA
:103E90001B78DBB2042B10D10F4B01221A700F4B91
:103EA00000221A700F4B07221A7006E00D4B1B7888
:103EB000DBB2013BDAB20B4B1A7080BD000400404C
:103EC0005600002058000020000000205C00002068
:103ED00075000020160000207600002077000020EA
:103EE000680000207800002080B500AF4848042119
:103EF000FCF70EFC464B1B8F9AB2464B1A80454B83
:103F00001B889BB2002B0ED0414B9B8E9BB2642230
:103F100002FB03F23F4B1B889BB292FBF3F39AB276
:103F20003D4B1A8005E03C4B00221A803B4B00229F
:103F30001A603B4B1B78DBB20133DAB2384B1A7094
:103F4000374B1B78DAB2374B1B78DBB29A425ED91B
:103F5000354B1B78DBB2002B59D12F4B1B889BB202
:103F6000192B1BD92C4B1B889BB2222B16D82F4BFD
:103F70001B78DBB21A462E49CB5CDBB2D9B22D4B93
:103F80001B78DBB2012000FA03F3DBB2DB43DBB2C8
:103F90000B40DBB2D9B2264B995413E0234B1B786C
:103FA000DBB21A462249CB5CDBB2D9B2214B1B787B
:103FB000DBB2012000FA03F3DBB20B43DBB2D9B270
:103FC0001B4B99541B4B1B78DBB2002B18D1194BA0
:103FD00007221A70154B1B78DBB20133DAB2134B90
:103FE0001A70124B1B78DBB2042B10D10E4B01223E
:103FF0001A700E4B00221A700E4B07221A7006E040
:104000000C4B1B78DBB2013BDAB20A4B1A7080BD55
:104010000040014056000020580000205C000020B5
:104020007500002016000020760000207700002098
:10403000680000207800002080B500AF0B48022106
:10404000FCF766FB094B9B8C9BB2B3F5C87F09D28A
:10405000064B9B8C9BB2002B04D0044B9B8C9AB2DA
:10406000034B5A80014B00229A8480BD00440140DA
:104070004800002080B500AF0E480221FCF748FB45
:104080000D4B9B6803F40073002B0FD1094B9B8CE5
:104090009BB2B3F5C87F09D2064B9B8C9BB2002B19
:1040A00004D0044B9B8C9AB2044B1A80014B002223
:1040B0009A8480BD00480140000C01404800002067
:1040C00080B500AF294B00221A7047E01E2003F094
:1040D000DDFF02F043FB03461A46244B1A70002012
:1040E000002103F0DFF8224B1B78DBB2184602F008
:1040F00055FC204803F09AF81C4B1B78DBB2042BCC
:1041000006D11B4B1B78DBB20133DAB2184B1A70A5
:10411000164B1B78DBB2012B06D1154B1B78DBB29B
:10412000013BDAB2124B1A700120002103F0BAF8F9
:10413000114803F07BF8114811490422022302F0D0
:1041400059F90120072103F0ADF80E4803F06EF88D
:104150000D480B4904220A2302F04CF9034B1B784B
:10416000DBB2022BB2D103F099FA80BDC10000206E
:1041700016000020C4A80008C8A80008800000207D
:104180009C000020CCA800087C00002080B584B0F2
:1041900000AF0346FB71FB79434AA3FB02015A1AA5
:1041A00052080A449209652101FB02F29B1AFB7135
:1041B0003E4B00221A706DE002F0D0FA03461A4618
:1041C0003A4B1A700120032103F06CF8FA79384B4E
:1041D00083FB02139911D317CB1A4FF47A7101FBA9
:1041E00003F3D31A334A82FB03125211DB17D31A9B
:1041F000DBB23B72FB792F4AA2FB03125209642106
:1042000001FB02F29B1ADAB22B4BA3FB0213DB0871
:10421000DBB27B72FA79284BA3FB0213D9080B4659
:104220009B000B445B00D31ADBB2BB72234802F045
:10423000FDFF07F10803184621490322062302F077
:10424000D9F801200C2103F02DF81E4802F0EEFFF2
:104250000A2003F01BFF154B1B78DBB2042B08D19F
:10426000FB79632B03D8FB790133FB7101E0002359
:10427000FB710E4B1B78DBB2012B08D1FB79002BB5
:1042800002D10023FB7102E0FB79013BFB710A20A4
:1042900003F0FCFE054B1B78DBB2022B8CD1FB79C3
:1042A00018461037BD4680BD57866F44C1000020B8
:1042B000D34D62101F85EB51CDCCCCCCD0A80008DB
:1042C0009C000020D4A8000880B582B000AF002375
:1042D000BB800023FB7103F0E1F9204802F0A6FF48
:1042E0000A2003F0D3FE3B1D40F20760194605F09B
:1042F00005FEBB88DBB21846FFF748FF0346FB719B
:104300000A2003F0C3FEFB799BB240F20760194616
:1043100005F040FE03F0C2F9114802F087FF0A20C1
:1043200003F0B4FE3B1D4FF4C160194605F0E6FDF5
:10433000BB88DBB21846FFF729FF0346FB710A2052
:1043400003F0A4FEFB799BB24FF4C160194605F05F
:1043500021FE03F0A3F90837BD4680BDD8A80008A8
:10436000E8A8000880B485B000AF78600023FB6047
:104370007B68FA2202FB03F3FB6000BFFB685A1E56
:10438000FA60002BFAD11437BD465DF8047B704704
:1043900080B582B000AF0023FB8003F07FF9724844
:1043A00002F044FF4FF4FA6003F070FE00F020FBCF
:1043B000282003F06BFE6D4B1B889AB26C4B1A8061
:1043C00003F06CF96B4802F031FF4FF4FA6003F030
:1043D0005DFE00F00DFB282003F058FE634B1B88A8
:1043E0009AB2634B5A8003F059F9634802F01EFFFA
:1043F0004FF4FA6003F04AFE00F0FAFA282003F0C6
:1044000045FE5A4B1B889AB2594B9A8003F046F9E5
:104410005A4802F00BFF4FF4FA6003F037FE00F049
:10442000E7FA282003F032FE504B1B889AB2504B1B
:10443000DA804F4BDB889BB2DB089AB24C4B1B886F
:104440009BB2DB089BB29A4203D24D4B01221A70F9
:1044500012E0474BDB889BB2DB089AB2444B1B88C7
:104460009BB2DB089BB29A4203D9454B00221A70DB
:1044700002E0434B02221A70414B1B78DBB2002B47
:1044800040F082803A4B5B889BB21A46384B1B88BF
:104490009BB2D31ADA0F13445B109BB2053BFB802F
:1044A000334B1B889AB2FB885B089BB2D31A9AB233
:1044B000344B1A802E4B1B889AB2FB8813449AB255
:1044C000304B5A802A4B5B889AB2FB88D31A9AB237
:1044D0002C4B9A80264B9B889BB21A46244B5B88B8
:1044E0009BB2D31ADA0F13445B109BB2053BFB80DF
:1044F0001F4B5B889AB2FB8813449AB2214BDA8037
:104500001B4B9B889AB2FB88D31A9AB21D4B1A8117
:10451000174BDB889BB21A46154B9B889BB2D31A6C
:10452000DA0F13445B109BB2053BFB80104B9B885A
:104530009AB2FB8813449AB2124B5A810C4BDB8817
:104540009AB2FB88D31A9AB20E4B9A81084BDB8839
:104550009AB2FB885B089BB213449AB2094BDA818A
:1045600000F004FA87E000BFD0A80008F0000020A7
:10457000200100204CAC000850AC0008D4A8000872
:10458000C0000020B0000020464B1B78DBB2012B9E
:104590006CD1454B1B889BB21A46434B5B889BB240
:1045A000D31ADA0F13445B109BB2053BFB803E4BE2
:1045B0001B889AB2FB88D31A9AB23C4B1A803A4BAA
:1045C0001B889AB2FB8813449AB2384B5A80364BF8
:1045D0005B889AB2FB88D31A9AB2344B9A80324BDA
:1045E0005B889BB21A46304B9B889BB2D31ADA0F7A
:1045F00013445B109BB2053BFB802B4B5B889AB24C
:10460000FB8813449AB2294BDA80274B9B889AB2D5
:10461000FB88D31A9AB2254B1A81234B9B889BB2F5
:104620001A46214BDB889BB2D31ADA0F13445B1076
:104630009BB2053BFB801C4B9B889AB2FB881344C2
:104640009AB21A4B5A81184BDB889AB2FB88D31A5C
:104650009AB2164B9A81144BDB889AB2FB881344AA
:104660009AB2124BDA8100F081F904E0104802F0AE
:10467000DDFD00F09DF90D4B1B889AB20B4B1B8A98
:104680009BB29A4202D9074B01221A7000200021E6
:1046900002F008FE074802F0C9FD02F0FFFF0837EC
:1046A000BD4680BDC000002020010020B0000020D9
:1046B00058AC000868AC000880B500AF02F0EEFF0F
:1046C0004FF4FA7003F0E2FC3A4B00221A7068E0F3
:1046D00002F044F803461A46364B1A7000200021B7
:1046E00002F0E0FD344802F0A1FD344B1B889AB281
:1046F000334BA3FB02135B099BB2DBB2184602F0FB
:104700004DF92E4B1B889BB2DBB2184602F046F9DE
:104710002C4802F08BFD294B5B889AB2284BA3FBF7
:1047200002135B099BB2DBB2184602F037F9234B48
:104730005B889BB2DBB2184602F030F90120002101
:1047400002F0B0FD204802F071FD1C4B9B889AB22C
:104750001B4BA3FB02135B099BB2DBB2184602F0B2
:104760001DF9164B9B889BB2DBB2184602F016F976
:10477000164802F05BFD114BDB889AB2104BA3FB8D
:1047800002135B099BB2DBB2184602F007F90B4B30
:10479000DB889BB2DBB2184602F000F9142003F06C
:1047A00075FC044B1B78DBB2022B91D102F076FF33
:1047B00080BD00BFC1000020FCA60008F000002062
:1047C0001F85EB5174AC000804A7000878AC000802
:1047D00080B582B000AF0023FB7102F05FFF4FF4A1
:1047E000FA7003F053FC284B00221A7041E001F0EC
:1047F000B5FF03461A46244B1A700020002102F030
:1048000051FD022003F042FC0023FB7109E0FB791B
:104810001E4AD35CDBB21846FCF754FAFB7901332D
:10482000FB71FB79042BF2D9012003F02FFC01204E
:10483000002102F037FD154B5B79DBB21846FCF71F
:1048400041FA124B9B79DBB21846FCF73BFA104851
:1048500002F0ECFC0F4B1B78DBB2184602F09EF81E
:104860000D4B1B78DBB2184602F098F8142003F0C9
:104870000DFC054B1B78DBB2022BB8D102F00EFF0A
:104880000837BD4680BD00BFC1000020A016002033
:10489000FCA70008FB000020FC00002080B582B0CF
:1048A00000AF0023FB7102F0F9FE4FF4FA7003F041
:1048B000EDFB294B00221A7043E001F04FFF034645
:1048C0001A46254B1A700020002102F0EBFC022052
:1048D00003F0DCFB0023FB7109E0FB791F4AD35C8A
:1048E000DBB21846FCF7EEF9FB790133FB71FB797B
:1048F000042BF2D9012003F0C9FB0120002102F0B2
:10490000D1FC164B5B79DBB21846FCF7DBF9134B95
:104910009B79DBB21846FCF7D5F9114802F086FC0A
:10492000FCF7FAFD0F4B1B78DBB2184602F036F8A5
:104930000A480D490722092301F05CFD142003F009
:10494000A5FB054B1B78DBB2022BB6D102F0A6FE0D
:104950000837BD4680BD00BFC1000020C81600203A
:10496000FCA70008530000209C00002080B582B006
:1049700000AF0023FB710023FB7110E0FB799BB2B9
:1049800003F20A639AB2F979084B33F811309BB2FB
:104990001046194605F0FEFAFB790133FB71FB79ED
:1049A000072BEBD90837BD4680BD00BFB000002003
:1049B00080B582B000AF0023FB710023FB710FE0D4
:1049C000FB799BB203F20A639AB2FB795900074B59
:1049D0000B441046194605F091FAFB790133FB713F
:1049E000FB79072BECD90837BD4680BDB00000200D
:1049F00080B49BB000AF002387F86730002387F8AE
:104A0000663000233B660023FB650023BB65002363
:104A10007B65002387F8663077E0002387F86730EE
:104A200048E097F8671097F8673001335B0007F1AB
:104A30006802134433F8282C4B0007F168010B443B
:104A400023F8282C97F8671097F8673001335B003C
:104A500007F16802134433F83C2C4B0007F168015E
:104A60000B4423F83C2C97F8671097F86730013314
:104A70005B0007F16802134433F8502C4B0007F138
:104A800068010B4423F8502C97F8671097F86730AB
:104A900001335B0007F16802134433F8642C4B00C8
:104AA00007F168010B4423F8642C97F86730013351
:104AB00087F8673097F86730082BB2D9274BDB6B44
:104AC0009BB2A7F85230254B1B6C9BB2FB87234B44
:104AD0005B6C9BB27B85214B9B6C9BB2FB82B7F8D6
:104AE00052303A6E13443B66FB8FFA6D1344FB65FC
:104AF0007B8DBA6D1344BB65FB8A7A6D13447B656D
:104B000097F86630013387F8663097F86630082BDF
:104B100083D93A6E124BA3FB0213DB089AB2114BF6
:104B20001A80FA6D0E4BA3FB0213DB089AB20D4BF1
:104B30005A80BA6D0A4BA3FB0213DB089AB2094BE9
:104B40009A807A6D064BA3FB0213DB089AB2054BE1
:104B5000DA806C37BD465DF8047B70470024014065
:104B6000CDCCCCCCF000002080B584B000AF0346A3
:104B7000FB7100237B730023FB8102F08FFD00207B
:104B8000002102F08FFB1F4802F050FBFB7901333C
:104B9000FB71FB79184601F001FF1B4802F046FB50
:104BA000FB79013BFB71FB799BB203F2FF53FB8165
:104BB000FA8907F10D031046194605F09FF93220D6
:104BC00003F064FA7B7B184600F01EFC03467B73FF
:104BD000322003F05BFAFB799BB203F2FF53FB81B7
:104BE0007B7BFA891046194605F0D4F9052003F0BD
:104BF0004DFA02F03DFA052003F048FA1037BD46A1
:104C000080BD00BF7CAC000884AC000880B500AF5C
:104C1000012003F03BFA02F041FD064802F006FBDA
:104C20004FF4FA7003F032FA02F038FD012003F07D
:104C30002DFA80BD4CAC000880B400AF4FF080432B
:104C40004FF47A729A874FF080434FF47A72A3F848
:104C50004020BD465DF8047B704700BF80B582B040
:104C600000AF0023FB80314B1B78DBB203F0010364
:104C7000002B55D02E4B1B78DBB203F00803DB1062
:104C8000002B4DD12A4B1B78DBB203F00103002B24
:104C900046D1284B1B78DBB2302B41D1264B9B8869
:104CA0009AB2264B1B889BB29A4205D9244B4FF4EB
:104CB0007A721A80FFF7C0FF1F4B9B889AB2214B74
:104CC0001B889BB29A422AD21F4B1B78DBB2C3F1DE
:104CD00064039BB21A46920013445B009AB2184BCD
:104CE0001A804FF08042184B1B78DBB2C3F164038B
:104CF0009BB2194689000B445B009BB293874FF02F
:104D00008042114B1B78DBB2C3F164039BB219469E
:104D100089000B445B009BB2A2F8403002E001E046
:104D2000FFF78AFF0837BD4680BD00BF170000208F
:104D3000C300002014000020F0000020E20000204A
:104D400020000020E4000020DF00002080B588B0B3
:104D500000AF78600023FB770023BB770023BB61A3
:104D600000237B6100233B6144F6206003F08EF951
:104D700001F0A4FAB8610023FB776FE0FB7F9BB2E0
:104D80001A46920013449BB203F2DA53FB81FB896B
:104D9000184601F0D3FF7861FB8902339BB21846B5
:104DA00001F0CCFF38617B69574AA2FB0312120C59
:104DB000564901FB02F29B1A7B613B69524AA2FBF6
:104DC0000312120C514901FB02F29B1A3B61BB69B1
:104DD0004D4AA2FB0312120C4C4901FB02F29B1A32
:104DE000BB61052003F052F9BA693B699A4206D2C9
:104DF000BA697B699A4202D90123BB7701E000239B
:104E0000BB777A693B699A420CD9BA697B699A4245
:104E100006D2BA693B699A4202D90023BB7701E006
:104E20000123BB77BB7F012B0AD1FB7F012202FA52
:104E300003F31A46364B1B681A43354B1A600AE0D7
:104E4000FB7F012202FA03F3DB431A46304B1B6857
:104E50001A402F4B1A60FB7F0133FB77FB7F032B3C
:104E60008CD9052003F012F90023FB7747E0FB7F84
:104E70009BB21A46920013449BB203F5B863FB81C0
:104E8000FB89184601F05AFF7861FB8902339BB217
:104E9000184601F053FF3861052003F0F7F801F0E0
:104EA0000DFAB861BB693A69B3FBF2F2396901FBEB
:104EB00002F29B1ABB61BA697B699A420CD2012348
:104EC000BB77FB7F012202FA03F31A46114B1B68E2
:104ED0001A43104B1A600CE00023BB77FB7F0122C2
:104EE00002FA03F3DB431A460A4B1B681A40094BCC
:104EF0001A60052003F0CAF8FB7F0133FB77FB7FC4
:104F0000022BB4D934E700BF07452EC280510100FF
:104F1000C4000020C800002080B584B000AF7860D5
:104F20000023FB730023BB7300237B7300233B73BD
:104F30007A4B1B78DBB2FA2B02D9784B00221A701D
:104F4000764B1B78DBB20133DAB2744B1A70744BB8
:104F50001B78DBB2332B00F0DD8000233B73D5E000
:104F600000237B733B7B6F4AD35CBB73BB7B1F2BE4
:104F700014D8BB7B012202FA03F3DAB26A4B1B6836
:104F8000DBB21340FB73FA7BBB7B42FA03F3FB7388
:104F90003A7BFB7B1046194600F014F9BB7B3F2B94
:104FA00007D9BB7B422B04D802237B73BB7B203BFE
:104FB000BB73BB7B422B07D9BB7B442B04D8032399
:104FC0007B73BB7B233BBB73BB7B452B04D9BB7B78
:104FD000472B01D804237B73BB7B502B01D10523C6
:104FE0007B73BB7B632B06D1FF237B733B7B184614
:104FF000012100F0E7F8BB7B622B06D1FE237B7317
:105000003B7B1846002100F0DDF8BB7B1F2B14D939
:10501000BB7B3F2B11D8BB7B203BBB73BB7B0122EF
:1050200002FA03F3DAB2414B1B68DBB21340FB73A5
:10503000FA7BBB7B42FA03F3FB737B7B022B13D11E
:10504000FB7B002B5CD13A4B1B889BB21A463B7B07
:1050500042FA03F303F00103002B51D03B7B1846C7
:10506000002100F0AFF84BE07B7B032B48D1FB7BAA
:10507000012B17D12E4B1B889BB21A463B7B42FA61
:1050800003F303F00103002B0CD1BB7B002B09D1F0
:10509000284B1B78DBB2012B04D13B7B1846012146
:1050A00000F090F8FB7B012B17D1214B1B889BB2A2
:1050B0001A463B7B42FA03F303F00103002B0CD1A9
:1050C000BB7B002B09D11B4B1B78DBB2002B04D11F
:1050D0003B7B1846012100F075F8FB7B002B0FD1BC
:1050E000134B1B889BB21A463B7B42FA03F303F037
:1050F0000103002B04D03B7B1846002100F062F82E
:10510000012002F0C3FF3B7B01333B733B7B032B4E
:105110007FF626AF052002F0B9FF09E70001002065
:105120001400002018000020C4000020C800002047
:10513000DA0000208800002080B582B000AF002394
:10514000FB710023BB711D4B33221A702CE0002031
:10515000002102F0A7F81A4802F068F8FB79184617
:1051600001F01CFCBB79012B07D1FB790133FB71EA
:10517000FB79042B01D10023FB71BB79022B04D1F5
:10518000FB791846012100F01DF8BB79032B04D1EF
:10519000FB791846002100F015F80A2002F076FF8E
:1051A00001F0DCFA0346BB71BB79042BCFD1034B72
:1051B00030221A700837BD4680BD00BF14000020A1
:1051C000B0AC000880B483B000AF02460B46FA7161
:1051D000BB71FB79002B03D1BB79C3F10103BB7118
:1051E000BB79012B14D1184BFA79012101FA02F293
:1051F0001A61FB79012202FA03F39AB2134B1B885E
:105200009BB29BB213439BB29AB2104B1A8015E02B
:105210000D4BFA79012101FA02F25A61FB79012260
:1052200002FA03F39BB2DB439AB2084B1B889BB292
:105230009BB213409BB29AB2044B1A800C37BD4606
:105240005DF8047B704700BF00100140DA000020C9
:1052500080B584B000AF03463960FB803B68FB81BA
:105260003B681B0CBB81FB8801339AB2FB8910465B
:10527000194604F08FFEFA88BB891046194604F0DF
:1052800089FE1037BD4680BD80B586B000AF0346AD
:10529000FB7100237B610023FB7402F0FFF9FB79B3
:1052A000013B1B2B00F2A78001A252F823F000BFA4
:1052B000F75300082153000827530008395300080A
:1052C0003F530008F7530008F75300084553000800
:1052D00069530008F7530008F7530008F753000814
:1052E0008D530008F753000893530008F753000844
:1052F000F753000899530008BD530008F7530008FE
:10530000D9530008DF530008E5530008F75300089D
:10531000F7530008F7530008F1530008F75300084B
:10532000FDF7B2FB67E0FEF7CBFEFFF7C5F9FFF72D
:105330004FFAFFF7B3FA5EE0FDF744FB5BE0FFF7DF
:10534000FBFE58E02D4801F071FF012004210122ED
:1053500000F0A8FA0346FB74FB7C013BFB74FB7C6A
:10536000184600F0E7FA46E0254801F05FFF01200B
:105370000421012200F096FA0346FB74FB7C013BFA
:10538000FB74FB7C184600F015FA34E0FDF7E0F9F9
:1053900031E0FEF799FF2EE01A4801F047FF0120A7
:1053A0000421012200F07EFA0346FB74FB7C013BE2
:1053B000FB74FB7C1846FFF7D7FB1CE000F07EFF78
:1053C00078617869012100F02FFBF860F86800F03F
:1053D00087FF02F063F90EE0FDF7BEFD0BE0FDF77D
:1053E0009FFD08E0002000216422FBF7FDFD02E0A4
:1053F000FDF7A4FE00BF1837BD4680BDB8AC00085D
:10540000CCAC0008E0AC000880B582B000AF034629
:10541000FB71FB79632B01D96323FB71224B0022C3
:105420001A7035E001F09AF903461A461E4B1A70BD
:10543000192002F02BFE1C4B1B78DBB2012B08D18C
:10544000FB79012B02D8FF23FB7102E0FB79013BC2
:10545000FB71154B1B78DBB2042B08D1FB79FF2BBA
:1054600002D10123FB7102E0FB790133FB710120C2
:10547000002101F017FF0D4801F0D8FEFB79184616
:10548000FBF720FC0A4801F0D1FE192002F0FEFDD6
:10549000054B1B78DBB2022BC4D1FFF7B7FBFB79BE
:1054A00018460837BD4680BDC100002028AD000861
:1054B0002CAD000880B582B000AF0346FB80FA88AF
:1054C0004FF6FF739A4201D10023FB80244B002248
:1054D0001A7038E001F042F903461A46204B1A7060
:1054E000192002F0D3FD1E4B1B78DBB2012B09D132
:1054F000FB88002B03D14FF6FF73FB8002E0FB8893
:10550000013BFB80164B1B78DBB2042B0AD1FA88D7
:105510004FF6FF739A4202D10023FB8002E0FB8822
:105520000133FB800120042101F0BCFE0D4801F095
:105530007DFEFB881846FBF729FE0B4801F076FE3E
:10554000192002F0A3FD064B1B78DBB2022BC1D160
:10555000FFF75CFBFB8818460837BD4680BD00BFDF
:10556000C100002028AD00082CAD000880B586B031
:1055700000AF02460B46FA807B71FA884FF6FF7344
:105580009A4201D10023FB80C82002F07FFD254B09
:1055900000221A703AE001F0E1F803461A46214B66
:1055A0001A707B79184602F071FD1E4B1B78DBB236
:1055B000012B09D1FB88002B03D14FF6FF73FB8031
:1055C00002E0FB88013BFB80164B1B78DBB2042B0F
:1055D0000AD1FA884FF6FF739A4202D10023FB806A
:1055E00002E0FB880133FB800120042101F05AFE18
:1055F0000D4801F01BFEFB881846FBF7C7FD0B4862
:1056000001F014FE7B79184602F040FD054B1B7833
:10561000DBB2022BBFD1FFF7F9FAFB881846183727
:10562000BD4680BDC100002028AD00082CAD00089B
:1056300080B586B000AF786079685A4BA3FB012330
:105640005A0913461B019B1A9B00CA1A13467B7505
:105650007A68544BA3FB02135B097B607968514B5A
:10566000A3FB01235A0913461B019B1A9B00CA1A6C
:105670001346BB757A684B4BA3FB02135B097B6037
:105680007968494BA3FB01239A0913465B00134435
:105690005A011344CA1A1346FB7501F0FFFF142088
:1056A00002F0F4FC73E001F059F803463B753B7DD2
:1056B000012B08D1FB7D622B02D90023FB7502E090
:1056C000FB7D0133FB753B7D022B08D1BB7D3A2B63
:1056D00002D90023BB7502E0BB7D0133BB753B7D66
:1056E000032B08D17B7D3A2B02D900237B7502E086
:1056F0007B7D01337B75052002F0C8FC002004216E
:1057000001F0D0FDFB7D184601F048F9274801F073
:105710008DFDBB7D184601F041F9244801F086FD5E
:105720007B7D184601F03AF9052002F0AFFCFB7DC5
:10573000FB74BB7DBB747B7D7B74FB7C4FF461622F
:1057400002FB03F37B60BA7C13461B019B1A9B0090
:105750007A6813447B607B7C7A6813447B60052005
:1057600002F094FC0120032101F09CFD07F10803E5
:105770007868194601F0FCF907F1080318460C494E
:105780000A22022300F036FE0A2002F07FFC3B7D55
:10579000042B88D1FFF73AFA7B6818461837BD46C4
:1057A00080BD00BF8988888803B57EA530AD00081C
:1057B0009C00002080B584B000AF0346FB710A2036
:1057C00002F064FC01F06AFFFB799BB21A4692007A
:1057D00013449BB203F5B8637B817B89184601F0C3
:1057E000ADFAF860FA682C4B9A4201D92A4BFB605B
:1057F0000020022101F056FD284801F017FD40F677
:10580000B83002F043FCF868FFF712FFF860FB794C
:105810009BB21A46920013449BB203F5B8637B8196
:105820007B891846F968FFF713FD322002F02EFC41
:10583000FFF7ECF9FB799BB21A46920013449BB236
:1058400003F2C2537B817B89184601F077FAF86036
:1058500001F024FF0020022101F024FD104801F096
:10586000E5FC4FF4FA7002F011FCF868FFF7E0FE77
:10587000F860FB799BB21A46920013449BB203F284
:10588000C2537B817B891846F968FFF7E1FCFFF77B
:10589000BDF91037BD4680BD3070050034AD00083D
:1058A00044AD000880B582B000AF13460246FA71DD
:1058B0000A46BA717B711E4B00221A702BE0192028
:1058C00002F0E4FB0120002101F0ECFC7B7918469A
:1058D00001F064F8164B1B78DBB2042B06D17A7901
:1058E000BB799A4202D27B7901337B71104B1B78D2
:1058F000DBB2012B06D17A79FB799A4202D97B7906
:10590000013B7B7100F02AFF03461A46084B1A70D0
:10591000192002F0BBFB064B1B78DBB2022BCED169
:10592000FFF774F97B7918460837BD4680BD00BF84
:10593000C100002080B586B000AF0346FB71FB7943
:105940009BB21A46920013449BB203F2DA53FB82D5
:1059500001F0A4FE0020022101F0A4FC304801F077
:1059600065FC40F2DC5002F091FB01F097FE322022
:1059700002F08CFBFB8A184601F0E0F93861322016
:1059800002F084FB3869012100F04EF8F860FB8AD0
:105990001846F968FFF75CFC0020022101F082FC48
:1059A000204801F043FC322002F070FB02F0D0FBF3
:1059B000FB799BB21A46920013449BB203F2DC536C
:1059C000FB82FB8A184601F0B9F9386102F0CEFB80
:1059D00040F2DC5002F05AFB01F060FE3869012110
:1059E00000F022F8F860FB8A1846F968FFF730FCEF
:1059F00002F0AEFBFB799BB21A46920013449BB2B5
:105A000003F2DE53FB82FB8A184601F097F93861F6
:105A100002F0ACFB322002F039FB1837BD4680BDE6
:105A200054AD000860AD000890B593B000AF786148
:105A30000B46FB7401F032FE07F134031846796916
:105A400000F074F985E000F089FE03461A46A34B86
:105A50001A70A24B1B78DBB2012B09D1BB8E162B1F
:105A600002D90023BB8603E0BB8E01339BB2BB8609
:105A70009A4B1B78DBB2022B09D1FB8E3A2B02D951
:105A80000023FB8603E0FB8E01339BB2FB86934B26
:105A90001B78DBB2032B09D13B8F3A2B02D90023B1
:105AA0003B8703E03B8F01339BB23B87052002F02D
:105AB000EDFA0020002101F0F5FBBB8EDBB21846A9
:105AC00000F06CFF864801F0B1FBFB8EDBB218469C
:105AD00000F064FF824801F0A9FB3B8FDBB218465F
