:020000040800F2
:100000002C1D0020D907000835AD000841AD0008BF
:1000100049AD000851AD000859AD000800000000CE
:1000200000000000000000000000000009BC000803
:1000300061AD000800000000B1BD0008F5BD00087A
:10004000350800083508000835080008350800089C
:100050003508000835080008953B0008B13B00084A
:10006000CD3B0008350800083508000835080008B1
:100070003508000835080008013600081D3600085C
:1000800035080008350800083508000800000000A1
:10009000000000000000000000000000BD5B000840
:1000A00035080008A55B0008B15B000835080008AA
:1000B0003508000835080008915C00086DAD00089F
:1000C00025B3000801B000088DB20008350800080B
:1000D00035080008CD1B0008350800083508000861
:1000E000D93B00083508000835080008000000006A
:1000F0000000000000000000000000000000000000
:1001000000000000000000000000000000000000EF
:100110000000000000000000350800083508000855
:100120005FF808F180B588B000AF786007F1080388
:10013000184609F0C9F9FB68094AA2FB03235B0BC7
:100140007A6802FB03F3FB610023FB6102E0FB69B9
:10015000013BFB61FB69002BF9D12037BD4680BD17
:100160005917B7D180B485B000AF786039600023EB
:10017000FB817B681B88FB817B682E4A934213D0EE
:100180007B682D4A93420FD07B68B3F1804F0BD030
:100190007B682A4A934207D07B68294A934203D05E
:1001A0007B68284A934208D1FB8923F07003FB81C6
:1001B0003B685A88FB891343FB817B68224A934240
:1001C0000CD07B68214A934208D0FB8923F440730A
:1001D000FB813B68DA88FB891343FB817B68FA89E2
:1001E0001A803B689A887B689A853B681A887B6886
:1001F0001A857B680F4A93420FD07B680E4A934260
:100200000BD07B68124A934207D07B68114A934215
:1002100003D07B68104A934204D13B681B7A9AB2A0
:100220007B681A867B6801229A821437BD465DF886
:10023000047B7047002C0140003401400004004062
:1002400000080040000C0040001000400014004076
:1002500000400140004401400048014080B485B0A6
:1002600000AF7860396000237B810023FB8100238D
:10027000BB817B681B8C9BB223F001039AB27B6825
:100280001A847B681B8CFB817B689B88BB817B68A5
:100290001B8B7B817B8923F070037B817B8923F01F
:1002A00003037B813B681A887B8913437B81FB892D
:1002B00023F00203FB813B681A89FB891343FB810E
:1002C0003B685A88FB891343FB817B68244A93422D
:1002D0000FD07B68234A93420BD07B68224A93421B
:1002E00007D07B68214A934203D07B68204A93421F
:1002F00023D1FB8923F00803FB813B685A89FB89E2
:100300001343FB81FB8923F00403FB813B689A883C
:10031000FB891343FB81BB8923F48073BB81BB89B9
:1003200023F40073BB813B689A89BB891343BB816B
:100330003B68DA89BB891343BB817B68BA899A80A1
:100340007B687A891A833B68DA887B689A867B683F
:10035000FA891A841437BD465DF8047B704700BFE4
:10036000002C0140003401400040014000440140A5
:100370000048014080B485B000AF78603960002348
:100380007B810023FB810023BB817B681B8C9BB29C
:1003900023F010039AB27B681A847B681B8CFB8164
:1003A0007B689B88BB817B681B8B7B817B8923F46B
:1003B000E0437B817B8923F440737B813B681B880E
:1003C0001B029AB27B8913437B81FB8923F02003B4
:1003D000FB813B681B891B019AB2FB891343FB819C
:1003E0003B685B881B019AB2FB891343FB817B68E6
:1003F000224A934203D07B68214A93422BD1FB8946
:1004000023F08003FB813B685B891B019AB2FB8967
:100410001343FB81FB8923F04003FB813B689B88EE
:100420001B019AB2FB891343FB81BB8923F48063D0
:10043000BB81BB8923F40063BB813B689B899B0024
:100440009AB2BB891343BB813B68DB899B009AB29C
:10045000BB891343BB817B68BA899A807B687A89A0
:100460001A833B68DA887B681A877B68FA891A8462
:100470001437BD465DF8047B704700BF002C014077
:100480000034014080B485B000AF7860396000234B
:100490007B810023FB810023BB817B681B8C9BB28B
:1004A00023F480739AB27B681A847B681B8CFB816F
:1004B0007B689B88BB817B689B8B7B817B8923F0DE
:1004C00070037B817B8923F003037B813B681A885F
:1004D0007B8913437B81FB8923F40073FB813B6899
:1004E0001B891B029AB2FB891343FB813B685B8823
:1004F0001B029AB2FB891343FB817B68224A934219
:1005000003D07B68214A93422BD1FB8923F40063FB
:10051000FB813B685B891B029AB2FB891343FB8119
:10052000FB8923F48063FB813B689B881B029AB2A2
:10053000FB891343FB81BB8923F48053BB81BB89B7
:1005400023F40053BB813B689B891B019AB2BB8992
:100550001343BB813B68DB891B019AB2BB89134300
:10056000BB817B68BA899A807B687A899A833B6869
:10057000DA887B689A877B68FA891A841437BD46C3
:100580005DF8047B704700BF002C0140003401403F
:1005900080B485B000AF786039600023BB81002350
:1005A0007B810023FB817B681B8C9BB223F48053EF
:1005B0009AB27B681A847B681B8C7B817B689B88E2
:1005C000FB817B689B8BBB81BB8923F4E043BB81B0
:1005D000BB8923F44073BB813B681B881B029AB222
:1005E000BB891343BB817B8923F400537B813B6828
:1005F0001B891B039AB27B8913437B813B685B8811
:100600001B039AB27B8913437B817B68124A934216
:1006100003D07B68114A93420AD1FB8923F48043BB
:10062000FB813B689B899B019AB2FB891343FB8149
:100630007B68FA899A807B68BA899A833B68DA88F2
:100640007B68A3F840207B687A891A841437BD46FA
:100650005DF8047B704700BF002C0140003401406E
:1006600080B483B000AF78607B684FF6FF729A80E9
:100670007B6800221A807B680022DA807B68002277
:100680005A807B6800221A720C37BD465DF8047BE5
:10069000704700BF80B483B000AF78607B680022F1
:1006A0001A807B6800225A807B6800229A807B68CF
:1006B0000022DA807B6800221A817B6800225A813E
:1006C0007B6800229A817B680022DA810C37BD4664
:1006D0005DF8047B704700BF80B483B000AF7860E2
:1006E0000B46FB70FB78002B08D07B681B889BB205
:1006F00043F001039AB27B681A8007E07B681B888D
:100700009BB223F001039AB27B681A800C37BD4676
:100710005DF8047B704700BF80B483B000AF7860A1
:100720000B46FB70FB78002B0CD07B68B3F8443091
:100730009BB26FEA43436FEA53439AB27B68A3F8D4
:10074000442009E07B68B3F844309BB2C3F30E0346
:100750009AB27B68A3F844200C37BD465DF8047B51
:10076000704700BF80B485B000AF78600B467B80D7
:100770000023FB730023BB8100237B817B681B8AE2
:100780009AB27B881340BB817B689B899AB27B8835
:1007900013407B81BB89002B05D07B89002B02D0C5
:1007A0000123FB7301E00023FB73FB7B1846143726
:1007B000BD465DF8047B704780B483B000AF7860BD
:1007C0000B467B807B88DB439AB27B681A820C37AE
:1007D000BD465DF8047B704780B582B000AF104B1A
:1007E0007B60104B3B6007E03B681A1D3A607A68FB
:1007F000111D796012681A603B680B4A9342F3D36B
:100800000A480B494FF000028842B8BF40F8042B59
:10081000FADB00F013F808F07DF90837BD4680BD1B
:1008200040D100080000002080000020800000204F
:100830002C19002080B400AFFEE700BF80B500AFE8
:10084000164A164B1B6843F0010313601349134B00
:100850005A68134B13404B60104A104B1B6823F02F
:10086000847323F4803313600C4A0C4B1B6823F40D
:1008700080231360094A094B5B6823F4FE0353602D
:10088000064B4FF41F029A60044B0022DA6200F01C
:100890000BF8044B4FF000629A6080BD00100240DC
:1008A0000000FFF800ED00E080B500AF00F002F8B6
:1008B00080BD00BF80B483B000AF00237B60002305
:1008C0003B60304A2F4B1B6843F4803313602D4B41
:1008D0001B6803F400333B607B6801337B603B683B
:1008E000002B03D17B68B3F5A06FF0D1254B1B68BB
:1008F00003F00203002B02D001233B6001E0002340
:100900003B603B68012B37D11E4A1E4B5B6853602E
:100910001C4A1C4B5B6853601A4A1A4B5B68536055
:10092000184A184B5B6823F47C135360154A154B27
:100930005B6843F498135360124A124B1B6843F0F0
:100940008073136000BF0F4B1B6803F00073002B14
:10095000F9D00C4A0B4B5B6823F003035360094A40
:10096000084B5B6843F00203536000BF054B5B68B4
:1009700003F00C03082BF9D10C37BD465DF8047B5E
:10098000704700BF0010024080B483B000AF034640
:100990000A46FB711346BB71034B00221A700C37D9
:1009A000BD465DF8047B70470000002080B489B02C
:1009B00000AF786039600023FB6100233B610023B6
:1009C000BB610023FB6000237B610023BB603B68AD
:1009D000DB7803F00F03FB613B68DB7803F0100367
:1009E000002B05D03B689B781A46FB691343FB61DB
:1009F0003B681B88DBB2002B44D07B681B687B61A3
:100A00000023BB6138E0BB69012202FA03F3FB60FB
:100A10003B681B881A46FB6813403B613A69FB68D8
:100A20009A4226D1BB699B00FB60FB680F2202FA49
:100A300003F3BB60BB68DB437A6913407B61FB68EF
:100A4000FA6902FA03F37A6913437B613B68DB7846
:100A5000282B05D1BB6901229A407B685A6108E0C6
:100A60003B68DB78482B04D1BB6901229A407B6844
:100A70001A61BB690133BB61BB69072BC3D97B68B2
:100A80007A691A603B681B88FF2B4AD97B685B68D0
:100A90007B610023BB613EE0BB6908331A4601233A
:100AA0009340FB603B681B881A46FB6813403B6120
:100AB0003A69FB689A422BD1BB699B00FB60FB68DB
:100AC0000F2202FA03F3BB60BB68DB437A69134071
:100AD0007B61FB68FA6902FA03F37A6913437B616D
:100AE0003B68DB78282B07D1BB6908331A46012302
:100AF00003FA02F27B685A613B68DB78482B07D126
:100B0000BB6908331A46012303FA02F27B681A61B3
:100B1000BB690133BB61BB69072BBDD97B687A69AF
:100B20005A602437BD465DF8047B704780B483B0BB
:100B300000AF78607B684FF6FF721A807B680222F4
:100B40009A707B680422DA700C37BD465DF8047B2E
:100B5000704700BF80B487B000AF78600B46FB7071
:100B600000233B610023FB6000237B610023BB600B
:100B70007B68002B03DA2E4BDB697B6102E02C4B98
:100B80005B687B617B6803F470231B0CBB607B6834
:100B90009BB23B617B6803F44013B3F5401F0AD15D
:100BA0007B6923F070637B61214A214B5B6823F0F2
:100BB0007063536021E07B6803F48013002B0ED038
:100BC000BB68032202FA03F3FB60FB68DB437A692C
:100BD00013407B617B6943F070637B610DE07B6850
:100BE0005B0D1B011A463B699340DB437A69134056
:100BF0007B617B6943F070637B61FB78002B08D0DD
:100C00007B685B0D1B011A463B6993407A6913436D
:100C10007B617B68002B03DA054A7B69D36102E0C4
:100C2000034A7B6953601C37BD465DF8047B7047FF
:100C30000000014090B484B000AF03460A46FB7147
:100C40001346BB710023FB60BB7903F003039B00D9
:100C50000F2202FA03F3FB601649BB799B08DBB253
:100C60001846144ABB799B08DBB2023352F82320A2
:100C7000FB68DB431A40831C41F823200D48BB79F5
:100C80009B08DBB21C460B4ABB799B08DBB20233E4
:100C900052F82320F979BB7903F003039B0001FA92
:100CA00003F31A43A31C40F823201037BD4690BC21
:100CB000704700BF0000014080B483B000AF03461E
:100CC000FB71084997F907305B09FA7902F01F02B6
:100CD000012000FA02F241F823200C37BD465DF8EE
:100CE000047B704700E100E080B483B000AF0346AE
:100CF000FB71094997F907305B09FA7902F01F0285
:100D0000012000FA02F2203341F823200C37BD46BF
:100D10005DF8047B704700BF00E100E080B483B061
:100D200000AF0346FB71FB79002B02D0012B05D0ED
:100D300009E0074B4FF480425A6104E0044B4FF442
:100D400000425A6100BF0C37BD465DF8047B704716
:100D5000000C014080B483B000AF0346FB71FB7907
:100D6000002B02D0012B05D009E0074B4FF4804245
:100D70001A6104E0044B4FF400421A6100BF0C37C3
:100D8000BD465DF8047B7047000C014080B582B021
:100D900000AF0346FB71FB79184600F09BFAFB7924
:100DA0001846FFF7BBFF45F2082008F019FDFB7954
:100DB0001846FFF7CFFFFB79184600F023FA094BDE
:100DC00007221A70084B00221A70084B00221A7072
:100DD000074B00221A70074B00221A800837BD46C5
:100DE00080BD00BF24000020B9000020BB0000200F
:100DF000BA0000209C00002080B584B000AF0346FC
:100E0000FB710120FFF7A6FF192008F053FE002315
:100E1000FB7306E0FB7B0F4A0021D154FB7B0133BF
:100E2000FB73FB7B042BF5D90B4B00221A8025208A
:100E3000FFF75AFFFB791846FFF7A8FFC82008F014
:100E400039FE2520FFF738FF00F008F81037BD46BF
:100E500080BD00BF241900209C00002080B582B016
:100E600000AF0A2008F026FE0023FB71804B1B78A0
:100E7000DBB2012B40F0B0810A2008F01BFE7D4B55
:100E80001B781B029AB27B4B5B789BB213449AB2DD
:100E9000794B5A80774B9B781B029AB2754BDB7863
:100EA0009BB213449AB2744B1A80724B1A79724BEC
:100EB0001A71714B5B889AB2704B1B889BB29A4235
:100EC0000AD96D4B5B889AB26D4B1B889BB29A42D4
:100ED00002D26C4B00221A70674B5B889AB2674B48
:100EE0001B889BB29A4202D2664B01221A70624B57
:100EF0005B889AB2624B1B889BB29A4202D9614BC3
:100F000002221A705B480021042200F01BFA0346FB
:100F10001A46584B1B799A4240F05E810A2008F02D
:100F2000C9FD594B1B78DBB2002B03D0012B00F01D
:100F30009B804EE10023FB7108E0FB79FA794D4973
:100F4000895C524AD154FB790133FB71FB79032B45
:100F5000F3D90A2008F0AEFD474B1B889BB24C4AE0
:100F6000A2FB031292094FF47A7101FB02F29B1A61
:100F70009BB2484AA2FB03235B099BB2DBB230332E
:100F8000DAB2454B1A703C4B1B889BB2414AA2FB1C
:100F900003125209642101FB02F29B1A9BB23F4AE1
:100FA000A2FB0323DB089BB2DBB23033DAB23A4B4D
:100FB0005A70394B2E229A702F4B1B889AB2374B9E
:100FC000A3FB0213D9080B469B000B445B00D31A0A
:100FD0009BB2DBB23033DAB22F4BDA700A2008F062
:100FE00069FD254B5B889BB2294AA2FB031292093B
:100FF0004FF47A7101FB02F29B1A9BB2254AA2FBC5
:1010000003235B099BB2DBB23033DAB2244B1A7094
:10101000194B5B889BB21F4AA2FB03125209642141
:1010200001FB02F29B1A9BB21C4AA2FB0323DB08C2
:101030009BB2DBB23033DAB2194B5A70184B2E2206
:101040009A700D4B5B889AB2144BA3FB0213D9081C
:101050000B469B000B445B00D31A9BB2DBB23033D0
:10106000DAB20F4BDA70B4E00023FB7123E000BF6B
:10107000BA00002024190020A400002098000020BD
:10108000960000209A00002025000020AC000020DF
:10109000D34D62101F85EB51C0000020CDCCCCCCCD
:1010A000BC000020FB79FA794D49895C4D4AD15446
:1010B000FB790133FB71FB79032BF3D90A2008F08C
:1010C000F9FC494B1B889BB2484AA2FB03129209C8
:1010D0004FF47A7101FB02F29B1A9BB2444AA2FBC5
:1010E00003235B099BB2DBB23033DAB2414B1A7097
:1010F0003D4B1B889BB23E4AA2FB0312520964215E
:1011000001FB02F29B1A9BB23B4AA2FB0323DB08C2
:101110009BB2DBB23033DAB2364B5A70354B2E22EB
:101120009A70314B1B889AB2334BA3FB0213D90838
:101130000B469B000B445B00D31A9BB2DBB23033EF
:10114000DAB22C4BDA700A2008F0B4FC264B5B882C
:101150009BB2264AA2FB031292094FF47A7101FB5B
:1011600002F29B1A9BB2224AA2FB03235B099BB2A9
:10117000DBB23033DAB2214B1A701B4B5B889BB267
:101180001B4AA2FB03125209642101FB02F29B1AC3
:101190009BB2194AA2FB0323DB089BB2DBB23033BC
:1011A000DAB2164B5A70154B2E229A700E4B5B8892
:1011B0009AB2114BA3FB0213D9080B469B000B44B8
:1011C0005B00D31A9BB2DBB23033DAB20B4BDA706E
:1011D00000BF0B4B00221A700837BD4680BD00BF10
:1011E00024190020B4000020A4000020D34D621078
:1011F0001F85EB51C8000020CDCCCCCCC400002012
:10120000BA00002080B586B000AF0346FB7107F13D
:1012100014031846FFF78AFC0820012108F020FA81
:101220004823FB75FB79002B02D0012B13D025E05E
:101230004FF48043BB8207F1140323481946FFF79C
:10124000B5FB28233B7201200E21FFF7F3FC4FF47E
:101250008043FB6012E04FF40043BB8207F11403AC
:1012600019481946FFF7A2FB28233B7201200F21E2
:10127000FFF7E0FC4FF40043FB6000BF134A134B41
:101280009B6943F480339361114B00221A85104B04
:1012900001221A8000233B7410237B740123BB744A
:1012A00007F10C03184608F0B1FA0F237B720F23E5
:1012B000BB720123FB7207F1080318460AF016FE01
:1012C0001837BD4680BD00BF000C01400010024031
:1012D0000040014080B487B000AF0346FB7100239B
:1012E0003B610023FB60FB79012B0CD0022B13D058
:1012F000002B12D1124B7B614FF040633B614FF0EA
:101300008073FB6009E00E4B7B614FF040433B6113
:101310004FF08053FB6000E000BF7B695A683B6977
:10132000DB431A407B695A607B695A68FB681A4341
:101330007B695A601C37BD465DF8047B704700BF6F
:10134000000C014080B485B000AF78600B46FB70A4
:101350001346BB700023FB730023BB730023BB73D6
:101360000CE0BA7BFB7813441A467B6813441A7866
:10137000FB7B1344FB73BB7B0133BB73BA7BBB7832
:101380009A42EED3FB7B18461437BD465DF8047BCA
:10139000704700BF80B485B000AF78600023FB6069
:1013A0007B68FA2202FB03F3FB6000BFFB685A1E56
:1013B000FA60002BFAD11437BD465DF8047B704704
:1013C00080B582B000AF3E4B1B78DBB203F0040364
:1013D0009B10012B6ED13B4B9B889BB240F68C221D
:1013E000934202D9384B3D221A70012008F062FB6B
:1013F00006F09AFD7860324B1B78DBB203F00803ED
:10140000DB10012B20D12F4B9B889AB22F4B1B88CE
:101410009BB29A4218D22A4B1B78DBB203F001032D
:10142000002B11D02A4B1B687A689A420BD9264BA5
:101430003E221A70274B1B78DBB243F00803DAB266
:10144000244B1A7009E008E006F06EFD0246224BBC
:101450001B889BB213441E4A1360012008F02AFB2C
:101460001E4B1B889AB21E4B1B889BB29A4207D216
:101470001A4B1B889BB2002B02D0002002F02EFBDF
:10148000012008F017FB154B5B889AB2144B5B8860
:101490009BB29A4207D2114B5B889BB2002B02D0C1
:1014A0000A2002F01BFB012008F004FB0B4B5B88B9
:1014B0000C4B5B88012008F0FDFA0837BD4680BD63
:1014C000280000204C0100201A0100202C010020DF
:1014D000280100201B0100202E0100208400002094
:1014E000440100204801002080B584B000AF0346CD
:1014F000FB800023FB730023BB730023FB7311E00D
:10150000FA88FB7B42FA03F3DBB203F00103BB73FF
:10151000BB7B012B03D1FB7B184602F085FAFB7BDA
:101520000133FB73FB7B0F2BEAD91037BD4680BD1F
:1015300080B582B000AF0023FB710023FB7106E091
:10154000FB79184602F0CAFAFB790133FB71FB798B
:101550000E2BF5D90837BD4680BD00BF80B584B0DD
:1015600000AF78600023BB600023FB6006F0DCFC6A
:10157000F86006F0D9FC02467B681344BB6005F0B6
:101580005DF91E2008F096FA22E00020002107F005
:10159000E1FC1C4807F0A0FC1B4B1B78DBB2184693
:1015A00007F03EF84FF4FA7008F084FA05F08CF971
:1015B000BB68DAB2FB68DBB2D31ADAB2124B1A702C
:1015C00006F0B2FCF860322008F074FA0BF0ACF9C7
:1015D0000E4B1B78DBB203F00803DB10002B03D1AA
:1015E000FA68BB689A42D0D3094B1B78DBB223F070
:1015F0000103DAB2064B1A7005F050F91037BD46F8
:1016000080BD00BF44CA00081A0100201B01002051
:101610002800002080B582B000AF7860FFF788FF17
:10162000042002F001FA4FF4FA7008F043FA0B209C
:1016300002F0FAF94FF4FA7008F03CFA7868FFF714
:101640008DFF0837BD4680BD80B582B000AF034630
:10165000FB711D4B1B78DBB2002B12D11B4B1B788F
:10166000DBB25A1CD1B2194A11701946FB79184ADB
:10167000A2FB03235B09DBB23033DAB2154B5A54B9
:1016800011E0124B1B78DBB25A1CD1B20F4A117019
:101690001946FB790E4AA2FB03235B09DBB2303308
:1016A000DAB20D4B5A54FB79094AA2FB03125209D4
:1016B000642101FB02F29B1ADBB2184606F0B0FF70
:1016C0000837BD4680BD00BF050100200401002091
:1016D0001F85EB51E4000020F400002080B584B0A9
:1016E00000AF0023FB730023BB7300237B73002335
:1016F0007B8100237B6000233B6007F04FFC744834
:1017000007F0EAFB4FF4FA7008F0D4F9714B0022AD
:101710001A7034E006F064FE03461A466D4B1A70E8
:101720000020002107F016FC6B4807F0D5FB6B4B3F
:101730001B689BB2184600F0EDF9694807F0CCFB36
:10174000664B5B689BB2184600F0E4F9012000216B
:1017500007F000FC0A2008F0ADF9624807F0BCFB76
:101760005E4B9B689BB2184600F0D4F95E4807F0C8
:10177000B3FB5A4BDB689BB2184600F0CBF9554BD4
:101780001B78DBB2002BC5D007F008FC514B1B784F
:10179000DBB2013BBB734F4B00221A70534807F07A
:1017A0009BFBFB7B184605F051FC0346FB73FB7B60
:1017B000184602F093F907F0F1FB4D4807F08CFB57
:1017C0007B7B184605F042FC03467B73BB7B434A98
:1017D00052F823307B6007F0E1FB464807F07CFBC2
:1017E000FB7B184602F020F93A4B00221A7019E0F0
:1017F0000A2008F05FF906F0F3FD03461A46354B60
:101800001A7007F0CBFB3C4807F066FB0120002173
:1018100007F0A0FBBB7B314A52F823309BB218463D
:1018200000F078F92B4B1B78DBB2022BE0D1BB7BAD
:101830002A4A52F823303B60FB7B184602F04EF9EF
:10184000C82008F037F93B689AB27B689BB2D31A7C
:101850009BB21A467B7B92FBF3F37B81BB7B2749D0
:101860007A8921F8132007F099FB254807F034FB0B
:101870003B689BB2184600F04DF90120002107F0AB
:1018800069FB204807F028FB7B89184600F042F9E5
:101890007B8940F2426019460AF00AFE0D4B002295
:1018A0001A7008E00A2008F005F906F099FD0346D1
:1018B0001A46084B1A70074B1B78DBB2022BF1D18A
:1018C00007F06CFBC82008F0F5F81037BD4680BD66
:1018D0004CCA00081901002058CA000894180020BA
:1018E0005CCA000860CA000864CA000868CA000828
:1018F00078CA000888CA000898CA0008AC180020F6
:10190000A8CA0008B0CA000880B584B000AF03467A
:10191000FB710B46BB711346BB800023FB60BB8889
:10192000104A128892B202FB03F30F4AA2FB032370
:10193000DB08FB60002002F077F8BB790B4A00213E
:1019400042F8231002E00A2008F0B4F8074B1A68A6
:10195000FB689A42F7D3002002F0C0F81037BD466A
:1019600080BD00BFAC180020CDCCCCCC941800209A
:1019700080B584B000AF0346FB710B46BB711346C4
:10198000BB800023BB600023FB8107F007FB5648A8
:1019900007F0A2FA08E00A2008F08CF806F020FD13
:1019A00003461A46514B1A70504B1B78DBB2002B82
:1019B000F1D04E4B1B78DBB2022B01D1FFF78EFE2C
:1019C00001237B7389E007F0E9FA494807F084FABC
:1019D000484B1B889BB2184600F09CF8FB891846C0
:1019E000052105F0E5FB0346FB81FB89414A12888E
:1019F00092B202FB03F3404AA2FB0323DB08BB6065
:101A000007F0CCFA3D4807F067FABB689BB218466E
:101A100000F080F80120002107F09CFA384807F018
:101A20005BFABB79374A52F82330364A52F82330F2
:101A30009BB2184600F06EF82C4B00221A70002062
:101A400001F0F2FFBB792F4A002142F823101BE07E
:101A50000A2008F02FF807F0A1FA2B4807F03CFA0B
:101A6000BB79284A52F823309BB2184600F052F84E
:101A70000120002107F06EFA244807F02DFABB6818
:101A80009BB2184600F046F81E4B1A68BB689A4293
:101A9000DED3002002F022F807F080FA1C4807F09D
:101AA0001BFA08E00A2008F005F806F099FC034646
:101AB0001A460E4B1A700D4B1B78DBB2002BF1D07F
:101AC0000A4B1B78DBB2022B05D101237B730D4B34
:101AD00000221A6001E000237B737B7B012B3FF423
:101AE00072AF1037BD4680BDB8CA0008190100208A
:101AF000C8CA0008AC180020CDCCCCCCD4CA000891
:101B0000DCCA000894180020E0CA0008E8CA0008EF
:101B1000ECCA000880B582B000AF0346FB80FB88AA
:101B2000164AA2FB03235B0B9BB2DBB2184606F0FE
:101B300077FDFB88114AA2FB0312520B42F210718F
:101B400001FB02F29B1A9BB20D4AA2FB03235B0925
:101B50009BB2DBB2184606F063FDFB88084AA2FB85
:101B600003125209642101FB02F29B1A9BB2DBB201
:101B7000184606F055FD0837BD4680BD5917B7D148
:101B80001F85EB5180B485B000AF03463960FB710F
:101B90001346BB710023FB730023FB730AE0FB7B3E
:101BA0003A6813441B78DAB2FB795340FB71FB7B34
:101BB0000133FB73FA7BBB799A42F0D3FB79184669
:101BC0001437BD465DF8047B704700BF80B500AF99
:101BD000674840F2255108F0DFFE0346002B2AD06B
:101BE000634808F0B9FE0346DAB2624B1A70624BE2
:101BF0001B78DBB25A1CD1B25F4A11701A465D4B9A
:101C00001B78D9B25D4B99545D4B1B8801339AB256
:101C10005B4B1A805A4B1B884EF66022934202D9C6
:101C2000574B00221A80524A514B1B889BB223F01B
:101C300020039BB21380534B1B78DBB2002B40F088
:101C40009580514B1B78DBB2042B52D14F4B1B7844
:101C5000DBB2002B04D1474B1B78DAB24C4B1A7025
:101C60004A4B1B78DBB25A1CD1B2484A11701A4653
:101C7000404B1B78D9B2414B9954444B1B78DBB293
:101C80001A46434B1B78DBB2033B9A4231D1404B9F
:101C90001B78DBB2043BDBB2302038491A46FFF731
:101CA00071FF03461A463B4B1A70374B00221A70DD
:101CB000364B00221A70384B00221A70354B1B78B5
:101CC000DBB2002B13D1324B1B78DBB2043B2B4A27
:101CD000D35CDAB2314B1A70314B1B78DBB2013373
:101CE000DAB22F4B1A70274B01221A7001E000F074
:101CF00001F9204B1B78DBB25A2B03D1264B012272
:101D00001A7033E01B4B1B78DBB2582B08D1224BE7
:101D10001B78DBB2012B03D11F4B02221A7025E086
:101D20001D4B1B78DBB2022B20D1124B1B78DBB290
:101D3000302B18D00F4B1B78DBB2312B06D1124B56
:101D400003221A70114B00221A700CE0094B1B7809
:101D5000DBB2322B07D10C4B04221A700B4B002242
:101D60001A7000F0C7F80C4B00221A7080BD00BF3B
:101D700000380140DC000020DF000020B8180020FF
:101D8000CE0000205E0100205D0100205B010020EC
:101D90005C010020E00000205A010020900000209B
:101DA0008C00002080B586B000AF78604FF47A6078
:101DB00007F080FE00233B6100237B6101200121AD
:101DC00006F058FE0023FB7306F0AEF803463C33E2
:101DD0007B6104F005FC06F0A7F802467B699A4295
:101DE0000FD90120002106F045FEC82007F062FE51
:101DF0000120012106F03EFE06F096F803460A3364
:101E00007B61642007F056FE0020FEF7F5FF3220CC
:101E100007F050FE0AF03EFDFFF7D2FA322007F03D
:101E200049FE0120FEF7E8FF4FF4C87007F042FEBC
:101E3000034B1B78DBB2002B01D10AF075FDC8E71C
:101E4000CC00002080B584B000AF78600023FB7325
:101E50000AF06AFD224B1B78DBB203F00803DAB20A
:101E60001F4B1A701E2007F025FE1E4B1B78DBB29D
:101E7000012B30D100F050F91B4B5B78DBB2312BDA
:101E800004D9194B5B78DBB2632B21D9164B5B78F5
:101E9000DAB2164B1A700023FB7311E0124B1B7859
:101EA000DBB2043B104AD35CDBB2184600F0BAF850
:101EB000192007F0FFFD0AF037FDFB7B0133FB73B0
:101EC000FB7B092BEAD900F015F8094B00221A70A8
:101ED000044B00221A70322007F0ECFDB8E700BF77
:101EE000640100205E010020B81800206C01002071
:101EF0005B01002080B483B000AF0023FB7100239E
:101F0000FB7106E0FB79074A0021D154FB790133CC
:101F1000FB71FB79292BF5D90C37BD465DF8047BA5
:101F2000704700BFB818002080B582B000AF002312
:101F3000FB710B4B00221A700023FB7109E0FB7947
:101F4000084A0021D154012007F0B4FDFB79013388
:101F5000FB71FB79292BF2D90837BD4680BD00BF44
:101F600027000020EC18002080B500AF194B00229C
:101F70001A70194BDB78DBB20133DAB2174B1A70E7
:101F8000154BDB78DBB21A46134B0D219954144BD9
:101F900000221A700F4B01221A70104B1B78DBB213
:101FA00018460D4901F044FB04E0142007F082FDBF
:101FB0000AF0BAFC4FF4005009F06EFF0346002B04
:101FC000F3D0322007F076FD0AF0AEFC014B002280
:101FD0001A7080BDDD000020EC18002027000020D2
:101FE000DE00002080B584B000AF03460A46FB71D6
:101FF0001346BB710023FB730023FB730BE0FB79DB
:10200000184600F00FF8642007F054FD0AF08CFC2D
:10201000FB7B0133FB73FA7BBB799A42EFD310371A
:10202000BD4680BD90B583B000AF0346FB71FFF79E
:102030007BFF1D4B5A221A701B4B58225A701A4BA9
:1020400037229A70184B0722DA70174AFB791371FE
:10205000154BDB78DBB29C1E134BDB78DBB2013B0C
:10206000DBB2002010491A46FFF78CFD03461A46E2
:102070000D4B1A550C4BDB78DBB2013B0A4A0021B1
:10208000D154012007F016FDFFF76EFF074B1B78B8
:10209000DBB20133DAB2054B1A70054AFB791370D3
:1020A0000C37BD4690BD00BFEC180020DA000020C0
:1020B000DB00002080B582B000AF0346FB710B4609
:1020C000BB8013467B80FFF733FAFB79184601F09B
:1020D000ABFCBB881846FFF707FA0837BD4680BD42
:1020E00080B582B000AF0023FB800023BB800DE0F1
:1020F000FB8803F5B863BB80BB88184600F01AFF65
:10210000FB881033FB80022007F0D4FCFB88C72B30
:10211000EED90837BD4680BD80B586B002AF00233A
:10212000FB810023FB800023BB810023BB60C54BE8
:102130005B78DBB23F2B00F2318301A252F823F02F
:10214000412200086D220008832200088F22000827
:1021500097220008A5220008B32200089D27000846
:10216000C1220008D92200081323000833230008E5
:1021700079230008A5230008CB230008FD230008CD
:10218000212400086524000889240008AD240008E3
:102190009D2700089D270008B3240008BF240008DD
:1021A000CB2400089D2700089D2700089D270008D4
:1021B0009D2700089D2700089D270008D7240008B8
:1021C0005F250008A7250008EF250008F525000871
:1021D000032600084B260008512600089D2700080A
:1021E0009D2700089D2700089D2700089D270008BF
:1021F0009D2700089D2700089D2700089D270008AF
:102200009D2700089D2700089D27000887260008B5
:10221000952600089D2700089D2700089D27000897
:10222000A3260008C5260008012700082527000866
:10223000472700084D27000853270008612700089A
:10224000804B9B78D8B27F4BDB78D9B27D4B1B7922
:10225000DBB29BB21B029AB27A4B5B79DBB29BB2C8
:1022600013449BB21A46FFF74FFB97E2754B9B78DE
:10227000DAB2744BDB78DBB21046194604F0C4FDC9
:102280008CE2714B33221A7004F008FB86E26E4B2D
:1022900030221A7082E26B4B9B78DBB2184601F059
:1022A000C3FB7BE2674B9B78DBB2184601F016FC60
:1022B00074E2644B9B78DBB2184600F0CBFE6DE213
:1022C000614B1B78DBB2332B05D15E4B9B78DAB2C6
:1022D0005E4B1A7062E261E25A4B1B78DBB21A461F
:1022E000584B9B5CDBB218460F21FFF77BFEC820E2
:1022F00007F0E0FB534B9B78D9B2524BDB78DAB254
:10230000504B1B79DBB2084611461A4600F088FC98
:1023100044E205F009FE03463C334D4A13604D4B41
:1023200000221A704C4B00221A704C4B00221A707B
:1023300034E2464B00221A70434B33221A70454B4D
:102340001B78DBB203F00103DAB2424B1A700020B3
:10235000002104F059FD0120002104F055FD022068
:10236000002104F051FD0320002104F04DFD04F094
:1023700095FAFFF7DDF811E2324B9B78DBB21B02D6
:10238000304AD278D2B213441B022E4A1279D2B20A
:1023900013441B022B4A5279D2B21344184605F05B
:1023A000D5FDFBE12E4B01221A70264B1B78DBB2C8
:1023B0001A46244B9B5CDBB218460521FFF712FE40
:1023C00042F2107007F076FBE8E11E4B1B78DBB29F
:1023D0001A461C4B9B5CDBB218460F21FFF702FE2E
:1023E000052007F067FB174B9B78DAB2154BDB78BB
:1023F000DBB21046194602F0B3FCCFE1114B9B78DB
:10240000DBB29AB20F4BDB78DBB29BB21B029BB202
:102410001344FB81FB891846012100F041FCBDE11A
:10242000084B9B78DBB29AB2064BDB78DBB29BB2EF
:102430001B029BB21344FB81FB891846102100F05C
:102440002FFCABE1B8180020260000202800002057
:10245000280100201B0100201A0100206401002037
:10246000CC000020A04B9B78DBB29AB29E4BDB786D
:10247000DBB29BB21B029BB21344FB81FB89184663
:102480000A2100F00DFC89E1974B9B78DBB29AB2F0
:10249000954BDB78DBB29BB21B029BB21344FB81F2
:1024A000FB8918460B2100F0FBFB77E106F05CFC92
:1024B00074E18D4B9B78DAB28C4B1A706EE18A4BCB
:1024C0009B78DAB28A4B1A7068E1874B9B78DAB254
:1024D000884B1A7062E1844B9B78DBB21B029AB284
:1024E000814BDB78DBB29BB21344FB81FA89BB1DC5
:1024F0001046194609F090FF7B4B1B79DBB2002B8D
:1025000014D1FB88DBB29BB2FB80774B5B79DBB2EB
:102510001B029BB29AB2FB8813449BB2FB80FB88E0
:10252000FA891046194609F0C3FF17E06E4B1B7974
:10253000DBB2012B12D1FB8823F0FF039BB2FB809F
:10254000694B5B79DBB29AB2FB8813449BB2FB8088
:10255000FB88FA891046194609F0AAFF1EE1624B72
:102560009B78DBB21B029AB25F4BDB78DBB29BB28B
:102570001344FB815C4B1B79DBB21B029AB25A4BB2
:102580005B79DBB29BB213449BB2FB80FB88FA8978
:102590001046194609F08CFFFA88574B1A80574AA3
:1025A000FB891380FAE0504B9B78DBB21B029AB296
:1025B0004D4BDB78DBB29BB21344FB814A4B1B795A
:1025C000DBB21B02484A5279D2B213441B02464A7C
:1025D0009279D2B213441B02434AD279D2B2134445
:1025E000BB60FB891846B96804F054FCD6E002F0E1
:1025F0004DFFD3E03C4B9B78DBB2184600F0ECF883
:10260000CCE0394B1B79DBB29AB2374BDB78DBB2CB
:102610009BB21B029BB213449BB2FB80324B9B7953
:10262000DBB29AB2304B5B79DBB29BB21B029BB23E
:102630001344BB812C4B9B78D9B2FA88BB890846DE
:1026400011461A46FFF736FDA8E0FEF771FFA5E038
:10265000254B9B79DBB21A46234B5B79DBB21B021D
:102660009BB21A44204B1B79DBB21B0403F47F039B
:102670001A441D4BDB78DBB21B061344BB60B86801
:10268000FEF7C8FF8AE0184B9B78DBB2184600F0D3
:1026900037FD83E0012000F033FD022000F030FD23
:1026A0007CE0114B9B78DBB29AB20F4BDB78DBB24C
:1026B0001B029BB213409BB29BB21846022100F052
:1026C000EFFA6BE0084B9B78DBB29AB2064BDB78F3
:1026D000DBB29BB21B029BB213449BB21846012192
:1026E00000F094FB5AE000BFB81800203901002028
:1026F0003A0100203B0100209400002092000020BD
:10270000324B9B78DBB29AB2304BDB78DBB29BB2B8
:102710001B029BB21344FB81FB891846022100F087
:1027200075FB3BE0294B9B78DBB29AB2274BDB78F9
:10273000DBB29BB21B029BB21344FB81FB891846A0
:1027400000F0F8FB2AE0FFF7CBFC27E000F0B8F838
:1027500024E04FF400704FF4B86100F095F91DE0EB
:102760001A4B9B78DBB29AB2184BDB78DBB29BB288
:102770001B029BB21344FB81144B1B79DBB29AB250
:10278000124B5B79DBB29BB21B029BB213449BB230
:102790004FF40070194600F077F900BF322007F0BF
:1027A00089F90A4B5B78DBB2632B0CD902230093C7
:1027B000064807490722002305F052FC034B5B78CB
:1027C000DAB2044B1A701037BD4680BDB81800202D
:1027D000A41800205901002080B584B000AF7860B3
:1027E0000023FB6005F0A0FB02467B681344FB60FE
:1027F00007E0094B00229A86642007F05BF90AF093
:1028000093F805F091FB0246FB689A42F1D304F07D
:1028100045F81037BD4680BD002C014080B584B01E
:1028200000AF03460A46FB8013467B710023BB8141
:102830000023BB600023FB73FFF776FB0023FB73D1
:1028400032E00023BB81FB7B9BB25B009BB2DBB21F
:102850009AB2FB881344BB810023BB60BB89184636
:1028600006F088F8B860FB7B9B00BA68120ED1B204
:10287000124AD154FB7B9B000133BA68120CD1B2CF
:102880000E4AD154FB7B9B000233BA68120AD1B2C4
:102890000A4AD154FB7B9B000333BA68D1B2074A82
:1028A000D154FB7B0133FB737B795B08DBB2FA7B92
:1028B0009A42C6D31037BD4680BD00BFEC18002039
:1028C00080B582B000AF0023FB8000237B71002322
:1028D0003B71684B5A221A70664B58225A70654BEE
:1028E00031229A70634B0422DA70624B0A221A7109
:1028F000614B00221A70614B05221A70604B002256
:102900001A705D4B01221A705E4A5D4B1B78DBB278
:10291000591CC8B25A4908701946564B5B5CDBB269
:102920009BB2938004E0052007F0C4F809F0FCFF97
:10293000534B1B78DAB2514B1B78DBB29A42F2D37D
:102940000F2007F0B7F800204A490522FFF71AF9CF
:1029500003463B71FFF7E8FA474B00221A706420E8
:1029600007F0A8F80023FB8049E0FB88DBB25C336A
:102970009BB21B019BB218461021FFF74FFF0023AB
:102980007B7109E07B793B4AD35CDAB23B795340F7
:102990003B717B7901337B717B791F2BF2D9364BED
:1029A00000221A70354B20221A70354B00221A7003
:1029B000314B01221A70334A314B1B78DBB2591C60
:1029C000C8B22F49087019462A4B5B5CDBB29BB238
:1029D000938004E0012007F06DF809F0A5FF284B73
:1029E0001B78DAB2254B1B78DBB29A42F2D3FFF7A1
:1029F0009BFA214B00221A70FB880133FB80FB8875
:102A00001E2BB2D901237B7106E07B7919497A79B3
:102A1000CA547B7901337B717B79042BF5D9154A34
:102A20003B791370144B00221A70144B04221A7055
:102A3000134B00221A70104B01221A70114B002206
:102A40009A8004E0012007F035F809F06DFF0C4B87
:102A50001B78DAB2094B1B78DBB29A42F2D30F2013
:102A600007F028F8FFF760FA034B00221A700837C6
:102A7000BD4680BDEC180020DD00002027000020AE
:102A8000DE0000200038014080B584B000AF03466E
:102A90000A46FB801346BB800023FB8100237B7327
:102AA00000233B735A4B5A221A70594B58225A70C2
:102AB000574B31229A70FB881B099BB25B010C3388
:102AC0001B12DAB2524BDA70FB881B099BB2DBB2E5
:102AD0005B01DBB20C33DAB24D4B1A71BB881B0AB7
:102AE0009BB2DAB24A4B5A71BB88DAB2484B9A7140
:102AF000484B07221A70474B1B78DBB218464449F3
:102B000000F096FD04E0322006F0D4FF09F00CFF3F
:102B10004FF4005009F0C0F90346002BF3D00F200A
:102B200006F0C8FF00203A490722FFF72BF80346BA
:102B30003B73FFF7F9F9384B00221A70642006F056
:102B4000B9FF0023FB8140E0FB89DBB29BB21B0194
:102B50009AB2BB8813449BB218461021FFF75EFE61
:102B600000237B7309E07B7B294AD35CDAB23B7B91
:102B700053403B737B7B01337B737B7B1F2BF2D9F1
:102B8000244B20221A70234B1B78DBB218462049B5
:102B900000F04EFD04E01E2006F08CFF09F0C4FE9C
:102BA0004FF4005009F078F90346002B06D11B4B77
:102BB0001B889BB203F04003002BECD009F0B4FE5D
:102BC000FFF7B2F9FB890133FB81FB881B099BB23C
:102BD000FA899A42B8D301237B7306E07B7B0C49C8
:102BE0007A7BCA547B7B01337B737B7B042BF5D9C7
:102BF000074A3B7B1370FFF7B7F90F2006F05AFF27
:102C0000FFF792F9044B00221A701037BD4680BDC1
:102C1000EC18002027000020DD00002000380140D3
:102C200080B584B000AF0346FB710B46BB71134601
:102C30007B710023BB600023FB6005F075F9F86031
:102C4000BA79FB681344BB60FB791846012102F096
:102C500009F8022006F02EFFFA797B791046194612
:102C600002F000F80FE005F05FF9F86009F05CFE93
:102C7000C82006F01FFF012000F042FA09F054FEC0
:102C8000C82006F017FFFA68BB689A42EBD3FB79BD
:102C90001846002101F0E6FF1037BD4680BD00BF99
:102CA00080B586B000AF03460A46FB8013467B71B1
:102CB00000233B610023FB757B79012B14D1514B21
:102CC0001B79DBB29AB24F4B5B79DBB29BB21B0232
:102CD0009BB213449AB24C4B1A804B4B1B88FA8818
:102CE0001046194609F0E4FB7B79022B18D1454BBD
:102CF0001B79DBB21A46434B5B79DBB21B021A44E9
:102D0000404B9B79DBB21B041A443E4BDB79DBB2B0
:102D10001B0613443B61FB881846396904F0BAF876
:102D20007B79102B2AD10023FB7524E0364B00223F
:102D30001A80FB7D02335B00324AD35CDBB29AB26D
:102D4000FB7D5B0203F5A0632E49CB5CDBB29BB23B
:102D500013449AB22C4B1A80FB885A1CFA802A4AD8
:102D600012881846114609F0A3FB012006F0A2FEC6
:102D7000FB7D0133FB75FB7D1F2BD7D97B790A2B9C
:102D80001DD10023FB81FA8807F10E031046194676
:102D900009F042FBFB89DBB29BB2FB81194B1B792B
:102DA000DBB21B029AB2FB899BB213409BB29BB26F
:102DB000FB81FB89FA881046194609F079FB7B797B
:102DC0000B2B1BD10023BB81FA8807F10C031046A3
:102DD000194609F021FBBB8923F0FF039BB2BB819D
:102DE000084B1B79DBB29AB2BB8913409BB2BB8103
:102DF000BB89FA881046194609F05AFB1837BD46B8
:102E000080BD00BFB81800207201002090B585B0C9
:102E100000AF03460A46FB8013467B71404B5A22A3
:102E20001A703F4B58225A703D4B31229A707B7971
:102E3000012B1DD1FA8807F10A031046194609F043
:102E4000EBFA374B0922DA70364B9B78DAB2344B07
:102E50001A71344BDB78DAB2314B5A717B89DAB2B2
:102E60002F4B9A717B891B0A9BB2DAB22C4BDA7119
:102E70007B79022B24D1FB88184605F07BFDF86096
:102E8000274B0B22DA70274B9B78DAB2244B1A714E
:102E9000244BDB78DAB2224B5A71FB68DAB2204B52
:102EA0009A71FB681B0ADAB21D4BDA71FB681B0CC6
:102EB000DAB21B4B1A72FB681B0EDAB2184B5A724D
:102EC000174BDB78DBB25C1E154BDB78DBB2013BCA
:102ED000DBB2002012491A46FEF754FE03461A469A
:102EE0000F4B1A550E4BDB78DAB20F4B1A700F4BA3
:102EF00000221A700E4B01221A7002E0012006F027
:102F0000D9FD0A4B1B78DAB2074B1B78DBB29A4229
:102F1000F4D3074B00221A701437BD4690BD00BF92
:102F2000EC180020B818002027000020DE00002048
:102F3000DD00002090B585B000AF0346FB80002384
:102F4000FB730623BB733E4B5A221A703C4B58222C
:102F50005A703B4B31229A70394B2722DA70394B29
:102F60009B78DAB2364B1A71364BDB78DAB2344BD7
:102F70005A710023FB7332E00023BB60FB7B9BB2E2
:102F80005B009AB2FB8813449BB2184605F0F2FC32
:102F9000B860BB7B5A1CBA731A46BB681B0ED9B209
:102FA000274B9954BB7B5A1CBA731A46BB681B0C3F
:102FB000D9B2234B9954BB7B5A1CBA731A46BB68CF
:102FC0001B0AD9B21E4B9954BB7B5A1CBA731A46C2
:102FD000BB68D9B21A4B9954FB7B0133FB73FB7B63
:102FE000072BC9D9BC7B164BDB78DBB2013BDBB2CC
:102FF000002013491A46FEF7C5FD03461A46104B3A
:103000001A550F4BDB78DAB20F4B1A700F4B0022B8
:103010001A700F4B01221A7002E0012006F04AFDDF
:103020000A4B1B78DAB2084B1B78DBB29A42F4D316
:10303000074B00221A70FEF777FF1437BD4690BD8C
:10304000EC180020B818002027000020DE00002027
:10305000DD00002080B584B000AF0346FB71002383
:10306000FB730023BB8100237B81234B5A221A7000
:10307000214B58225A70204B31229A701E4B2A2223
:10308000DA701D4AFB7913710023FB732AE0FB7988
:103090009BB21A46D20013449AB2FB7B9BB21344F4
:1030A0009BB203F538739BB25B00BB81BA8907F111
:1030B0000A031046194609F0AFF9FB7B5B000533A4
:1030C0000D4A0021D154FB7B03335B007A89D2B2D5
:1030D0005242D1B2084AD154012006F0EBFCFB7BEE
:1030E0000133FB73FB7B112BD1D9044B01221A70E6
:1030F0001037BD4680BD00BFEC180020DD00002069
:1031000090B583B000AF0346FB71974B1B78DBB2E1
:10311000002B40F06082954B5A221A70934B582234
:103120005A70924B33229A70904B2922DA70FB79B5
:10313000012B40F0DD808E4B1B78DAB28B4B1A717D
:103140008C4B1B68DAB2894B5A718B4B1B68DAB215
:10315000864B9A71854B0022DA71884B1B889BB293
:10316000DAB2824B1A72864B1B78DAB27F4B5A72F4
:10317000844B1B78DAB27D4B9A72824B5B78DAB261
:103180007A4BDA727F4B9B78DAB2784B1A737D4BAD
:10319000DB78DAB2754B5A737B4B1B8B9BB2DAB27E
:1031A000724B9A73784B1B8B9BB21B0A9BB2DAB2A1
:1031B0006E4BDA73744B9B8B9BB2DAB26B4B1A7407
:1031C000714B9B8B9BB21B0A9BB2DAB2674B5A7452
:1031D0006E4B1B889BB2DAB2644B9A746B4B1B88A4
:1031E0009BB21B0A9BB2DAB2604BDA74674B5B8806
:1031F0009BB2DAB25D4B1A75644B5B889BB21B0ABB
:103200009BB2DAB2594B5A75614B1B889BB2DAB24A
:10321000564B9A755E4B1B889BB21B0A9BB2DAB267
:10322000524BDA755A4B5B889BB2DAB24F4B1A7627
:10323000574B5B889BB21B0A9BB2DAB24B4B5A7658
:10324000534B9B889BB2DAB2484B9A76504B9B8883
:103250009BB21B0A9BB2DAB2444BDA764C4BDB884A
:103260009BB2DAB2414B1A77494BDB889BB21B0AFF
:103270009BB2DAB23D4B5A77464B1B78DAB23B4BE6
:103280009A77454B1B889BB21B0A9BB2DAB2374B2D
:10329000DA77414B1B889BB2DAB2344B83F820209B
:1032A0003E4B9B8E9BB23E4AA2FB0323DB089BB2A4
:1032B000DAB22E4B83F821203A4B1B78DAB22B4B33
:1032C00083F82220384B1B78DAB2284B83F823206E
:1032D000364B1B78DAB2254B83F82420344B1B780D
:1032E000DAB2224B83F82520204AFB7982F8263077
:1032F000FB79022B71D12F4B1B889BB2DAB21B4B8F
:103300001A712C4B1B889BB21B0A9BB2DAB2174B6B
:103310005A71294B1B889BB2DAB2144B9A71264B17
:103320001B889BB21B0A9BB2DAB2104BDA710F4BAF
:1033300000221A72164B1B889BB21B0A9BB2DAB290
:103340000A4B5A72124B5B889BB2DAB2074B9A72E5
:103350000F4B5B889BB21B0A9BB2DAB2034BDA724B
:103360000B4B9B889BB229E0DD000020EC1800206D
:10337000260000201C010020200100203601002032
:1033800054010020AC0000200028004084000020F0
:103390004C01002064010020D8000020002C0140D6
:1033A000CDCCCCCC56010020280000201A010020F2
:1033B0001B0100203E01002040010020DAB2874BB3
:1033C0001A73874B9B889BB21B0A9BB2DAB2834B62
:1033D0005A73824AFB7982F82630FB79032B3BD162
:1033E000804B9B68DAB27D4B1A717E4B9B681B0A3F
:1033F000DAB27A4B5A717B4B9B681B0CDAB2774B73
:103400009A71784B9B681B0EDAB2744BDA71764B6B
:103410009B68DAB2714B1A72734B9B681B0ADAB263
:103420006E4B5A72704B9B681B0CDAB26B4B9A72E4
:103430006D4B9B681B0EDAB2684BDA726B4B9B7854
:10344000DAB2664B1A73694BDB78DAB2634B5A73A4
:10345000624AFB7982F82630FB79042B1CD15F4B42
:1034600000225A72624B1B78DAB25C4B9A72614B43
:103470001B889BB2DAB2594BDA725E4B1B889BB247
:103480001B0A9BB2DAB2554B1A73544B4D225A7336
:10349000524AFB7982F82630FB79052B39D1564BFD
:1034A0001B889BB2DAB24D4B1A71534B1B889BB2EF
:1034B0001B0A9BB2DAB2494B5A714F4B5B889BB2E5
:1034C000DAB2464B9A714C4B5B889BB21B0A9BB29B
:1034D000DAB2424BDA71494B1B68DAB23F4B1A72CF
:1034E000464B1B681B0ADAB23C4B5A72434B1B68B3
:1034F0001B0CDAB2394B9A72404B1B681B0EDAB2C6
:10350000364BDA72354B4D225A73344AFB7982F8C6
:103510002630FB79062B43D1374B1B889BB2DAB29E
:103520002E4B1A71344B1B889BB21B0A9BB2DAB22A
:103530002A4B5A71304B5B889BB2DAB2274B9A7197
:103540002D4B5B889BB21B0A9BB2DAB2234B5A719C
:103550002A4B5B68DAB2214B1A72284B5B681B0A54
:10356000DAB21E4B5A72254B5B681B0CDAB21B4B4E
:103570009A72224B5B681B0EDAB2184BDA721D4B43
:103580005B889BB2DAB2154B1A731A4B5B889BB2FD
:103590001B0A9BB2DAB2114B5A73104AFB7993752E
:1035A0000E4BDB78DBB29C1E0C4BDB78DBB2023BB4
:1035B000DBB2002009491A46FEF7E4FA03461A4630
:1035C000064B1A55054BDB78DBB2013B034A002161
:1035D000D154FEF7C9FC0C37BD4690BDEC18002055
:1035E0004C01002000080140000C0140B400002004
:1035F00056010020AC180020840000209418002000
:1036000080B400AF044B1B68034B1B68024B1B6864
:10361000BD465DF8047B70470000024080B400AFF7
:10362000024B1B68BD465DF8047B704700000240FA
:1036300080B582B000AF03463960FB711F491F4B54
:103640001A684FF6FE7313400B601D4B5B6903F065
:103650000103002B05D11A4A194B5B6943F00103A2
:103660005361164B174ADA60144B174A9A60134A93
:10367000FB795360114A114B1B6843F4425343F0EA
:1036800011031360114A114B9B8A9BB243F08003D4
:103690009BB29382094A094B1B6843F001031360F4
:1036A0000A4A0A4B1B889BB223F040039BB213804B
:1036B0000E20FDF701FB0837BD4680BD44000240E7
:1036C00000100240EC18002004380140003801408E
:1036D00080B586B000AF0120012105F0A3FF0520D1
:1036E000012105F0BDFF25233B7500237B750023D9
:1036F000BB750123FB7507F11403184608F0F6FBB0
:103700004FF400733B820323BB741823FB7407F14F
:10371000100322481946FDF749F94FF480633B82B4
:103720000423FB7407F110031C481946FDF73EF90A
:103730001B4806F0DBFF28201A49FFF779FF4FF4FA
:103740008040012105F08CFF4FF416533B600023AD
:10375000BB800023FB8000233B810023BB810C2323
:103760007B813B460E48194607F01CF80C484FF485
:10377000587107F001F90A4A094B9B899BB243F043
:1037800020039BB293810648012107F0C5F825204C
:10379000FDF792FA1837BD4680BD00BF0008014012
:1037A00000380140EC18002080B588B000AF102030
:1037B000012105F055FF0220012105F06FFF07F1FF
:1037C0001C031846FDF7B2F94FF47073BB83032353
:1037D000BB771823FB7707F11C0321481946FDF737
:1037E000E5F820480121FDF7B5F907F11003184667
:1037F000FCF736FF4FF40073FB8240F2E733BB82E5
:10380000EF233B8207F1100317481946FCF7AAFC87
:103810003B461846FCF73EFF01237B8060233B803C
:103820000023FB803B4610481946FCF717FD3B463A
:103830000D481946FCF79EFD3B460B481946FCF720
:1038400021FE3B4608481946FCF7A2FE0648012126
:10385000FCF742FF00F00AF82037BD4680BD00BFEC
:1038600000100140000C1A000004004080B582B036
:1038700000AF0023FB710023FB7107E0FB791846C2
:10388000002101F0EFF9FB790133FB71FB79032B88
:10389000F4D90837BD4680BD80B588B000AF01209F
:1038A000012105F0DDFE0820012105F0D9FE4FF4CD
:1038B0000060012105F0D4FE07F11C031846FDF756
:1038C00035F94FF40053BB830323BB771823FB77F1
:1038D00007F11C0321481946FDF768F807F11003AA
:1038E0001846FCF7BDFE4FF40073FB8240F2E7334D
:1038F000BB8217233B8200237B8207F11003184809
:103900001946FCF72FFC3B461846FCF7C3FE012383
:103910007B8070233B804FF4FA73FB8002233B8152
:1039200000237B8101237B800423BB804FF48073C1
:10393000BB810023FB813B4609481946FCF78EFCFE
:1039400007480121FCF7C8FE05480121FCF7E4FE09
:1039500002F0A4FF2037BD4680BD00BF000C01402F
:10396000002C014080B582B000AF05F017FB0023AA
:10397000FB8000237B7105F011FB0A2006F09AF80A
:1039800005F00CFB234805F0A7FA234B00221A7020
:103990001EE004F025FD03461A461F4B1A701F4B0C
:1039A0001B88FB80052006F085F80120002105F02A
:1039B000D1FAFB881A4AA2FB03235B099BB2DBB254
:1039C000184604F02DFEFB88DBB2184604F028FEF2
:1039D000114B1B78DBB2022BDBD10A2006F06AF810
:1039E000FB8840F2D650194608F062FD02F010FF45
:1039F0004FF4FA6006F05EF80A4805F06DFA064BDF
:103A000000221A7005F0CAFA05F0AEF90837BD4673
:103A100080BD00BF00CB00081901002084000020F9
:103A20001F85EB5114CB000880B483B000AF034670
:103A3000FB71FB79002B0DD0FB79042B0AD82449AC
:103A4000234B5B69FA790332012000FA02F2134337
:103A50004B612AE0FB79042B0DD9FB79072B0AD89F
:103A60001C491C4B5B69FA790532012000FA02F20D
:103A700013434B6119E0FB79072B0DD9FB790B2B15
:103A80000AD81349124B5B69FA790332012000FA14
:103A900002F213434B6108E0FB790C2B05D10C4A71
:103AA0000B4B5B6943F480735361FB79012202FA8B
:103AB00003F39AB2084B1B889BB29BB213439BB291
:103AC0009AB2054B1A800C37BD465DF8047B7047EF
:103AD0000008014000100140D800002080B483B0ED
:103AE00000AF0346FB71FB79002B0DD0FB79042B53
:103AF0000AD82549244B1B69FA790332012000FAC0
:103B000002F213430B612AE0FB79042B0DD9FB79F8
:103B1000072B0AD81D491D4B1B69FA790532012074
:103B200000FA02F213430B6119E0FB79072B0DD960
:103B3000FB790B2B0AD81449134B1B69FA79033212
:103B4000012000FA02F213430B6108E0FB790C2B11
:103B500005D10D4A0C4B1B6943F480731361FB794B
:103B6000012202FA03F39BB2DB439AB2084B1B8893
:103B70009BB29BB213409BB29AB2054B1A800C3792
:103B8000BD465DF8047B704700080140001001400D
:103B9000D800002080B500AF012005F0CDFE034B1A
:103BA0001B680133014A136080BD00BF94180020D8
:103BB00080B500AF022005F0BFFE034B5B68013308
:103BC000014A536080BD00BF9418002080B500AF4B
:103BD000042005F0B1FE80BD80B500AF4FF48060D9
:103BE00005F0AAFE4FF4006005F0A6FE4FF48050E9
:103BF00005F0A2FE4FF4004005F07AFE0346002BCC
:103C000000F09F804FF4004005F096FE9E4B9B68AD
:103C100003F40043002B40F08F809C4B1B889BB229
:103C2000002B00F089809A4B9B8C9AB2994B1A809A
:103C3000974B00229A84954B1B889BB21A466423AB
:103C400003FB02F3934A128892B293FBF2F39AB207
:103C5000914B1A80914B1B78DBB2002B61D0904BBB
:103C60001B78DBB2002B5CD18B4B1B889BB23C2BAF
:103C70001BD9894B1B889BB24A2B16D8894B1B78C2
:103C8000DBB21A4601239340D843874B1B781A4670
:103C9000854B1B781946854B5B5CD9B2C3B20B4090
:103CA000DBB2D9B2814B995415E07E4B1B78DBB265
:103CB0001A46012303FA02F07B4B1B781A467A4B13
:103CC0001B781946794B5B5CD9B2C3B20B43DBB2AC
:103CD000D9B2764B9954734B1B78DBB2002B19D1B8
:103CE000704B07221A70704B1B780133DAB26E4B9F
:103CF0001A706D4B1B78052B13D1694B01221A707A
:103D0000694B00221A70674B07221A70684B012218
:103D10001A7006E0634B1B78DBB2013BDAB2614BF1
:103D20001A705E4B1B78DBB20133DAB25B4B1A7050
:103D3000564B00221A8004E0554B9B8C9AB2534B91
:103D40001A804FF4804005F0D3FD0346002B00F0AD
:103D5000B6804FF4804005F0EFFD4B4B9B6803F4B9
:103D60008043002B40F0A680484B1B889BB2002B61
:103D700000F0A080464B9B8C9AB2464B1A80444B75
:103D800000229A84414B1B889BB21A46642303FB92
:103D900002F3404A128892B293FBF2F39AB23E4B7E
:103DA0001A803E4B1B78DBB2002B61D03C4B1B785A
:103DB000DBB2002B5CD1384B1B889BB23C2B1BD950
:103DC000354B1B889BB24A2B16D8364B1B78DBB27F
:103DD0001A4601239340D843334B1B781A46324B83
:103DE0001B781946314B5B5CD9B2C3B20B40DBB2D6
:103DF000D9B22E4B995415E02A4B1B78DBB21A46E8
:103E0000012303FA02F0284B1B781A46264B1B7835
:103E10001946264B5B5CD9B2C3B20B43DBB2D9B2B5
:103E2000224B99541F4B1B78DBB2002B19D11D4B31
:103E300007221A701C4B1B780133DAB21A4B1A7026
:103E4000194B1B78052B13D1154B01221A70164BF9
:103E500000221A70134B07221A70154B00221A7099
:103E600006E0104B1B78DBB2013BDAB20D4B1A7047
:103E70000A4B1B78DBB20133DAB2084B1A70034BE2
:103E800000221A801BE000BF000C01409C000020B3
:103E9000004001409E000020A0000020B90000204A
:103EA000BA00002024000020BB00002024190020BC
:103EB00025000020024B9B8C9AB2024B1A8080BDD9
:103EC000004001409C00002080B582B000AF40F26D
:103ED000DC53FB800023BB80294B00221A7047E093
:103EE00004F07EFA03461A46254B1A700023BB8065
:103EF000FA883B1D1046194608F08EFA052005F099
:103F0000D9FD05F04BF81F4804F0E6FFFB88184682
:103F1000FDF700FE0120002105F01CF81A4804F00E
:103F2000DBFFBB881846FDF7F5FD154B1B78DBB2B0
:103F3000022B0AD1FB88B3F5FA6F03D2FB88013359
:103F4000FB8002E04FF4AF63FB800D4B1B78DBB2CC
:103F5000012B0AD1FB88B3F5AF6F03D9FB88013B76
:103F6000FB8002E04FF4FA63FB80192005F0A2FD0C
:103F7000034B1B78DBB2042BB2D10837BD4680BDA2
:103F80001901002020CB000828CB000880B582B0A2
:103F900000AF052005F08EFD0023FB7104F0FEFF4D
:103FA000464B00221A707DE0142005F083FD04F0DA
:103FB00017FA03461A46414B1A700020002104F0FC
:103FC000C9FF3F4804F088FFFB79184604F028FB3E
:103FD0003A4B1B78DBB2042B03D1FB791846FFF771
:103FE00023FD364B1B78DBB2032B03D1FB7918463C
:103FF000FFF774FD314B1B78DBB2012B08D1FB7945
:10400000092B03D8FB790133FB7101E00023FB711D
:10401000012005F04FFD0120002104F09BFF2948FD
:1040200004F05AFF284B1B889BB21846FDF772FD1F
:10403000012005F03FFD254804F04EFF244B9B680E
:1040400003F01003002B03D0224804F045FF02E0E8
:10405000214804F041FF1E4B9B6803F02003002B16
:1040600003D01C4804F038FF1CE01B4804F034FF68
:10407000174B9B6803F04003002B03D0154804F056
:104080002BFF02E0144804F027FF114B9B6803F458
:104090008073002B03D00F4804F01EFF02E00E488F
:1040A00004F01AFF054B1B78DBB2022B7FF47CAFC8
:1040B00004F074FF0837BD4680BD00BF1901002021
:1040C00030CB00083CCB0008D800002040CB0008D3
:1040D0000008014048CB00084CCB000880B584B0F4
:1040E00000AF0346FB800B467B7113463B710023F8
:1040F000FB730023BB7300237B73FA887B7942FA3E
:1041000003F37B730020002104F024FF514804F0E6
:10411000E3FE514B00221A7060E004F061F903469F
:104120001A464D4B1A700120002104F013FF0023A2
:10413000FB7305E0494804F0CFFEFB7B0133FB73C2
:10414000FA7B39797B79CB1A9A42F3DB012005F0AF
:10415000B1FC0023FB7309E00020002104F0FAFE0B
:104160003F4804F0B9FEFB7B0133FB73FA7B3979DE
:104170007B79CB1A9A42EFDBBB7B0020194604F017
:10418000E9FE344804F0A8FE052005F093FC324B0C
:104190001B78DBB2042B08D1BA7B39797B79CB1A37
:1041A0009A4202DABB7B0133BB732B4B1B78DBB229
:1041B000012B05D1BB7B002B02D0BB7B013BBB732A
:1041C000254B1B78DBB2032B08D1BB7B012202FA03
:1041D00003F3DAB27B7B5340DBB27B731E4B1B785D
:1041E000DBB2022B99D10023FB7325E07A7BFB7BAA
:1041F00042FA03F303F00103002B0DD0FA7B7B7925
:104200001344012BCCBF01230023DBB29AB2FB88FD
:1042100013439BB2FB800CE0FA7B7B7913440122B1
:1042200002FA03F39BB2DB439AB2FB8813409BB2C2
:10423000FB80FB7B0133FB73FA7B39797B79CB1AEB
:104240009A42D3DB02F0E4FAFB8818461037BD46E9
:1042500080BD00BF60CB00081901002048CB0008DA
:1042600058CB000880B586B000AF0346FB71002331
:10427000BB8200237B8100233B8100233B6104F050
:104280008DFE654804F028FEC82005F013FCFB797C
:104290009BB21A461201D31A9BB203F21E63BB8271
:1042A000BA8A07F10A031046194608F0B5F87B8967
:1042B000DBB2184602F0CAFE03469BB27B817B89C3
:1042C000BA8A1046194608F0F3F804F067FE002099
:1042D000052104F03FFE514804F0FEFDC82005F022
:1042E000E9FBFB799BB21A461201D31A9BB203F287
:1042F0002763BB82BA8A07F108031046194608F003
:104300008BF83B89184600210322FFF7E7FE03469E
:104310003B810023FB7511E004F062F803461A4666
:104320003F4B1A703E4B1B78DBB2042B03D1FB7D55
:10433000C3F10103FB75192005F0BCFB384B1B785A
:10434000DBB2002BE8D0FB7D012B05D13B8943F08C
:1043500001039BB23B8104E03B8923F001039BB244
:104360003B813B89BA8A1046194608F0A1F805201E
:1043700005F0A0FB02F04CFA0023FB60FB799BB236
:104380001A461201D31A9BB203F22163BB82BB8A85
:10439000184604F0EFFAF860F868012103F06AF9B2
:1043A000F860FB689BB2BA8A1046194608F080F89C
:1043B000FB799BB21A461201D31A9BB203F2236314
:1043C000BB82BB8A184604F0D5FAF860F868012170
:1043D00003F050F9F860FB689BB2BA8A10461946A0
:1043E00008F066F8FB799BB21A461201D31A9BB209
:1043F00003F21F63BB82BB8A184604F0BBFAF86065
:10440000F86802F039FFF860BB8A1846F96802F0D4
:1044100041FD1837BD4680BD64CB00086CCB000859
:104420001901002080B582B000AF0023FB7104F0B9
:10443000B5FD094804F050FDC82005F03BFBFB79B1
:10444000184602F003FE0346FB71FB79184600F0A4
:1044500021F80837BD4680BD78CB000880B582B012
:1044600000AF0023FB7104F099FD094804F034FD0E
:10447000C82005F01FFBFB79184602F0E7FD034654
:10448000FB71FB791846FFF7EDFE0837BD4680BD8E
:1044900078CB000880B584B000AF0346FB710023E1
:1044A000FB810023BB81FB799BB21A469200134427
:1044B0009BB203F2A563FB81FA8907F10C03104656
:1044C000194607F0A9FF04F069FD574804F004FD00
:1044D000BB89184602F010FE0346BB81BB89FA89EE
:1044E0001046194607F0E4FFFB799BB21A4692008A
:1044F00013449BB203F2A663FB81FA8907F10C0314
:104500001046194607F088FF04F048FD474804F0BC
:10451000E3FCBB89184602F0EFFD0346BB81BB8973
:10452000FA891046194607F0C3FFFA8907F10C0310
:104530001046194607F070FF04F030FD3C4804F0C7
:10454000CBFCBB89184602F0D7FD0346BB81BB8973
:10455000FA891046194607F0ABFFFB799BB21A4661
:10456000920013449BB203F2A763FB81FA8907F11F
:104570000C031046194607F04FFF04F00FFD2D48BD
:1045800004F0AAFCBB89184602F0B6FD0346BB81C5
:10459000BB89FA891046194607F08AFFFB799BB25E
:1045A0001A46920013449BB203F2A763FB81FA8977
:1045B00007F10C031046194607F02EFF04F0EEFC3D
:1045C0001D4804F089FCBB89184602F095FD03469E
:1045D000BB81BB89FA891046194607F069FFFA8941
:1045E00007F10C031046194607F016FF04F0D6FC3D
:1045F000124804F071FCBB89184602F07DFD0346A9
:10460000BB810A2005F056FABB89FA891046194683
:1046100007F04EFF04F0C2FC0A2005F04BFA04F04C
:10462000A3FB1037BD4680BD84CB000898CB0008A3
:10463000A8CB0008B8CB0008C4CB0008D4CB000836
:1046400090B585B000AF0023BB730023FB7304F06B
:10465000A5FC354804F040FCC82005F02BFABB7BD4
:10466000184602F0F3FC0346BB7304F097FC2F4896
:1046700004F032FCBB7B184603F0D2FF2C4804F058
:104680002BFC0023FB7306E01E2005F013FA03F059
:10469000A7FE0346FB73FB7B022B02D0FB7B032BA5
:1046A000F2D1C82005F006FAFB7B022B33D1BA7B8E
:1046B00013461B019B1A03F21F63BB60BB689BB2CE
:1046C000184604F057F97860BA7B13461B019B1A11
:1046D00003F22163BB6003F027FC3860BB689BB228
:1046E0001846396802F0D6FBBA7B13461B019B1AA9
:1046F00003F22563BB60BB689CB203F015FC024665
:104700007B68D31A05332046194602F0C3FBBB7BF6
:10471000184600F00FF804F041FCC82005F0CAF973
:104720001437BD4690BD00BF78CB0008E0CB000831
:10473000ECCB000880B58EB000AF0346FB71994BFF
:1047400000221A70984B02221A70FB79012202FA99
:1047500003F3DAB2954B1B78DBB2DBB21343DBB267
:10476000DAB2924B1A7000233B6303F0DDFB38632F
:104770008D4B03221A7000233B82002387F83730C9
:104780000023FB620023BB6200237B6200233B62A9
:104790000023FB830023BB830023FB8100237B8357
:1047A00000233B830023BB810023FB750023BB75E3
:1047B00003F0BAFB38623B6A7B627B4B04221A70BF
:1047C000642005F077F97A4B5B88BB83FB799BB259
:1047D0001A461201D31A9BB203F21E637B837A8BB3
:1047E00007F10E031046194607F016FEFB89DBB2EF
:1047F0009BB2FB81642005F05DF96E4B5B889AB239
:104800006B4B5B889BB2D31AFB8304F0C7FB6A48EF
:1048100004F062FBFB8B694AA2FB03235B099BB29A
:10482000DBB2184603F0FCFEFB8BDBB2184603F04C
:10483000F7FE634804F050FB5D4B5B889BB2184663
:10484000FDF768F90120002104F084FB5D4804F0C5
:1048500043FB584B5B889BB21846FDF75BF95A48FF
:1048600004F03AFBFB891846FDF754F94FF4FA506F
:1048700005F020F9FCF75CFEFB89544AA2FB0323F8
:104880005B089BB2FA8B9A4280F0E580FB89BA8B79
:10489000D31AFB83FB8B1846002101F027F8C820B0
:1048A00005F008F908F040F83F4B06221A70BB8B60
:1048B000DAB23F4B5B889BB2DBB2D31AFB75FB8944
:1048C0001A461346DB001344414A82FB031292103E
:1048D000DB17D31ABB75002387F83730B6E00A2000
:1048E00005F0E8F897F837305733DAB22E4B1A70E4
:1048F00000237B83FB799BB21A461201D31A9BB229
:1049000003F21F637B837B8B184604F033F8B86295
:10491000FB799BB21A461201D31A9BB203F22163B0
:104920007B837B8B184604F025F87862642005F0C1
:10493000C1F897F837309BB21A46920013449BB2E5
:1049400003F2A7637B837A8B07F1100310461946A5
:1049500007F062FD0023BB8600237B75642005F011
:10496000A9F83B8A002B35D003F0DEFA02467B6AB9
:10497000D21ABB6AB2FBF3F3FB62642005F09AF82B
:10498000094BC8221A70C82005F094F83B8ADAB2A5
:10499000FB6AB3FBF2F102FB01F29B1A7B75012368
:1049A000BB8619E0300000201A01002054010020CD
:1049B0008400002048010020F0CB00081F85EB5147
:1049C000F4CB0008F8CB0008FCCB0008ABAAAAAADD
:1049D000676666660023BB86322005F06BF83B8A6B
:1049E0001B0A3B833B8B002B2BD03B8BFE2B28D809
:1049F0003B8B013B3B8300237B83FB799BB23A8B50
:104A00009A4218D1BB8E002B15D0584B63221A70D6
:104A10004FF4C87005F04EF897F83730184600F09C
:104A2000AFF897F837306433DAB2504B1A704FF45E
:104A3000FA6005F03FF8642005F03CF84B4B082283
:104A40001A7097F83730013387F8373097F83730D6
:104A5000082B7FF644AF322005F02CF8434B092297
:104A60001A70FB799BB21A461201D31A9BB203F259
:104A700027637B837A8B07F10C031046194607F0F6
:104A8000CBFCFCF755FD0B20FEF7CEFFBB8918468B
:104A9000FCF72AFD354B0A221A7000233B750023D0
:104AA0007B82334B1B783B75314B30221A7032209E
:104AB00005F000F8FB799BB21A461201D31A9BB29B
:104AC00003F21D637B830023FB817A8B07F10E03C6
:104AD0001046194607F0A0FCFB891A46BB89104610
:104AE000194600F0ADFEFB799BB21A461201D31AAB
:104AF0009BB203F225637B837B8B1846396B02F0F4
:104B0000C9F91A4B0C221A7044F6206004F0D2FF47
:104B1000174A3B7D1370174B1B78DBB223F0080359
:104B2000DAB2144B1A70114B0D221A704FF47A70CE
:104B300004F0C0FFFCF7FCFCFB79012202FA03F34E
:104B4000DBB2DB43DAB20C4B1B78DBB2DBB21340D7
:104B5000DBB2DAB2084B1A70084B01221A70C82077
:104B600004F0A8FF3837BD4680BD00BF1A01002001
:104B7000260000201B0100205401002030000020EE
:104B800080B586B000AF0346FB71FCF7D1FC322044
:104B900004F090FF0023FB810023BB8100237B8175
:104BA0000023FB8200233B61FB799BB21A469200F3
:104BB00013449BB203F2A663FB82FA8A07F10E0349
:104BC0001046194607F028FC322004F073FFFB79E9
:104BD0009BB21A46920013449BB203F2A563FB8278
:104BE000FA8A07F10C031046194607F015FCFB7909
:104BF000C3F1FF2303F57F03C833DAB2184B1A70F1
:104C0000282004F057FF07F08FFE0023FB82FB797A
:104C10009BB21A46920013449BB203F5D563FB8204
:104C2000282004F047FFFA8A07F10A0310461946C4
:104C300007F0F2FB282004F03DFF07F075FE7989AC
:104C4000FA89BB89DBB2084611461A46012300F0F7
:104C500033FD4FF4C87004F02DFF1837BD4680BDFA
:104C60001A01002080B584B000AF03460A46FB71EC
:104C70001346BB710023FB81BB79002B0ED0FB795F
:104C8000012202FA03F3DAB2334B1B78DBB2DBB258
:104C90001343DBB2DAB2304B1A700FE0FB7901221A
:104CA00002FA03F3DBB2DB43DAB22B4B1B78DBB245
:104CB000DBB21340DBB2DAB2274B1A70BB79012B9F
:104CC00002D10023BB7113E0BB79652B0CD107F136
:104CD0000E0340F21760194607F09EFB022004F015
:104CE000E9FEFB89BB7103E0BB79C3F16403BB71CF
:104CF000FB79002B08D1194ABB799BB21946890070
:104D00000B445B009BB29386FB79012B08D1134ABD
:104D1000BB799BB2194689000B445B009BB2138799
:104D2000FB79022B08D10D4ABB799BB21946890049
:104D30000B445B009BB29387FB79032B09D1074A95
:104D4000BB799BB2194689000B445B009BB2A2F869
:104D500040301037BD4680BD5601002000040040A1
:104D600080B584B000AF03460A46FB711346BB71A1
:104D70000023FB6003F0D8F803460133FB6002E038
:104D8000022004F097FE03F0CFF80246FB689A4237
:104D9000F6D303F0C9F80246BB791344FB60FB79F4
:104DA00018460121FFF75EFF02E0022004F082FEB8
:104DB00003F0BAF80246FB689A42F6D3FB7918462C
:104DC0000021FFF74FFF1037BD4680BD80B58CB086
:104DD00000AF786000237B6200233B620023FB610D
:104DE0000023FB620023BB6100237B6100237B82E5
:104DF0000023BB8100237B74002387F82B30002322
:104E00003B74002387F82A300023FB81FCF790FBDA
:104E100044F6206004F04EFE002387F82B30D4E0E7
:104E20000A2004F047FE97F82B309BB21A46120175
:104E3000D31A9BB203F221637B827B8A184603F06C
:104E400099FDB86197F82B309BB21A461201D31A1C
:104E50009BB203F223637B827B8A184603F08AFDB0
:104E60007861322004F026FE97F82B309BB21A4668
:104E70001201D31A9BB203F21E637B827A8A07F176
:104E80000C031046194607F0C7FABB891B0A9BB2F0
:104E900087F82A30322004F00DFE4F4B1B68DAB23F
:104EA00097F82A3013403B743B7C002B03D001233E
:104EB00087F82A3002E0002387F82A30142004F013
:104EC000F9FD00233B7497F82B309BB21A46120170
:104ED000D31A9BB203F227637B820023BB817A8AB9
:104EE00007F10C031046194607F096FA4FF4FA70D2
:104EF00004F0E0FDBB89FB8197F82B309BB21A468A
:104F00001201D31A9BB203F225637B827B8A184677
:104F100003F030FD386297F82B309BB21A4612012D
:104F2000D31A9BB203F21F637B827B8A184603F07D
:104F300021FDF8610A2004F0BDFD02F0F5FF0246F4
:104F40003B6A9A4206D902F0EFFF02463B6AD31A47
:104F5000FB6201E00023FB6202F0E6FF7862FA6A7E
:104F6000FB699A4217D97A6ABB699A4213D97A6A5D
:104F70007B699A420FD2FB89002B0CD097F82A301C
:104F8000012B08D1154B1B68002B04D197F82B304F
:104F90001846FFF7CFFB322004F08CFD104B1B7836
:104FA000642B0AD90D4B01221A600D4B1B78184651
:104FB00000F04CFD094B00221A60322004F07AFD0B
:104FC00097F82B30013387F82B3097F82B30072BCD
:104FD0007FF626AF20E700BF1C0100206001002003
:104FE0005901002080B582B000AF786004F0E2FD86
:104FF0000620FEF719FD07F097FC7868FCF7CAF960
:105000000320FEF711FD07F08FFC7868FCF7C2F96A
:105010000120FEF709FD07F087FC7868FCF7BAF974
:105020000720FEF701FD07F07FFC7868FCF7B2F976
:105030000220FEF7F9FC07F077FC7868FCF7AAF984
:105040000C20FEF7F1FC07F06FFC04F0C1FD0837FF
:10505000BD4680BD80B582B000AF786004F0AAFD87
:105060000620FEF73BFD07F05FFC7868FCF792F93D
:105070000320FEF733FD07F057FC7868FCF78AF948
:105080000120FEF72BFD07F04FFC7868FCF782F952
:105090000720FEF723FD07F047FC7868FCF77AF954
:1050A0000220FEF71BFD07F03FFC7868FCF772F961
:1050B0000C20FEF713FD07F037FC04F089FD0837DC
:1050C000BD4680BD80B582B000AF786004F072FD4F
:1050D0000C20FEF7A9FC07F027FC7868FCF75AF9CA
:1050E0000220FEF7A1FC07F01FFC7868FCF752F9DC
:1050F0000720FEF799FC07F017FC7868FCF74AF9DF
:105100000120FEF791FC07F00FFC7868FCF742F9EC
:105110000320FEF789FC07F007FC7868FCF73AF9F2
:105120000620FEF781FC07F0FFFB04F051FD083775
:10513000BD4680BD80B582B000AF786004F03AFD16
:105140000C20FEF7CBFC07F0EFFB7868FCF722F9A8
:105150000220FEF7C3FC07F0E7FB7868FCF71AF9BA
:105160000720FEF7BBFC07F0DFFB7868FCF712F9BD
:105170000120FEF7B3FC07F0D7FB7868FCF70AF9CB
:105180000320FEF7ABFC07F0CFFB7868FCF702F9D1
:105190000620FEF7A3FC07F0C7FB04F019FD083753
:1051A000BD4680BD80B582B000AF786004F002FDDE
:1051B0000120FEF739FC0720FEF736FC07F0B4FBB0
:1051C0007868FCF7E7F80320FEF72EFC0220FEF7D4
:1051D0002BFC07F0A9FB7868FCF7DCF80620FEF74B
:1051E00023FC0C20FEF720FC07F09EFB04F0F0FCF3
:1051F0000837BD4680BD00BF80B582B000AF786083
:1052000004F0D8FC0120FEF769FC0720FEF766FCDD
:1052100007F08AFB7868FCF7BDF80320FEF75EFC18
:105220000220FEF75BFC07F07FFB7868FCF7B2F822
:105230000620FEF753FC0C20FEF750FC07F074FB31
:1052400004F0C6FC0837BD4680BD00BF80B582B003
:1052500000AF786004F0AEFC0620FEF7E5FB07F037
:1052600063FB7868FCF796F80320FEF7DDFB062069
:10527000FEF734FC07F058FB7868FCF78BF8012048
:10528000FEF7D2FB0320FEF729FC07F04DFB786800
:10529000FCF780F80720FEF7C7FB0120FEF71EFC95
:1052A00007F042FB7868FCF775F80220FEF7BCFBBC
:1052B0000720FEF713FC07F037FB7868FCF76AF865
:1052C0000C20FEF7B1FB0220FEF708FC07F02CFBD8
:1052D0007868FCF75FF80C20FEF700FC07F024FB71
:1052E00004F076FC0837BD4680BD00BF80B582B0B3
:1052F00000AF786004F05EFC07F016FB0C20FEF7B0
:1053000093FB7868FCF746F80220FEF78DFB0C2033
:10531000FEF7E4FB07F008FB7868FCF73BF8072092
:10532000FEF782FB0220FEF7D9FB07F0FDFA786852
:10533000FCF730F80120FEF777FB0720FEF7CEFBE5
:1053400007F0F2FA7868FCF725F80320FEF76CFB0B
:105350000120FEF7C3FB07F0E7FA7868FCF71AF8BC
:105360000620FEF761FB0320FEF7B8FB07F0DCFA2E
:105370007868FCF70FF80620FEF7B0FB07F0D4FAC8
:1053800004F026FC0837BD4680BD00BF80B584B060
:1053900000AF0346FB710023FB73FB791846FEF751
:1053A00043FB0023FB7307E007F0BEFA0A2004F07A
:1053B00081FBFB7B0133FB73FB7B312BF4D9FB7946
:1053C0001846FEF78BFB1037BD4680BD80B582B016
:1053D00000AF0023FB710023FB7106E0FB79184648
:1053E000FFF7D4FFFB790133FB71FB790E2BF5D965
:1053F000642003F079FB0023BB714FF47A70FFF750
:10540000F1FD4FF47A70FFF725FE4FF4FA7004F0C7
:1054100051FB4FF47A70FFF755FE4FF47A70FFF7A7
:1054200089FE4FF4FA7004F045FBFCF781F8002385
:10543000BB7112E0BB794FF4FA7202FB03F318461A
:10544000FFF704FFBB794FF4FA7202FB03F318462F
:10545000FFF74CFFBB790133BB71BB79042BE9D952
:10546000642004F027FB4FF47A70FFF79BFE642062
:1054700004F020FB4FF47A70FFF7BEFE4FF4FA7091
:1054800004F018FB0837BD4680BD00BF80B582B070
:1054900000AF0023FB710023BB710023BB711BE035
:1054A000FFF794FF0023FB7110E0FB791846FEF72D
:1054B000BBFAC82004F0FEFAFB791846FEF70EFB93
:1054C000C82004F0F7FAFB790133FB71FB790F2B4D
:1054D000EBD9BB790133BB71BB79042BE0D9022036
:1054E000012103F0C7FAC82004F0E4FA02200021E9
:1054F00003F0C0FAC82004F0DDFA0220012103F015
:10550000B9FAC82004F0D6FA0220002103F0B2FA5A
:10551000C82004F0CFFA0023FB710EE0444AFB7967
:105520009BB2194689000B445B009BB293860A200C
:1055300004F0C0FAFB790133FB71FB793B2BEDD909
:105540003C23FB710EE03A4AFB799BB21946890075
:105550000B445B009BB293860A2004F0ABFAFB7904
:10556000013BFB71FB79002BEDD1314B4FF47A728B
:105570009A860023FB710EE02D4AFB799BB21946F7
:1055800089000B445B009BB213870A2004F092FA57
:10559000FB790133FB71FB793B2BEDD9244B4FF4A5
:1055A0007A721A870023FB710EE0214AFB799BB2C5
:1055B000194689000B445B009BB293870A2004F0D4
:1055C00079FAFB790133FB71FB793B2BEDD9184B51
:1055D0004FF47A729A870023FB710FE0144AFB792B
:1055E0009BB2194689000B445B009BB2A2F8403085
:1055F0000A2004F05FFAFB790133FB71FB793B2B46
:10560000ECD90B4B4FF47A72A3F84020094B0022DF
:105610009A864FF47A7004F04DFA064B4FF47A7282
:105620009A864FF47A7004F045FA0837BD4680BD7B
:1056300000040040002C014080B584B000AF034658
:10564000FB800023BB600023FB60FB88BB60BB6862
:105650009BB2BB6002F068FC0246BB681344BB60AF
:10566000FBF766FF0B20FEF7DFF90420FEF7DCF9FD
:1056700002F05AFCF8600EE002F056FCF860C82018
:1056800004F018FA01F0DAF80A4B1B78DBB2002BB1
:1056900001D107F049F9FA68BB689A42ECD301F0EE
:1056A000FDF84FF4FA7004F005FAFBF741FF1037EC
:1056B000BD4680BDCC00002090B587B000AF044649
:1056C000084611461A462346FB800346BB800B461C
:1056D000FB701346BB7000233B610023FB6000237B
:1056E0007B6102F021FC7861BB88FB60FB689BB2A8
:1056F000FB60FA687B691344FB60FB883B613B6994
:105700009BB23B613A697B6913443B61FBF710FF35
:105710000B20FEF789F90420FEF786F9642004F0D7
:10572000C9F901F08BF8BB88DAB2F978BB78084682
:1057300011461A46FDF774FA19E002F0F5FB78619C
:10574000154B1B78DBB2002B01D107F0EDF8C82018
:1057500004F0B0F9BB88DAB2104B1A7001F06EF8A1
:105760000D4B1B78DBB2002B01D107F0DDF87A6915
:105770003B699A42E1D301F091F8FB781846002189
:10578000FFF770FA4FF4FA7004F094F9FBF7D0FECB
:105790001C37BD4690BD00BFCC0000201A01002080
:1057A00080B584B000AF03460A46FB8013467B7188
:1057B0000023BB600023FB60FB88BB60BB689BB21F
:1057C000BB6002F0B1FB0246BB681344BB60FBF751
:1057D000AFFE0B20FEF728F97B791846FEF724F977
:1057E00002F0A2FBF8600EE002F09EFBF860C82019
:1057F00004F060F901F022F8104B1B78DBB2002BAB
:1058000001D107F091F8FA68BB689A42ECD301F035
:1058100045F8BB680533BB6007E002F085FBF86024
:10582000C82004F047F907F07FF8FA68BB689A428D
:10583000F3D3FBF77DFE1037BD4680BDCC000020C2
:1058400080B584B000AF03460A46FB801346BB8098
:105850000023BB600023FB60FB88BB60BB689BB27E
:10586000BB6002F061FB0246BB681344BB60FBF700
:105870005FFE0B20FEF7D8F8BB881846FBF734FE16
:1058800002F052FBF8600EE002F04EFBF860C82018
:1058900004F010F900F0D2FF134B1B78DBB2002BA1
:1058A00001D107F041F8FA68BB689A42ECD300F0E6
:1058B000F5FFBB680533BB600CE002F035FBF86018
:1058C000C82004F0F7F8084B1B78DBB2002B01D19D
:1058D00007F02AF8FA68BB689A42EED3FBF728FE75
:1058E0001037BD4680BD00BFCC00002080B584B01D
:1058F00000AF03460A46FB8013467B710023FB8101
:10590000124B5B88FB81FBF713FE0420FEF78CF83B
:105910000FE00A20FEF788F800F090FF4FF4C870FF
:1059200004F0C8F80A4B1B78DBB2002B01D106F05B
:10593000FBFF064B5B889BB2FA889A42E9D300F0E2
:10594000ADFFFBF7F5FD1037BD4680BD840000209C
:10595000CC00002080B584B000AF03460A46FB802F
:1059600013467B710023FB810023BB81FBF7E0FD25
:10597000174B5B88FB81FA89FB88D31ABB81042013
:10598000FEF752F80FE00A20FEF74EF800F056FF3F
:105990004FF4C87004F08EF80E4B1B78DBB2002B6E
:1059A00001D106F0C1FF0A4B5B889BB2BA899A42CB
:1059B000E9D300F073FF0A20FEF790F84FF47A70F5
:1059C00004F078F8FBF7B4FD1037BD4680BD00BF8A
:1059D00084000020CC00002080B584B000AF0346D6
:1059E0000A46FB8013467B710023FB81FBF7A0FD79
:1059F000144B5B88FB810B20FEF716F810E07B79D7
:105A00001846FEF711F800F019FF4FF4C87004F0C3
:105A100051F80D4B1B78DBB2002B01D106F084FF4F
:105A2000084B5B889BB2FA889A42E8D800F036FFB0
:105A30004FF47A7004F03EF8FBF77AFD1037BD465C
:105A400080BD00BF84000020CC00002080B584B061
:105A500000AF0346FB710023FB810023BB81FB7970
:105A6000653B062B00F2938001A252F823F000BFA1
:105A70008F5B00088D5A0008B55A0008D55A0008F7
:105A8000175B00083F5B0008675B0008434B1B780F
:105A9000DBB21B029AB2414B5B78DBB29BB2134480
:105AA000FB813E4B9B78DBB2FA8910461946FFF723
:105AB00077FE6CE0394B1B78DBB21B029AB2374B96
:105AC0005B78DBB29BB21344FB81FB891846FFF77E
:105AD000B3FD5CE0314B1B78DBB21B029AB22F4B5B
