:020000040800F2
:100000002C1D0020D9070008EDB00008F9B0000849
:1000100001B1000809B1000811B10008000000009A
:10002000000000000000000000000000E5BE000825
:1000300019B1000800000000B9BF0008F5BF0008B2
:10004000350800083508000835080008350800089C
:1000500035080008350800081D410008394100082E
:100060005541000835080008350800083508000823
:100070003508000835080008893B0008A53B000842
:1000800035080008350800083508000800000000A1
:10009000000000000000000000000000C96000082F
:1000A00035080008B1600008BD6000083508000888
:1000B00035080008350800089D61000825B10008D2
:1000C000DDB60008B9B3000845B6000835080008D9
:1000D0003508000821250008350800083508000803
:1000E00061410008350800083508000800000000DC
:1000F0000000000000000000000000000000000000
:1001000000000000000000000000000000000000EF
:100110000000000000000000350800083508000855
:100120005FF808F180B588B000AF786007F1080388
:10013000184609F08BFCFB68094AA2FB03235B0B02
:100140007A6802FB03F3FB610023FB6102E0FB69B9
:10015000013BFB61FB69002BF9D12037BD4680BD17
:100160005917B7D180B485B000AF786039600023EB
:10017000FB817B681B88FB817B682E4A934213D0EE
:100180007B682D4A93420FD07B68B3F1804F0BD030
:100190007B682A4A934207D07B68294A934203D05E
:1001A0007B68284A934208D1FB8923F07003FB81C6
:1001B0003B685A88FB891343FB817B68224A934240
:1001C0000CD07B68214A934208D0FB8923F440730A
:1001D000FB813B68DA88FB891343FB817B68FA89E2
:1001E0001A803B689A887B689A853B681A887B6886
:1001F0001A857B680F4A93420FD07B680E4A934260
:100200000BD07B68124A934207D07B68114A934215
:1002100003D07B68104A934204D13B681B7A9AB2A0
:100220007B681A867B6801229A821437BD465DF886
:10023000047B7047002C0140003401400004004062
:1002400000080040000C0040001000400014004076
:1002500000400140004401400048014080B485B0A6
:1002600000AF7860396000237B810023FB8100238D
:10027000BB817B681B8C9BB223F001039AB27B6825
:100280001A847B681B8CFB817B689B88BB817B68A5
:100290001B8B7B817B8923F070037B817B8923F01F
:1002A00003037B813B681A887B8913437B81FB892D
:1002B00023F00203FB813B681A89FB891343FB810E
:1002C0003B685A88FB891343FB817B68244A93422D
:1002D0000FD07B68234A93420BD07B68224A93421B
:1002E00007D07B68214A934203D07B68204A93421F
:1002F00023D1FB8923F00803FB813B685A89FB89E2
:100300001343FB81FB8923F00403FB813B689A883C
:10031000FB891343FB81BB8923F48073BB81BB89B9
:1003200023F40073BB813B689A89BB891343BB816B
:100330003B68DA89BB891343BB817B68BA899A80A1
:100340007B687A891A833B68DA887B689A867B683F
:10035000FA891A841437BD465DF8047B704700BFE4
:10036000002C0140003401400040014000440140A5
:100370000048014080B485B000AF78603960002348
:100380007B810023FB810023BB817B681B8C9BB29C
:1003900023F010039AB27B681A847B681B8CFB8164
:1003A0007B689B88BB817B681B8B7B817B8923F46B
:1003B000E0437B817B8923F440737B813B681B880E
:1003C0001B029AB27B8913437B81FB8923F02003B4
:1003D000FB813B681B891B019AB2FB891343FB819C
:1003E0003B685B881B019AB2FB891343FB817B68E6
:1003F000224A934203D07B68214A93422BD1FB8946
:1004000023F08003FB813B685B891B019AB2FB8967
:100410001343FB81FB8923F04003FB813B689B88EE
:100420001B019AB2FB891343FB81BB8923F48063D0
:10043000BB81BB8923F40063BB813B689B899B0024
:100440009AB2BB891343BB813B68DB899B009AB29C
:10045000BB891343BB817B68BA899A807B687A89A0
:100460001A833B68DA887B681A877B68FA891A8462
:100470001437BD465DF8047B704700BF002C014077
:100480000034014080B485B000AF7860396000234B
:100490007B810023FB810023BB817B681B8C9BB28B
:1004A00023F480739AB27B681A847B681B8CFB816F
:1004B0007B689B88BB817B689B8B7B817B8923F0DE
:1004C00070037B817B8923F003037B813B681A885F
:1004D0007B8913437B81FB8923F40073FB813B6899
:1004E0001B891B029AB2FB891343FB813B685B8823
:1004F0001B029AB2FB891343FB817B68224A934219
:1005000003D07B68214A93422BD1FB8923F40063FB
:10051000FB813B685B891B029AB2FB891343FB8119
:10052000FB8923F48063FB813B689B881B029AB2A2
:10053000FB891343FB81BB8923F48053BB81BB89B7
:1005400023F40053BB813B689B891B019AB2BB8992
:100550001343BB813B68DB891B019AB2BB89134300
:10056000BB817B68BA899A807B687A899A833B6869
:10057000DA887B689A877B68FA891A841437BD46C3
:100580005DF8047B704700BF002C0140003401403F
:1005900080B485B000AF786039600023BB81002350
:1005A0007B810023FB817B681B8C9BB223F48053EF
:1005B0009AB27B681A847B681B8C7B817B689B88E2
:1005C000FB817B689B8BBB81BB8923F4E043BB81B0
:1005D000BB8923F44073BB813B681B881B029AB222
:1005E000BB891343BB817B8923F400537B813B6828
:1005F0001B891B039AB27B8913437B813B685B8811
:100600001B039AB27B8913437B817B68124A934216
:1006100003D07B68114A93420AD1FB8923F48043BB
:10062000FB813B689B899B019AB2FB891343FB8149
:100630007B68FA899A807B68BA899A833B68DA88F2
:100640007B68A3F840207B687A891A841437BD46FA
:100650005DF8047B704700BF002C0140003401406E
:1006600080B483B000AF78607B684FF6FF729A80E9
:100670007B6800221A807B680022DA807B68002277
:100680005A807B6800221A720C37BD465DF8047BE5
:10069000704700BF80B483B000AF78607B680022F1
:1006A0001A807B6800225A807B6800229A807B68CF
:1006B0000022DA807B6800221A817B6800225A813E
:1006C0007B6800229A817B680022DA810C37BD4664
:1006D0005DF8047B704700BF80B483B000AF7860E2
:1006E0000B46FB70FB78002B08D07B681B889BB205
:1006F00043F001039AB27B681A8007E07B681B888D
:100700009BB223F001039AB27B681A800C37BD4676
:100710005DF8047B704700BF80B483B000AF7860A1
:100720000B46FB70FB78002B0CD07B68B3F8443091
:100730009BB26FEA43436FEA53439AB27B68A3F8D4
:10074000442009E07B68B3F844309BB2C3F30E0346
:100750009AB27B68A3F844200C37BD465DF8047B51
:10076000704700BF80B485B000AF78600B467B80D7
:100770000023FB730023BB8100237B817B681B8AE2
:100780009AB27B881340BB817B689B899AB27B8835
:1007900013407B81BB89002B05D07B89002B02D0C5
:1007A0000123FB7301E00023FB73FB7B1846143726
:1007B000BD465DF8047B704780B483B000AF7860BD
:1007C0000B467B807B88DB439AB27B681A820C37AE
:1007D000BD465DF8047B704780B582B000AF104B1A
:1007E0007B60104B3B6007E03B681A1D3A607A68FB
:1007F000111D796012681A603B680B4A9342F3D36B
:100800000A480B494FF000028842B8BF40F8042B59
:10081000FADB00F0A9FC08F047FC0837BD4680BDB4
:100820005CD8000800000020840000208800002020
:100830003019002080B400AFFEE700BF80B400AFE5
:1008400062B6BD465DF8047B704700BF80B400AF60
:1008500072B6BD465DF8047B704700BF80B586B0B8
:1008600000AFF860B9607A60FB7000237B61002301
:100870003B61FB689B889BB243F480739AB2FB6830
:100880009A80FB78022B40F08C80F868B9687A680F
:10089000012300F0F3FBFB689B889BB243F4805379
:1008A0009AB2FB689A80FB689B889BB243F4006312
:1008B0009AB2FB689A804FF6FF733B61FB681B8816
:1008C0009BB243F480739AB2FB681A8006E03B69DE
:1008D0005A1E3A61002B01D1002379E2FB689B8A02
:1008E0009BB203F00103002BF1D04FF6FF733B6185
:1008F00097F8203043F0010387F82030964A97F8A4
:1009000020301370944B1B78DBB29AB2FB681A82CA
:1009100006E03B695A1E3A61002B01D1002357E2E1
:10092000FB689B8A9BB203F00203002BF1D0FB68AB
:100930001B8B9BB27B61FB68884A934210D100BF3E
:100940004FF000700BF096FC0346002BF8D0844863
:1009500000210BF073FC4FF000700BF0B5FC0FE0C2
:1009600000BF4FF400300BF085FC0346002BF8D09D
:100970007C4800210BF062FC4FF400300BF0A4FC2B
:10098000FB681B889BB243F400739AB2FB681A8021
:1009900000BFFB681B889BB203F40073002BF8D1E7
:1009A00015E2FB78002B40F0CA817B68012B72D1E5
:1009B0004FF6FF733B61FB681B889BB243F4807367
:1009C0009AB2FB681A8006E03B695A1E3A61002B16
:1009D00001D10023FCE1FB689B8A9BB203F0010379
:1009E000002BF1D097F8203043F0010387F8203036
:1009F000594A97F820301370574B1B78DBB29AB2E4
:100A0000FB681A824FF6FF733B6106E03B695A1E92
:100A10003A61002B01D10023DAE1FB689B8A9BB28B
:100A200003F00203002BF1D0FB681B889BB223F478
:100A300080639AB2FB681A80FFF708FFFB681B8B84
:100A40009BB27B61FB681B889BB243F400739AB234
:100A5000FB681A80FFF7F2FE00BFFB689B8A9BB21F
:100A600003F04003002BF8D0FB681B8A9BB2DAB27C
:100A7000BB681A7000BFFB681B889BB203F400734D
:100A8000002BF8D1FB681B889BB243F480639AB2B9
:100A9000FB681A809BE17B68022B40F0A380FB6817
:100AA0001B889BB243F400639AB2FB681A804FF62E
:100AB000FF733B61FB681B889BB243F480739AB25F
:100AC000FB681A8006E03B695A1E3A61002B01D18F
:100AD00000237DE1FB689B8A9BB203F00103002B9E
:100AE000F1D04FF6FF733B6197F8203043F00103DC
:100AF00087F82030184A97F820301370164B1B786F
:100B0000DBB29AB2FB681A8206E03B695A1E3A6170
:100B1000002B01D100235BE1FB689B8A9BB203F0B1
:100B20000203002BF1D0FFF791FEFB681B8B9BB2F9
:100B30007B61FB681B889BB223F480639AB2FB68DD
:100B40001A80FFF77BFE0FE03B695A1E3A61002BCB
:100B50000AD100233CE100BF881800200054004067
:100B60008000024058000240FB689B8A9BB203F061
:100B70000403002BE8D0FFF769FEF86801210BF0B1
:100B800015FDFB681B8A9BB2DAB2BB681A70FFF7CF
:100B900055FEBB680133BB60FB681B8A9BB2DAB2AF
:100BA000BB681A7006E03B695A1E3A61002B01D1FE
:100BB00000230DE1FB681B889BB203F40073002B3C
:100BC000F1D1FB681B889BB243F480639AB2FB6847
:100BD0001A80FB681B889BB223F400639AB2FB68FF
:100BE0001A80F4E04FF6FF733B61FB681B889BB2F1
:100BF00043F480739AB2FB681A8006E03B695A1E80
:100C00003A61002B01D10023E2E0FB689B8A9BB292
:100C100003F00103002BF1D04FF6FF733B6197F80F
:100C2000203043F0010387F820306B4A97F82030DA
:100C30001370694B1B78DBB29AB2FB681A8206E02C
:100C40003B695A1E3A61002B01D10023C0E0FB68CA
:100C50009B8A9BB203F00203002BF1D0FB681B8B35
:100C60009BB27B6157E07B68032B13D000BFFB680E
:100C70009B8A9BB203F00403002BF8D0FB681B8A0D
:100C80009BB2DAB2BB681A70BB680133BB607B6889
:100C9000013B7B607B68032B3DD100BFFB689B8AD7
:100CA0009BB203F00403002BF8D0FB681B889BB2B7
:100CB00023F480639AB2FB681A80FFF7C7FDFB68D4
:100CC0001B8A9BB2DAB2BB681A70BB680133BB6087
:100CD000FB681B889BB243F400739AB2FB681A80CE
:100CE000FB681B8A9BB2DAB2BB681A70FFF7A6FDDD
:100CF000BB680133BB6000BFFB689B8A9BB203F0FB
:100D00004003002BF8D0FB681B8A9BB2DAB2BB68A9
:100D10001A7000237B607B68002BA4D100BFFB68A6
:100D20001B889BB203F40073002BF8D1FB681B886F
:100D30009BB243F480639AB2FB681A8047E0FB6879
:100D40009B889BB243F400739AB2FB689A80FB685D
:100D50009B889BB243F480639AB2FB689A801F4BD6
:100D600001221A6097F8203043F0010387F8203001
:100D7000194A97F820301370FB68194A934203D13F
:100D8000184A7B68136002E0174A7B681360FB68AF
:100D90001B889BB243F480739AB2FB681A8000BF31
:100DA000FB681B889BB203F48073002BF8D100BF53
:100DB000FB681B8B9BB203F00203002BF8D1FB688E
:100DC0001B889BB243F480639AB2FB681A800123AC
:100DD00018461837BD4680BD8818002088000020BE
:100DE00000540040901800208C18002080B582B07C
:100DF00000AF0023FB710023BB71174B9B680023DE
:100E0000BB71BB79002B23D1134A134B1B6943F4ED
:100E100080631361052005F037FB0023FB7114E0AC
:100E20000D4A0D4B5B6943F480635361052005F067
:100E30002BFB094A084B1B6943F4806313610520AF
:100E400005F022FBFB790133FB71FB79092BE7D914
:100E50000837BD4680BD00BF000C014080B588B09A
:100E600000AF78600920012108F0BCFE01200121BB
:100E700008F09AFE7B68764A934223D14FF4001023
:100E8000012108F0CDFE4023BB830323BB771C2345
:100E9000FB7707F11C036F48194600F01DFA802309
:100EA000BB8307F11C036B48194600F015FA4FF499
:100EB0000010012108F0F0FE4FF40010002108F0AE
:100EC000EBFE3EE04FF40063BB834823FB7707F162
:100ED0001C036048194600F0FFF94FF48063BB83A0
:100EE0001023FB7707F11C035A48194600F0F4F968
:100EF000FFF77CFF4FF48000012108F091FE4FF4D2
:100F00008063BB830323BB771C23FB7707F11C03A0
:100F10005048194600F0E0F91C23FB774FF40063BA
:100F2000BB8307F11C034B48194600F0D5F94FF479
:100F30008000012108F0B0FE4FF48000002108F08D
:100F4000ABFE00233B824BF6FF737B823023BB82D8
:100F50004FF48063FB824FF480433B833E4BFB6046
:100F600007F10C033A4819460BF05EFA1023BB82D6
:100F700007F10C03394819460BF056FA7B68344ADE
:100F8000934231D136480BF05FF8364B364A1A603F
:100F9000344B00225A60334B10229A60314B4FF68B
:100FA000FF72DA602F4B00221A612E4B80225A61A9
:100FB0002C4B00229A612B4B0022DA61294B002234
:100FC0001A62284B4FF440525A62264B00229A6212
:100FD000234824490BF0F4F824480BF035F8234853
:100FE00020490BF0EDF830E021480BF02DF81D4BB7
:100FF000204A1A601B4B00225A601A4B10229A603A
:10100000184B4FF6FF72DA60164B00221A61154B2F
:1010100080225A61134B00229A61124B0022DA613E
:10102000104B00221A620F4B4FF440525A620D4B84
:1010300000229A620E480B490BF0C2F80E480BF0E2
:1010400003F80D4807490BF0BBF82037BD4680BDBB
:1010500000540040000C0140801A06000058004077
:101060006C0002405C1800201054004080000240D8
:1010700044000240105800405800024080B584B03F
:1010800000AFF860B9607A603B603B68002B2CD100
:10109000BB682D4A53602C4B10229A602A4A7B6809
:1010A000D360FB68294A93420FD1274B284A1A6024
:1010B000284800210BF0C2F8264823490BF080F89D
:1010C000244801210BF0BAF83BE01F4B224A1A607A
:1010D000224800210BF0B2F820481B490BF070F8B1
:1010E0001E4801210BF0AAF82BE0BB68164A53609A
:1010F000154B00229A60144A7B68D360FB68134A40
:1011000093420FD1104B124A1A60154800210BF080
:1011100095F813480C490BF053F8114801210BF0D6
:101120008DF80EE0084B0C4A1A600E4800210BF0B7
:1011300085F80C4804490BF043F80A4801210BF0EC
:101140007DF81037BD4680BD5C180020005400407B
:10115000105400406C00024010580040440002400F
:10116000800002405800024080B500AF164A164B7E
:101170001B6843F0010313601349134B5A68134B68
:1011800013404B60104A104B1B6823F0847323F408
:10119000803313600C4A0C4B1B6823F480231360CC
:1011A000094A094B5B6823F4FE035360064B4FF476
:1011B0001F029A60044B0022DA6200F00BF8044B25
:1011C0004FF000629A6080BD001002400000FFF8FE
:1011D00000ED00E080B500AF00F002F880BD00BF78
:1011E00080B483B000AF00237B6000233B60304AB3
:1011F0002F4B1B6843F4803313602D4B1B6803F4A3
:1012000000333B607B6801337B603B68002B03D17C
:101210007B68B3F5A06FF0D1254B1B6803F0020388
:10122000002B02D001233B6001E000233B603B68C0
:10123000012B37D11E4A1E4B5B6853601C4A1C4B66
:101240005B6853601A4A1A4B5B685360184A184B24
:101250005B6823F47C135360154A154B5B6843F4B9
:1012600098135360124A124B1B6843F0807313604B
:1012700000BF0F4B1B6803F00073002BF9D00C4A22
:101280000B4B5B6823F003035360094A084B5B6810
:1012900043F00203536000BF054B5B6803F00C038F
:1012A000082BF9D10C37BD465DF8047B704700BFB1
:1012B0000010024080B483B000AF03460A46FB71C1
:1012C0001346BB71034B00221A700C37BD465DF804
:1012D000047B70470000002080B489B000AF7860C4
:1012E00039600023FB6100233B610023BB610023C5
:1012F000FB6000237B610023BB603B68DB7803F06D
:101300000F03FB613B68DB7803F01003002B05D073
:101310003B689B781A46FB691343FB613B681B885B
:10132000DBB2002B44D07B681B687B610023BB6170
:1013300038E0BB69012202FA03F3FB603B681B88BB
:101340001A46FB6813403B613A69FB689A4226D112
:10135000BB699B00FB60FB680F2202FA03F3BB60D2
:10136000BB68DB437A6913407B61FB68FA6902FA68
:1013700003F37A6913437B613B68DB78282B05D143
:10138000BB6901229A407B685A6108E03B68DB78C0
:10139000482B04D1BB6901229A407B681A61BB6962
:1013A0000133BB61BB69072BC3D97B687A691A60BB
:1013B0003B681B88FF2B4AD97B685B687B610023F5
:1013C000BB613EE0BB6908331A4601239340FB60D2
:1013D0003B681B881A46FB6813403B613A69FB680F
:1013E0009A422BD1BB699B00FB60FB680F2202FA7B
:1013F00003F3BB60BB68DB437A6913407B61FB6826
:10140000FA6902FA03F37A6913437B613B68DB787C
:10141000282B07D1BB6908331A46012303FA02F2CD
:101420007B685A613B68DB78482B07D1BB6908337E
:101430001A46012303FA02F27B681A61BB69013381
:10144000BB61BB69072BBDD97B687A695A602437B9
:10145000BD465DF8047B704780B483B000AF786010
:101460007B684FF6FF721A807B6802229A707B6855
:101470000422DA700C37BD465DF8047B704700BF6C
:1014800080B487B000AF78600B46FB7000233B61EF
:101490000023FB6000237B610023BB607B68002B83
:1014A00003DA2E4BDB697B6102E02C4B5B687B61CE
:1014B0007B6803F470231B0CBB607B689BB23B61B1
:1014C0007B6803F44013B3F5401F0AD17B6923F016
:1014D00070637B61214A214B5B6823F0706353602A
:1014E00021E07B6803F48013002B0ED0BB6803223D
:1014F00002FA03F3FB60FB68DB437A6913407B610C
:101500007B6943F070637B610DE07B685B0D1B01C1
:101510001A463B699340DB437A6913407B617B69E0
:1015200043F070637B61FB78002B08D07B685B0D18
:101530001B011A463B6993407A6913437B617B68C0
:10154000002B03DA054A7B69D36102E0034A7B6919
:1015500053601C37BD465DF8047B704700000140B6
:1015600090B484B000AF03460A46FB711346BB71CA
:101570000023FB60BB7903F003039B000F2202FAF8
:1015800003F3FB601649BB799B08DBB21846144A8B
:10159000BB799B08DBB2023352F82320FB68DB43A4
:1015A0001A40831C41F823200D48BB799B08DBB20D
:1015B0001C460B4ABB799B08DBB2023352F823204E
:1015C000F979BB7903F003039B0001FA03F31A4393
:1015D000A31C40F823201037BD4690BC704700BFC5
:1015E0000000014080B483B000AF0346FB7108499E
:1015F00097F907305B09FA7902F01F02012000FA1F
:1016000002F241F823200C37BD465DF8047B704799
:1016100000E100E080B483B000AF0346FB710949EC
:1016200097F907305B09FA7902F01F02012000FAEE
:1016300002F2203341F823200C37BD465DF8047BCD
:10164000704700BF00E100E080B483B000AF034604
:101650003960FB7197F90730002B0BDA0D49FB79E4
:1016600003F00F03043B3A68D2B21201D2B20B442A
:101670001A7609E0084997F907303A68D2B21201A0
:10168000D2B20B4483F800230C37BD465DF8047BCF
:10169000704700BF00ED00E000E100E080B483B0DF
:1016A00000AF0346FB71FB79002B02D0012B05D064
:1016B00009E0074B4FF480425A6104E0044B4FF4B9
:1016C00000425A6100BF0C37BD465DF8047B70478D
:1016D000000C014080B483B000AF0346FB71FB797E
:1016E000002B02D0012B05D009E0074B4FF48042BC
:1016F0001A6104E0044B4FF400421A6100BF0C373A
:10170000BD465DF8047B7047000C014080B582B097
:1017100000AF0346FB71FB79184600F09BFAFB799A
:101720001846FFF7BBFF45F2082004F0ADFEFB7939
:101730001846FFF7CFFFFB79184600F023FA094B54
:1017400007221A70084B00221A70084B00221A70E8
:10175000074B00221A70074B00221A800837BD463B
:1017600080BD00BF24000020C1000020C300002075
:10177000C2000020A400002080B584B000AF034662
:10178000FB710120FFF7A6FF192008F05DFC002384
:10179000FB7306E0FB7B0F4A0021D154FB7B013336
:1017A000FB73FB7B042BF5D90B4B00221A80252001
:1017B000FFF730FFFB791846FFF7A8FFC82008F0B5
:1017C00043FC2520FFF70EFF00F008F81037BD4658
:1017D00080BD00BF28190020A400002080B582B081
:1017E00000AF0A2008F030FC0023FB71804B1B780F
:1017F000DBB2012B40F0B0810A2008F025FC7D4BC4
:101800001B781B029AB27B4B5B789BB213449AB253
:10181000794B5A80774B9B781B029AB2754BDB78D9
:101820009BB213449AB2744B1A80724B1A79724B62
:101830001A71714B5B889AB2704B1B889BB29A42AB
:101840000AD96D4B5B889AB26D4B1B889BB29A424A
:1018500002D26C4B00221A70674B5B889AB2674BBE
:101860001B889BB29A4202D2664B01221A70624BCD
:101870005B889AB2624B1B889BB29A4202D9614B39
:1018800002221A705B480021042200F01BFA034672
:101890001A46584B1B799A4240F05E810A2008F0A4
:1018A000D3FB594B1B78DBB2002B03D0012B00F08C
:1018B0009B804EE10023FB7108E0FB79FA794D49EA
:1018C000895C524AD154FB790133FB71FB79032BBC
:1018D000F3D90A2008F0B8FB474B1B889BB24C4A4F
:1018E000A2FB031292094FF47A7101FB02F29B1AD8
:1018F0009BB2484AA2FB03235B099BB2DBB23033A5
:10190000DAB2454B1A703C4B1B889BB2414AA2FB92
:1019100003125209642101FB02F29B1A9BB23F4A57
:10192000A2FB0323DB089BB2DBB23033DAB23A4BC3
:101930005A70394B2E229A702F4B1B889AB2374B14
:10194000A3FB0213D9080B469B000B445B00D31A80
:101950009BB2DBB23033DAB22F4BDA700A2008F0D8
:1019600073FB254B5B889BB2294AA2FB03129209A9
:101970004FF47A7101FB02F29B1A9BB2254AA2FB3B
:1019800003235B099BB2DBB23033DAB2244B1A700B
:10199000194B5B889BB21F4AA2FB031252096421B8
:1019A00001FB02F29B1A9BB21C4AA2FB0323DB0839
:1019B0009BB2DBB23033DAB2194B5A70184B2E227D
:1019C0009A700D4B5B889AB2144BA3FB0213D90893
:1019D0000B469B000B445B00D31A9BB2DBB2303347
:1019E000DAB20F4BDA70B4E00023FB7123E000BFE2
:1019F000C200002028190020AC000020A000002018
:101A00009E000020A200002025000020B40000203D
:101A1000D34D62101F85EB51C8000020CDCCCCCC3B
:101A2000C4000020FB79FA794D49895C4D4AD154B4
:101A3000FB790133FB71FB79032BF3D90A2008F002
:101A400003FB494B1B889BB2484AA2FB0312920935
:101A50004FF47A7101FB02F29B1A9BB2444AA2FB3B
:101A600003235B099BB2DBB23033DAB2414B1A700D
:101A70003D4B1B889BB23E4AA2FB031252096421D4
:101A800001FB02F29B1A9BB23B4AA2FB0323DB0839
:101A90009BB2DBB23033DAB2364B5A70354B2E2262
:101AA0009A70314B1B889AB2334BA3FB0213D908AF
:101AB0000B469B000B445B00D31A9BB2DBB2303366
:101AC000DAB22C4BDA700A2008F0BEFA264B5B889B
:101AD0009BB2264AA2FB031292094FF47A7101FBD2
:101AE00002F29B1A9BB2224AA2FB03235B099BB220
:101AF000DBB23033DAB2214B1A701B4B5B889BB2DE
:101B00001B4AA2FB03125209642101FB02F29B1A39
:101B10009BB2194AA2FB0323DB089BB2DBB2303332
:101B2000DAB2164B5A70154B2E229A700E4B5B8808
:101B30009AB2114BA3FB0213D9080B469B000B442E
:101B40005B00D31A9BB2DBB23033DAB20B4BDA70E4
:101B500000BF0B4B00221A700837BD4680BD00BF86
:101B600028190020BC000020AC000020D34D6210DA
:101B70001F85EB51D0000020CDCCCCCCCC00002078
:101B8000C200002080B586B000AF0346FB7107F1AC
:101B900014031846FFF760FC0820012108F022F822
:101BA0004823FB75FB79002B02D0012B13D025E0D5
:101BB0004FF48043BB8207F1140323481946FFF713
:101BC0008BFB28233B7201200E21FFF7C9FC4FF449
:101BD0008043FB6012E04FF40043BB8207F1140323
:101BE00019481946FFF778FB28233B7201200F2183
:101BF000FFF7B6FC4FF40043FB6000BF134A134BE2
:101C00009B6943F480339361114B00221A85104B7A
:101C100001221A8000233B7410237B740123BB74C0
:101C200007F10C03184608F09DF80F237B720F2371
:101C3000BB720123FB7207F1080318460AF070FB20
:101C40001837BD4680BD00BF000C014000100240A7
:101C50000040014080B487B000AF0346FB71002311
:101C60003B610023FB60FB79012B0CD0022B13D0CE
:101C7000002B12D1124B7B614FF040633B614FF060
:101C80008073FB6009E00E4B7B614FF040433B618A
:101C90004FF08053FB6000E000BF7B695A683B69EE
:101CA000DB431A407B695A607B695A68FB681A43B8
:101CB0007B695A601C37BD465DF8047B704700BFE6
:101CC000000C014080B485B000AF78600B46FB701B
:101CD0001346BB700023FB730023BB730023BB734D
:101CE0000CE0BA7BFB7813441A467B6813441A78DD
:101CF000FB7B1344FB73BB7B0133BB73BA7BBB78A9
:101D00009A42EED3FB7B18461437BD465DF8047B40
:101D1000704700BF80B582B000AF3E4B1B78DBB28E
:101D200003F004039B10012B6ED13B4B9B889BB2AD
:101D300040F68C22934202D9384B3D221A70012082
:101D400008F082F906F0D0FB7860324B1B78DBB2EA
:101D500003F00803DB10012B20D12F4B9B889AB294
:101D60002F4B1B889BB29A4218D22A4B1B78DBB2AE
:101D700003F00103002B11D02A4B1B687A689A42AA
:101D80000BD9264B3E221A70274B1B78DBB243F04F
:101D90000803DAB2244B1A7009E008E006F0A4FB4D
:101DA0000246224B1B889BB213441E4A136001203B
:101DB00008F04AF91E4B1B889AB21E4B1B889BB237
:101DC0009A4207D21A4B1B889BB2002B02D00020EC
:101DD00002F048F9012008F037F9154B5B889AB2F8
:101DE000144B5B889BB29A4207D2114B5B889BB223
:101DF000002B02D00A2002F035F9012008F024F966
:101E00000B4B5B880C4B5B88012008F01DF90837F1
:101E1000BD4680BD28000020500100201E0100208A
:101E2000300100202C0100201F0100203201002081
:101E30008C000020480100204C01002080B584B0B7
:101E400000AF0346FB800023FB730023BB7300231A
:101E5000FB7311E0FA88FB7B42FA03F3DBB203F079
:101E60000103BB73BB7B012B03D1FB7B184602F044
:101E70009FF8FB7B0133FB73FB7B0F2BEAD91037F9
:101E8000BD4680BD80B582B000AF0023FB7100234A
:101E9000FB7106E0FB79184602F0E4F8FB790133A8
:101EA000FB71FB790E2BF5D90837BD4680BD00BF0D
:101EB00080B584B000AF78600023BB600023FB6076
:101EC00006F012FBF86006F00FFB02467B68134435
:101ED000BB6004F065FF1E2008F0B6F822E0002089
:101EE000002107F0FFFA1C4807F0BEFA1B4B1B78D5
:101EF000DBB2184606F074FE4FF4FA7008F0A4F84E
:101F000004F094FFBB68DAB2FB68DBB2D31ADAB232
:101F1000124B1A7006F0E8FAF860322008F094F8D4
:101F20000BF00EF80E4B1B78DBB203F00803DB104E
:101F3000002B03D1FA68BB689A42D0D3094B1B78B7
:101F4000DBB223F00103DAB2064B1A7004F058FF3B
:101F50001037BD4680BD00BF60D100081E010020C3
:101F60001F0100202800002080B582B000AF7860FB
:101F7000FFF788FF042002F01BF84FF4FA7008F016
:101F800063F80B2002F014F84FF4FA7008F05CF8D4
:101F90007868FFF78DFF0837BD4680BD80B582B0F9
:101FA00000AF0346FB711D4B1B78DBB2002B12D137
:101FB0001B4B1B78DBB25A1CD1B2194A117019465F
:101FC000FB79184AA2FB03235B09DBB23033DAB298
:101FD000154B5A5411E0124B1B78DBB25A1CD1B28C
:101FE0000F4A11701946FB790E4AA2FB03235B09C5
:101FF000DBB23033DAB20D4B5A54FB79094AA2FBFB
:1020000003125209642101FB02F29B1ADBB218464B
:1020100006F0E6FD0837BD4680BD00BF090100207F
:10202000080100201F85EB51E8000020F800002087
:1020300080B584B000AF0023FB730023BB73002383
:102040007B7300237B8100237B6000233B6007F0D0
:102050006DFA744807F008FA4FF4FA7007F0F4FFCD
:10206000714B00221A7034E006F09AFC03461A46BF
:102070006D4B1A700020002107F034FA6B4807F00E
:10208000F3F96B4B1B689BB2184600F0EDF96948F9
:1020900007F0EAF9664B5B689BB2184600F0E4F97A
:1020A0000120002107F01EFA0A2007F0CDFF624848
:1020B00007F0DAF95E4B9B689BB2184600F0D4F942
:1020C0005E4807F0D1F95A4BDB689BB2184600F026
:1020D000CBF9554B1B78DBB2002BC5D007F026FAA5
:1020E000514B1B78DBB2013BBB734F4B00221A7084
:1020F000534807F0B9F9FB7B184605F087FA034609
:10210000FB73FB7B184601F0ADFF07F00FFA4D485B
:1021100007F0AAF97B7B184605F078FA03467B7333
:10212000BB7B434A52F823307B6007F0FFF94648F7
:1021300007F09AF9FB7B184601F03AFF3A4B002270
:102140001A7019E00A2007F07FFF06F029FC034609
:102150001A46354B1A7007F0E9F93C4807F084F944
:102160000120002107F0BEF9BB7B314A52F8233031
:102170009BB2184600F078F92B4B1B78DBB2022B90
:10218000E0D1BB7B2A4A52F823303B60FB7B1846E8
:1021900001F068FFC82007F057FF3B689AB27B68E0
:1021A0009BB2D31A9BB21A467B7B92FBF3F37B81E3
:1021B000BB7B27497A8921F8132007F0B7F9254816
:1021C00007F052F93B689BB2184600F04DF9012028
:1021D000002107F087F9204807F046F97B89184667
:1021E00000F042F97B8940F2426019460AF06CFC2B
:1021F0000D4B00221A7008E00A2007F025FF06F0B8
:10220000CFFB03461A46084B1A70074B1B78DBB20C
:10221000022BF1D107F08AF9C82007F015FF10371B
:10222000BD4680BD68D100081D01002074D10008A2
:102230009818002078D100087CD1000880D10008CF
:1022400084D1000894D10008A4D10008B4D10008BA
:10225000B0180020C4D10008CCD1000880B584B0EB
:1022600000AF0346FB710B46BB711346BB800023D6
:10227000FB60BB88104A128892B202FB03F30F4A3C
:10228000A2FB0323DB08FB60002001F091FEBB7979
:102290000B4A002142F8231002E00A2007F0D4FE86
:1022A000074B1A68FB689A42F7D3002001F0DAFE68
:1022B0001037BD4680BD00BFB0180020CDCCCCCCBF
:1022C0009818002080B584B000AF0346FB710B4620
:1022D000BB711346BB800023BB600023FB8107F06A
:1022E00025F9564807F0C0F808E00A2007F0ACFED0
:1022F00006F056FB03461A46514B1A70504B1B789A
:10230000DBB2002BF1D04E4B1B78DBB2022B01D19C
:10231000FFF78EFE01237B7389E007F007F9494838
:1023200007F0A2F8484B1B889BB2184600F09CF8B7
:10233000FB891846052105F01BFA0346FB81FB8942
:10234000414A128892B202FB03F3404AA2FB0323E4
:10235000DB08BB6007F0EAF83D4807F085F8BB688A
:102360009BB2184600F080F80120002107F0BAF86F
:10237000384807F079F8BB79374A52F82330364AA3
:1023800052F823309BB2184600F06EF82C4B002216
:102390001A70002001F00CFEBB792F4A002142F890
:1023A00023101BE00A2007F04FFE07F0BFF82B4870
:1023B00007F05AF8BB79284A52F823309BB21846E6
:1023C00000F052F80120002107F08CF8244807F0B3
:1023D0004BF8BB689BB2184600F046F81E4B1A68D3
:1023E000BB689A42DED3002001F03CFE07F09EF865
:1023F0001C4807F039F808E00A2007F025FE06F02F
:10240000CFFA03461A460E4B1A700D4B1B78DBB2FF
:10241000002BF1D00A4B1B78DBB2022B05D1012334
:102420007B730D4B00221A6001E000237B737B7BE2
:10243000012B3FF472AF1037BD4680BDD4D10008E8
:102440001D010020E4D10008B0180020CDCCCCCC78
:10245000F0D10008F8D1000898180020FCD100083D
:1024600004D2000808D2000880B582B000AF03464D
:10247000FB80FB88164AA2FB03235B0B9BB2DBB2FB
:10248000184606F0ADFBFB88114AA2FB0312520B63
:1024900042F2107101FB02F29B1A9BB20D4AA2FBA1
:1024A00003235B099BB2DBB2184606F099FBFB885D
:1024B000084AA2FB03125209642101FB02F29B1A93
:1024C0009BB2DBB2184606F08BFB0837BD4680BDD9
:1024D0005917B7D11F85EB5180B485B000AF0346C3
:1024E0003960FB711346BB710023FB730023FB7340
:1024F0000AE0FB7B3A6813441B78DAB2FB7953405D
:10250000FB71FB7B0133FB73FA7BBB799A42F0D3FF
:10251000FB7918461437BD465DF8047B704700BF51
:1025200080B500AF674840F2255108F00FFC034624
:10253000002B2AD0634808F0E9FB0346DAB2624B6D
:102540001A70624B1B78DBB25A1CD1B25F4A117011
:102550001A465D4B1B78D9B25D4B99545D4B1B8875
:1025600001339AB25B4B1A805A4B1B884EF660229D
:10257000934202D9574B00221A80524A514B1B8872
:102580009BB223F020039BB21380534B1B78DBB22A
:10259000002B40F09580514B1B78DBB2042B52D1BD
:1025A0004F4B1B78DBB2002B04D1474B1B78DAB2C0
:1025B0004C4B1A704A4B1B78DBB25A1CD1B2484ABA
:1025C00011701A46404B1B78D9B2414B9954444B79
:1025D0001B78DBB21A46434B1B78DBB2033B9A42B3
:1025E00031D1404B1B78DBB2043BDBB230203849A1
:1025F0001A46FFF771FF03461A463B4B1A70374BDA
:1026000000221A70364B00221A70384B00221A70C2
:10261000354B1B78DBB2002B13D1324B1B78DBB26E
:10262000043B2B4AD35CDAB2314B1A70314B1B7826
:10263000DBB20133DAB22F4B1A70274B01221A702A
:1026400001E000F029F9204B1B78DBB25A2B03D1B3
:10265000264B01221A7033E01B4B1B78DBB2582B40
:1026600008D1224B1B78DBB2012B03D11F4B022276
:102670001A7025E01D4B1B78DBB2022B20D1124BC8
:102680001B78DBB2302B18D00F4B1B78DBB2312B11
:1026900006D1124B03221A70114B00221A700CE063
:1026A000094B1B78DBB2322B07D10C4B04221A707A
:1026B0000B4B00221A7000F0EFF80C4B00221A703E
:1026C00080BD00BF00380140E2000020E50000208E
:1026D000BC180020D400002062010020610100200D
:1026E0005F01002060010020E60000205E01002064
:1026F000980000209400002080B586B002AF78607A
:102700004FF47A6007F0A0FC0023FB600120012158
:1027100006F090FC0023FB7205F0E6FE03463C3316
:10272000FB6004F00FFA05F0DFFE0246FB689A42F8
:102730000FD90120002106F07DFCC82007F084FCA1
:102740000120012106F076FC05F0CEFE03460A3397
:10275000FB600123FB72642007F076FCFB7A002B00
:1027600016D01E4B5B789AB21C4B1B781B029BB297
:1027700013449AB21A4B1A809A23009319481749A6
:1027800002220223FEF76AF8FB7A013BFB720DE09E
:102790000A23FB72134809F025FEC82007F054FCF9
:1027A0001048FEF75BFBC82007F04EFC642007F0E2
:1027B0004BFC0020FEF7E0FF322007F045FC0AF05A
:1027C00075FBFFF7A7FA322007F03EFC0120FEF769
:1027D000D3FF4FF4C87007F037FCA2E718000020C1
:1027E0006C0100200058004080B584B000AF7860D4
:1027F0000023FB730AF0A4FB224B1B78DBB203F02F
:102800000803DAB21F4B1A701E2007F01DFC1E4B86
:102810001B78DBB2012B30D100F034F91B4B5B7815
:10282000DBB2312B04D9194B5B78DBB2632B21D996
:10283000164B5B78DAB2164B1A700023FB7311E06B
:10284000124B1B78DBB2043B104AD35CDBB2184658
:1028500000F0BAF8192007F0F7FB0AF071FBFB7BD8
:102860000133FB73FB7B092BEAD900F015F8094B08
:1028700000221A70044B00221A70322007F0E4FB89
:10288000B8E700BF6801002062010020BC180020EA
:10289000700100205F01002080B483B000AF0023EE
:1028A000FB710023FB7106E0FB79074A0021D1543C
:1028B000FB790133FB71FB79292BF5D90C37BD4628
:1028C0005DF8047B704700BFBC18002080B582B063
:1028D00000AF0023FB710B4B00221A700023FB7129
:1028E00009E0FB79084A0021D154012007F0ACFB34
:1028F000FB790133FB71FB79292BF2D90837BD46EF
:1029000080BD00BF27000020F018002080B500AF78
:10291000194B00221A70194BDB78DBB20133DAB2A3
:10292000174B1A70154BDB78DBB21A46134B0D218F
:102930009954144B00221A700F4B01221A70104B3D
:102940001B78DBB218460D4901F036F904E014207B
:1029500007F07AFB0AF0F4FA4FF4005009F08AFC11
:102960000346002BF3D0322007F06EFB0AF0E8FAA2
:10297000014B00221A7080BDE3000020F0180020F7
:1029800027000020E400002080B584B000AF03469B
:102990000A46FB711346BB710023FB730023FB73D4
:1029A0000BE0FB79184600F00FF8322007F04CFBE3
:1029B0000AF0C6FAFB7B0133FB73FA7BBB799A42C0
:1029C000EFD31037BD4680BD90B583B000AF03464E
:1029D000FB71FFF77BFF1D4B5A221A701B4B5822CD
:1029E0005A701A4B37229A70184B0722DA70174A1E
:1029F000FB791371154BDB78DBB29C1E134BDB7834
:102A0000DBB2013BDBB2002010491A46FFF764FD40
:102A100003461A460D4B1A550C4BDB78DBB2013BD3
:102A20000A4A0021D154012007F00EFBFFF76EFF88
:102A3000074B1B78DBB20133DAB2054B1A70054A3B
:102A4000FB7913700C37BD4690BD00BFF018002015
:102A5000E0000020E100002080B582B000AF034616
:102A6000FB710B46BB8013467B80FFF70BFAFB79AB
:102A7000184601F09DFABB881846FFF7DFF90837C2
:102A8000BD4680BD80B586B002AF0023FB81002328
:102A9000FB800023BB810023BB60C04B5B78DBB2B3
:102AA0003F2B00F2078301A252F823F0AD2B000860
:102AB000D92B0008EF2B0008FB2B0008032C000883
:102AC000112C0008B5300008B53000081F2C000894
:102AD000372C0008712C0008912C0008D72C000816
:102AE000032D0008232D0008552D0008792D00081E
:102AF000B92D0008DD2D0008012E0008B5300008B2
:102B0000B5300008072E0008132E00081F2E0008FD
:102B1000B5300008B5300008B5300008B530000801
:102B2000B5300008B53000082B2E0008B32E000881
:102B3000FB2E0008432F0008492F0008572F0008DC
:102B40009F2F0008A52F0008B5300008B5300008F9
:102B5000B5300008B5300008B5300008B5300008C1
:102B6000B5300008B5300008B5300008B5300008B1
:102B7000B5300008B5300008DB2F0008E92F000849
:102B8000B5300008B5300008B5300008F72F000850
:102B90001930000855300008B5300008B53000087D
:102BA000B5300008B5300008793000087B4B9B78C1
:102BB000D8B27A4BDB78D9B2784B1B79DBB29BB2B7
:102BC0001B029AB2754B5B79DBB29BB213449BB28A
:102BD0001A46FFF743FB6DE2704B9B78DAB26F4BFE
:102BE000DB78DBB21046194604F0EEFB62E26C4B78
:102BF00033221A7004F004F95CE2694B30221A7037
:102C000058E2664B9B78DBB2184601F0D1F951E2ED
:102C1000624B9B78DBB2184601F024FA4AE2604B23
:102C20001B78DBB2332B05D15C4B9B78DAB25D4B62
:102C30001A703FE23EE2594B1B78DBB21A46574B03
:102C40009B5CDBB218460F21FFF79EFEC82007F001
:102C5000FBF9524B9B78D9B2504BDB78DAB24F4B31
:102C60001B79DBB2084611461A4600F081FB21E2CF
:102C700005F03AFC03463C334B4A13604B4B0022B1
:102C80001A704B4B00221A704A4B00221A7011E244
:102C9000444B00221A70424B33221A70434B1B786C
:102CA000DBB203F00103DAB2404B1A7000200021BE
:102CB00004F08AFB0120002104F086FB02200021A1
:102CC00004F082FB0320002104F07EFB04F098F85E
:102CD000FFF7D8F8EEE1314B9B78DBB21B022F4AAD
:102CE000D278D2B213441B022C4A1279D2B21344C6
:102CF0001B022A4A5279D2B21344184605F006FC48
:102D0000D8E1264B1B78DBB21A46244B9B5CDBB226
:102D100018460521FFF738FE42F2107007F094F9CB
:102D2000C8E11E4B1B78DBB21A461C4B9B5CDBB226
:102D300018460F21FFF728FE052007F085F9174BED
:102D40009B78DAB2154BDB78DBB21046194602F0FD
:102D5000CBFAAFE1114B9B78DBB29AB20F4BDB7829
:102D6000DBB29BB21B029BB21344FB81FB8918466A
:102D7000012100F03DFB9DE1084B9B78DBB29AB24C
:102D8000064BDB78DBB29BB21B029BB21344FB8188
:102D9000FB891846102100F02BFB8BE1BC180020AA
:102DA00026000020280000202C0100201F01002008
:102DB0001E01002068010020A04B9B78DBB29AB274
:102DC0009E4BDB78DBB29BB21B029BB21344FB81B0
:102DD000FB8918460A2100F00BFB6BE1974B9B78AF
:102DE000DBB29AB2954BDB78DBB29BB21B029BB293
:102DF0001344FB81FB8918460B2100F0F9FA59E1D5
:102E000006F07AFA56E18D4B9B78DAB28C4B1A7049
:102E100050E18A4B9B78DAB28A4B1A704AE1874BB1
:102E20009B78DAB2884B1A7044E1844B9B78DBB212
:102E30001B029AB2814BDB78DBB29BB21344FB815D
:102E4000FA89BB1D1046194609F0F2FD7B4B1B7930
:102E5000DBB2002B14D1FB88DBB29BB2FB80774B3B
:102E60005B79DBB21B029BB29AB2FB8813449BB224
:102E7000FB80FB88FA891046194609F025FE17E009
:102E80006E4B1B79DBB2012B12D1FB8823F0FF03C1
:102E90009BB2FB80694B5B79DBB29AB2FB8813442F
:102EA0009BB2FB80FB88FA891046194609F00CFE9C
:102EB00000E1624B9B78DBB21B029AB25F4BDB787E
:102EC000DBB29BB21344FB815C4B1B79DBB21B0270
:102ED0009AB25A4B5B79DBB29BB213449BB2FB8034
:102EE000FB88FA891046194609F0EEFDFA88574B1F
:102EF0001A80574AFB891380DCE0504B9B78DBB289
:102F00001B029AB24D4BDB78DBB29BB21344FB81C0
:102F10004A4B1B79DBB21B02484A5279D2B21344A6
:102F20001B02464A9279D2B213441B02434AD27919
:102F3000D2B21344BB60FB891846B96804F08AFA20
:102F4000B8E002F063FDB5E03C4B9B78DBB218467D
:102F500000F0CEF8AEE0394B1B79DBB29AB2374BBA
:102F6000DB78DBB29BB21B029BB213449BB2FB80AB
:102F7000324B9B79DBB29AB2304B5B79DBB29BB2BE
:102F80001B029BB21344BB812C4B9B78D9B2FA88AD
:102F9000BB89084611461A46FFF75EFD8AE0FEF738
:102FA00071FF87E0254B9B79DBB21A46234B5B7997
:102FB000DBB21B029BB21A44204B1B79DBB21B0411
:102FC00003F47F031A441D4BDB78DBB21B0613446A
:102FD000BB60B868FEF7C8FF6CE0184B9B78DBB2AB
:102FE000184600F04FFB65E0012000F04BFB02208B
:102FF00000F048FB5EE0114B9B78DBB29AB20F4BBE
:10300000DB78DBB21B029BB213409BB29BB218462B
:10301000022100F0EDF94DE0084B9B78DBB29AB24B
:10302000064BDB78DBB29BB21B029BB213449BB214
:103030001846012100F092FA3CE000BFBC180020C5
:103040003D0100203E0100203F0100209C000020A7
:103050009A000020234B9B78DBB29AB2214BDB789D
:10306000DBB29BB21B029BB21344FB81FB89184667
:10307000022100F073FA1DE01A4B9B78DBB29AB282
:10308000184BDB78DBB29BB21B029BB21344FB8173
:10309000144B1B79DBB29AB2124B5B79DBB29BB259
:1030A0001B029BB213449BB24FF40070194600F010
:1030B00093F800BF322006F0C7FF0A4B5B78DBB203
:1030C000632B0CD9022300930648074907220023EB
:1030D00005F0A6FA034B5B78DAB2044B1A7010378E
:1030E000BD4680BDBC180020A81800205D0100204E
:1030F00080B584B000AF78600023FB6005F0F4F980
:1031000002467B681344FB6007E0094B00229A8665
:10311000642006F099FF09F013FF05F0E5F9024677
:10312000FB689A42F1D303F06BFE1037BD4680BDB9
:10313000002C014080B584B000AF03460A46FB80F6
:1031400013467B710023BB810023BB600023FB730C
:10315000FFF7BCFB0023FB7332E00023BB81FB7B4A
:103160009BB25B009BB2DBB29AB2FB881344BB817B
:103170000023BB60BB89184605F0DCFEB860FB7B12
:103180009B00BA68120ED1B2124AD154FB7B9B004D
:103190000133BA68120CD1B20E4AD154FB7B9B00AA
:1031A0000233BA68120AD1B20A4AD154FB7B9B009F
:1031B0000333BA68D1B2074AD154FB7B0133FB73A6
:1031C0007B795B08DBB2FA7B9A42C6D31037BD46E7
:1031D00080BD00BFF018002080B584B000AF03466A
:1031E0000A46FB801346BB800023FB8100237B73D0
:1031F00000233B735A4B5A221A70594B58225A706B
:10320000574B31229A70FB881B099BB25B010C3330
:103210001B12DAB2524BDA70FB881B099BB2DBB28D
:103220005B01DBB20C33DAB24D4B1A71BB881B0A5F
:103230009BB2DAB24A4B5A71BB88DAB2484B9A71E8
:10324000484B07221A70474B1B78DBB2184644499B
:1032500000F0B2FC04E0322006F0F6FE09F070FE49
:103260004FF4005009F006F80346002BF3D00F206E
:1032700006F0EAFE00203A490722FFF72DF903463F
:103280003B73FFF723FB384B00221A70642006F0D3
:10329000DBFE0023FB8140E0FB89DBB29BB21B011C
:1032A0009AB2BB8813449BB218461021FFF742FF25
:1032B00000237B7309E07B7B294AD35CDAB23B7B3A
:1032C00053403B737B7B01337B737B7B1F2BF2D99A
:1032D000244B20221A70234B1B78DBB2184620495E
:1032E00000F06AFC04E01E2006F0AEFE09F028FEA5
:1032F0004FF4005008F0BEFF0346002B06D11B4BD5
:103300001B889BB203F04003002BECD009F018FEA1
:10331000FFF7DCFAFB890133FB81FB881B099BB2B9
:10332000FA899A42B8D301237B7306E07B7B0C4970
:103330007A7BCA547B7B01337B737B7B042BF5D96F
:10334000074A3B7B1370FFF7E1FA0F2006F07CFE83
:10335000FFF7BCFA044B00221A701037BD4680BD3F
:10336000F018002027000020E30000200038014072
:1033700080B584B000AF0346FB710B46BB711346AA
:103380007B710023BB600023FB6005F0ADF8F860A3
:10339000BA79FB681344BB60FB791846012101F040
:1033A00025FF022006F050FEFA797B791046194677
:1033B00001F01CFF0FE005F097F8F86009F0C0FD80
:1033C000C82006F041FE012000F05CF909F0B8FDCC
:1033D000C82006F039FEFA68BB689A42EBD3FB7945
:1033E0001846002101F002FF1037BD4680BD00BF26
:1033F00080B586B000AF03460A46FB8013467B715A
:1034000000233B610023FB757B79012B14D1514BC9
:103410001B79DBB29AB24F4B5B79DBB29BB21B02DA
:103420009BB213449AB24C4B1A804B4B1B88FA88C0
:103430001046194609F048FB7B79022B18D1454B01
:103440001B79DBB21A46434B5B79DBB21B021A4491
:10345000404B9B79DBB21B041A443E4BDB79DBB259
:103460001B0613443B61FB881846396903F0F2FFE1
:103470007B79102B2AD10023FB7524E0364B0022E8
:103480001A80FB7D02335B00324AD35CDBB29AB216
:10349000FB7D5B0203F5A0632E49CB5CDBB29BB2E4
:1034A00013449AB22C4B1A80FB885A1CFA802A4A81
:1034B00012881846114609F007FB012006F0C4FDEA
:1034C000FB7D0133FB75FB7D1F2BD7D97B790A2B45
:1034D0001DD10023FB81FA8807F10E03104619461F
:1034E00009F0A6FAFB89DBB29BB2FB81194B1B7971
:1034F000DBB21B029AB2FB899BB213409BB29BB218
:10350000FB81FB89FA881046194609F0DDFA7B79C0
:103510000B2B1BD10023BB81FA8807F10C0310464B
:10352000194609F085FABB8923F0FF039BB2BB81E2
:10353000084B1B79DBB29AB2BB8913409BB2BB81AB
:10354000BB89FA881046194609F0BEFA1837BD46FD
:1035500080BD00BFBC1800207601002090B585B06A
:1035600000AF03460A46FB8013467B71404B5A224C
:103570001A703F4B58225A703D4B31229A707B791A
:10358000012B1DD1FA8807F10A031046194609F0EC
:103590004FFA374B0922DA70364B9B78DAB2344B4C
:1035A0001A71344BDB78DAB2314B5A717B89DAB25B
:1035B0002F4B9A717B891B0A9BB2DAB22C4BDA71C2
:1035C0007B79022B24D1FB88184605F0B3FCF86008
:1035D000274B0B22DA70274B9B78DAB2244B1A71F7
:1035E000244BDB78DAB2224B5A71FB68DAB2204BFB
:1035F0009A71FB681B0ADAB21D4BDA71FB681B0C6F
:10360000DAB21B4B1A72FB681B0EDAB2184B5A72F5
:10361000174BDB78DBB25C1E154BDB78DBB2013B72
:10362000DBB2002012491A46FEF756FF03461A463F
:103630000F4B1A550E4BDB78DAB20F4B1A700F4B4B
:1036400000221A700E4B01221A7002E0012006F0CF
:10365000FBFC0A4B1B78DAB2074B1B78DBB29A42B1
:10366000F4D3074B00221A701437BD4690BD00BF3B
:10367000F0180020BC18002027000020E4000020E3
:10368000E300002090B583B000AF0346FB71974B79
:103690001B78DBB2002B40F06182954B5A221A70E6
:1036A000934B58225A70924B33229A70904B292296
:1036B000DA70FB79012B40F0DB808E4B1B78DAB29D
:1036C0008B4B1A718C4B1B68DAB2894B5A718B4B3E
:1036D0001B68DAB2864B9A71854B0022DA71884BEF
:1036E0001B889BB2DAB2824B1A72864B1B78DAB215
:1036F0007F4B5A72844B1B78DAB27D4B9A72824BA5
:103700005B78DAB27A4BDA727F4B9B78DAB2784B1D
:103710001A737D4BDB78DAB2754B5A737B4B1B8B7C
:103720009BB2DAB2724B9A73784B1B8B9BB21B0A1B
:103730009BB2DAB26E4BDA73744B9B8B9BB2DAB2EC
:103740006B4B1A74714B9B8B9BB21B0A9BB2DAB208
:10375000674B5A746E4B1B889BB2DAB2644B9A74F7
:103760006B4B1B889BB21B0A9BB2DAB2604BDA74BC
:10377000674B5B889BB2DAB25D4B1A75644B5B8812
:103780009BB21B0A9BB2DAB2594B5A75614B1B882C
:10379000DAB2574B9A755F4B1B881B0A9BB2DAB2A1
:1037A000534BDA755C4B5B889BB2DAB2504B1A769E
:1037B000594B5B889BB21B0A9BB2DAB24C4B5A76D0
:1037C000554B9B889BB2DAB2494B9A76524B9B88F9
:1037D0009BB21B0A9BB2DAB2454BDA764E4BDB88C2
:1037E0009BB2DAB2424B1A774B4BDB889BB21B0A77
:1037F0009BB2DAB23E4B5A77484B1B78DAB23C4B5D
:103800009A77474B1B889BB21B0A9BB2DAB2384BA4
:10381000DA77434B1B889BB2DAB2354B83F8202012
:10382000404B9B8E9BB2404AA2FB0323DB089BB21A
:10383000DAB22F4B83F821203C4B1B78DAB22C4BA9
:1038400083F822203A4B1B78DAB2294B83F82320E5
:10385000384B1B78DAB2264B83F82420364B1B7882
:10386000DAB2234B83F82520214AFB7982F82630EF
:10387000FB79022B74D1314B1B889BB2DAB21C4B03
:103880001A712E4B1B889BB21B0A9BB2DAB2184BE3
:103890005A712B4B1B889BB2DAB2154B9A71284B8D
:1038A0001B889BB21B0A9BB2DAB2114BDA71104B28
:1038B00000221A72184B1B889BB21B0A9BB2DAB209
:1038C0000B4B5A72144B5B889BB2DAB2084B9A725C
:1038D000114B5B889BB21B0A9BB2DAB2044BDA72C3
:1038E0000D4B9B889BB2DAB22CE000BFE3000020B6
:1038F000F0180020260000202001002024010020D4
:103900003A01002058010020B400002000280040A7
:103910008C0000206C010020500100206801002074
:10392000DE000020002C0140CDCCCCCC5A01002080
:10393000280000201E0100201F010020420100205D
:1039400044010020874B1A73874B9B889BB21B0A4C
:103950009BB2DAB2834B5A73824AFB7982F82630E3
:10396000FB79032B3BD1814B9B68DAB27D4B1A71FB
:103970007E4B9B681B0ADAB27A4B5A717B4B9B6871
:103980001B0CDAB2774B9A71784B9B681B0EDAB23C
:10399000744BDA71764B9B68DAB2724B1A72744BC5
:1039A0009B681B0ADAB26F4B5A72714B9B681B0CF7
:1039B000DAB26C4B9A726E4B9B681B0EDAB2694B93
:1039C000DA726C4B9B78DAB2664B1A73694BDB7810
:1039D000DAB2644B5A73634AFB7982F82630FB797A
:1039E000042B1CD15F4B00225A72634B1B78DAB256
:1039F0005C4B9A72614B1B889BB2DAB2594BDA72FC
:103A00005E4B1B889BB21B0A9BB2DAB2554B1A73F2
:103A1000544B4D225A73534AFB7982F82630FB7976
:103A2000052B39D1564B1B889BB2DAB24D4B1A711C
:103A3000534B1B889BB21B0A9BB2DAB2494B5A719B
:103A40004F4B5B889BB2DAB2464B9A714C4B5B880A
:103A50009BB21B0A9BB2DAB2424BDA71494B1B682C
:103A6000DAB2404B1A72474B1B681B0ADAB23D4B65
:103A70005A72444B1B681B0CDAB23A4B9A72414B98
:103A80001B681B0EDAB2374BDA72364B4D225A7373
:103A9000344AFB7982F82630FB79062B43D1384B28
:103AA0001B889BB2DAB22F4B1A71354B1B889BB225
:103AB0001B0A9BB2DAB22B4B5A71314B5B889BB21B
:103AC000DAB2284B9A712E4B5B889BB21B0A9BB2D1
:103AD000DAB2244B5A712B4B5B68DAB2214B1A7263
:103AE000284B5B681B0ADAB21E4B5A72254B5B6887
:103AF0001B0CDAB21B4B9A72224B5B681B0EDAB2BC
:103B0000184BDA721D4B5B889BB2DAB2154B1A73F5
:103B10001A4B5B889BB21B0A9BB2DAB2114B5A73E9
:103B2000104AFB7993750F4BDB78DBB29C1E0D4B73
:103B3000DB78DBB2023BDBB200200A491A46FEF713
:103B4000CBFC03461A46074B1A55064BDB78DBB213
:103B5000013B044A0021D154FEF7D8FE0C37BD4684
:103B600090BD00BFF0180020500100200008014067
:103B7000000C0140BC0000205A010020B0180020B9
:103B80008C0000209818002080B400AF044B1B6804
:103B9000034B1B68024B1B68BD465DF8047B7047F6
:103BA0000000024080B400AF024B1B68BD465DF8C8
:103BB000047B70470000024080B582B000AF03462E
:103BC0003960FB711F491F4B1A684FF6FE73134093
:103BD0000B601D4B5B6903F00103002B05D11A4AF2
:103BE000194B5B6943F001035361164B174ADA60C6
:103BF000144B174A9A60134AFB795360114A114BD0
:103C00001B6843F4425343F011031360114A114BF4
:103C10009B8A9BB243F080039BB29382094A094B73
:103C20001B6843F0010313600A4A0A4B1B889BB2CE
:103C300023F040039BB213800E20FDF7D3FC08371E
:103C4000BD4680BD4400024000100240F018002034
:103C5000043801400038014080B586B000AF012033
:103C6000012105F0A1FF0520012105F0BBFF25235F
:103C70003B7500237B750023BB750123FB7507F1A2
:103C80001403184608F04CFB4FF400733B820323E7
:103C9000BB741823FB7407F1100322481946FDF783
:103CA0001BFB4FF480633B820423FB7407F110037A
:103CB0001C481946FDF710FB1B4806F0F1FE2820B2
:103CC0001A49FFF779FF4FF48040012105F08AFF80
:103CD0004FF416533B600023BB800023FB8000237E
:103CE0003B810023BB810C237B813B460E48194658
:103CF00006F032FF0C484FF4587107F017F80A4AE3
:103D0000094B9B899BB243F020039BB293810648E9
:103D1000012106F0DBFF2520FDF764FC1837BD46C6
:103D200080BD00BF0008014000380140F0180020AD
:103D300080B588B000AF1020012105F053FF0220AC
:103D4000012105F06DFF07F11C031846FDF784FB08
:103D50004FF47073BB830323BB771823FB7707F102
:103D60001C0321481946FDF7B7FA20480121FDF749
:103D700087FB07F110031846FCF772FC4FF4007341
:103D8000FB8240F2E733BB82EF233B8207F1100353
:103D900017481946FCF7E6F93B461846FCF77AFC4B
:103DA00001237B8060233B800023FB803B4610483F
:103DB0001946FCF753FA3B460D481946FCF7DAFA68
:103DC0003B460B481946FCF75DFB3B460848194645
:103DD000FCF7DEFB06480121FCF77EFC00F00AF848
:103DE0002037BD4680BD00BF00100140000C1A0006
:103DF0000004004080B582B000AF0023FB710023B7
:103E0000FB7107E0FB791846002101F0EFF9FB791F
:103E10000133FB71FB79032BF4D90837BD4680BD14
:103E200080B588B000AF0120012105F0DBFE08203D
:103E3000012105F0D7FE4FF40060012105F0D2FE0C
:103E400007F11C031846FDF707FB4FF40053BB8333
:103E50000323BB771823FB7707F11C03214819467E
:103E6000FDF73AFA07F110031846FCF7F9FB4FF497
:103E70000073FB8240F2E733BB8217233B820023AF
:103E80007B8207F1100318481946FCF76BF93B4693
:103E90001846FCF7FFFB01237B8070233B804FF427
:103EA000FA73FB8002233B8100237B8101237B800B
:103EB0000423BB804FF48073BB810023FB813B460E
:103EC00009481946FCF7CAF907480121FCF704FC28
:103ED00005480121FCF720FC02F092FF2037BD4687
:103EE00080BD00BF000C0140002C014080B582B0B5
:103EF00000AF05F01BFB0023FB8000237B7105F066
:103F000015FB0A2006F0A0F805F010FB234805F089
:103F1000ABFA234B00221A701EE004F041FD034669
:103F20001A461F4B1A701F4B1B88FB80052006F09A
:103F30008BF80120002105F0D5FAFB881A4AA2FB74
:103F400003235B099BB2DBB2184604F049FEFB88F1
:103F5000DBB2184604F044FE114B1B78DBB2022B97
:103F6000DBD10A2006F070F8FB8840F2D6501946E3
:103F700008F0AAFD02F0FEFE4FF4FA6006F064F8C5
:103F80000A4805F071FA064B00221A7005F0CEFAC5
:103F900005F0B2F90837BD4680BD00BF1CD200084D
:103FA0001D0100208C0000201F85EB5130D200083D
:103FB00080B483B000AF0346FB71FB79002B0DD0BA
:103FC000FB79042B0AD82449234B5B69FA79033225
:103FD000012000FA02F213434B612AE0FB79042B23
:103FE0000DD9FB79072B0AD81C491C4B5B69FA7960
:103FF0000532012000FA02F213434B6119E0FB790C
:10400000072B0DD9FB790B2B0AD81349124B5B698F
:10401000FA790332012000FA02F213434B6108E0FF
:10402000FB790C2B05D10C4A0B4B5B6943F4807375
:104030005361FB79012202FA03F39AB2084B1B8801
:104040009BB29BB213439BB29AB2054B1A800C37BA
:10405000BD465DF8047B7047000801400010014038
:10406000DE00002080B483B000AF0346FB71FB7913
:10407000002B0DD0FB79042B0AD82549244B1B6952
:10408000FA790332012000FA02F213430B612AE0AD
:10409000FB79042B0DD9FB79072B0AD81D491D4B41
:1040A0001B69FA790532012000FA02F213430B6111
:1040B00019E0FB79072B0DD9FB790B2B0AD8144992
:1040C000134B1B69FA790332012000FA02F2134301
:1040D0000B6108E0FB790C2B05D10D4A0C4B1B69D9
:1040E00043F480731361FB79012202FA03F39BB25C
:1040F000DB439AB2084B1B889BB29BB213409BB226
:104100009AB2054B1A800C37BD465DF8047B7047A8
:104110000008014000100140DE00002080B500AF23
:10412000012005F0B5FE034B1B680133014A136003
:1041300080BD00BF9818002080B500AF022005F0B8
:10414000A7FE034B5B680133014A536080BD00BF8B
:104150009818002080B500AF042005F099FE80BDBE
:1041600080B500AF4FF4806005F092FE4FF4006020
:1041700005F08EFE4FF4805005F08AFE4FF40040AB
:1041800005F062FE0346002B00F09F804FF40040D4
:1041900005F07EFE9E4B9B6803F40043002B40F02D
:1041A0008F809C4B1B889BB2002B00F089809A4B20
:1041B0009B8C9AB2994B1A80974B00229A84954B0C
:1041C0001B889BB21A46642303FB02F3934A1288AE
:1041D00092B293FBF2F39AB2914B1A80914B1B78F7
:1041E000DBB2002B61D0904B1B78DBB2002B5CD193
:1041F0008B4B1B889BB23C2B1BD9894B1B889BB2DA
:104200004A2B16D8894B1B78DBB21A460123934000
:10421000D843874B1B781A46854B1B781946854B2C
:104220005B5CD9B2C3B20B40DBB2D9B2814B9954BB
:1042300015E07E4B1B78DBB21A46012303FA02F02D
:104240007B4B1B781A467A4B1B781946794B5B5C83
:10425000D9B2C3B20B43DBB2D9B2764B9954734B8C
:104260001B78DBB2002B19D1704B07221A70704BF0
:104270001B780133DAB26E4B1A706D4B1B78052B2D
:1042800013D1694B01221A70694B00221A70674BD7
:1042900007221A70684B01221A7006E0634B1B78E4
:1042A000DBB2013BDAB2614B1A705E4B1B78DBB2BA
:1042B0000133DAB25B4B1A70564B00221A8004E0CD
:1042C000554B9B8C9AB2534B1A804FF4804005F0AB
:1042D000BBFD0346002B00F0B6804FF4804005F094
:1042E000D7FD4B4B9B6803F48043002B40F0A68026
:1042F000484B1B889BB2002B00F0A080464B9B8C48
:104300009AB2464B1A80444B00229A84414B1B8838
:104310009BB21A46642303FB02F3404A128892B20E
:1043200093FBF2F39AB23E4B1A803E4B1B78DBB202
:10433000002B61D03C4B1B78DBB2002B5CD1384B9F
:104340001B889BB23C2B1BD9354B1B889BB24A2B3D
:1043500016D8364B1B78DBB21A4601239340D8435C
:10436000334B1B781A46324B1B781946314B5B5C3A
:10437000D9B2C3B20B40DBB2D9B22E4B995415E07F
:104380002A4B1B78DBB21A46012303FA02F0284BB2
:104390001B781A46264B1B781946264B5B5CD9B214
:1043A000C3B20B43DBB2D9B2224B99541F4B1B78DB
:1043B000DBB2002B19D11D4B07221A701C4B1B7846
:1043C0000133DAB21A4B1A70194B1B78052B13D133
:1043D000154B01221A70164B00221A70134B07223C
:1043E0001A70154B00221A7006E0104B1B78DBB2D6
:1043F000013BDAB20D4B1A700A4B1B78DBB201336A
:10440000DAB2084B1A70034B00221A801BE000BF7F
:10441000000C0140A400002000400140A600002044
:10442000A8000020C1000020C200002024000020BD
:10443000C30000202819002025000020024B9B8C7F
:104440009AB2024B1A8080BD00400140A4000020B7
:1044500080B582B000AF40F2DC53FB800023BB800C
:10446000294B00221A7047E004F09AFA03461A46D4
:10447000254B1A700023BB80FA883B1D1046194655
:1044800008F0D6FA052005F0DFFD05F04FF81F48CB
:1044900004F0EAFFFB881846FDF7E6FF0120002143
:1044A00005F020F81A4804F0DFFFBB881846FDF736
:1044B000DBFF154B1B78DBB2022B0AD1FB88B3F56F
:1044C000FA6F03D2FB880133FB8002E04FF4AF6345
:1044D000FB800D4B1B78DBB2012B0AD1FB88B3F5B7
:1044E000AF6F03D9FB88013BFB8002E04FF4FA6316
:1044F000FB80192005F0A8FD034B1B78DBB2042BD1
:10450000B2D10837BD4680BD1D0100203CD2000855
:1045100044D2000880B582B000AF052005F094FDBC
:104520000023FB7105F002F8464B00221A707DE073
:10453000142005F089FD04F033FA03461A46414B76
:104540001A700020002104F0CDFF3F4804F08CFFDA
:10455000FB79184604F044FB3A4B1B78DBB2042B82
:1045600003D1FB791846FFF723FD364B1B78DBB2EE
:10457000032B03D1FB791846FFF774FD314B1B78F1
:10458000DBB2012B08D1FB79092B03D8FB7901336E
:10459000FB7101E00023FB71012005F055FD0120B6
:1045A000002104F09FFF294804F05EFF284B1B8880
:1045B0009BB21846FDF758FF012005F045FD254840
:1045C00004F052FF244B9B6803F01003002B03D030
:1045D000224804F049FF02E0214804F045FF1E4B49
:1045E0009B6803F02003002B03D01C4804F03CFF21
:1045F0001CE01B4804F038FF174B9B6803F0400396
:10460000002B03D0154804F02FFF02E0144804F0FB
:104610002BFF114B9B6803F48073002B03D00F48D2
:1046200004F022FF02E00E4804F01EFF054B1B7849
:10463000DBB2022B7FF47CAF04F078FF0837BD4675
:1046400080BD00BF1D0100204CD2000858D20008D8
:10465000DE0000205CD200080008014064D200089F
:1046600068D2000880B584B000AF0346FB800B46DB
:104670007B7113463B710023FB730023BB73002344
:104680007B73FA887B7942FA03F37B730020002165
:1046900004F028FF514804F0E7FE514B00221A7045
:1046A00060E004F07DF903461A464D4B1A70012074
:1046B000002104F017FF0023FB7305E0494804F0D4
:1046C000D3FEFB7B0133FB73FA7B39797B79CB1A01
:1046D0009A42F3DB012005F0B7FC0023FB7309E0ED
:1046E0000020002104F0FEFE3F4804F0BDFEFB7BED
:1046F0000133FB73FA7B39797B79CB1A9A42EFDB72
:10470000BB7B0020194604F0EDFE344804F0ACFEFB
:10471000052005F099FC324B1B78DBB2042B08D145
:10472000BA7B39797B79CB1A9A4202DABB7B0133A7
:10473000BB732B4B1B78DBB2012B05D1BB7B002B52
:1047400002D0BB7B013BBB73254B1B78DBB2032B39
:1047500008D1BB7B012202FA03F3DAB27B7B534020
:10476000DBB27B731E4B1B78DBB2022B99D100238B
:10477000FB7325E07A7BFB7B42FA03F303F0010332
:10478000002B0DD0FA7B7B791344012BCCBF012386
:104790000023DBB29AB2FB8813439BB2FB800CE090
:1047A000FA7B7B791344012202FA03F39BB2DB43C9
:1047B0009AB2FB8813409BB2FB80FB7B0133FB73F7
:1047C000FA7B39797B79CB1A9A42D3DB02F0D2FAA1
:1047D000FB8818461037BD4680BD00BF7CD200085C
:1047E0001D01002064D2000874D2000880B586B094
:1047F00000AF0346FB710023BB8200237B810023B3
:104800003B8100233B6104F091FE654804F02CFEDF
:10481000C82005F019FCFB799BB21A461201D31A85
:104820009BB203F21E63BB82BA8A07F10A031046E9
:10483000194608F0FDF87B89DBB2184602F0E6FE67
:1048400003469BB27B817B89BA8A1046194608F0E1
:104850003BF904F06BFE0020052104F043FE5148B3
:1048600004F002FEC82005F0EFFBFB799BB21A466C
:104870001201D31A9BB203F22763BB82BA8A07F1F3
:1048800008031046194608F0D3F83B891846002162
:104890000322FFF7E7FE03463B810023FB7511E08F
:1048A00004F07EF803461A463F4B1A703E4B1B78C5
:1048B000DBB2042B03D1FB7DC3F10103FB7519208F
:1048C00005F0C2FB384B1B78DBB2002BE8D0FB7D38
:1048D000012B05D13B8943F001039BB23B8104E0EE
:1048E0003B8923F001039BB23B813B89BA8A104686
:1048F000194608F0E9F8052005F0A6FB02F03AFA9F
:104900000023FB60FB799BB21A461201D31A9BB2BB
:1049100003F22163BB82BB8A184604F00BFBF860EC
:10492000F868012103F086F9F860FB689BB2BA8A47
:104930001046194608F0C8F8FB799BB21A461201D6
:10494000D31A9BB203F22363BB82BB8A184604F0DE
:10495000F1FAF860F868012103F06CF9F860FB687F
:104960009BB2BA8A1046194608F0AEF8FB799BB2A2
:104970001A461201D31A9BB203F21F63BB82BB8A91
:10498000184604F0D7FAF860F86802F055FFF860AE
:10499000BB8A1846F96802F05DFD1837BD4680BD38
:1049A00080D2000888D200081D01002080B582B0A6
:1049B00000AF0023FB7104F0B9FD094804F054FD79
:1049C000C82005F041FBFB79184602F01FFE0346A4
:1049D000FB71FB79184600F021F80837BD4680BD11
:1049E00094D2000880B582B000AF0023FB7104F0C0
:1049F0009DFD094804F038FDC82005F025FBFB7932
:104A0000184602F003FE0346FB71FB791846FFF7D8
:104A1000EDFE0837BD4680BD94D2000880B584B055
:104A200000AF0346FB710023FB810023BB81FB79B0
:104A30009BB21A46920013449BB203F2A563FB811A
:104A4000FA8907F10C031046194607F0F1FF04F04C
:104A50006DFD574804F008FDBB89184602F02CFE96
:104A60000346BB81BB89FA891046194608F02CF829
:104A7000FB799BB21A46920013449BB203F2A663E1
:104A8000FB81FA8907F10C031046194607F0D0FFA5
:104A900004F04CFD474804F0E7FCBB89184602F0DF
:104AA0000BFE0346BB81BB89FA891046194608F004
:104AB0000BF8FA8907F10C031046194607F0B8FF06
:104AC00004F034FD3C4804F0CFFCBB89184602F0EA
:104AD000F3FD0346BB81BB89FA891046194607F0EE
:104AE000F3FFFB799BB21A46920013449BB203F288
:104AF000A763FB81FA8907F10C031046194607F0FA
:104B000097FF04F013FD2D4804F0AEFCBB89184656
:104B100002F0D2FD0346BB81BB89FA8910461946D3
:104B200007F0D2FFFB799BB21A46920013449BB266
:104B300003F2A763FB81FA8907F10C0310461946BB
:104B400007F076FF04F0F2FC1D4804F08DFCBB89F1
:104B5000184602F0B1FD0346BB81BB89FA891046B5
:104B6000194607F0B1FFFA8907F10C031046194600
:104B700007F05EFF04F0DAFC124804F075FCBB8914
:104B8000184602F099FD0346BB810A2005F05CFA45
:104B9000BB89FA891046194607F096FF04F0C6FC57
:104BA0000A2005F051FA04F0A7FB1037BD4680BD7E
:104BB000A0D20008B4D20008C4D20008D4D20008A1
:104BC000E0D20008F0D2000890B585B000AF002315
:104BD000BB730023FB7304F0A9FC354804F044FCCC
:104BE000C82005F031FABB7B184602F00FFD0346E2
:104BF000BB7304F09BFC2F4804F036FCBB7B1846CB
:104C000003F0EEFF2C4804F02FFC0023FB7306E0BA
:104C10001E2005F019FA03F0C3FE0346FB73FB7B6D
:104C2000022B02D0FB7B032BF2D1C82005F00CFA3B
:104C3000FB7B022B33D1BA7B13461B019B1A03F279
:104C40001F63BB60BB689BB2184604F073F97860C1
:104C5000BA7B13461B019B1A03F22163BB6003F06E
:104C600043FC3860BB689BB21846396802F0F2FB1F
:104C7000BA7B13461B019B1A03F22563BB60BB681A
:104C80009CB203F031FC02467B68D31A0533204600
:104C9000194602F0DFFBBB7B184600F00FF804F06A
:104CA00045FCC82005F0D0F91437BD4690BD00BFC3
:104CB00094D20008FCD2000808D3000880B58EB05A
:104CC00000AF0346FB71994B00221A70984B0222E9
:104CD0001A70FB79012202FA03F3DAB2954B1B78C2
:104CE000DBB2DBB21343DBB2DAB2924B1A700023B1
:104CF0003B6303F0F9FB38638D4B03221A700023EA
:104D00003B82002387F837300023FB620023BB621D
:104D100000237B6200233B620023FB830023BB83D1
:104D20000023FB8100237B8300233B830023BB8183
:104D30000023FB750023BB7503F0D6FB38623B6A8A
:104D40007B627B4B04221A70642005F07DF97A4B5C
:104D50005B88BB83FB799BB21A461201D31A9BB2C4
:104D600003F21E637B837A8B07F10E03104619460C
:104D700007F05EFEFB89DBB29BB2FB81642005F08D
:104D800063F96E4B5B889AB26B4B5B889BB2D31A0C
:104D9000FB8304F0CBFB6A4804F066FBFB8B694A9B
:104DA000A2FB03235B099BB2DBB2184603F018FF9A
:104DB000FB8BDBB2184603F013FF634804F054FB8F
:104DC0005D4B5B889BB21846FDF74EFB012000212E
:104DD00004F088FB5D4804F047FB584B5B889BB2AE
:104DE0001846FDF741FB5A4804F03EFBFB89184684
:104DF000FDF73AFB4FF4FA5005F026F9FDF742F8BB
:104E0000FB89544AA2FB03235B089BB2FA8B9A42AC
:104E100080F0E580FB89BA8BD31AFB83FB8B1846A5
:104E2000002100F0FFFFC82005F00EF908F088F817
:104E30003F4B06221A70BB8BDAB23F4B5B889BB2AA
:104E4000DBB2D31AFB75FB891A461346DB00134409
:104E5000414A82FB03129210DB17D31ABB75002361
:104E600087F83730B6E00A2005F0EEF897F83730CB
:104E70005733DAB22E4B1A7000237B83FB799BB237
:104E80001A461201D31A9BB203F21F637B837B8BFA
:104E9000184604F04FF8B862FB799BB21A4612012B
:104EA000D31A9BB203F221637B837B8B184604F0F9
:104EB00041F87862642005F0C7F897F837309BB264
:104EC0001A46920013449BB203F2A7637B837A8B4A
:104ED00007F110031046194607F0AAFD0023BB8610
:104EE00000237B75642005F0AFF83B8A002B35D09A
:104EF00003F0FAFA02467B6AD21ABB6AB2FBF3F3FA
:104F0000FB62642005F0A0F8094BC8221A70C82083
:104F100005F09AF83B8ADAB2FB6AB3FBF2F102FBC6
:104F200001F29B1A7B750123BB8619E0300000203B
:104F30001E010020580100208C0000204C010020A0
:104F40000CD300081F85EB5110D3000814D30008C0
:104F500018D30008ABAAAAAA676666660023BB86B8
:104F6000322005F071F83B8A1B0A3B833B8B002BF8
:104F70002BD03B8BFE2B28D83B8B013B3B83002364
:104F80007B83FB799BB23A8B9A4218D1BB8E002B64
:104F900015D0584B63221A704FF4C87005F054F8BE
:104FA00097F83730184600F0AFF897F83730643389
:104FB000DAB2504B1A704FF4FA6005F045F86420ED
:104FC00005F042F84B4B08221A7097F8373001333E
:104FD00087F8373097F83730082B7FF644AF322008
:104FE00005F032F8434B09221A70FB799BB21A463E
:104FF0001201D31A9BB203F227637B837A8B07F1EA
:105000000C031046194607F013FDFCF73BFF0B207D
:10501000FEF7CEFFBB891846FCF710FF354B0A227E
:105020001A7000233B7500237B82334B1B783B7542
:10503000314B30221A70322005F006F8FB799BB212
:105040001A461201D31A9BB203F21D637B8300231D
:10505000FB817A8B07F10E031046194607F0E8FC36
:10506000FB891A46BB891046194600F091FEFB7970
:105070009BB21A461201D31A9BB203F225637B83BB
:105080007B8B1846396B02F0E5F91A4B0C221A702B
:1050900044F6206004F0D8FF174A3B7D1370174B8D
:1050A0001B78DBB223F00803DAB2144B1A70114BF1
:1050B0000D221A704FF47A7004F0C6FFFCF7E2FE7E
:1050C000FB79012202FA03F3DBB2DB43DAB20C4BC9
:1050D0001B78DBB2DBB21340DBB2DAB2084B1A70DA
:1050E000084B01221A70C82004F0AEFF3837BD46C5
:1050F00080BD00BF1E010020260000201F010020EF
:10510000580100203000002080B586B000AF034673
:10511000FB71FCF7B7FE322004F096FF0023FB8101
:105120000023BB8100237B810023FB8200233B61A2
:10513000FB799BB21A46920013449BB203F2A6631A
:10514000FB82FA8A07F10E031046194607F070FC3D
:10515000322004F079FFFB799BB21A469200134487
:105160009BB203F2A563FB82FA8A07F10C03104697
:10517000194607F05DFCFB79C3F1FF2303F57F03BC
:10518000C833DAB2184B1A70282004F05DFF07F01C
:10519000D7FE0023FB82FB799BB21A469200134490
:1051A0009BB203F5D563FB82282004F04DFFFA8AF9
:1051B00007F10A031046194607F03AFC282004F0CC
:1051C00043FF07F0BDFE7989FA89BB89DBB2084647
:1051D00011461A46012300F029FD4FF4C87004F06F
:1051E00033FF1837BD4680BD1E01002080B584B056
:1051F00000AF03460A46FB711346BB710023FB81D7
:10520000BB79002B0ED0FB79012202FA03F3DAB24C
:10521000334B1B78DBB2DBB21343DBB2DAB2304B79
:105220001A700FE0FB79012202FA03F3DBB2DB43D1
:10523000DAB22B4B1B78DBB2DBB21340DBB2DAB253
:10524000274B1A70BB79012B02D10023BB7113E0ED
:10525000BB79652B0CD107F10E0340F2176019469C
:1052600007F0E6FB022004F0EFFEFB89BB7103E0D0
:10527000BB79C3F16403BB71FB79002B08D1194AD8
:10528000BB799BB2194689000B445B009BB29386A5
:10529000FB79012B08D1134ABB799BB219468900CF
:1052A0000B445B009BB21387FB79022B08D10D4A9C
:1052B000BB799BB2194689000B445B009BB2938774
:1052C000FB79032B09D1074ABB799BB219468900A8
:1052D0000B445B009BB2A2F840301037BD4680BD46
:1052E0005A0100200004004080B584B000AF03469E
:1052F0000A46FB711346BB710023FB6003F0F4F810
:1053000003460133FB6002E0022004F09DFE03F03F
:10531000EBF80246FB689A42F6D303F0E5F8024642
:10532000BB791344FB60FB7918460121FFF75EFF50
:1053300002E0022004F088FE03F0D6F80246FB6883
:105340009A42F6D3FB7918460021FFF74FFF10373A
:10535000BD4680BD80B58CB000AF786000237B6215
:1053600000233B620023FB610023FB620023BB613F
:1053700000237B6100237B820023BB8100237B749D
:10538000002387F82B3000233B74002387F82A3052
:105390000023FB81FCF776FD44F6206004F054FE08
:1053A000002387F82B30D4E00A2004F04DFE97F854
:1053B0002B309BB21A461201D31A9BB203F221631F
:1053C0007B827B8A184603F0B5FDB86197F82B30D5
:1053D0009BB21A461201D31A9BB203F223637B825B
:1053E0007B8A184603F0A6FD7861322004F02CFE7B
:1053F00097F82B309BB21A461201D31A9BB203F2D4
:105400001E637B827A8A07F10C031046194607F067
:105410000FFBBB891B0A9BB287F82A30322004F0AD
:1054200013FE4F4B1B68DAB297F82A3013403B74D7
:105430003B7C002B03D0012387F82A3002E00023B5
:1054400087F82A30142004F0FFFD00233B7497F8FE
:105450002B309BB21A461201D31A9BB203F2276378
:105460007B820023BB817A8A07F10C031046194620
:1054700007F0DEFA4FF4FA7004F0E6FDBB89FB8119
:1054800097F82B309BB21A461201D31A9BB203F243
:1054900025637B827B8A184603F04CFD386297F8BF
:1054A0002B309BB21A461201D31A9BB203F21F6330
:1054B0007B827B8A184603F03DFDF8610A2004F0E8
:1054C000C3FD03F011F802463B6A9A4206D903F085
:1054D0000BF802463B6AD31AFB6201E00023FB6231
:1054E00003F002F87862FA6AFB699A4217D97A6A7D
:1054F000BB699A4213D97A6A7B699A420FD2FB89B7
:10550000002B0CD097F82A30012B08D1154B1B68C3
:10551000002B04D197F82B301846FFF7CFFB322031
:1055200004F092FD104B1B78642B0AD90D4B01221D
:105530001A600D4B1B78184600F00EFD094B002237
:105540001A60322004F080FD97F82B30013387F881
:105550002B3097F82B30072B7FF626AF20E700BFC4
:1055600020010020640100205D01002080B582B090
:1055700000AF786004F0CAFD0620FEF719FD07F0C1
:10558000DFFC786800F096FF0320FEF711FD07F0BE
:10559000D7FC786800F08EFF0120FEF709FD07F0C8
:1055A000CFFC786800F086FF0720FEF701FD07F0CA
:1055B000C7FC786800F07EFF0220FEF7F9FC07F0D8
:1055C000BFFC786800F076FF0C20FEF7F1FC07F0D6
:1055D000B7FC04F0A9FD0837BD4680BD80B582B098
:1055E00000AF786004F092FD0620FEF73BFD07F067
:1055F000A7FC786800F05EFF0320FEF733FD07F09C
:105600009FFC786800F056FF0120FEF72BFD07F0A5
:1056100097FC786800F04EFF0720FEF723FD07F0A7
:105620008FFC786800F046FF0220FEF71BFD07F0B4
:1056300087FC786800F03EFF0C20FEF713FD07F0B2
:105640007FFC04F071FD0837BD4680BD80B582B097
:1056500000AF786004F05AFD0C20FEF7A9FC07F0BB
:105660006FFC786800F026FF0220FEF7A1FC07F02F
:1056700067FC786800F01EFF0720FEF799FC07F032
:105680005FFC786800F016FF0120FEF791FC07F040
:1056900057FC786800F00EFF0320FEF789FC07F046
:1056A0004FFC786800F006FF0620FEF781FC07F04B
:1056B00047FC04F039FD0837BD4680BD80B582B097
:1056C00000AF786004F022FD0C20FEF7CBFC07F061
:1056D00037FC786800F0EEFE0220FEF7C3FC07F00E
:1056E0002FFC786800F0E6FE0720FEF7BBFC07F011
:1056F00027FC786800F0DEFE0120FEF7B3FC07F01F
:105700001FFC786800F0D6FE0320FEF7ABFC07F024
:1057100017FC786800F0CEFE0620FEF7A3FC07F029
:105720000FFC04F001FD0837BD4680BD80B582B096
:1057300000AF786004F0EAFC0120FEF739FC072096
:10574000FEF736FC07F0FCFB786800F0B3FE0320A0
:10575000FEF72EFC0220FEF72BFC07F0F1FB786829
:1057600000F0A8FE0620FEF723FC0C20FEF720FC2C
:1057700007F0E6FB04F0D8FC0837BD4680BD00BF4B
:1057800080B582B000AF786004F0C0FC0120FEF765
:1057900069FC0720FEF766FC07F0D2FB786800F092
:1057A00089FE0320FEF75EFC0220FEF75BFC07F09B
:1057B000C7FB786800F07EFE0620FEF753FC0C2045
:1057C000FEF750FC07F0BCFB04F0AEFC0837BD460A
:1057D00080BD00BF80B582B000AF786004F096FC59
:1057E0000620FEF7E5FB07F0ABFB786800F062FEF1
:1057F0000320FEF7DDFB0620FEF734FC07F0A0FBDC
:10580000786800F057FE0120FEF7D2FB0320FEF778
:1058100029FC07F095FB786800F04CFE0720FEF7A6
:10582000C7FB0120FEF71EFC07F08AFB786800F03A
:1058300041FE0220FEF7BCFB0720FEF713FC07F039
:105840007FFB786800F036FE0C20FEF7B1FB0220EB
:10585000FEF708FC07F074FB786800F02BFE0C20C4
:10586000FEF700FC07F06CFB04F05EFC0837BD4659
:1058700080BD00BF80B582B000AF786004F046FC08
:1058800007F05EFB0C20FEF793FB786800F012FE39
:105890000220FEF78DFB0C20FEF7E4FB07F050FB27
:1058A000786800F007FE0720FEF782FB0220FEF773
:1058B000D9FB07F045FB786800F0FCFD0120FEF7FE
:1058C00077FB0720FEF7CEFB07F03AFB786800F085
:1058D000F1FD0320FEF76CFB0120FEF7C3FB07F090
:1058E0002FFB786800F0E6FD0620FEF761FB032041
:1058F000FEF7B8FB07F024FB786800F0DBFD06201C
:10590000FEF7B0FB07F01CFB04F00EFC0837BD46A9
:1059100080BD00BF80B584B000AF0346FB7100239B
:10592000FB73FB791846FEF743FB0023FB7307E08C
:1059300007F006FB0A2004F087FBFB7B0133FB73B7
:10594000FB7B312BF4D9FB791846FEF78BFB103724
:10595000BD4680BD80B582B000AF0023FB7100233F
:10596000FB7106E0FB791846FFF7D4FFFB790133A2
:10597000FB71FB790E2BF5D90023BB714FF47A70C4
:10598000FFF7F4FD4FF47A70FFF728FE4FF4FA703A
:1059900004F05AFB4FF47A70FFF758FE4FF47A7018
:1059A000FFF78CFE4FF4FA7004F04EFBFCF76AFA36
:1059B0000023BB7112E0BB794FF4FA7202FB03F3D0
:1059C0001846FFF707FFBB794FF4FA7202FB03F3A7
:1059D0001846FFF74FFFBB790133BB71BB79042B2E
:1059E000E9D9642004F030FB4FF47A70FFF79EFE93
:1059F000642004F029FB4FF47A70FFF7C1FE4FF4E6
:105A0000FA7004F021FB0837BD4680BD80B582B036
:105A100000AF0023FB710023BB710023BB711BE0AF
:105A2000FFF798FF0023FB7110E0FB791846FEF7A3
:105A3000BFFAC82004F008FBFB791846FEF712FBFA
:105A4000C82004F001FBFB790133FB71FB790F2BBC
:105A5000EBD9BB790133BB71BB79042BE0D90220B0
:105A6000012103F0E7FAC82004F0EEFA0220002139
:105A700003F0E0FAC82004F0E7FA0220012103F065
:105A8000D9FAC82004F0E0FA0220002103F0D2FA8B
:105A9000C82004F0D9FA0023FB710EE0444AFB79D8
:105AA0009BB2194689000B445B009BB293860A2087
:105AB00004F0CAFAFB790133FB71FB793B2BEDD97A
:105AC0003C23FB710EE03A4AFB799BB219468900F0
:105AD0000B445B009BB293860A2004F0B5FAFB7975
