:020000040800F2
:10000000341D0020D907000881AB00088DAB000823
:1000100095AB00089DAB0008A5AB000800000000F0
:1000200000000000000000000000000079B9000896
:10003000ADAB0008000000004DBA000889BA000806
:10004000350800083508000835080008350800089C
:100050003508000835080008693B0008853B0008A2
:10006000A13B0008350800083508000835080008DD
:100070003508000835080008D5350008F1350008B6
:1000800035080008350800083508000800000000A1
:10009000000000000000000000000000915B00086C
:1000A00035080008795B0008855B00083508000802
:1000B0003508000835080008655C0008B9AB000881
:1000C00071B100084DAE0008D9B00008350800082D
:1000D00035080008A11B000835080008350800088D
:1000E000AD3B000835080008350800080000000096
:1000F0000000000000000000000000000000000000
:1001000000000000000000000000000000000000EF
:100110000000000000000000350800083508000855
:100120005FF808F180B588B000AF786007F1080388
:10013000184609F0D5F9FB68094AA2FB03235B0BBB
:100140007A6802FB03F3FB610023FB6102E0FB69B9
:10015000013BFB61FB69002BF9D12037BD4680BD17
:100160005917B7D180B485B000AF786039600023EB
:10017000FB817B681B88FB817B682E4A934213D0EE
:100180007B682D4A93420FD07B68B3F1804F0BD030
:100190007B682A4A934207D07B68294A934203D05E
:1001A0007B68284A934208D1FB8923F07003FB81C6
:1001B0003B685A88FB891343FB817B68224A934240
:1001C0000CD07B68214A934208D0FB8923F440730A
:1001D000FB813B68DA88FB891343FB817B68FA89E2
:1001E0001A803B689A887B689A853B681A887B6886
:1001F0001A857B680F4A93420FD07B680E4A934260
:100200000BD07B68124A934207D07B68114A934215
:1002100003D07B68104A934204D13B681B7A9AB2A0
:100220007B681A867B6801229A821437BD465DF886
:10023000047B7047002C0140003401400004004062
:1002400000080040000C0040001000400014004076
:1002500000400140004401400048014080B485B0A6
:1002600000AF7860396000237B810023FB8100238D
:10027000BB817B681B8C9BB223F001039AB27B6825
:100280001A847B681B8CFB817B689B88BB817B68A5
:100290001B8B7B817B8923F070037B817B8923F01F
:1002A00003037B813B681A887B8913437B81FB892D
:1002B00023F00203FB813B681A89FB891343FB810E
:1002C0003B685A88FB891343FB817B68244A93422D
:1002D0000FD07B68234A93420BD07B68224A93421B
:1002E00007D07B68214A934203D07B68204A93421F
:1002F00023D1FB8923F00803FB813B685A89FB89E2
:100300001343FB81FB8923F00403FB813B689A883C
:10031000FB891343FB81BB8923F48073BB81BB89B9
:1003200023F40073BB813B689A89BB891343BB816B
:100330003B68DA89BB891343BB817B68BA899A80A1
:100340007B687A891A833B68DA887B689A867B683F
:10035000FA891A841437BD465DF8047B704700BFE4
:10036000002C0140003401400040014000440140A5
:100370000048014080B485B000AF78603960002348
:100380007B810023FB810023BB817B681B8C9BB29C
:1003900023F010039AB27B681A847B681B8CFB8164
:1003A0007B689B88BB817B681B8B7B817B8923F46B
:1003B000E0437B817B8923F440737B813B681B880E
:1003C0001B029AB27B8913437B81FB8923F02003B4
:1003D000FB813B681B891B019AB2FB891343FB819C
:1003E0003B685B881B019AB2FB891343FB817B68E6
:1003F000224A934203D07B68214A93422BD1FB8946
:1004000023F08003FB813B685B891B019AB2FB8967
:100410001343FB81FB8923F04003FB813B689B88EE
:100420001B019AB2FB891343FB81BB8923F48063D0
:10043000BB81BB8923F40063BB813B689B899B0024
:100440009AB2BB891343BB813B68DB899B009AB29C
:10045000BB891343BB817B68BA899A807B687A89A0
:100460001A833B68DA887B681A877B68FA891A8462
:100470001437BD465DF8047B704700BF002C014077
:100480000034014080B485B000AF7860396000234B
:100490007B810023FB810023BB817B681B8C9BB28B
:1004A00023F480739AB27B681A847B681B8CFB816F
:1004B0007B689B88BB817B689B8B7B817B8923F0DE
:1004C00070037B817B8923F003037B813B681A885F
:1004D0007B8913437B81FB8923F40073FB813B6899
:1004E0001B891B029AB2FB891343FB813B685B8823
:1004F0001B029AB2FB891343FB817B68224A934219
:1005000003D07B68214A93422BD1FB8923F40063FB
:10051000FB813B685B891B029AB2FB891343FB8119
:10052000FB8923F48063FB813B689B881B029AB2A2
:10053000FB891343FB81BB8923F48053BB81BB89B7
:1005400023F40053BB813B689B891B019AB2BB8992
:100550001343BB813B68DB891B019AB2BB89134300
:10056000BB817B68BA899A807B687A899A833B6869
:10057000DA887B689A877B68FA891A841437BD46C3
:100580005DF8047B704700BF002C0140003401403F
:1005900080B485B000AF786039600023BB81002350
:1005A0007B810023FB817B681B8C9BB223F48053EF
:1005B0009AB27B681A847B681B8C7B817B689B88E2
:1005C000FB817B689B8BBB81BB8923F4E043BB81B0
:1005D000BB8923F44073BB813B681B881B029AB222
:1005E000BB891343BB817B8923F400537B813B6828
:1005F0001B891B039AB27B8913437B813B685B8811
:100600001B039AB27B8913437B817B68124A934216
:1006100003D07B68114A93420AD1FB8923F48043BB
:10062000FB813B689B899B019AB2FB891343FB8149
:100630007B68FA899A807B68BA899A833B68DA88F2
:100640007B68A3F840207B687A891A841437BD46FA
:100650005DF8047B704700BF002C0140003401406E
:1006600080B483B000AF78607B684FF6FF729A80E9
:100670007B6800221A807B680022DA807B68002277
:100680005A807B6800221A720C37BD465DF8047BE5
:10069000704700BF80B483B000AF78607B680022F1
:1006A0001A807B6800225A807B6800229A807B68CF
:1006B0000022DA807B6800221A817B6800225A813E
:1006C0007B6800229A817B680022DA810C37BD4664
:1006D0005DF8047B704700BF80B483B000AF7860E2
:1006E0000B46FB70FB78002B08D07B681B889BB205
:1006F00043F001039AB27B681A8007E07B681B888D
:100700009BB223F001039AB27B681A800C37BD4676
:100710005DF8047B704700BF80B483B000AF7860A1
:100720000B46FB70FB78002B0CD07B68B3F8443091
:100730009BB26FEA43436FEA53439AB27B68A3F8D4
:10074000442009E07B68B3F844309BB2C3F30E0346
:100750009AB27B68A3F844200C37BD465DF8047B51
:10076000704700BF80B485B000AF78600B467B80D7
:100770000023FB730023BB8100237B817B681B8AE2
:100780009AB27B881340BB817B689B899AB27B8835
:1007900013407B81BB89002B05D07B89002B02D0C5
:1007A0000123FB7301E00023FB73FB7B1846143726
:1007B000BD465DF8047B704780B483B000AF7860BD
:1007C0000B467B807B88DB439AB27B681A820C37AE
:1007D000BD465DF8047B704780B582B000AF104B1A
:1007E0007B60104B3B6007E03B681A1D3A607A68FB
:1007F000111D796012681A603B680B4A9342F3D36B
:100800000A480B494FF000028842B8BF40F8042B59
:10081000FADB00F013F808F093F90837BD4680BD05
:1008200064CE000800000020840000208800002022
:100830003819002080B400AFFEE700BF80B500AFDC
:10084000164A164B1B6843F0010313601349134B00
:100850005A68134B13404B60104A104B1B6823F02F
:10086000847323F4803313600C4A0C4B1B6823F40D
:1008700080231360094A094B5B6823F4FE0353602D
:10088000064B4FF41F029A60044B0022DA6200F01C
:100890000BF8044B4FF000629A6080BD00100240DC
:1008A0000000FFF800ED00E080B500AF00F002F8B6
:1008B00080BD00BF80B483B000AF00237B60002305
:1008C0003B60304A2F4B1B6843F4803313602D4B41
:1008D0001B6803F400333B607B6801337B603B683B
:1008E000002B03D17B68B3F5A06FF0D1254B1B68BB
:1008F00003F00203002B02D001233B6001E0002340
:100900003B603B68012B37D11E4A1E4B5B6853602E
:100910001C4A1C4B5B6853601A4A1A4B5B68536055
:10092000184A184B5B6823F47C135360154A154B27
:100930005B6843F498135360124A124B1B6843F0F0
:100940008073136000BF0F4B1B6803F00073002B14
:10095000F9D00C4A0B4B5B6823F003035360094A40
:10096000084B5B6843F00203536000BF054B5B68B4
:1009700003F00C03082BF9D10C37BD465DF8047B5E
:10098000704700BF0010024080B483B000AF034640
:100990000A46FB711346BB71034B00221A700C37D9
:1009A000BD465DF8047B70470000002080B489B02C
:1009B00000AF786039600023FB6100233B610023B6
:1009C000BB610023FB6000237B610023BB603B68AD
:1009D000DB7803F00F03FB613B68DB7803F0100367
:1009E000002B05D03B689B781A46FB691343FB61DB
:1009F0003B681B88DBB2002B44D07B681B687B61A3
:100A00000023BB6138E0BB69012202FA03F3FB60FB
:100A10003B681B881A46FB6813403B613A69FB68D8
:100A20009A4226D1BB699B00FB60FB680F2202FA49
:100A300003F3BB60BB68DB437A6913407B61FB68EF
:100A4000FA6902FA03F37A6913437B613B68DB7846
:100A5000282B05D1BB6901229A407B685A6108E0C6
:100A60003B68DB78482B04D1BB6901229A407B6844
:100A70001A61BB690133BB61BB69072BC3D97B68B2
:100A80007A691A603B681B88FF2B4AD97B685B68D0
:100A90007B610023BB613EE0BB6908331A4601233A
:100AA0009340FB603B681B881A46FB6813403B6120
:100AB0003A69FB689A422BD1BB699B00FB60FB68DB
:100AC0000F2202FA03F3BB60BB68DB437A69134071
:100AD0007B61FB68FA6902FA03F37A6913437B616D
:100AE0003B68DB78282B07D1BB6908331A46012302
:100AF00003FA02F27B685A613B68DB78482B07D126
:100B0000BB6908331A46012303FA02F27B681A61B3
:100B1000BB690133BB61BB69072BBDD97B687A69AF
:100B20005A602437BD465DF8047B704780B483B0BB
:100B300000AF78607B684FF6FF721A807B680222F4
:100B40009A707B680422DA700C37BD465DF8047B2E
:100B5000704700BF80B487B000AF78600B46FB7071
:100B600000233B610023FB6000237B610023BB600B
:100B70007B68002B03DA2E4BDB697B6102E02C4B98
:100B80005B687B617B6803F470231B0CBB607B6834
:100B90009BB23B617B6803F44013B3F5401F0AD15D
:100BA0007B6923F070637B61214A214B5B6823F0F2
:100BB0007063536021E07B6803F48013002B0ED038
:100BC000BB68032202FA03F3FB60FB68DB437A692C
:100BD00013407B617B6943F070637B610DE07B6850
:100BE0005B0D1B011A463B699340DB437A69134056
:100BF0007B617B6943F070637B61FB78002B08D0DD
:100C00007B685B0D1B011A463B6993407A6913436D
:100C10007B617B68002B03DA054A7B69D36102E0C4
:100C2000034A7B6953601C37BD465DF8047B7047FF
:100C30000000014090B484B000AF03460A46FB7147
:100C40001346BB710023FB60BB7903F003039B00D9
:100C50000F2202FA03F3FB601649BB799B08DBB253
:100C60001846144ABB799B08DBB2023352F82320A2
:100C7000FB68DB431A40831C41F823200D48BB79F5
:100C80009B08DBB21C460B4ABB799B08DBB20233E4
:100C900052F82320F979BB7903F003039B0001FA92
:100CA00003F31A43A31C40F823201037BD4690BC21
:100CB000704700BF0000014080B483B000AF03461E
:100CC000FB71084997F907305B09FA7902F01F02B6
:100CD000012000FA02F241F823200C37BD465DF8EE
:100CE000047B704700E100E080B483B000AF0346AE
:100CF000FB71094997F907305B09FA7902F01F0285
:100D0000012000FA02F2203341F823200C37BD46BF
:100D10005DF8047B704700BF00E100E080B483B061
:100D200000AF0346FB71FB79002B02D0012B05D0ED
:100D300009E0074B4FF480425A6104E0044B4FF442
:100D400000425A6100BF0C37BD465DF8047B704716
:100D5000000C014080B483B000AF0346FB71FB7907
:100D6000002B02D0012B05D009E0074B4FF4804245
:100D70001A6104E0044B4FF400421A6100BF0C37C3
:100D8000BD465DF8047B7047000C014080B582B021
:100D900000AF0346FB71FB79184600F09BFAFB7924
:100DA0001846FFF7BBFF45F2082005F0D1F8FB79A4
:100DB0001846FFF7CFFFFB79184600F023FA094BDE
:100DC00007221A70084B00221A70084B00221A7072
:100DD000074B00221A70074B00221A800837BD46C5
:100DE00080BD00BF24000020C1000020C3000020FF
:100DF000C2000020A400002080B584B000AF0346EC
:100E0000FB710120FFF7A6FF192008F067FE002301
:100E1000FB7306E0FB7B0F4A0021D154FB7B0133BF
:100E2000FB73FB7B042BF5D90B4B00221A8025208A
:100E3000FFF75AFFFB791846FFF7A8FFC82008F014
:100E40004DFE2520FFF738FF00F008F81037BD46AB
:100E500080BD00BF30190020A400002080B582B002
:100E600000AF0A2008F03AFE0023FB71804B1B788C
:100E7000DBB2012B40F0B0810A2008F02FFE7D4B41
:100E80001B781B029AB27B4B5B789BB213449AB2DD
:100E9000794B5A80774B9B781B029AB2754BDB7863
:100EA0009BB213449AB2744B1A80724B1A79724BEC
:100EB0001A71714B5B889AB2704B1B889BB29A4235
:100EC0000AD96D4B5B889AB26D4B1B889BB29A42D4
:100ED00002D26C4B00221A70674B5B889AB2674B48
:100EE0001B889BB29A4202D2664B01221A70624B57
:100EF0005B889AB2624B1B889BB29A4202D9614BC3
:100F000002221A705B480021042200F01BFA0346FB
:100F10001A46584B1B799A4240F05E810A2008F02D
:100F2000DDFD594B1B78DBB2002B03D0012B00F009
:100F30009B804EE10023FB7108E0FB79FA794D4973
:100F4000895C524AD154FB790133FB71FB79032B45
:100F5000F3D90A2008F0C2FD474B1B889BB24C4ACC
:100F6000A2FB031292094FF47A7101FB02F29B1A61
:100F70009BB2484AA2FB03235B099BB2DBB230332E
:100F8000DAB2454B1A703C4B1B889BB2414AA2FB1C
:100F900003125209642101FB02F29B1A9BB23F4AE1
:100FA000A2FB0323DB089BB2DBB23033DAB23A4B4D
:100FB0005A70394B2E229A702F4B1B889AB2374B9E
:100FC000A3FB0213D9080B469B000B445B00D31A0A
:100FD0009BB2DBB23033DAB22F4BDA700A2008F062
:100FE0007DFD254B5B889BB2294AA2FB0312920927
:100FF0004FF47A7101FB02F29B1A9BB2254AA2FBC5
:1010000003235B099BB2DBB23033DAB2244B1A7094
:10101000194B5B889BB21F4AA2FB03125209642141
:1010200001FB02F29B1A9BB21C4AA2FB0323DB08C2
:101030009BB2DBB23033DAB2194B5A70184B2E2206
:101040009A700D4B5B889AB2144BA3FB0213D9081C
:101050000B469B000B445B00D31A9BB2DBB23033D0
:10106000DAB20F4BDA70B4E00023FB7123E000BF6B
:10107000C200002030190020AC000020A000002099
:101080009E000020A200002025000020B4000020C7
:10109000D34D62101F85EB51C8000020CDCCCCCCC5
:1010A000C4000020FB79FA794D49895C4D4AD1543E
:1010B000FB790133FB71FB79032BF3D90A2008F08C
:1010C0000DFD494B1B889BB2484AA2FB03129209B3
:1010D0004FF47A7101FB02F29B1A9BB2444AA2FBC5
:1010E00003235B099BB2DBB23033DAB2414B1A7097
:1010F0003D4B1B889BB23E4AA2FB0312520964215E
:1011000001FB02F29B1A9BB23B4AA2FB0323DB08C2
:101110009BB2DBB23033DAB2364B5A70354B2E22EB
:101120009A70314B1B889AB2334BA3FB0213D90838
:101130000B469B000B445B00D31A9BB2DBB23033EF
:10114000DAB22C4BDA700A2008F0C8FC264B5B8818
:101150009BB2264AA2FB031292094FF47A7101FB5B
:1011600002F29B1A9BB2224AA2FB03235B099BB2A9
:10117000DBB23033DAB2214B1A701B4B5B889BB267
:101180001B4AA2FB03125209642101FB02F29B1AC3
:101190009BB2194AA2FB0323DB089BB2DBB23033BC
:1011A000DAB2164B5A70154B2E229A700E4B5B8892
:1011B0009AB2114BA3FB0213D9080B469B000B44B8
:1011C0005B00D31A9BB2DBB23033DAB20B4BDA706E
:1011D00000BF0B4B00221A700837BD4680BD00BF10
:1011E00030190020BC000020AC000020D34D62105C
:1011F0001F85EB51D0000020CDCCCCCCCC00002002
:10120000C200002080B586B000AF0346FB7107F135
:1012100014031846FFF78AFC0820012108F02CFA75
:101220004823FB75FB79002B02D0012B13D025E05E
:101230004FF48043BB8207F1140323481946FFF79C
:10124000B5FB28233B7201200E21FFF7F3FC4FF47E
:101250008043FB6012E04FF40043BB8207F11403AC
:1012600019481946FFF7A2FB28233B7201200F21E2
:10127000FFF7E0FC4FF40043FB6000BF134A134B41
:101280009B6943F480339361114B00221A85104B04
:1012900001221A8000233B7410237B740123BB744A
:1012A00007F10C03184608F0A7FA0F237B720F23EF
:1012B000BB720123FB7207F1080318460AF038FCE1
:1012C0001837BD4680BD00BF000C01400010024031
:1012D0000040014080B487B000AF0346FB7100239B
:1012E0003B610023FB60FB79012B0CD0022B13D058
:1012F000002B12D1124B7B614FF040633B614FF0EA
:101300008073FB6009E00E4B7B614FF040433B6113
:101310004FF08053FB6000E000BF7B695A683B6977
:10132000DB431A407B695A607B695A68FB681A4341
:101330007B695A601C37BD465DF8047B704700BF6F
:10134000000C014080B485B000AF78600B46FB70A4
:101350001346BB700023FB730023BB730023BB73D6
:101360000CE0BA7BFB7813441A467B6813441A7866
:10137000FB7B1344FB73BB7B0133BB73BA7BBB7832
:101380009A42EED3FB7B18461437BD465DF8047BCA
:10139000704700BF80B582B000AF3E4B1B78DBB218
:1013A00003F004039B10012B6ED13B4B9B889BB237
:1013B00040F68C22934202D9384B3D221A7001200C
:1013C00008F08CFB06F0C6FD7860324B1B78DBB270
:1013D00003F00803DB10012B20D12F4B9B889AB21E
:1013E0002F4B1B889BB29A4218D22A4B1B78DBB238
:1013F00003F00103002B11D02A4B1B687A689A4234
:101400000BD9264B3E221A70274B1B78DBB243F0D8
:101410000803DAB2244B1A7009E008E006F09AFDDE
:101420000246224B1B889BB213441E4A13600120C4
:1014300008F054FB1E4B1B889AB21E4B1B889BB2B4
:101440009A4207D21A4B1B889BB2002B02D0002075
:1014500002F02EFB012008F041FB154B5B889AB28D
:10146000144B5B889BB29A4207D2114B5B889BB2AC
:10147000002B02D00A2002F01BFB012008F02EFBFB
:101480000B4B5B880C4B5B88012008F027FB08376F
:10149000BD4680BD2800002054010020220100200C
:1014A00034010020300100202301002036010020FB
:1014B0008C0000204C0100205001002080B584B039
:1014C00000AF0346FB800023FB730023BB730023A4
:1014D000FB7311E0FA88FB7B42FA03F3DBB203F003
:1014E0000103BB73BB7B012B03D1FB7B184602F0CE
:1014F00085FAFB7B0133FB73FB7B0F2BEAD910379B
:10150000BD4680BD80B582B000AF0023FB710023D3
:10151000FB7106E0FB79184602F0CAFAFB79013349
:10152000FB71FB790E2BF5D90837BD4680BD00BF96
:1015300080B584B000AF78600023BB600023FB60FF
:1015400006F008FDF86006F005FD02467B681344CE
:10155000BB6005F089F91E2008F0C0FA22E00020E7
:10156000002107F009FD1C4807F0C8FC1B4B1B7845
:10157000DBB2184607F06AF84FF4FA7008F0AEFADA
:1015800005F0B8F9BB68DAB2FB68DBB2D31ADAB29D
:10159000124B1A7006F0DEFCF860322008F09EFA5A
:1015A0000AF0D2FF0E4B1B78DBB203F00803DB100E
:1015B000002B03D1FA68BB689A42D0D3094B1B7841
:1015C000DBB223F00103DAB2064B1A7005F07CF9A6
:1015D0001037BD4680BD00BF68C70008220100204B
:1015E000230100202800002080B582B000AF786081
:1015F000FFF788FF042002F001FA4FF4FA7008F0B8
:101600006DFA0B2002F0FAF94FF4FA7008F066FA5E
:101610007868FFF78DFF0837BD4680BD80B582B082
:1016200000AF0346FB711D4B1B78DBB2002B12D1C0
:101630001B4B1B78DBB25A1CD1B2194A11701946E8
:10164000FB79184AA2FB03235B09DBB23033DAB221
:10165000154B5A5411E0124B1B78DBB25A1CD1B215
:101660000F4A11701946FB790E4AA2FB03235B094E
:10167000DBB23033DAB20D4B5A54FB79094AA2FB84
:1016800003125209642101FB02F29B1ADBB21846D5
:1016900006F0DCFF0837BD4680BD00BF0D0100200D
:1016A0000C0100201F85EB51EC000020FC00002005
:1016B00080B584B000AF0023FB730023BB7300230D
:1016C0007B7300237B8100237B6000233B6007F05A
:1016D00077FC744807F012FC4FF4FA7008F0FEF93A
:1016E000714B00221A7034E006F090FE03461A4651
:1016F0006D4B1A700020002107F03EFC6B4807F08C
:10170000FDFB6B4B1B689BB2184600F0EDF9694876
:1017100007F0F4FB664B5B689BB2184600F0E4F9F7
:101720000120002107F028FC0A2008F0D7F96248C0
:1017300007F0E4FB5E4B9B689BB2184600F0D4F9BF
:101740005E4807F0DBFB5A4BDB689BB2184600F0A3
:10175000CBF9554B1B78DBB2002BC5D007F030FC22
:10176000514B1B78DBB2013BBB734F4B00221A700D
:10177000534807F0C3FBFB7B184605F07DFC03468E
:10178000FB73FB7B184602F093F907F019FC4D48F8
:1017900007F0B4FB7B7B184605F06EFC03467B73B9
:1017A000BB7B434A52F823307B6007F009FC464874
:1017B00007F0A4FBFB7B184602F020F93A4B00220D
:1017C0001A7019E00A2008F089F906F01FFE034696
:1017D0001A46354B1A7007F0F3FB3C4807F08EFBB6
:1017E0000120002107F0C8FBBB7B314A52F82330AF
:1017F0009BB2184600F078F92B4B1B78DBB2022B1A
:10180000E0D1BB7B2A4A52F823303B60FB7B184671
:1018100002F04EF9C82008F061F93B689AB27B6883
:101820009BB2D31A9BB21A467B7B92FBF3F37B816C
:10183000BB7B27497A8921F8132007F0C1FB254893
:1018400007F05CFB3B689BB2184600F04DF90120A5
:10185000002107F091FB204807F050FB7B891846D8
:1018600000F042F97B8940F2426019460AF030FCF0
:101870000D4B00221A7008E00A2008F02FF906F03C
:10188000C5FD03461A46084B1A70074B1B78DBB29E
:10189000022BF1D107F094FBC82008F01FF9103794
:1018A000BD4680BD70C70008210100207CC700082C
:1018B000A018002080C7000884C7000888C7000857
:1018C0008CC700089CC70008ACC70008BCC700084C
:1018D000B8180020CCC70008D4C7000880B584B071
:1018E00000AF0346FB710B46BB711346BB80002360
:1018F000FB60BB88104A128892B202FB03F30F4AC6
:10190000A2FB0323DB08FB60002002F077F8BB7921
:101910000B4A002142F8231002E00A2008F0DEF80A
:10192000074B1A68FB689A42F7D3002002F0C0F810
:101930001037BD4680BD00BFB8180020CDCCCCCC40
:10194000A018002080B584B000AF0346FB710B46A1
:10195000BB711346BB800023BB600023FB8107F0F3
:101960002FFB564807F0CAFA08E00A2008F0B6F83C
:1019700006F04CFD03461A46514B1A70504B1B782B
:10198000DBB2002BF1D04E4B1B78DBB2022B01D126
:10199000FFF78EFE01237B7389E007F011FB4948B6
:1019A00007F0ACFA484B1B889BB2184600F09CF835
:1019B000FB891846052105F011FC0346FB81FB89D4
:1019C000414A128892B202FB03F3404AA2FB03236E
:1019D000DB08BB6007F0F4FA3D4807F08FFABB68FC
:1019E0009BB2184600F080F80120002107F0C4FAED
:1019F000384807F083FABB79374A52F82330364A21
:101A000052F823309BB2184600F06EF82C4B00229F
:101A10001A70002001F0F2FFBB792F4A002142F832
:101A200023101BE00A2008F059F807F0C9FA2B48E8
:101A300007F064FABB79284A52F823309BB2184663
:101A400000F052F80120002107F096FA244807F030
:101A500055FABB689BB2184600F046F81E4B1A6850
:101A6000BB689A42DED3002002F022F807F0A8FA01
:101A70001C4807F043FA08E00A2008F02FF806F0A7
:101A8000C5FC03461A460E4B1A700D4B1B78DBB291
:101A9000002BF1D00A4B1B78DBB2022B05D10123BE
:101AA0007B730D4B00221A6001E000237B737B7B6C
:101AB000012B3FF472AF1037BD4680BDDCC7000874
:101AC00021010020ECC70008B8180020CDCCCCCCF8
:101AD000F8C7000800C80008A018002004C80008C3
:101AE0000CC8000810C8000880B582B000AF0346DB
:101AF000FB80FB88164AA2FB03235B0B9BB2DBB285
:101B0000184606F0A3FDFB88114AA2FB0312520BF4
:101B100042F2107101FB02F29B1A9BB20D4AA2FB2A
:101B200003235B099BB2DBB2184606F08FFDFB88EE
:101B3000084AA2FB03125209642101FB02F29B1A1C
:101B40009BB2DBB2184606F081FD0837BD4680BD6A
:101B50005917B7D11F85EB5180B485B000AF03464C
:101B60003960FB711346BB710023FB730023FB73C9
:101B70000AE0FB7B3A6813441B78DAB2FB795340E6
:101B8000FB71FB7B0133FB73FA7BBB799A42F0D389
:101B9000FB7918461437BD465DF8047B704700BFDB
:101BA00080B500AF674840F2255108F019FE0346A2
:101BB000002B2AD0634808F0F3FD0346DAB2624BEB
:101BC0001A70624B1B78DBB25A1CD1B25F4A11709B
:101BD0001A465D4B1B78D9B25D4B99545D4B1B88FF
:101BE00001339AB25B4B1A805A4B1B884EF6602227
:101BF000934202D9574B00221A80524A514B1B88FC
:101C00009BB223F020039BB21380534B1B78DBB2B3
:101C1000002B40F09580514B1B78DBB2042B52D146
:101C20004F4B1B78DBB2002B04D1474B1B78DAB249
:101C30004C4B1A704A4B1B78DBB25A1CD1B2484A43
:101C400011701A46404B1B78D9B2414B9954444B02
:101C50001B78DBB21A46434B1B78DBB2033B9A423C
:101C600031D1404B1B78DBB2043BDBB2302038492A
:101C70001A46FFF771FF03461A463B4B1A70374B63
:101C800000221A70364B00221A70384B00221A704C
:101C9000354B1B78DBB2002B13D1324B1B78DBB2F8
:101CA000043B2B4AD35CDAB2314B1A70314B1B78B0
:101CB000DBB20133DAB22F4B1A70274B01221A70B4
:101CC00001E000F0FFF8204B1B78DBB25A2B03D168
:101CD000264B01221A7033E01B4B1B78DBB2582BCA
:101CE00008D1224B1B78DBB2012B03D11F4B022200
:101CF0001A7025E01D4B1B78DBB2022B20D1124B52
:101D00001B78DBB2302B18D00F4B1B78DBB2312B9A
:101D100006D1124B03221A70114B00221A700CE0EC
:101D2000094B1B78DBB2322B07D10C4B04221A7003
:101D30000B4B00221A7000F0C5F80C4B00221A70F1
:101D400080BD00BF00380140E4000020E700002013
:101D5000C4180020D6000020660100206501002084
:101D60006301002064010020E800002062010020DF
:101D7000980000209400002080B584B000AF786007
:101D80004FF47A6007F0AAFE0023FB6001200121D6
:101D900006F086FE0023FB7206F0DCF803463C33B7
:101DA000FB6004F033FC06F0D5F80246FB689A426B
:101DB0000FD90120002106F073FEC82007F08EFE27
:101DC0000120012106F06CFE06F0C4F803460A3338
:101DD000FB60642007F082FE0020FFF70DF8322040
:101DE00007F07CFE0AF066FBFFF7D4FA322007F01A
:101DF00075FE0120FFF700F84FF4C87007F06EFE83
:101E0000034B1B78DBB2002B01D10AF09DFBC8E726
:101E1000D400002080B584B000AF78600023FB734D
:101E20000AF092FB224B1B78DBB203F00803DAB214
:101E30001F4B1A701E2007F051FE1E4B1B78DBB2A1
:101E4000012B30D100F050F91B4B5B78DBB2312B0A
:101E500004D9194B5B78DBB2632B21D9164B5B7825
:101E6000DAB2164B1A700023FB7311E0124B1B7889
:101E7000DBB2043B104AD35CDBB2184600F0BAF880
:101E8000192007F02BFE0AF05FFBFB7B0133FB738D
:101E9000FB7B092BEAD900F015F8094B00221A70D8
:101EA000044B00221A70322007F018FEB8E700BF7A
:101EB0006C01002066010020C4180020740100207D
:101EC0006301002080B483B000AF0023FB710023C6
:101ED000FB7106E0FB79074A0021D154FB790133FD
:101EE000FB71FB79292BF5D90C37BD465DF8047BD6
:101EF000704700BFC418002080B582B000AF002337
:101F0000FB710B4B00221A700023FB7109E0FB7977
:101F1000084A0021D154012007F0E0FDFB7901338C
:101F2000FB71FB79292BF2D90837BD4680BD00BF74
:101F300027000020F818002080B500AF194B0022C0
:101F40001A70194BDB78DBB20133DAB2174B1A7017
:101F5000154BDB78DBB21A46134B0D219954144B09
:101F600000221A700F4B01221A70104B1B78DBB243
:101F700018460D4901F046FB04E0142007F0AEFDC1
:101F80000AF0E2FA4FF4005009F0A8FD0346002BD6
:101F9000F3D0322007F0A2FD0AF0D6FA014B00225E
:101FA0001A7080BDE5000020F818002027000020EE
:101FB000E600002080B584B000AF03460A46FB71FE
:101FC0001346BB710023FB730023FB730BE0FB790B
:101FD000184600F00FF8642007F080FD0AF0B4FA0C
:101FE000FB7B0133FB73FA7BBB799A42EFD310374B
:101FF000BD4680BD90B583B000AF0346FB71FFF7CF
:102000007BFF1D4B5A221A701B4B58225A701A4BD9
:1020100037229A70184B0722DA70174AFB7913712E
:10202000154BDB78DBB29C1E134BDB78DBB2013B3C
:10203000DBB2002010491A46FFF78EFD03461A4610
:102040000D4B1A550C4BDB78DBB2013B0A4A0021E1
:10205000D154012007F042FDFFF76EFF074B1B78BC
:10206000DBB20133DAB2054B1A70054AFB79137003
:102070000C37BD4690BD00BFF8180020E2000020DC
:10208000E300002080B582B000AF0346FB710B4631
:10209000BB8013467B80FFF735FAFB79184601F0C9
:1020A000ADFCBB881846FFF709FA0837BD4680BD6E
:1020B00080B582B000AF0023FB800023BB800DE021
:1020C000FB8803F5B863BB80BB88184600F01AFF95
:1020D000FB881033FB80022007F000FDFB88C72B34
:1020E000EED90837BD4680BD80B586B002AF00236B
:1020F000FB810023FB800023BB810023BB60C54B19
:102100005B78DBB23F2B00F2318301A252F823F05F
:10211000112200083D220008532200085F22000817
:102120006722000875220008832200086D27000836
:1021300091220008A9220008E322000803230008D6
:1021400049230008752300089B230008CD230008BD
:10215000F123000835240008592400087D240008D4
:102160006D2700086D270008832400088F240008CD
:102170009B2400086D2700086D2700086D270008C4
:102180006D2700086D2700086D270008A7240008A8
:102190002F25000877250008BF250008C525000861
:1021A000D32500081B260008212600086D270008FB
:1021B0006D2700086D2700086D2700086D270008AF
:1021C0006D2700086D2700086D2700086D2700089F
:1021D0006D2700086D2700086D27000857260008A6
:1021E000652600086D2700086D2700086D27000888
:1021F0007326000895260008D1260008F526000859
:10220000172700081D27000823270008312700088A
:10221000804B9B78D8B27F4BDB78D9B27D4B1B7952
:10222000DBB29BB21B029AB27A4B5B79DBB29BB2F8
:1022300013449BB21A46FFF751FB97E2754B9B780C
:10224000DAB2744BDB78DBB21046194604F0F2FDCB
:102250008CE2714B33221A7004F036FB86E26E4B2F
:1022600030221A7082E26B4B9B78DBB2184601F089
:10227000C5FB7BE2674B9B78DBB2184601F018FC8C
:1022800074E2644B9B78DBB2184600F0CBFE6DE243
:10229000614B1B78DBB2332B05D15E4B9B78DAB2F6
:1022A0005E4B1A7062E261E25A4B1B78DBB21A464F
:1022B000584B9B5CDBB218460F21FFF77BFEC82012
:1022C00007F00CFC534B9B78D9B2524BDB78DAB257
:1022D000504B1B79DBB2084611461A4600F088FCC9
:1022E00044E205F037FE03463C334D4A13604D4B44
:1022F00000221A704C4B00221A704C4B00221A70AC
:1023000034E2464B00221A70434B33221A70454B7D
:102310001B78DBB203F00103DAB2424B1A700020E3
:10232000002104F087FD0120002104F083FD02203C
:10233000002104F07FFD0320002104F07BFD04F068
:10234000C3FAFFF7DFF811E2324B9B78DBB21B02D6
:10235000304AD278D2B213441B022E4A1279D2B23A
:1023600013441B022B4A5279D2B21344184605F08B
:1023700003FEFBE12E4B01221A70264B1B78DBB2C9
:102380001A46244B9B5CDBB218460521FFF712FE70
:1023900042F2107007F0A2FBE8E11E4B1B78DBB2A3
:1023A0001A461C4B9B5CDBB218460F21FFF702FE5E
:1023B000052007F093FB174B9B78DAB2154BDB78BF
:1023C000DBB21046194602F0B5FCCFE1114B9B7809
:1023D000DBB29AB20F4BDB78DBB29BB21B029BB233
:1023E0001344FB81FB891846012100F041FCBDE14B
:1023F000084B9B78DBB29AB2064BDB78DBB29BB220
:102400001B029BB21344FB81FB891846102100F08C
:102410002FFCABE1C418002026000020280000207B
:102420003001002023010020220100206C01002047
:10243000D4000020A04B9B78DBB29AB29E4BDB7895
:10244000DBB29BB21B029BB21344FB81FB89184693
:102450000A2100F00DFC89E1974B9B78DBB29AB220
:10246000954BDB78DBB29BB21B029BB21344FB8122
:10247000FB8918460B2100F0FBFB77E106F086FC98
:1024800074E18D4B9B78DAB28C4B1A706EE18A4BFB
:102490009B78DAB28A4B1A7068E1874B9B78DAB284
:1024A000884B1A7062E1844B9B78DBB21B029AB2B4
:1024B000814BDB78DBB29BB21344FB81FA89BB1DF5
:1024C0001046194609F0B8FD7B4B1B79DBB2002B97
:1024D00014D1FB88DBB29BB2FB80774B5B79DBB21C
:1024E0001B029BB29AB2FB8813449BB2FB80FB8811
:1024F000FA891046194609F0EBFD17E06E4B1B797F
:10250000DBB2012B12D1FB8823F0FF039BB2FB80CF
:10251000694B5B79DBB29AB2FB8813449BB2FB80B8
:10252000FB88FA891046194609F0D2FD1EE1624B7C
:102530009B78DBB21B029AB25F4BDB78DBB29BB2BB
:102540001344FB815C4B1B79DBB21B029AB25A4BE2
:102550005B79DBB29BB213449BB2FB80FB88FA89A8
:102560001046194609F0B4FDFA88574B1A80574AAD
:10257000FB891380FAE0504B9B78DBB21B029AB2C6
:102580004D4BDB78DBB29BB21344FB814A4B1B798A
:10259000DBB21B02484A5279D2B213441B02464AAC
:1025A0009279D2B213441B02434AD279D2B2134475
:1025B000BB60FB891846B96804F082FCD6E002F0E3
:1025C0004FFFD3E03C4B9B78DBB2184600F0ECF8B1
:1025D000CCE0394B1B79DBB29AB2374BDB78DBB2FC
:1025E0009BB21B029BB213449BB2FB80324B9B7984
:1025F000DBB29AB2304B5B79DBB29BB21B029BB26F
:102600001344BB812C4B9B78D9B2FA88BB8908460E
:1026100011461A46FFF736FDA8E0FEF773FFA5E066
:10262000254B9B79DBB21A46234B5B79DBB21B024D
:102630009BB21A44204B1B79DBB21B0403F47F03CB
:102640001A441D4BDB78DBB21B061344BB60B86831
:10265000FEF7CAFF8AE0184B9B78DBB2184600F001
:1026600037FD83E0012000F033FD022000F030FD53
:102670007CE0114B9B78DBB29AB20F4BDB78DBB27C
:102680001B029BB213409BB29BB21846022100F082
:10269000EFFA6BE0084B9B78DBB29AB2064BDB7823
:1026A000DBB29BB21B029BB213449BB218460121C2
:1026B00000F094FB5AE000BFC41800204101002044
:1026C00042010020430100209C0000209A000020CD
:1026D000324B9B78DBB29AB2304BDB78DBB29BB2E9
:1026E0001B029BB21344FB81FB891846022100F0B8
:1026F00075FB3BE0294B9B78DBB29AB2274BDB782A
:10270000DBB29BB21B029BB21344FB81FB891846D0
:1027100000F0F8FB2AE0FFF7CBFC27E000F0B8F868
:1027200024E04FF400704FF4B86100F095F91DE01B
:102730001A4B9B78DBB29AB2184BDB78DBB29BB2B8
:102740001B029BB21344FB81144B1B79DBB29AB280
:10275000124B5B79DBB29BB21B029BB213449BB260
:102760004FF40070194600F077F900BF322007F0EF
:10277000B5F90A4B5B78DBB2632B0CD902230093CB
:10278000064807490722002305F080FC034B5B78CD
:10279000DAB2044B1A701037BD4680BDC418002051
:1027A000B01800206101002080B584B000AF7860CF
:1027B0000023FB6005F0CEFB02467B681344FB6000
:1027C00007E0094B00229A86642007F087F909F098
:1027D000BBFE05F0BFFB0246FB689A42F1D304F052
:1027E00073F81037BD4680BD002C014080B584B021
:1027F00000AF03460A46FB8013467B710023BB8172
:102800000023BB600023FB73FFF776FB0023FB7301
:1028100032E00023BB81FB7B9BB25B009BB2DBB24F
:102820009AB2FB881344BB810023BB60BB89184666
:1028300006F0B6F8B860FB7B9B00BA68120ED1B206
:10284000124AD154FB7B9B000133BA68120CD1B2FF
:102850000E4AD154FB7B9B000233BA68120AD1B2F4
:102860000A4AD154FB7B9B000333BA68D1B2074AB2
:10287000D154FB7B0133FB737B795B08DBB2FA7BC2
:102880009A42C6D31037BD4680BD00BFF81800205D
:1028900080B582B000AF0023FB8000237B71002352
:1028A0003B71684B5A221A70664B58225A70654B1E
:1028B00031229A70634B0422DA70624B0A221A7139
:1028C000614B00221A70614B05221A70604B002286
:1028D0001A705D4B01221A705E4A5D4B1B78DBB2A9
:1028E000591CC8B25A4908701946564B5B5CDBB29A
:1028F0009BB2938004E0052007F0F0F809F024FE75
:10290000534B1B78DAB2514B1B78DBB29A42F2D3AD
:102910000F2007F0E3F800204A490522FFF71CF9D1
:1029200003463B71FFF7E8FA474B00221A70642018
:1029300007F0D4F80023FB8049E0FB88DBB25C336E
:102940009BB21B019BB218461021FFF74FFF0023DB
:102950007B7109E07B793B4AD35CDAB23B79534027
:102960003B717B7901337B717B791F2BF2D9364B1D
:1029700000221A70354B20221A70354B00221A7033
:10298000314B01221A70334A314B1B78DBB2591C90
:10299000C8B22F49087019462A4B5B5CDBB29BB268
:1029A000938004E0012007F099F809F0CDFD284B51
:1029B0001B78DAB2254B1B78DBB29A42F2D3FFF7D1
:1029C0009BFA214B00221A70FB880133FB80FB88A5
:1029D0001E2BB2D901237B7106E07B7919497A79E4
:1029E000CA547B7901337B717B79042BF5D9154A65
:1029F0003B791370144B00221A70144B04221A7086
:102A0000134B00221A70104B01221A70114B002236
:102A10009A8004E0012007F061F809F095FD0C4B65
:102A20001B78DAB2094B1B78DBB29A42F2D30F2043
:102A300007F054F8FFF760FA034B00221A700837CA
:102A4000BD4680BDF8180020E500002027000020CA
:102A5000E60000200038014080B584B000AF034696
:102A60000A46FB801346BB800023FB8100237B7357
:102A700000233B735A4B5A221A70594B58225A70F2
:102A8000574B31229A70FB881B099BB25B010C33B8
:102A90001B12DAB2524BDA70FB881B099BB2DBB215
:102AA0005B01DBB20C33DAB24D4B1A71BB881B0AE7
:102AB0009BB2DAB24A4B5A71BB88DAB2484B9A7170
:102AC000484B07221A70474B1B78DBB21846444923
:102AD00000F098FD04E0322007F000F809F034FD22
:102AE0004FF4005008F0FAFF0346002BF3D00F20FC
:102AF00006F0F4FF00203A490722FFF72DF80346BD
:102B00003B73FFF7F9F9384B00221A70642006F086
:102B1000E5FF0023FB8140E0FB89DBB29BB21B0198
:102B20009AB2BB8813449BB218461021FFF75EFE91
:102B300000237B7309E07B7B294AD35CDAB23B7BC1
:102B400053403B737B7B01337B737B7B1F2BF2D921
:102B5000244B20221A70234B1B78DBB218462049E5
:102B600000F050FD04E01E2006F0B8FF09F0ECFC78
:102B70004FF4005008F0B2FF0346002B06D11B4B68
:102B80001B889BB203F04003002BECD009F0DCFC67
:102B9000FFF7B2F9FB890133FB81FB881B099BB26C
:102BA000FA899A42B8D301237B7306E07B7B0C49F8
:102BB0007A7BCA547B7B01337B737B7B042BF5D9F7
:102BC000074A3B7B1370FFF7B7F90F2006F086FF2B
:102BD000FFF792F9044B00221A701037BD4680BDF2
:102BE000F818002027000020E500002000380140F0
:102BF00080B584B000AF0346FB710B46BB71134632
:102C00007B710023BB600023FB6005F0A3F9F86033
:102C1000BA79FB681344BB60FB791846012102F0C6
:102C20000BF8022006F05AFFFA797B791046194614
:102C300002F002F80FE005F08DF9F86009F084FC6D
:102C4000C82006F04BFF012000F042FA09F07CFC9E
:102C5000C82006F043FFFA68BB689A42EBD3FB79C1
:102C60001846002101F0E8FF1037BD4680BD00BFC7
:102C700080B586B000AF03460A46FB8013467B71E1
:102C800000233B610023FB757B79012B14D1514B51
:102C90001B79DBB29AB24F4B5B79DBB29BB21B0262
:102CA0009BB213449AB24C4B1A804B4B1B88FA8848
:102CB0001046194609F00CFA7B79022B18D1454BC6
:102CC0001B79DBB21A46434B5B79DBB21B021A4419
:102CD000404B9B79DBB21B041A443E4BDB79DBB2E1
:102CE0001B0613443B61FB881846396904F0E8F879
:102CF0007B79102B2AD10023FB7524E0364B002270
:102D00001A80FB7D02335B00324AD35CDBB29AB29D
:102D1000FB7D5B0203F5A0632E49CB5CDBB29BB26B
:102D200013449AB22C4B1A80FB885A1CFA802A4A08
:102D300012881846114609F0CBF9012006F0CEFEA4
:102D4000FB7D0133FB75FB7D1F2BD7D97B790A2BCC
:102D50001DD10023FB81FA8807F10E0310461946A6
:102D600009F06AF9FB89DBB29BB2FB81194B1B7935
:102D7000DBB21B029AB2FB899BB213409BB29BB29F
:102D8000FB81FB89FA881046194609F0A1F97B7985
:102D90000B2B1BD10023BB81FA8807F10C031046D3
:102DA000194609F049F9BB8923F0FF039BB2BB81A7
:102DB000084B1B79DBB29AB2BB8913409BB2BB8133
:102DC000BB89FA881046194609F082F91837BD46C2
:102DD00080BD00BFC41800207A01002090B585B0E6
:102DE00000AF03460A46FB8013467B71404B5A22D4
:102DF0001A703F4B58225A703D4B31229A707B79A2
:102E0000012B1DD1FA8807F10A031046194609F073
:102E100013F9374B0922DA70364B9B78DAB2344B10
:102E20001A71344BDB78DAB2314B5A717B89DAB2E2
:102E30002F4B9A717B891B0A9BB2DAB22C4BDA7149
:102E40007B79022B24D1FB88184605F0A9FDF86098
:102E5000274B0B22DA70274B9B78DAB2244B1A717E
:102E6000244BDB78DAB2224B5A71FB68DAB2204B82
:102E70009A71FB681B0ADAB21D4BDA71FB681B0CF6
:102E8000DAB21B4B1A72FB681B0EDAB2184B5A727D
:102E9000174BDB78DBB25C1E154BDB78DBB2013BFA
:102EA000DBB2002012491A46FEF756FE03461A46C8
:102EB0000F4B1A550E4BDB78DAB20F4B1A700F4BD3
:102EC00000221A700E4B01221A7002E0012006F057
:102ED00005FE0A4B1B78DAB2074B1B78DBB29A422D
:102EE000F4D3074B00221A701437BD4690BD00BFC3
:102EF000F8180020C418002027000020E600002059
:102F0000E500002090B585B000AF0346FB800023AC
:102F1000FB730623BB733E4B5A221A703C4B58225C
:102F20005A703B4B31229A70394B2722DA70394B59
:102F30009B78DAB2364B1A71364BDB78DAB2344B07
:102F40005A710023FB7332E00023BB60FB7B9BB212
:102F50005B009AB2FB8813449BB2184605F020FD33
:102F6000B860BB7B5A1CBA731A46BB681B0ED9B239
:102F7000274B9954BB7B5A1CBA731A46BB681B0C6F
:102F8000D9B2234B9954BB7B5A1CBA731A46BB68FF
:102F90001B0AD9B21E4B9954BB7B5A1CBA731A46F2
:102FA000BB68D9B21A4B9954FB7B0133FB73FB7B93
:102FB000072BC9D9BC7B164BDB78DBB2013BDBB2FC
:102FC000002013491A46FEF7C7FD03461A46104B68
:102FD0001A550F4BDB78DAB20F4B1A700F4B0022E9
:102FE0001A700F4B01221A7002E0012006F076FDE4
:102FF0000A4B1B78DAB2084B1B78DBB29A42F4D347
:10300000074B00221A70FEF777FF1437BD4690BDBC
:10301000F8180020C418002027000020E600002037
:10302000E500002080B584B000AF0346FB710023AB
:10303000FB730023BB8100237B81234B5A221A7030
:10304000214B58225A70204B31229A701E4B2A2253
:10305000DA701D4AFB7913710023FB732AE0FB79B8
:103060009BB21A46D20013449AB2FB7B9BB2134424
:103070009BB203F538739BB25B00BB81BA8907F141
:103080000A031046194608F0D7FFFB7B5B000533A7
:103090000D4A0021D154FB7B03335B007A89D2B205
:1030A0005242D1B2084AD154012006F017FDFB7BF1
:1030B0000133FB73FB7B112BD1D9044B01221A7016
:1030C0001037BD4680BD00BFF8180020E500002085
:1030D00090B583B000AF0346FB71974B1B78DBB212
:1030E000002B40F06182954B5A221A70934B582264
:1030F0005A70924B33229A70904B2922DA70FB79E6
:10310000012B40F0DB808E4B1B78DAB28B4B1A71AF
:103110008C4B1B68DAB2894B5A718B4B1B68DAB245
:10312000864B9A71854B0022DA71884B1B889BB2C3
:10313000DAB2824B1A72864B1B78DAB27F4B5A7224
:10314000844B1B78DAB27D4B9A72824B5B78DAB291
:103150007A4BDA727F4B9B78DAB2784B1A737D4BDD
:10316000DB78DAB2754B5A737B4B1B8B9BB2DAB2AE
:10317000724B9A73784B1B8B9BB21B0A9BB2DAB2D1
:103180006E4BDA73744B9B8B9BB2DAB26B4B1A7437
:10319000714B9B8B9BB21B0A9BB2DAB2674B5A7482
:1031A0006E4B1B889BB2DAB2644B9A746B4B1B88D4
:1031B0009BB21B0A9BB2DAB2604BDA74674B5B8836
:1031C0009BB2DAB25D4B1A75644B5B889BB21B0AEB
:1031D0009BB2DAB2594B5A75614B1B88DAB2574B26
:1031E0009A755F4B1B881B0A9BB2DAB2534BDA7598
:1031F0005C4B5B889BB2DAB2504B1A76594B5B88BA
:103200009BB21B0A9BB2DAB24C4B5A76554B9B8849
:103210009BB2DAB2494B9A76524B9B889BB21B0AFF
:103220009BB2DAB2454BDA764E4BDB889BB2DAB210
:10323000424B1A774B4BDB889BB21B0A9BB2DAB22C
:103240003E4B5A77484B1B78DAB23C4B9A77474B48
:103250001B889BB21B0A9BB2DAB2384BDA77434B1E
:103260001B889BB2DAB2354B83F82020404B9B8EF3
:103270009BB2404AA2FB0323DB089BB2DAB22F4B7E
:1032800083F821203C4B1B78DAB22C4B83F82220A8
:103290003A4B1B78DAB2294B83F82320384B1B7842
:1032A000DAB2264B83F82420364B1B78DAB2234B54
:1032B00083F82520214AFB7982F82630FB79022BFE
:1032C00074D1314B1B889BB2DAB21C4B1A712E4B56
:1032D0001B889BB21B0A9BB2DAB2184B5A712B4B5C
:1032E0001B889BB2DAB2154B9A71284B1B889BB294
:1032F0001B0A9BB2DAB2114BDA71104B00221A7220
:10330000184B1B889BB21B0A9BB2DAB20B4B5A724A
:10331000144B5B889BB2DAB2084B9A72114B5B88F4
:103320009BB21B0A9BB2DAB2044BDA720D4B9B883C
:103330009BB2DAB22CE000BFE5000020F8180020B4
:103340002600002024010020280100203E0100204A
:103350005C010020B4000020002800408C00002008
:1033600070010020540100206C010020E0000020CA
:10337000002C0140CDCCCCCC5E01002028000020E8
:1033800022010020230100204601002048010020E6
:10339000874B1A73874B9B889BB21B0A9BB2DAB28E
:1033A000834B5A73824AFB7982F82630FB79032BD0
:1033B0003BD1814B9B68DAB27D4B1A717E4B9B6887
:1033C0001B0ADAB27A4B5A717B4B9B681B0CDAB240
:1033D000774B9A71784B9B681B0EDAB2744BDA719B
:1033E000764B9B68DAB2724B1A72744B9B681B0A5D
:1033F000DAB26F4B5A72714B9B681B0CDAB26C4B92
:103400009A726E4B9B681B0EDAB2694BDA726C4B88
:103410009B78DAB2664B1A73694BDB78DAB2644B8D
:103420005A73634AFB7982F82630FB79042B1CD14E
:103430005F4B00225A72634B1B78DAB25C4B9A7274
:10344000614B1B889BB2DAB2594BDA725E4B1B8818
:103450009BB21B0A9BB2DAB2554B1A73544B4D22E6
:103460005A73534AFB7982F82630FB79052B39D100
:10347000564B1B889BB2DAB24D4B1A71534B1B88CB
:103480009BB21B0A9BB2DAB2494B5A714F4B5B8815
:103490009BB2DAB2464B9A714C4B5B889BB21B0ACB
:1034A0009BB2DAB2424BDA71494B1B68DAB2404B3D
:1034B0001A72474B1B681B0ADAB23D4B5A72444BD7
:1034C0001B681B0CDAB23A4B9A72414B1B681B0EFD
:1034D000DAB2374BDA72364B4D225A73344AFB79E3
:1034E00082F82630FB79062B43D1384B1B889BB2E0
:1034F000DAB22F4B1A71354B1B889BB21B0A9BB259
:10350000DAB22B4B5A71314B5B889BB2DAB2284B43
:103510009A712E4B5B889BB21B0A9BB2DAB2244B8A
:103520005A712B4B5B68DAB2214B1A72284B5B68DD
:103530001B0ADAB21E4B5A72254B5B681B0CDAB2BF
:103540001B4B9A72224B5B681B0EDAB2184BDA7275
:103550001D4B5B889BB2DAB2154B1A731A4B5B8812
:103560009BB21B0A9BB2DAB2114B5A73104AFB7919
:1035700093750F4BDB78DBB29C1E0D4BDB78DBB217
:10358000023BDBB200200A491A46FEF7E5FA034681
:103590001A46074B1A55064BDB78DBB2013B044A4F
:1035A0000021D154FEF7C8FC0C37BD4690BD00BFCA
:1035B000F81800205401002000080140000C0140D0
:1035C000BC0000205E010020B81800208C00002004
:1035D000A018002080B400AF044B1B68034B1B688D
:1035E000024B1B68BD465DF8047B7047000002403B
:1035F00080B400AF024B1B68BD465DF8047B70478A
:103600000000024080B582B000AF03463960FB7114
:103610001F491F4B1A684FF6FE7313400B601D4B7A
:103620005B6903F00103002B05D11A4A194B5B6952
:1036300043F001035361164B174ADA60144B174AE3
:103640009A60134AFB795360114A114B1B6843F48B
:10365000425343F011031360114A114B9B8A9BB2F2
:1036600043F080039BB29382094A094B1B6843F0E5
:10367000010313600A4A0A4B1B889BB223F04003E4
:103680009BB213800E20FDF717FB0837BD4680BDA7
:103690004400024000100240F818002004380140A5
:1036A0000038014080B586B000AF0120012105F04F
:1036B000C5FF0520012105F0DFFF25233B75002311
:1036C0007B750023BB750123FB7507F114031846B6
:1036D00008F02EFA4FF400733B820323BB741823C7
:1036E000FB7407F1100322481946FDF75FF94FF408
:1036F00080633B820423FB7407F110031C481946C6
:10370000FDF754F91B4806F015FF28201A49FFF76A
:1037100079FF4FF48040012105F0AEFF4FF41653BE
:103720003B600023BB800023FB8000233B81002300
:10373000BB810C237B813B460E48194606F056FFA1
:103740000C484FF4587107F03BF80A4A094B9B8923
:103750009BB243F020039BB293810648012106F0FF
:10376000FFFF2520FDF7A8FA1837BD4680BD00BF32
:103770000008014000380140F818002080B588B0EA
:1037800000AF1020012105F077FF0220012105F094
:1037900091FF07F11C031846FDF7C8F94FF4707349
:1037A000BB830323BB771823FB7707F11C03214856
:1037B0001946FDF7FBF820480121FDF7CBF907F189
:1037C00010031846FCF74CFF4FF40073FB8240F2E5
:1037D000E733BB82EF233B8207F1100317481946FA
:1037E000FCF7C0FC3B461846FCF754FF01237B80E6
:1037F00060233B800023FB803B4610481946FCF7C2
:103800002DFD3B460D481946FCF7B4FD3B460B48E1
:103810001946FCF737FE3B4608481946FCF7B8FE48
:1038200006480121FCF758FF00F00AF82037BD4692
:1038300080BD00BF00100140000C1A0000040040D1
:1038400080B582B000AF0023FB710023FB7107E05D
:10385000FB791846002101F0EFF9FB790133FB7188
:10386000FB79032BF4D90837BD4680BD80B588B0FD
:1038700000AF0120012105F0FFFE0820012105F025
:10388000FBFE4FF40060012105F0F6FE07F11C037A
:103890001846FDF74BF94FF40053BB830323BB7766
:1038A0001823FB7707F11C0321481946FDF77EF822
:1038B00007F110031846FCF7D3FE4FF40073FB82A8
:1038C00040F2E733BB8217233B8200237B8207F160
:1038D000100318481946FCF745FC3B461846FCF710
:1038E000D9FE01237B8070233B804FF4FA73FB8069
:1038F00002233B8100237B8101237B800423BB8047
:103900004FF48073BB810023FB813B460948194675
:10391000FCF7A4FC07480121FCF7DEFE0548012165
:10392000FCF7FAFE02F0D0FF2037BD4680BD00BF95
:10393000000C0140002C014080B582B000AF05F0C2
:103940003FFB0023FB8000237B7105F039FB0A203D
:1039500006F0C4F805F034FB234805F0CFFA234BFA
:1039600000221A701EE004F051FD03461A461F4B58
:103970001A701F4B1B88FB80052006F0AFF8012052
:10398000002105F0F9FAFB881A4AA2FB03235B0920
:103990009BB2DBB2184604F059FEFB88DBB2184636
:1039A00004F054FE114B1B78DBB2022BDBD10A2052
:1039B00006F094F8FB8840F2D650194608F088FBD0
:1039C00002F03CFF4FF4FA6006F088F80A4805F070
:1039D00095FA064B00221A7005F0F2FA05F0D6F9B6
:1039E0000837BD4680BD00BF24C800082101002063
:1039F0008C0000201F85EB5138C8000880B483B0CC
:103A000000AF0346FB71FB79002B0DD0FB79042B33
:103A10000AD82449234B5B69FA790332012000FA62
:103A200002F213434B612AE0FB79042B0DD9FB7999
:103A3000072B0AD81C491C4B5B69FA790532012017
:103A400000FA02F213434B6119E0FB79072B0DD901
:103A5000FB790B2B0AD81349124B5B69FA790332B5
:103A6000012000FA02F213434B6108E0FB790C2BB2
:103A700005D10C4A0B4B5B6943F480735361FB79AE
:103A8000012202FA03F39AB2084B1B889BB29BB245
:103A900013439BB29AB2054B1A800C37BD465DF8B2
:103AA000047B70470008014000100140E000002046
:103AB00080B483B000AF0346FB71FB79002B0DD0BF
:103AC000FB79042B0AD82549244B1B69FA79033268
:103AD000012000FA02F213430B612AE0FB79042B68
:103AE0000DD9FB79072B0AD81D491D4B1B69FA79A3
:103AF0000532012000FA02F213430B6119E0FB7951
:103B0000072B0DD9FB790B2B0AD81449134B1B69D2
:103B1000FA790332012000FA02F213430B6108E044
:103B2000FB790C2B05D10D4A0C4B1B6943F48073B8
:103B30001361FB79012202FA03F39BB2DB439AB2D1
:103B4000084B1B889BB29BB213409BB29AB2054BA9
:103B50001A800C37BD465DF8047B704700080140B1
:103B600000100140E000002080B500AF012005F00A
:103B7000D9FE034B1B680133014A136080BD00BFAF
:103B8000A018002080B500AF022005F0CBFE034B4B
:103B90005B680133014A536080BD00BFA01800205C
:103BA00080B500AF042005F0BDFE80BD80B500AF3C
:103BB0004FF4806005F0B6FE4FF4006005F0B2FEF1
:103BC0004FF4805005F0AEFE4FF4004005F086FE45
:103BD0000346002B00F09F804FF4004005F0A2FE4A
:103BE0009E4B9B6803F40043002B40F08F809C4B5E
:103BF0001B889BB2002B00F089809A4B9B8C9AB259
:103C0000994B1A80974B00229A84954B1B889BB244
:103C10001A46642303FB02F3934A128892B293FB81
:103C2000F2F39AB2914B1A80914B1B78DBB2002BC6
:103C300061D0904B1B78DBB2002B5CD18B4B1B8887
:103C40009BB23C2B1BD9894B1B889BB24A2B16D8A5
:103C5000894B1B78DBB21A4601239340D843874B2C
:103C60001B781A46854B1B781946854B5B5CD9B28D
:103C7000C3B20B40DBB2D9B2814B995415E07E4BF5
:103C80001B78DBB21A46012303FA02F07B4B1B7848
:103C90001A467A4B1B781946794B5B5CD9B2C3B292
:103CA0000B43DBB2D9B2764B9954734B1B78DBB222
:103CB000002B19D1704B07221A70704B1B780133FF
:103CC000DAB26E4B1A706D4B1B78052B13D1694B12
:103CD00001221A70694B00221A70674B07221A7072
:103CE000684B01221A7006E0634B1B78DBB2013B84
:103CF000DAB2614B1A705E4B1B78DBB20133DAB279
:103D00005B4B1A70564B00221A8004E0554B9B8C7B
:103D10009AB2534B1A804FF4804005F0DFFD034602
:103D2000002B00F0B6804FF4804005F0FBFD4B4BBC
:103D30009B6803F48043002B40F0A680484B1B880F
:103D40009BB2002B00F0A080464B9B8C9AB2464B56
:103D50001A80444B00229A84414B1B889BB21A461E
:103D6000642303FB02F3404A128892B293FBF2F3FE
:103D70009AB23E4B1A803E4B1B78DBB2002B61D0CF
:103D80003C4B1B78DBB2002B5CD1384B1B889BB2C1
:103D90003C2B1BD9354B1B889BB24A2B16D8364B74
:103DA0001B78DBB21A4601239340D843334B1B7870
:103DB0001A46324B1B781946314B5B5CD9B2C3B201
:103DC0000B40DBB2D9B22E4B995415E02A4B1B782D
:103DD000DBB21A46012303FA02F0284B1B781A467D
:103DE000264B1B781946264B5B5CD9B2C3B20B43FA
:103DF000DBB2D9B2224B99541F4B1B78DBB2002B9C
:103E000019D11D4B07221A701C4B1B780133DAB2F3
:103E10001A4B1A70194B1B78052B13D1154B012225
:103E20001A70164B00221A70134B07221A70154B8A
:103E300000221A7006E0104B1B78DBB2013BDAB2AD
:103E40000D4B1A700A4B1B78DBB20133DAB2084B08
:103E50001A70034B00221A801BE000BF000C0140C7
:103E6000A400002000400140A6000020A80000207F
:103E7000C1000020C200002024000020C300002058
:103E80003019002025000020024B9B8C9AB2024B77
:103E90001A8080BD00400140A400002080B582B09F
:103EA00000AF40F2DC53FB800023BB80294B002293
:103EB0001A7047E004F0AAFA03461A46254B1A7016
:103EC0000023BB80FA883B1D1046194608F0B4F861
:103ED000052005F003FE05F073F81F4805F00EF805
:103EE000FB881846FDF700FE0120002105F044F88C
:103EF0001A4805F003F8BB881846FDF7F5FD154B89
:103F00001B78DBB2022B0AD1FB88B3F5FA6F03D220
:103F1000FB880133FB8002E04FF4AF63FB800D4B65
:103F20001B78DBB2012B0AD1FB88B3F5AF6F03D945
:103F3000FB88013BFB8002E04FF4FA63FB80192011
:103F400005F0CCFD034B1B78DBB2042BB2D1083754
:103F5000BD4680BD2101002044C800084CC80008AF
:103F600080B582B000AF052005F0B8FD0023FB71DD
:103F700005F026F8464B00221A707DE0142005F06B
:103F8000ADFD04F043FA03461A46414B1A70002077
:103F9000002104F0F1FF3F4804F0B0FFFB79184620
:103FA00004F054FB3A4B1B78DBB2042B03D1FB79B2
:103FB0001846FFF723FD364B1B78DBB2032B03D1EA
:103FC000FB791846FFF774FD314B1B78DBB2012BF0
:103FD00008D1FB79092B03D8FB790133FB7101E090
:103FE0000023FB71012005F079FD0120002104F080
:103FF000C3FF294804F082FF284B1B889BB2184658
:10400000FDF772FD012005F069FD254804F076FFFB
:10401000244B9B6803F01003002B03D0224804F0CC
:104020006DFF02E0214804F069FF1E4B9B6803F01E
:104030002003002B03D01C4804F060FF1CE01B4849
:1040400004F05CFF174B9B6803F04003002B03D088
:10405000154804F053FF02E0144804F04FFF114BE1
:104060009B6803F48073002B03D00F4804F046FFD5
:1040700002E00E4804F042FF054B1B78DBB2022B36
:104080007FF47CAF04F09CFF0837BD4680BD00BFC5
:104090002101002054C8000860C80008E00000208A
:1040A00064C80008000801406CC8000870C8000817
:1040B00080B584B000AF0346FB800B467B7113468E
:1040C0003B710023FB730023BB7300237B73FA88CF
:1040D0007B7942FA03F37B730020002104F04CFF4C
:1040E000514804F00BFF514B00221A7060E004F0BD
:1040F0008DF903461A464D4B1A700120002104F039
:104100003BFF0023FB7305E0494804F0F7FEFB7B0F
:104110000133FB73FA7B39797B79CB1A9A42F3DB53
:10412000012005F0DBFC0023FB7309E000200021E7
:1041300004F022FF3F4804F0E1FEFB7B0133FB73F8
:10414000FA7B39797B79CB1A9A42EFDBBB7B002073
:10415000194604F011FF344804F0D0FE052005F0A4
:10416000BDFC324B1B78DBB2042B08D1BA7B39790A
:104170007B79CB1A9A4202DABB7B0133BB732B4BA0
:104180001B78DBB2012B05D1BB7B002B02D0BB7BA4
:10419000013BBB73254B1B78DBB2032B08D1BB7BE8
:1041A000012202FA03F3DAB27B7B5340DBB27B736A
:1041B0001E4B1B78DBB2022B99D10023FB7325E049
:1041C0007A7BFB7B42FA03F303F00103002B0DD053
:1041D000FA7B7B791344012BCCBF01230023DBB294
:1041E0009AB2FB8813439BB2FB800CE0FA7B7B798D
:1041F0001344012202FA03F39BB2DB439AB2FB8819
:1042000013409BB2FB80FB7B0133FB73FA7B397954
:104210007B79CB1A9A42D3DB02F010FBFB8818465D
:104220001037BD4680BD00BF84C8000821010020B2
:104230006CC800087CC8000880B586B000AF034693
:10424000FB710023BB8200237B8100233B81002381
:104250003B6104F0B5FE654804F050FEC82005F04F
:104260003DFCFB799BB21A461201D31A9BB203F2B2
:104270001E63BB82BA8A07F10A031046194607F08B
:10428000DBFE7B89DBB2184602F0F6FE03469BB2EA
:104290007B817B89BA8A1046194607F019FF04F022
:1042A0008FFE0020052104F067FE514804F026FE31
:1042B000C82005F013FCFB799BB21A461201D31AF1
:1042C0009BB203F22763BB82BA8A07F10803104648
:1042D000194607F0B1FE3B89184600210322FFF77B
:1042E000E7FE03463B810023FB7511E004F08EF8E6
:1042F00003461A463F4B1A703E4B1B78DBB2042B29
:1043000003D1FB7DC3F10103FB75192005F0E6FB2A
:10431000384B1B78DBB2002BE8D0FB7D012B05D19D
:104320003B8943F001039BB23B8104E03B8923F0CE
:1043300001039BB23B813B89BA8A1046194607F0BC
:10434000C7FE052005F0CAFB02F078FA0023FB60E7
:10435000FB799BB21A461201D31A9BB203F2216376
:10436000BB82BB8A184604F01BFBF860F868012189
:1043700003F096F9F860FB689BB2BA8A10461946BA
:1043800007F0A6FEFB799BB21A461201D31A9BB224
:1043900003F22363BB82BB8A184604F001FBF8607A
:1043A000F868012103F07CF9F860FB689BB2BA8AD7
:1043B0001046194607F08CFEFB799BB21A46120193
:1043C000D31A9BB203F21F63BB82BB8A184604F068
:1043D000E7FAF860F86802F065FFF860BB8A1846F3
:1043E000F96802F06DFD1837BD4680BD88C8000829
:1043F00090C800082101002080B582B000AF0023E2
:10440000FB7104F0DDFD094804F078FDC82005F0DB
:1044100065FBFB79184602F02FFE0346FB71FB7922
:10442000184600F021F80837BD4680BD9CC800083A
:1044300080B582B000AF0023FB7104F0C1FD0948D4
:1044400004F05CFDC82005F049FBFB79184602F03A
:1044500013FE0346FB71FB791846FFF7EDFE0837A4
:10446000BD4680BD9CC8000880B584B000AF03463F
:10447000FB710023FB810023BB81FB799BB21A46B1
:10448000920013449BB203F2A563FB81FA8907F102
:104490000C031046194607F0CFFD04F091FD574874
:1044A00004F02CFDBB89184602F03CFE0346BB819C
:1044B000BB89FA891046194607F00AFEFB799BB2C0
:1044C0001A46920013449BB203F2A663FB81FA8959
:1044D00007F10C031046194607F0AEFD04F070FD1D
:1044E000474804F00BFDBB89184602F01BFE03464B
:1044F000BB81BB89FA891046194607F0E9FDFA89A4
:1045000007F10C031046194607F096FD04F058FD1C
:104510003C4804F0F3FCBB89184602F003FE034656
:10452000BB81BB89FA891046194607F0D1FDFB799A
:104530009BB21A46920013449BB203F2A763FB811D
:10454000FA8907F10C031046194607F075FD04F0CF
:1045500037FD2D4804F0D2FCBB89184602F0E2FD7D
:104560000346BB81BB89FA891046194607F0B0FDA6
:10457000FB799BB21A46920013449BB203F2A763E5
:10458000FB81FA8907F10C031046194607F054FD28
:1045900004F016FD1D4804F0B1FCBB89184602F07A
:1045A000C1FD0346BB81BB89FA891046194607F055
:1045B0008FFDFA8907F10C031046194607F03CFD00
:1045C00004F0FEFC124804F099FCBB89184602F086
:1045D000A9FD0346BB810A2005F080FABB89FA8950
:1045E0001046194607F074FD04F0EAFC0A2005F0B5
:1045F00075FA04F0CBFB1037BD4680BDA8C8000893
:10460000BCC80008CCC80008DCC80008E8C800081E
:10461000F8C8000890B585B000AF0023BB73002335
:10462000FB7304F0CDFC354804F068FCC82005F0AD
:1046300055FABB7B184602F01FFD0346BB7304F01E
:10464000BFFC2F4804F05AFCBB7B184603F0FEFF6A
:104650002C4804F053FC0023FB7306E01E2005F0F9
:104660003DFA03F0D3FE0346FB73FB7B022B02D023
:10467000FB7B032BF2D1C82005F030FAFB7B022B29
:1046800033D1BA7B13461B019B1A03F21F63BB6035
:10469000BB689BB2184604F083F97860BA7B134676
:1046A0001B019B1A03F22163BB6003F053FC3860CB
:1046B000BB689BB21846396802F002FCBA7B13460D
:1046C0001B019B1A03F22563BB60BB689CB203F01D
:1046D00041FC02467B68D31A05332046194602F096
:1046E000EFFBBB7B184600F00FF804F069FCC82014
:1046F00005F0F4F91437BD4690BD00BF9CC8000812
:1047000004C9000810C9000880B58EB000AF034688
:10471000FB71994B00221A70984B02221A70FB7998
:10472000012202FA03F3DAB2954B1B78DBB2DBB25B
:104730001343DBB2DAB2924B1A7000233B6303F0EF
:1047400009FC38638D4B03221A7000233B8200233F
:1047500087F837300023FB620023BB6200237B62B3
:1047600000233B620023FB830023BB830023FB81E8
:1047700000237B8300233B830023BB810023FB7545
:104780000023BB7503F0E6FB38623B6A7B627B4B20
:1047900004221A70642005F0A1F97A4B5B88BB8370
:1047A000FB799BB21A461201D31A9BB203F21E6325
:1047B0007B837A8B07F10E031046194607F03CFC09
:1047C000FB89DBB29BB2FB81642005F087F96E4B5D
:1047D0005B889AB26B4B5B889BB2D31AFB8304F065
:1047E000EFFB6A4804F08AFBFB8B694AA2FB0323B8
:1047F0005B099BB2DBB2184603F028FFFB8BDBB2F0
:10480000184603F023FF634804F078FB5D4B5B8898
:104810009BB21846FDF768F90120002104F0ACFBBB
:104820005D4804F06BFB584B5B889BB21846FDF764
:104830005BF95A4804F062FBFB891846FDF754F90E
:104840004FF4FA5005F04AF9FCF75CFEFB89544A34
:10485000A2FB03235B089BB2FA8B9A4280F0E580AF
:10486000FB89BA8BD31AFB83FB8B1846002101F01E
:1048700027F8C82005F032F907F066FE3F4B062204
:104880001A70BB8BDAB23F4B5B889BB2DBB2D31A98
:10489000FB75FB891A461346DB001344414A82FB31
:1048A00003129210DB17D31ABB75002387F8373039
:1048B000B6E00A2005F012F997F837305733DAB22C
:1048C0002E4B1A7000237B83FB799BB21A46120190
:1048D000D31A9BB203F21F637B837B8B184604F0D1
:1048E0005FF8B862FB799BB21A461201D31A9BB2E9
:1048F00003F221637B837B8B184604F051F87862C6
:10490000642005F0EBF897F837309BB21A46920016
:1049100013449BB203F2A7637B837A8B07F11003E6
:104920001046194607F088FB0023BB8600237B75E1
:10493000642005F0D3F83B8A002B35D003F00AFB46
:1049400002467B6AD21ABB6AB2FBF3F3FB626420B5
:1049500005F0C4F8094BC8221A70C82005F0BEF84B
:104960003B8ADAB2FB6AB3FBF2F102FB01F29B1A5B
:104970007B750123BB8619E0300000202201002056
:104980005C0100208C0000205001002014C90008A8
:104990001F85EB5118C900081CC9000820C9000870
:1049A000ABAAAAAA676666660023BB86322005F01A
:1049B00095F83B8A1B0A3B833B8B002B2BD03B8B10
:1049C000FE2B28D83B8B013B3B8300237B83FB7969
:1049D0009BB23A8B9A4218D1BB8E002B15D0584B04
:1049E00063221A704FF4C87005F078F897F83730E2
:1049F000184600F0AFF897F837306433DAB2504B0E
:104A00001A704FF4FA6005F069F8642005F066F852
:104A10004B4B08221A7097F83730013387F837303C
:104A200097F83730082B7FF644AF322005F056F860
:104A3000434B09221A70FB799BB21A461201D31A12
:104A40009BB203F227637B837A8B07F10C0310463A
:104A5000194607F0F1FAFCF755FD0B20FEF7CEFFE3
:104A6000BB891846FCF72AFD354B0A221A70002331
:104A70003B7500237B82334B1B783B75314B3022D7
:104A80001A70322005F02AF8FB799BB21A461201FF
:104A9000D31A9BB203F21D637B830023FB817A8BC5
:104AA00007F10E031046194607F0C6FAFB891A46AD
:104AB000BB891046194600F0ADFEFB799BB21A4641
:104AC0001201D31A9BB203F225637B837B8B1846BA
:104AD000396B02F0F5F91A4B0C221A7044F620607B
:104AE00004F0FCFF174A3B7D1370174B1B78DBB2B9
:104AF00023F00803DAB2144B1A70114B0D221A700E
:104B00004FF47A7004F0EAFFFCF7FCFCFB79012219
:104B100002FA03F3DBB2DB43DAB20C4B1B78DBB2F5
:104B2000DBB21340DBB2DAB2084B1A70084B012239
:104B30001A70C82004F0D2FF3837BD4680BD00BFD0
:104B40002201002026000020230100205C0100201B
:104B50003000002080B586B000AF0346FB71FCF743
:104B6000D1FC322004F0BAFF0023FB810023BB817B
:104B700000237B810023FB8200233B61FB799BB2F6
:104B80001A46920013449BB203F2A663FB82FA8A90
:104B900007F10E031046194607F04EFA322004F0D2
:104BA0009DFFFB799BB21A46920013449BB203F21D
:104BB000A563FB82FA8A07F10C031046194607F039
:104BC0003BFAFB79C3F1FF2303F57F03C833DAB265
:104BD000184B1A70282004F081FF07F0B5FC002361
:104BE000FB82FB799BB21A46920013449BB203F5F9
:104BF000D563FB82282004F071FFFA8A07F10A03CB
:104C00001046194607F018FA282004F067FF07F04D
:104C10009BFC7989FA89BB89DBB2084611461A46A2
:104C2000012300F033FD4FF4C87004F057FF18372C
:104C3000BD4680BD2201002080B584B000AF034690
:104C40000A46FB711346BB710023FB81BB79002B25
:104C50000ED0FB79012202FA03F3DAB2334B1B7850
:104C6000DBB2DBB21343DBB2DAB2304B1A700FE0C7
:104C7000FB79012202FA03F3DBB2DB43DAB22B4BFE
:104C80001B78DBB2DBB21340DBB2DAB2274B1A700F
:104C9000BB79012B02D10023BB7113E0BB79652BDB
:104CA0000CD107F10E0340F21760194607F0C4F962
:104CB000022004F013FFFB89BB7103E0BB79C3F151
:104CC0006403BB71FB79002B08D1194ABB799BB2F5
:104CD000194689000B445B009BB29386FB79012B3C
:104CE00008D1134ABB799BB2194689000B445B007B
:104CF0009BB21387FB79022B08D10D4ABB799BB27B
:104D0000194689000B445B009BB29387FB79032B08
:104D100009D1074ABB799BB2194689000B445B0055
:104D20009BB2A2F840301037BD4680BD5E01002026
:104D30000004004080B584B000AF03460A46FB7112
:104D40001346BB710023FB6003F004F903460133F3
:104D5000FB6002E0022004F0C1FE03F0FBF8024613
:104D6000FB689A42F6D303F0F5F80246BB79134488
:104D7000FB60FB7918460121FFF75EFF02E002208D
:104D800004F0ACFE03F0E6F80246FB689A42F6D364
:104D9000FB7918460021FFF74FFF1037BD4680BD55
:104DA00080B58CB000AF786000237B6200233B624B
:104DB0000023FB610023FB620023BB6100237B61B6
:104DC00000237B820023BB8100237B74002387F8B0
:104DD0002B3000233B74002387F82A300023FB810B
:104DE000FCF790FB44F6206004F078FE002387F87F
:104DF0002B30D4E00A2004F071FE97F82B309BB2E0
:104E00001A461201D31A9BB203F221637B827B8A7A
:104E1000184603F0C5FDB86197F82B309BB21A46CF
:104E20001201D31A9BB203F223637B827B8A18465A
:104E300003F0B6FD7861322004F050FE97F82B3075
:104E40009BB21A461201D31A9BB203F21E637B82F5
:104E50007A8A07F10C031046194607F0EDF8BB8972
:104E60001B0A9BB287F82A30322004F037FE4F4BE2
:104E70001B68DAB297F82A3013403B743B7C002B56
:104E800003D0012387F82A3002E0002387F82A3074
:104E9000142004F023FE00233B7497F82B309BB2C0
:104EA0001A461201D31A9BB203F227637B820023B6
:104EB000BB817A8A07F10C031046194607F0BCF84B
:104EC0004FF4FA7004F00AFEBB89FB8197F82B308F
:104ED0009BB21A461201D31A9BB203F225637B825E
:104EE0007B8A184603F05CFD386297F82B309BB242
:104EF0001A461201D31A9BB203F21F637B827B8A8C
:104F0000184603F04DFDF8610A2004F0E7FD03F0B8
:104F100021F802463B6A9A4206D903F01BF8024682
:104F20003B6AD31AFB6201E00023FB6203F012F834
:104F30007862FA6AFB699A4217D97A6ABB699A421F
:104F400013D97A6A7B699A420FD2FB89002B0CD065
:104F500097F82A30012B08D1154B1B68002B04D180
:104F600097F82B301846FFF7CFFB322004F0B6FD40
:104F7000104B1B78642B0AD90D4B01221A600D4B84
:104F80001B78184600F04CFD094B00221A603220B5
:104F900004F0A4FD97F82B30013387F82B3097F8F5
:104FA0002B30072B7FF626AF20E700BF240100201F
:104FB000680100206101002080B582B000AF7860F8
:104FC00004F0EEFD0620FEF719FD07F0BDFA786843
:104FD00000F0D4FF0320FEF711FD07F0B5FA786862
:104FE00000F0CCFF0120FEF709FD07F0ADFA78686C
:104FF00000F0C4FF0720FEF701FD07F0A5FA78686E
:1050000000F0BCFF0220FEF7F9FC07F09DFA78687B
:1050100000F0B4FF0C20FEF7F1FC07F095FA04F065
:10502000CDFD0837BD4680BD80B582B000AF786049
:1050300004F0B6FD0620FEF73BFD07F085FA786820
:1050400000F09CFF0320FEF733FD07F07DFA78683F
:1050500000F094FF0120FEF72BFD07F075FA786849
:1050600000F08CFF0720FEF723FD07F06DFA78684B
:1050700000F084FF0220FEF71BFD07F065FA786858
:1050800000F07CFF0C20FEF713FD07F05DFA04F042
:1050900095FD0837BD4680BD80B582B000AF786011
:1050A00004F07EFD0C20FEF7A9FC07F04DFA7868AD
:1050B00000F064FF0220FEF7A1FC07F045FA7868D3
:1050C00000F05CFF0720FEF799FC07F03DFA7868D6
:1050D00000F054FF0120FEF791FC07F035FA7868E4
:1050E00000F04CFF0320FEF789FC07F02DFA7868EA
:1050F00000F044FF0620FEF781FC07F025FA04F0DB
:105100005DFD0837BD4680BD80B582B000AF7860D8
:1051100004F046FD0C20FEF7CBFC07F015FA78688A
:1051200000F02CFF0220FEF7C3FC07F00DFA7868B0
:1051300000F024FF0720FEF7BBFC07F005FA7868B3
:1051400000F01CFF0120FEF7B3FC07F0FDF97868C2
:1051500000F014FF0320FEF7ABFC07F0F5F97868C8
:1051600000F00CFF0620FEF7A3FC07F0EDF904F0B9
:1051700025FD0837BD4680BD80B582B000AF7860A0
:1051800004F00EFD0120FEF739FC0720FEF736FC87
:1051900007F0DAF9786800F0F1FE0320FEF72EFC44
:1051A0000220FEF72BFC07F0CFF9786800F0E6FE4E
:1051B0000620FEF723FC0C20FEF720FC07F0C4F9C4
:1051C00004F0FCFC0837BD4680BD00BF80B582B04E
:1051D00000AF786004F0E4FC0120FEF769FC0720D2
:1051E000FEF766FC07F0B0F9786800F0C7FE032010
:1051F000FEF75EFC0220FEF75BFC07F0A5F978687D
:1052000000F0BCFE0620FEF753FC0C20FEF750FC1D
:1052100007F09AF904F0D2FC0837BD4680BD00BF04
:1052200080B582B000AF786004F0BAFC0620FEF7CB
:10523000E5FB07F089F9786800F0A0FE0320FEF78F
:10524000DDFB0620FEF734FC07F07EF9786800F0FD
:1052500095FE0120FEF7D2FB0320FEF729FC07F0A4
:1052600073F9786800F08AFE0720FEF7C7FB01207B
:10527000FEF71EFC07F068F9786800F07FFE022058
:10528000FEF7BCFB0720FEF713FC07F05DF978681A
:1052900000F074FE0C20FEF7B1FB0220FEF708FCC4
:1052A00007F052F9786800F069FE0C20FEF700FC68
:1052B00007F04AF904F082FC0837BD4680BD00BF04
:1052C00080B582B000AF786004F06AFC07F03CF96A
:1052D0000C20FEF793FB786800F050FE0220FEF7EA
:1052E0008DFB0C20FEF7E4FB07F02EF9786800F048
:1052F00045FE0720FEF782FB0220FEF7D9FB07F0F0
:1053000023F9786800F03AFE0120FEF777FB0720CA
:10531000FEF7CEFB07F018F9786800F02FFE0320A7
:10532000FEF76CFB0120FEF7C3FB07F00DF9786870
:1053300000F024FE0620FEF761FB0320FEF7B8FB19
:1053400007F002F9786800F019FE0620FEF7B0FBBE
:1053500007F0FAF804F032FC0837BD4680BD00BF04
:1053600080B584B000AF0346FB710023FB73FB796B
:105370001846FEF743FB0023FB7307E007F0E4F851
:105380000A2004F0ABFBFB7B0133FB73FB7B312B6F
:10539000F4D9FB791846FEF78BFB1037BD4680BD6C
:1053A00080B582B000AF0023FB710023FB7106E0E3
:1053B000FB791846FFF7D4FFFB790133FB71FB79CA
:1053C0000E2BF5D9642003F0A5FB0023BB714FF42D
:1053D0007A70FFF7F1FD4FF47A70FFF725FE4FF476
:1053E000FA7004F07BFB4FF47A70FFF755FE4FF430
:1053F0007A70FFF789FE4FF4FA7004F06FFBFCF748
:1054000081F80023BB7112E0BB794FF4FA7202FB02
:1054100003F31846FFF704FFBB794FF4FA7202FB5F
:1054200003F31846FFF74CFFBB790133BB71BB791F
:10543000042BE9D9642004F051FB4FF47A70FFF794
:105440009BFE642004F04AFB4FF47A70FFF7BEFE27
:105450004FF4FA7004F042FB0837BD4680BD00BF30
:1054600080B582B000AF0023FB710023BB71002325
:10547000BB711BE0FFF794FF0023FB7110E0FB7989
:105480001846FEF7BBFAC82004F028FBFB79184643
:10549000FEF70EFBC82004F021FBFB790133FB7102
:1054A000FB790F2BEBD9BB790133BB71BB79042B93
:1054B000E0D90220012103F0F3FAC82004F00EFB2A
:1054C0000220002103F0ECFAC82004F007FB0220C0
:1054D000012103F0E5FAC82004F000FB02200021BE
:1054E00003F0DEFAC82004F0F9FA0023FB710EE0A5
:1054F000444AFB799BB2194689000B445B009BB27E
:1055000093860A2004F0EAFAFB790133FB71FB79F8
:105510003B2BEDD93C23FB710EE03A4AFB799BB261
:10552000194689000B445B009BB293860A2004F065
:10553000D5FAFB79013BFB71FB79002BEDD1314BA7
:105540004FF47A729A860023FB710EE02D4AFB79A4
:105550009BB2194689000B445B009BB213870A205B
:1055600004F0BCFAFB790133FB71FB793B2BEDD9DD
:10557000244B4FF47A721A870023FB710EE0214A04
:10558000FB799BB2194689000B445B009BB2938761
:105590000A2004F0A3FAFB790133FB71FB793B2B62
:1055A000EDD9184B4FF47A729A870023FB710FE004
:1055B000144AFB799BB2194689000B445B009BB2ED
:1055C000A2F840300A2004F089FAFB790133FB711C
:1055D000FB793B2BECD90B4B4FF47A72A3F84020AC
:1055E000094B00229A864FF47A7004F077FA064B42
:1055F0004FF47A729A864FF47A7004F06FFA083793
:10560000BD4680BD00040040002C014080B584B040
:1056100000AF0346FB800023BB600023FB60FB88D8
:10562000BB60BB689BB2BB6002F094FC0246BB68E7
:105630001344BB60FBF766FF0B20FEF7DFF9042085
:10564000FEF7DCF902F086FCF8600EE002F082FC66
:10565000F860C82004F042FA01F006F90A4B1B7802
:10566000DBB2002B01D106F06FFFFA68BB689A42EB
:10567000ECD301F029F94FF4FA7004F02FFAFBF79C
:1056800041FF1037BD4680BDD400002090B587B0E3
:1056900000AF0446084611461A462346FB800346DF
:1056A000BB800B46FB701346BB7000233B6100239D
:1056B000FB6000237B6102F04DFC7861BB88FB60DE
:1056C000FB689BB2FB60FA687B691344FB60FB8854
:1056D0003B613B699BB23B613A697B6913443B6127
:1056E000FBF710FF0B20FEF789F90420FEF786F97F
:1056F000642004F0F3F901F0B7F8BB88DAB2F97866
:10570000BB78084611461A46FDF772FA19E002F016
:1057100021FC7861154B1B78DBB2002B01D106F020
:1057200013FFC82004F0DAF9BB88DAB2104B1A7004
:1057300001F09AF80D4B1B78DBB2002B01D106F07B
:1057400003FF7A693B699A42E1D301F0BDF8FB7827
:1057500018460021FFF770FA4FF4FA7004F0BEF912
:10576000FBF7D0FE1C37BD4690BD00BFD400002023
:105770002201002080B584B000AF03460A46FB80BA
:1057800013467B710023BB600023FB60FB88BB607A
:10579000BB689BB2BB6002F0DDFB0246BB681344F2
:1057A000BB60FBF7AFFE0B20FEF728F97B791846AC
:1057B000FEF724F902F0CEFBF8600EE002F0CAFB1F
:1057C000F860C82004F08AF901F04EF8104B1B78FD
:1057D000DBB2002B01D106F0B7FEFA68BB689A4233
:1057E000ECD301F071F8BB680533BB6007E002F051
:1057F000B1FBF860C82004F071F906F0A5FEFA6864
:10580000BB689A42F3D3FBF77DFE1037BD4680BDDF
:10581000D400002080B584B000AF03460A46FB8068
:105820001346BB800023BB600023FB60FB88BB608A
:10583000BB689BB2BB6002F08DFB0246BB681344A1
:10584000BB60FBF75FFE0B20FEF7D8F8BB8818465D
:10585000FBF734FE02F07EFBF8600EE002F07AFB0C
:10586000F860C82004F03AF900F0FEFF134B1B78F3
:10587000DBB2002B01D106F067FEFA68BB689A42E2
:10588000ECD301F021F8BB680533BB600CE002F0FB
:1058900061FBF860C82004F021F9084B1B78DBB2EB
:1058A000002B01D106F050FEFA68BB689A42EED395
:1058B000FBF728FE1037BD4680BD00BFD400002096
:1058C00080B584B000AF03460A46FB8013467B7167
:1058D0000023FB81124B5B88FB81FBF713FE042046
:1058E000FEF78CF80FE00A20FEF788F800F0BCFF06
:1058F0004FF4C87004F0F2F80A4B1B78DBB2002BAF
:1059000001D106F021FE064B5B889BB2FA889A42D1
:10591000E9D300F0D9FFFBF7F5FD1037BD4680BD98
:105920008C000020D400002080B584B000AF034676
:105930000A46FB8013467B710023FB810023BB8159
:10594000FBF7E0FD174B5B88FB81FA89FB88D31AD4
:10595000BB810420FEF752F80FE00A20FEF74EF854
:1059600000F082FF4FF4C87004F0B8F80E4B1B78BB
:10597000DBB2002B01D106F0E7FD0A4B5B889BB23E
:10598000BA899A42E9D300F09FFF0A20FEF790F807
:105990004FF47A7004F0A2F8FBF7B4FD1037BD465F
:1059A00080BD00BF8C000020D400002080B584B0F2
:1059B00000AF03460A46FB8013467B710023FB8140
:1059C000FBF7A0FD144B5B88FB810B20FEF716F85C
:1059D00010E07B791846FEF711F800F045FF4FF410
:1059E000C87004F07BF80D4B1B78DBB2002B01D1A3
:1059F00006F0AAFD084B5B889BB2FA889A42E8D869
:105A000000F062FF4FF47A7004F068F8FBF77AFD5B
:105A10001037BD4680BD00BF8C000020D4000020A0
:105A200080B584B000AF0346FB710023FB810023E7
:105A3000BB81FB79653B062B00F2938001A252F8F3
:105A400023F000BF635B0008615A0008895A000810
:105A5000A95A0008EB5A0008135B00083B5B0008DA
:105A6000434B1B78DBB21B029AB2414B5B78DBB233
:105A70009BB21344FB813E4B9B78DBB2FA89104604
:105A80001946FFF777FE6CE0394B1B78DBB21B023F
:105A90009AB2374B5B78DBB29BB21344FB81FB8934
:105AA0001846FFF7B3FD5CE0314B1B78DBB21B02FD
:105AB0009AB22F4B5B78DBB29BB21344FB812C4B29
:105AC0009B78DBB21B029AB2294BDB78DBB29BB22C
:105AD0001344BB81264B1B79DAB2254B5B79DBB2D1
