:020000040800F2
:100000003C1D0020D9070008318B00083D8B0008FB
:10001000458B00084D8B0008558B00080000000040
:10002000000000000000000000000000059A000829
:100030005D8B000800000000AD9B0008F19B0008EC
:10004000350800083508000835080008350800089C
:100050003508000835080008353F0008513F000802
:100060006D3F00083508000835080008350800080D
:100070003508000835080008653A0008813A00088C
:1000800035080008350800083508000800000000A1
:10009000000000000000000000000000755600088D
:1000A000350800085D560008695600083508000844
:1000B000350800083508000849570008698B000812
:1000C00021910008FD8D000889900008350800087E
:1000D00035080008D5230008350800083508000851
:1000E000793F0008350800083508000800000000C6
:1000F0000000000000000000000000000000000000
:1001000000000000000000000000000000000000EF
:100110000000000000000000350800083508000855
:100120005FF808F180B588B000AF786007F1080388
:10013000184606F0DDFEFB68094AA2FB03235B0BB1
:100140007A6802FB03F3FB610023FB6102E0FB69B9
:10015000013BFB61FB69002BF9D12037BD4680BD17
:100160005917B7D180B485B000AF786039600023EB
:10017000FB817B681B88FB817B682E4A934213D0EE
:100180007B682D4A93420FD07B68B3F1804F0BD030
:100190007B682A4A934207D07B68294A934203D05E
:1001A0007B68284A934208D1FB8923F07003FB81C6
:1001B0003B685A88FB891343FB817B68224A934240
:1001C0000CD07B68214A934208D0FB8923F440730A
:1001D000FB813B68DA88FB891343FB817B68FA89E2
:1001E0001A803B689A887B689A853B681A887B6886
:1001F0001A857B680F4A93420FD07B680E4A934260
:100200000BD07B68124A934207D07B68114A934215
:1002100003D07B68104A934204D13B681B7A9AB2A0
:100220007B681A867B6801229A821437BD465DF886
:10023000047B7047002C0140003401400004004062
:1002400000080040000C0040001000400014004076
:1002500000400140004401400048014080B485B0A6
:1002600000AF7860396000237B810023FB8100238D
:10027000BB817B681B8C9BB223F001039AB27B6825
:100280001A847B681B8CFB817B689B88BB817B68A5
:100290001B8B7B817B8923F070037B817B8923F01F
:1002A00003037B813B681A887B8913437B81FB892D
:1002B00023F00203FB813B681A89FB891343FB810E
:1002C0003B685A88FB891343FB817B68244A93422D
:1002D0000FD07B68234A93420BD07B68224A93421B
:1002E00007D07B68214A934203D07B68204A93421F
:1002F00023D1FB8923F00803FB813B685A89FB89E2
:100300001343FB81FB8923F00403FB813B689A883C
:10031000FB891343FB81BB8923F48073BB81BB89B9
:1003200023F40073BB813B689A89BB891343BB816B
:100330003B68DA89BB891343BB817B68BA899A80A1
:100340007B687A891A833B68DA887B689A867B683F
:10035000FA891A841437BD465DF8047B704700BFE4
:10036000002C0140003401400040014000440140A5
:100370000048014080B485B000AF78603960002348
:100380007B810023FB810023BB817B681B8C9BB29C
:1003900023F010039AB27B681A847B681B8CFB8164
:1003A0007B689B88BB817B681B8B7B817B8923F46B
:1003B000E0437B817B8923F440737B813B681B880E
:1003C0001B029AB27B8913437B81FB8923F02003B4
:1003D000FB813B681B891B019AB2FB891343FB819C
:1003E0003B685B881B019AB2FB891343FB817B68E6
:1003F000224A934203D07B68214A93422BD1FB8946
:1004000023F08003FB813B685B891B019AB2FB8967
:100410001343FB81FB8923F04003FB813B689B88EE
:100420001B019AB2FB891343FB81BB8923F48063D0
:10043000BB81BB8923F40063BB813B689B899B0024
:100440009AB2BB891343BB813B68DB899B009AB29C
:10045000BB891343BB817B68BA899A807B687A89A0
:100460001A833B68DA887B681A877B68FA891A8462
:100470001437BD465DF8047B704700BF002C014077
:100480000034014080B485B000AF7860396000234B
:100490007B810023FB810023BB817B681B8C9BB28B
:1004A00023F480739AB27B681A847B681B8CFB816F
:1004B0007B689B88BB817B689B8B7B817B8923F0DE
:1004C00070037B817B8923F003037B813B681A885F
:1004D0007B8913437B81FB8923F40073FB813B6899
:1004E0001B891B029AB2FB891343FB813B685B8823
:1004F0001B029AB2FB891343FB817B68224A934219
:1005000003D07B68214A93422BD1FB8923F40063FB
:10051000FB813B685B891B029AB2FB891343FB8119
:10052000FB8923F48063FB813B689B881B029AB2A2
:10053000FB891343FB81BB8923F48053BB81BB89B7
:1005400023F40053BB813B689B891B019AB2BB8992
:100550001343BB813B68DB891B019AB2BB89134300
:10056000BB817B68BA899A807B687A899A833B6869
:10057000DA887B689A877B68FA891A841437BD46C3
:100580005DF8047B704700BF002C0140003401403F
:1005900080B485B000AF786039600023BB81002350
:1005A0007B810023FB817B681B8C9BB223F48053EF
:1005B0009AB27B681A847B681B8C7B817B689B88E2
:1005C000FB817B689B8BBB81BB8923F4E043BB81B0
:1005D000BB8923F44073BB813B681B881B029AB222
:1005E000BB891343BB817B8923F400537B813B6828
:1005F0001B891B039AB27B8913437B813B685B8811
:100600001B039AB27B8913437B817B68124A934216
:1006100003D07B68114A93420AD1FB8923F48043BB
:10062000FB813B689B899B019AB2FB891343FB8149
:100630007B68FA899A807B68BA899A833B68DA88F2
:100640007B68A3F840207B687A891A841437BD46FA
:100650005DF8047B704700BF002C0140003401406E
:1006600080B483B000AF78607B684FF6FF729A80E9
:100670007B6800221A807B680022DA807B68002277
:100680005A807B6800221A720C37BD465DF8047BE5
:10069000704700BF80B483B000AF78607B680022F1
:1006A0001A807B6800225A807B6800229A807B68CF
:1006B0000022DA807B6800221A817B6800225A813E
:1006C0007B6800229A817B680022DA810C37BD4664
:1006D0005DF8047B704700BF80B483B000AF7860E2
:1006E0000B46FB70FB78002B08D07B681B889BB205
:1006F00043F001039AB27B681A8007E07B681B888D
:100700009BB223F001039AB27B681A800C37BD4676
:100710005DF8047B704700BF80B483B000AF7860A1
:100720000B46FB70FB78002B0CD07B68B3F8443091
:100730009BB26FEA43436FEA53439AB27B68A3F8D4
:10074000442009E07B68B3F844309BB2C3F30E0346
:100750009AB27B68A3F844200C37BD465DF8047B51
:10076000704700BF80B485B000AF78600B467B80D7
:100770000023FB730023BB8100237B817B681B8AE2
:100780009AB27B881340BB817B689B899AB27B8835
:1007900013407B81BB89002B05D07B89002B02D0C5
:1007A0000123FB7301E00023FB73FB7B1846143726
:1007B000BD465DF8047B704780B483B000AF7860BD
:1007C0000B467B807B88DB439AB27B681A820C37AE
:1007D000BD465DF8047B704780B582B000AF104B1A
:1007E0007B60104B3B6007E03B681A1D3A607A68FB
:1007F000111D796012681A603B680B4A9342F3D36B
:100800000A480B494FF000028842B8BF40F8042B59
:10081000FADB00F035FE05F0AFFE0837BD4680BDBF
:1008200074B300080000002084000020880000202D
:100830003C19002080B400AFFEE700BF80B400AFD9
:1008400062B6BD465DF8047B704700BF80B400AF60
:1008500072B6BD465DF8047B704700BF80B586B0B8
:1008600000AFF860B9607A60FB7000237B61002301
:100870003B61FB689B889BB243F480739AB2FB6830
:100880009A80FB78022B40F08C80F868B9687A680F
:10089000012300F07FFDFB689B889BB243F48053EB
:1008A0009AB2FB689A80FB689B889BB243F4006312
:1008B0009AB2FB689A804FF6FF733B61FB681B8816
:1008C0009BB243F480739AB2FB681A8006E03B69DE
:1008D0005A1E3A61002B01D1002379E2FB689B8A02
:1008E0009BB203F00103002BF1D04FF6FF733B6185
:1008F00097F8203043F0010387F82030964A97F8A4
:1009000020301370944B1B78DBB29AB2FB681A82CA
:1009100006E03B695A1E3A61002B01D1002357E2E1
:10092000FB689B8A9BB203F00203002BF1D0FB68AB
:100930001B8B9BB27B61FB68884A934210D100BF3E
:100940004FF0007009F0BCFA0346002BF8D0844841
:10095000002109F099FA4FF0007009F0DBFA0FE07E
:1009600000BF4FF4003009F0ABFA0346002BF8D07B
:100970007C48002109F088FA4FF4003009F0CAFAE7
:10098000FB681B889BB243F400739AB2FB681A8021
:1009900000BFFB681B889BB203F40073002BF8D1E7
:1009A00015E2FB78002B40F0CA817B68012B72D1E5
:1009B0004FF6FF733B61FB681B889BB243F4807367
:1009C0009AB2FB681A8006E03B695A1E3A61002B16
:1009D00001D10023FCE1FB689B8A9BB203F0010379
:1009E000002BF1D097F8203043F0010387F8203036
:1009F000594A97F820301370574B1B78DBB29AB2E4
:100A0000FB681A824FF6FF733B6106E03B695A1E92
:100A10003A61002B01D10023DAE1FB689B8A9BB28B
:100A200003F00203002BF1D0FB681B889BB223F478
:100A300080639AB2FB681A80FFF708FFFB681B8B84
:100A40009BB27B61FB681B889BB243F400739AB234
:100A5000FB681A80FFF7F2FE00BFFB689B8A9BB21F
:100A600003F04003002BF8D0FB681B8A9BB2DAB27C
:100A7000BB681A7000BFFB681B889BB203F400734D
:100A8000002BF8D1FB681B889BB243F480639AB2B9
:100A9000FB681A809BE17B68022B40F0A380FB6817
:100AA0001B889BB243F400639AB2FB681A804FF62E
:100AB000FF733B61FB681B889BB243F480739AB25F
:100AC000FB681A8006E03B695A1E3A61002B01D18F
:100AD00000237DE1FB689B8A9BB203F00103002B9E
:100AE000F1D04FF6FF733B6197F8203043F00103DC
:100AF00087F82030184A97F820301370164B1B786F
:100B0000DBB29AB2FB681A8206E03B695A1E3A6170
:100B1000002B01D100235BE1FB689B8A9BB203F0B1
:100B20000203002BF1D0FFF791FEFB681B8B9BB2F9
:100B30007B61FB681B889BB223F480639AB2FB68DD
:100B40001A80FFF77BFE0FE03B695A1E3A61002BCB
:100B50000AD100233CE100BF90180020005400405F
:100B60008000024058000240FB689B8A9BB203F061
:100B70000403002BE8D0FFF769FEF868012109F0B3
:100B80003BFBFB681B8A9BB2DAB2BB681A70FFF7AB
:100B900055FEBB680133BB60FB681B8A9BB2DAB2AF
:100BA000BB681A7006E03B695A1E3A61002B01D1FE
:100BB00000230DE1FB681B889BB203F40073002B3C
:100BC000F1D1FB681B889BB243F480639AB2FB6847
:100BD0001A80FB681B889BB223F400639AB2FB68FF
:100BE0001A80F4E04FF6FF733B61FB681B889BB2F1
:100BF00043F480739AB2FB681A8006E03B695A1E80
:100C00003A61002B01D10023E2E0FB689B8A9BB292
:100C100003F00103002BF1D04FF6FF733B6197F80F
:100C2000203043F0010387F820306B4A97F82030DA
:100C30001370694B1B78DBB29AB2FB681A8206E02C
:100C40003B695A1E3A61002B01D10023C0E0FB68CA
:100C50009B8A9BB203F00203002BF1D0FB681B8B35
:100C60009BB27B6157E07B68032B13D000BFFB680E
:100C70009B8A9BB203F00403002BF8D0FB681B8A0D
:100C80009BB2DAB2BB681A70BB680133BB607B6889
:100C9000013B7B607B68032B3DD100BFFB689B8AD7
:100CA0009BB203F00403002BF8D0FB681B889BB2B7
:100CB00023F480639AB2FB681A80FFF7C7FDFB68D4
:100CC0001B8A9BB2DAB2BB681A70BB680133BB6087
:100CD000FB681B889BB243F400739AB2FB681A80CE
:100CE000FB681B8A9BB2DAB2BB681A70FFF7A6FDDD
:100CF000BB680133BB6000BFFB689B8A9BB203F0FB
:100D00004003002BF8D0FB681B8A9BB2DAB2BB68A9
:100D10001A7000237B607B68002BA4D100BFFB68A6
:100D20001B889BB203F40073002BF8D1FB681B886F
:100D30009BB243F480639AB2FB681A8047E0FB6879
:100D40009B889BB243F400739AB2FB689A80FB685D
:100D50009B889BB243F480639AB2FB689A801F4BD6
:100D600001221A6097F8203043F0010387F8203001
:100D7000194A97F820301370FB68194A934203D13F
:100D8000184A7B68136002E0174A7B681360FB68AF
:100D90001B889BB243F480739AB2FB681A8000BF31
:100DA000FB681B889BB203F48073002BF8D100BF53
:100DB000FB681B8B9BB203F00203002BF8D1FB688E
:100DC0001B889BB243F480639AB2FB681A800123AC
:100DD00018461837BD4680BD9018002088000020B6
:100DE00000540040981800209418002080B586B068
:100DF00000AFF860B9607A60FB7000237B6100236C
:100E00003B61FB78022B40F0AD804FF6FF733B61F6
:100E1000F868B9687A68002300F0BCFAFB689B8820
:100E20009BB243F400639AB2FB689A80FB681B880C
:100E30009BB243F480739AB2FB681A8006E03B6968
:100E40005A1E3A61002B01D1002349E1FB689B8ABD
:100E50009BB203F00103002BF1D04FF6FF733B610F
:100E600097F8203023F0010387F820309E4A97F846
:100E7000203013709C4B1B78DBB29AB2FB681A824D
:100E800006E03B695A1E3A61002B01D1002327E19D
:100E9000FB689B8A9BB203F00203002BF1D04FF654
:100EA000FF733B61FB681B8B9BB27B61FB688F4AC6
:100EB000934210D100BF4FF4001009F001F803462F
:100EC000002BF8D08A48002108F0DEFF4FF4001014
:100ED00009F020F819E006E03B695A1E3A61002B40
:100EE00001D10023FCE04FF4005008F0E9FF034675
:100EF000002BF1D04FF6FF733B617E48002108F0D4
:100F0000C3FF4FF4005009F005F806E03B695A1E94
:100F10003A61002B01D10023E2E0FB689B8A9BB27F
:100F200003F00403002BF1D04FF6FF733B61FB6825
:100F30001B889BB243F400739AB2FB681A8006E0E8
:100F40003B695A1E3A61002B01D10023C8E0FB68BF
:100F50001B889BB203F40073002BF1D14FF6FF7393
:100F60003B61BCE0FB78002B79D14FF6FF733B610E
:100F7000FB681B889BB243F480739AB2FB681A80AB
:100F800006E03B695A1E3A61002B01D10023A7E01D
:100F9000FB689B8A9BB203F00103002BF1D097F80A
:100FA000203023F0010387F820304F4A97F8203093
:100FB00013704D4B1B78DBB29AB2FB681A824FF666
:100FC000FF733B6106E03B695A1E3A61002B01D179
:100FD000002385E0FB689B8A9BB203F00203002B91
:100FE000F1D0FB681B8B9BB27B61BB681B789AB20C
:100FF000FB681A82BB680133BB607B68013B7B6086
:101000000FE000BFFB689B8A9BB203F00403002B38
:10101000F8D0BB681B789AB2FB681A82BB680133B0
:10102000BB607B685A1E7A60002BEAD100BFFB6868
:101030009B8A9BB203F00403002BF8D0FB681B884B
:101040009BB243F400739AB2FB681A8000BFFB683E
:101050001B889BB203F40073002BF8D13FE0FB68C0
:101060009B889BB243F400739AB2FB689A80FB683A
:101070009B889BB243F480639AB2FB689A801E4BB4
:1010800000221A6097F8203023F0010387F82030FF
:10109000154A97F820301370FB68144A934203D125
:1010A000164A7B68136002E0154A7B681360FB6890
:1010B0001B889BB243F480739AB2FB681A8000BF0E
:1010C000FB681B889BB203F48073002BF8D100BF30
:1010D000FB681B8B9BB203F00203002BF8D10123AA
:1010E00018461837BD4680BD9018002000540040B7
:1010F0006C00024044000240880000209818002044
:101100009418002080B582B000AF0023FB7100234B
:10111000BB71174B9B680023BB71BB79002B23D19C
:10112000134A134B1B6943F480631361052006F0D7
:101130006BF80023FB7114E00D4A0D4B5B6943F41F
:1011400080635361052006F05FF8094A084B1B696C
:1011500043F480631361052006F056F8FB790133F0
:10116000FB71FB79092BE7D90837BD4680BD00BF6D
:10117000000C014080B588B000AF786009200121E3
:1011800005F082FF0120012105F060FF7B68764AAF
:10119000934223D14FF40010012105F093FF402327
:1011A000BB830323BB771C23FB7707F11C036F482A
:1011B000194600F01DFA8023BB8307F11C036B481E
:1011C000194600F015FA4FF40010012105F0B6FFA2
:1011D0004FF40010002105F0B1FF3EE04FF4006332
:1011E000BB834823FB7707F11C036048194600F0D6
:1011F000FFF94FF48063BB831023FB7707F11C03D7
:101200005A48194600F0F4F9FFF77CFF4FF48000CC
:10121000012105F057FF4FF48063BB830323BB77A5
:101220001C23FB7707F11C035048194600F0E0F936
:101230001C23FB774FF40063BB8307F11C034B486F
:10124000194600F0D5F94FF48000012105F076FF32
:101250004FF48000002105F071FF00233B824BF624
:10126000FF737B823023BB824FF48063FB824FF499
:1012700080433B833E4BFB6007F10C033A48194621
:1012800008F0F8FE1023BB8207F10C033948194619
:1012900008F0F0FE7B68344A934231D1364808F0BA
:1012A000F9FC364B364A1A60344B00225A60334BF5
:1012B00010229A60314B4FF6FF72DA602F4B0022FA
:1012C0001A612E4B80225A612C4B00229A612B4BC3
:1012D0000022DA61294B00221A62284B4FF4405257
:1012E0005A62264B00229A622348244908F08EFD58
:1012F000244808F0CFFC2348204908F087FD30E05F
:10130000214808F0C7FC1D4B204A1A601B4B0022E5
:101310005A601A4B10229A60184B4FF6FF72DA602F
:10132000164B00221A61154B80225A61134B002282
:101330009A61124B0022DA61104B00221A620F4BA5
:101340004FF440525A620D4B00229A620E480B49EC
:1013500008F05CFD0E4808F09DFC0D48074908F0B8
:1013600055FD2037BD4680BD00540040000C0140B3
:10137000801A0600005800406C00024064180020EB
:1013800010540040800002404400024010580040C9
:101390005800024080B584B000AFF860B9607A6050
:1013A0003B603B68002B2CD1BB682D4A53602C4B13
:1013B00010229A602A4A7B68D360FB68294A9342CC
:1013C0000FD1274B284A1A602848002108F05CFDFD
:1013D0002648234908F01AFD2448012108F054FD4D
:1013E0003BE01F4B224A1A602248002108F04CFDC6
:1013F00020481B4908F00AFD1E48012108F044FD61
:101400002BE0BB68164A5360154B00229A60144AC1
:101410007B68D360FB68134A93420FD1104B124A8A
:101420001A601548002108F02FFD13480C4908F0F8
:10143000EDFC1148012108F027FD0EE0084B0C4A95
:101440001A600E48002108F01FFD0C48044908F0FE
:10145000DDFC0A48012108F017FD1037BD4680BDAC
:101460006418002000540040105400406C000240FA
:1014700010580040440002408000024058000240E2
:1014800080B500AF164A164B1B6843F0010313608A
:101490001349134B5A68134B13404B60104A104BBF
:1014A0001B6823F0847323F4803313600C4A0C4BC5
:1014B0001B6823F480231360094A094B5B6823F4FB
:1014C000FE035360064B4FF41F029A60044B002248
:1014D000DA6200F00BF8044B4FF000629A6080BDB6
:1014E000001002400000FFF800ED00E080B500AF02
:1014F00000F002F880BD00BF80B483B000AF0023CD
:101500007B6000233B60304A2F4B1B6843F48033E1
:1015100013602D4B1B6803F400333B607B68013381
:101520007B603B68002B03D17B68B3F5A06FF0D1E3
:10153000254B1B6803F00203002B02D001233B6004
:1015400001E000233B603B68012B37D11E4A1E4B54
:101550005B6853601C4A1C4B5B6853601A4A1A4B09
:101560005B685360184A184B5B6823F47C13536024
:10157000154A154B5B6843F498135360124A124B9B
:101580001B6843F08073136000BF0F4B1B6803F0B0
:101590000073002BF9D00C4A0B4B5B6823F003035C
:1015A0005360094A084B5B6843F00203536000BF75
:1015B000054B5B6803F00C03082BF9D10C37BD46D3
:1015C0005DF8047B704700BF0010024080B483B018
:1015D00000AF03460A46FB711346BB71034B002262
:1015E0001A700C37BD465DF8047B70470000002080
:1015F00080B489B000AF786039600023FB610023BC
:101600003B610023BB610023FB6000237B6100235F
:10161000BB603B68DB7803F00F03FB613B68DB7862
:1016200003F01003002B05D03B689B781A46FB693A
:101630001343FB613B681B88DBB2002B44D07B6803
:101640001B687B610023BB6138E0BB69012202FAA1
:1016500003F3FB603B681B881A46FB6813403B6141
:101660003A69FB689A4226D1BB699B00FB60FB6824
:101670000F2202FA03F3BB60BB68DB437A691340B5
:101680007B61FB68FA6902FA03F37A6913437B61B1
:101690003B68DB78282B05D1BB6901229A407B6827
:1016A0005A6108E03B68DB78482B04D1BB69012212
:1016B0009A407B681A61BB690133BB61BB69072B28
:1016C000C3D97B687A691A603B681B88FF2B4AD9AB
:1016D0007B685B687B610023BB613EE0BB690833CC
:1016E0001A4601239340FB603B681B881A46FB683F
:1016F00013403B613A69FB689A422BD1BB699B005E
:10170000FB60FB680F2202FA03F3BB60BB68DB439C
:101710007A6913407B61FB68FA6902FA03F37A691C
:1017200013437B613B68DB78282B07D1BB69083307
:101730001A46012303FA02F27B685A613B68DB78A0
:10174000482B07D1BB6908331A46012303FA02F27A
:101750007B681A61BB690133BB61BB69072BBDD9CB
:101760007B687A695A602437BD465DF8047B704710
:1017700080B483B000AF78607B684FF6FF721A8048
:101780007B6802229A707B680422DA700C37BD46AF
:101790005DF8047B704700BF80B487B000AF78600D
:1017A0000B46FB7000233B610023FB6000237B6141
:1017B0000023BB607B68002B03DA2E4BDB697B6167
:1017C00002E02C4B5B687B617B6803F470231B0C8D
:1017D000BB607B689BB23B617B6803F44013B3F54D
:1017E000401F0AD17B6923F070637B61214A214B42
:1017F0005B6823F07063536021E07B6803F480131F
:10180000002B0ED0BB68032202FA03F3FB60FB68D7
:10181000DB437A6913407B617B6943F070637B61D2
:101820000DE07B685B0D1B011A463B699340DB436F
:101830007A6913407B617B6943F070637B61FB785D
:10184000002B08D07B685B0D1B011A463B69934057
:101850007A6913437B617B68002B03DA054A7B6955
:10186000D36102E0034A7B6953601C37BD465DF8D3
:10187000047B70470000014090B484B000AF034681
:101880000A46FB711346BB710023FB60BB7903F072
:1018900003039B000F2202FA03F3FB601649BB7996
:1018A0009B08DBB21846144ABB799B08DBB20233B3
:1018B00052F82320FB68DB431A40831C41F82320A5
:1018C0000D48BB799B08DBB21C460B4ABB799B08D1
:1018D000DBB2023352F82320F979BB7903F003031A
:1018E0009B0001FA03F31A43A31C40F8232010378E
:1018F000BD4690BC704700BF0000014080B483B07B
:1019000000AF0346FB71084997F907305B09FA7984
:1019100002F01F02012000FA02F241F823200C37E6
:10192000BD465DF8047B704700E100E080B483B001
:1019300000AF0346FB71094997F907305B09FA7953
:1019400002F01F02012000FA02F2203341F82320A6
:101950000C37BD465DF8047B704700BF00E100E036
:1019600080B483B000AF03463960FB7197F907304C
:10197000002B0BDA0D49FB7903F00F03043B3A68A7
:10198000D2B21201D2B20B441A7609E0084997F993
:1019900007303A68D2B21201D2B20B4483F8002366
:1019A0000C37BD465DF8047B704700BF00ED00E0DA
:1019B00000E100E080B483B000AF0346FB71FB7927
:1019C000002B02D0012B05D009E0074B4FF48042D9
:1019D0005A6104E0044B4FF400425A6100BF0C37D7
:1019E000BD465DF8047B7047000C014080B483B0B5
:1019F00000AF0346FB71FB79002B02D0012B05D011
:101A000009E0074B4FF480421A6104E0044B4FF4A5
:101A100000421A6100BF0C37BD465DF8047B704779
:101A2000000C014080B582B000AF0346FB71FB792A
:101A3000184600F09BFAFB791846FFF7BBFF45F20A
:101A4000082005F0E1FBFB791846FFF7CFFFFB7993
:101A5000184600F023FA094B07221A70084B00229F
:101A60001A70084B00221A70074B00221A70074B9D
:101A700000221A800837BD4680BD00BF2400002028
:101A8000C5000020C7000020C6000020A8000020DC
:101A900080B584B000AF0346FB710120FFF7A6FFBD
:101AA000192005F01BFD0023FB7306E0FB7B0F4AAA
:101AB0000021D154FB7B0133FB73FB7B042BF5D955
:101AC0000B4B00221A802520FFF730FFFB791846C8
:101AD000FFF7A8FFC82005F001FD2520FFF70EFF46
:101AE00000F008F81037BD4680BD00BF3019002057
:101AF000A800002080B582B000AF0A2005F0EEFCFF
:101B00000023FB71804B1B78DBB2012B40F0B081CE
:101B10000A2005F0E3FC7D4B1B781B029AB27B4B3D
:101B20005B789BB213449AB2794B5A80774B9B787F
:101B30001B029AB2754BDB789BB213449AB2744B7A
:101B40001A80724B1A79724B1A71714B5B889AB278
:101B5000704B1B889BB29A420AD96D4B5B889AB234
:101B60006D4B1B889BB29A4202D26C4B00221A70BA
:101B7000674B5B889AB2674B1B889BB29A4202D232
:101B8000664B01221A70624B5B889AB2624B1B88CB
:101B90009BB29A4202D9614B02221A705B48002123
:101BA000042200F01BFA03461A46584B1B799A424E
:101BB00040F05E810A2005F091FC594B1B78DBB2A6
:101BC000002B03D0012B00F09B804EE10023FB7122
:101BD00008E0FB79FA794D49895C524AD154FB7986
:101BE0000133FB71FB79032BF3D90A2005F076FC56
:101BF000474B1B889BB24C4AA2FB031292094FF43D
:101C00007A7101FB02F29B1A9BB2484AA2FB0323A2
:101C10005B099BB2DBB23033DAB2454B1A703C4BF6
:101C20001B889BB2414AA2FB03125209642101FBAB
:101C300002F29B1A9BB23F4AA2FB0323DB089BB232
:101C4000DBB23033DAB23A4B5A70394B2E229A70EB
:101C50002F4B1B889AB2374BA3FB0213D9080B46B4
:101C60009B000B445B00D31A9BB2DBB23033DAB279
:101C70002F4BDA700A2005F031FC254B5B889BB2B4
:101C8000294AA2FB031292094FF47A7101FB02F276
:101C90009B1A9BB2254AA2FB03235B099BB2DBB2D2
:101CA0003033DAB2244B1A70194B5B889BB21F4A4F
:101CB000A2FB03125209642101FB02F29B1A9BB2A0
:101CC0001C4AA2FB0323DB089BB2DBB23033DAB23F
:101CD000194B5A70184B2E229A700D4B5B889AB292
:101CE000144BA3FB0213D9080B469B000B445B006B
:101CF000D31A9BB2DBB23033DAB20F4BDA70B4E0F6
:101D00000023FB7123E000BFC60000203019002033
:101D1000B0000020A4000020A2000020A6000020A7
:101D200025000020B8000020D34D62101F85EB5124
:101D3000CC000020CDCCCCCCC8000020FB79FA79B7
:101D40004D49895C4D4AD154FB790133FB71FB79D4
:101D5000032BF3D90A2005F0C1FB494B1B889BB22A
:101D6000484AA2FB031292094FF47A7101FB02F276
:101D70009B1A9BB2444AA2FB03235B099BB2DBB2D2
:101D80003033DAB2414B1A703D4B1B889BB23E4A4E
:101D9000A2FB03125209642101FB02F29B1A9BB2BF
:101DA0003B4AA2FB0323DB089BB2DBB23033DAB23F
:101DB000364B5A70354B2E229A70314B1B889AB293
:101DC000334BA3FB0213D9080B469B000B445B006B
:101DD000D31A9BB2DBB23033DAB22C4BDA700A2062
:101DE00005F07CFB264B5B889BB2264AA2FB0312C4
:101DF00092094FF47A7101FB02F29B1A9BB2224ABC
:101E0000A2FB03235B099BB2DBB23033DAB2214B76
:101E10001A701B4B5B889BB21B4AA2FB0312520930
:101E2000642101FB02F29B1A9BB2194AA2FB032315
:101E3000DB089BB2DBB23033DAB2164B5A70154B6B
:101E40002E229A700E4B5B889AB2114BA3FB0213A1
:101E5000D9080B469B000B445B00D31A9BB2DBB244
:101E60003033DAB20B4BDA7000BF0B4B00221A7022
:101E70000837BD4680BD00BF30190020C0000020DB
:101E8000B0000020D34D62101F85EB51D40000201C
:101E9000CDCCCCCCD0000020C600002080B586B0D0
:101EA00000AF0346FB7107F114031846FFF760FC0F
:101EB0000820012105F0E8F84823FB75FB79002B89
:101EC00002D0012B13D025E04FF48043BB8207F1F1
:101ED000140323481946FFF78BFB28233B7201208C
:101EE0000E21FFF7C9FC4FF48043FB6012E04FF472
:101EF0000043BB8207F1140319481946FFF778FB2A
:101F000028233B7201200F21FFF7B6FC4FF400435A
:101F1000FB6000BF134A134B9B6943F4803393610A
:101F2000114B00221A85104B01221A8000233B74AA
:101F300010237B740123BB7407F10C03184605F0D2
:101F400079F90F237B720F23BB720123FB7207F118
:101F50000803184608F00AF81837BD4680BD00BFD0
:101F6000000C0140001002400040014080B487B0E6
:101F700000AF0346FB7100233B610023FB60FB794C
:101F8000012B0CD0022B13D0002B12D1124B7B61F2
:101F90004FF040633B614FF08073FB6009E00E4BF4
:101FA0007B614FF040433B614FF08053FB6000E0AA
:101FB00000BF7B695A683B69DB431A407B695A6002
:101FC0007B695A68FB681A437B695A601C37BD46B7
:101FD0005DF8047B704700BF000C014080B485B001
:101FE00000AF78600B46FB701346BB700023FB7399
:101FF0000023BB730023BB730CE0BA7BFB78134454
:102000001A467B6813441A78FB7B1344FB73BB7B33
:102010000133BB73BA7BBB789A42EED3FB7B184685
:102020001437BD465DF8047B704700BF80B582B0B1
:1020300000AF3E4B1B78DBB203F004039B10012B77
:102040006ED13B4B9B889BB240F68C22934202D9C7
:10205000384B3D221A70012005F040FA03F0BCFF16
:102060007860324B1B78DBB203F00803DB10012BE6
:1020700020D12F4B9B889AB22F4B1B889BB29A4240
:1020800018D22A4B1B78DBB203F00103002B11D0CE
:102090002A4B1B687A689A420BD9264B3E221A704B
:1020A000274B1B78DBB243F00803DAB2244B1A70DB
:1020B00009E008E003F090FF0246224B1B889BB228
:1020C00013441E4A1360012005F008FA1E4B1B88BA
:1020D0009AB21E4B1B889BB29A4207D21A4B1B889E
:1020E0009BB2002B02D0002001F0C8FE012005F0B9
:1020F000F5F9154B5B889AB2144B5B889BB29A42F8
:1021000007D2114B5B889BB2002B02D0022001F05A
:10211000B5FE012005F0E2F90B4B5B880C4B5B88A8
:10212000012005F0DBF90837BD4680BD28000020FE
:102130005401002022010020340100203001002041
:1021400023010020360100208C0000204C010020DB
:102150005001002080B584B000AF0346FB8000230F
:10216000FB730023BB730023FB7311E0FA88FB7B36
:1021700042FA03F3DBB203F00103BB73BB7B012B19
:1021800003D1FB7B184601F01FFEFB7B0133FB7381
:10219000FB7B0F2BEAD91037BD4680BD80B582B0DE
:1021A00000AF0023FB710023FB7106E0FB791846AA
:1021B00001F064FEFB790133FB71FB790E2BF5D93D
:1021C0000837BD4680BD00BF80B584B000AF7860E1
:1021D0000023BB600023FB6003F0FEFEF86003F009
:1021E000FBFE02467B681344BB6003F0C5FB1E2068
:1021F00005F074F922E00020002104F0BFFB1C4828
:1022000004F07EFB1B4B1B78DBB2184604F06EF823
:102210004FF4FA7005F062F903F0F4FBBB68DAB230
:10222000FB68DBB2D31ADAB2124B1A7003F0D4FE99
:10223000F860322005F052F908F0A8FC0E4B1B782C
:10224000DBB203F00803DB10002B03D1FA68BB6894
:102250009A42D0D3094B1B78DBB223F00103DAB2E8
:10226000064B1A7003F0B8FB1037BD4680BD00BFA7
:10227000A8AC000822010020230100202800002033
:1022800080B582B000AF7860FFF788FF042001F0CE
:102290009BFD4FF4FA7005F021F9012001F094FD47
:1022A0004FF4FA7005F01AF97868FFF78DFF0837D8
:1022B000BD4680BD80B584B000AF0346FB710B46C0
:1022C000BB711346BB800023FB60BB88104A128899
:1022D00092B202FB03F30F4AA2FB0323DB08FB606D
:1022E000002001F071FDBB790B4A002142F8231058
:1022F00002E00A2005F0F2F8074B1A68FB689A42E0
:10230000F7D3002001F0BAFD1037BD4680BD00BFF5
:10231000B8180020CDCCCCCCA018002080B582B05D
:1023200000AF0346FB80FB88164AA2FB03235B0B2E
:102330009BB2DBB2184603F0D9FFFB88114AA2FB1F
:102340000312520B42F2107101FB02F29B1A9BB274
:102350000D4AA2FB03235B099BB2DBB2184603F0D4
:10236000C5FFFB88084AA2FB03125209642101FB46
:1023700002F29B1A9BB2DBB2184603F0B7FF083794
:10238000BD4680BD5917B7D11F85EB5180B485B0CC
:1023900000AF03463960FB711346BB710023FB732A
:1023A0000023FB730AE0FB7B3A6813441B78DAB224
:1023B000FB795340FB71FB7B0133FB73FA7BBB79E9
:1023C0009A42F0D3FB7918461437BD465DF8047B7A
:1023D000704700BF80B500AF674840F2255105F057
:1023E000EFFF0346002B2AD0634805F0C9FF0346E0
:1023F000DAB2624B1A70624B1B78DBB25A1CD1B254
:102400005F4A11701A465D4B1B78D9B25D4B9954E7
:102410005D4B1B8801339AB25B4B1A805A4B1B8869
:102420004EF66022934202D9574B00221A80524A3C
:10243000514B1B889BB223F020039BB21380534B5C
:102440001B78DBB2002B40F09580514B1B78DBB240
:10245000042B52D14F4B1B78DBB2002B04D1474BDE
:102460001B78DAB24C4B1A704A4B1B78DBB25A1C01
:10247000D1B2484A11701A46404B1B78D9B2414B31
:102480009954444B1B78DBB21A46434B1B78DBB2A2
:10249000033B9A4231D1404B1B78DBB2043BDBB2A9
:1024A000302038491A46FFF771FF03461A463B4B66
:1024B0001A70374B00221A70364B00221A70384BB4
:1024C00000221A70354B1B78DBB2002B13D1324B34
:1024D0001B78DBB2043B2B4AD35CDAB2314B1A7067
:1024E000314B1B78DBB20133DAB22F4B1A70274B1A
:1024F00001221A7001E000F03DF9204B1B78DBB29D
:102500005A2B03D1264B01221A7033E01B4B1B7848
:10251000DBB2582B08D1224B1B78DBB2012B03D145
:102520001F4B02221A7025E01D4B1B78DBB2022BD9
:1025300020D1124B1B78DBB2302B18D00F4B1B78FD
:10254000DBB2312B06D1124B03221A70114B002241
:102550001A700CE0094B1B78DBB2322B07D10C4B05
:1025600004221A700B4B00221A7000F003F90C4B76
:1025700000221A7080BD00BF00380140E600002034
:10258000E9000020C4180020D800002066010020C7
:10259000650100206301002064010020EA000020A2
:1025A00062010020980000209400002080B588B0CF
:1025B00002AF78604FF47A6004F090FF00233B6133
:1025C00000237B610120012103F09CFF0023FB73AA
:1025D00003F002FD03463C337B6103F007F903F08F
:1025E000FBFC02467B699A420FD90120002103F0CF
:1025F00089FFC82004F072FF0120012103F082FF4F
:1026000003F0EAFC03460A337B610123FB73642079
:1026100004F064FFFB7B002B16D0264B5B789AB24C
:10262000244B1B781B029BB213449AB2224B1A8094
:102630009A23009321481F4902220223FEF70EF934
:10264000FB7B013BFB730DE00A23FB731B4807F088
:10265000EFFCC82004F042FF1848FEF78BFDC820AD
:1026600004F03CFF642004F039FF05F0CBFF034683
:102670003B613B69B3F1FF3F03D03B699AB2104B1A
:102680001A80642004F02AFF0020FFF701FA3220AC
:1026900004F024FF08F030FAFFF7C8FC322004F001
:1026A0001DFF0120FFF7F4F94FF4C87004F016FF86
:1026B00093E700BF180000209E0000200058004053
:1026C000A000002080B584B000AF78600023FB73C9
:1026D00008F05CFA224B1B78DBB203F00803DAB295
:1026E0001F4B1A701E2004F0F9FE1E4B1B78DBB244
:1026F000012B30D100F034F91B4B5B78DBB2312B6E
:1027000004D9194B5B78DBB2632B21D9164B5B786C
:10271000DAB2164B1A700023FB7311E0124B1B78D0
:10272000DBB2043B104AD35CDBB2184600F0BAF8C7
:10273000192004F0D3FE08F029FAFB7B0133FB7368
:10274000FB7B092BEAD900F015F8094B00221A701F
:10275000044B00221A70322004F0C0FEB8E700BF1C
:102760006C01002066010020C418002070010020C8
:102770006301002080B483B000AF0023FB7100230D
:10278000FB7106E0FB79074A0021D154FB79013344
:10279000FB71FB79292BF5D90C37BD465DF8047B1D
:1027A000704700BFC418002080B582B000AF00237E
:1027B000FB710B4B00221A700023FB7109E0FB79BF
:1027C000084A0021D154012004F088FEFB7901332E
:1027D000FB71FB79292BF2D90837BD4680BD00BFBC
:1027E00027000020F818002080B500AF194B002208
:1027F0001A70194BDB78DBB20133DAB2174B1A705F
:10280000154BDB78DBB21A46134B0D219954144B50
:1028100000221A700F4B01221A70104B1B78DBB28A
:1028200018460D4901F036F904E0142004F056FE74
:1028300008F0ACF94FF4005007F042FB0346002BC0
:10284000F3D0322004F04AFE08F0A0F9014B002238
:102850001A7080BDE7000020F81800202700002033
:10286000E800002080B584B000AF03460A46FB7143
:102870001346BB710023FB730023FB730BE0FB7952
:10288000184600F00FF8322004F028FE08F07EF918
:10289000FB7B0133FB73FA7BBB799A42EFD3103792
:1028A000BD4680BD90B583B000AF0346FB71FFF716
:1028B0007BFF1D4B5A221A701B4B58225A701A4B21
:1028C00037229A70184B0722DA70174AFB79137176
:1028D000154BDB78DBB29C1E134BDB78DBB2013B84
:1028E000DBB2002010491A46FFF750FD03461A4696
:1028F0000D4B1A550C4BDB78DBB2013B0A4A002129
:10290000D154012004F0EAFDFFF76EFF074B1B785E
:10291000DBB20133DAB2054B1A70054AFB7913704A
:102920000C37BD4690BD00BFF8180020E400002021
:10293000E500002080B582B000AF0346FB710B4676
:10294000BB8013467B80FFF729FCFB79184601F01A
:102950003BFABB881846FFF7FDFB0837BD4680BD34
:1029600080B586B002AF0023FB810023FB800023EB
:10297000BB810023BB60C04B5B78DBB23F2B00F216
:10298000078301A252F823F0892A0008B52A00081B
:10299000CB2A0008D72A0008DF2A0008ED2A000801
:1029A000912F0008912F0008FB2A0008132B000824
:1029B0004D2B00086D2B0008B32B0008DF2B0008FF
:1029C000FF2B0008312C0008552C0008952C00081E
:1029D000B92C0008DD2C0008912F0008912F000869
:1029E000E32C0008EF2C0008FB2C0008912F0008B6
:1029F000912F0008912F0008912F0008912F0008B7
:102A0000912F0008072D00088F2D0008D72D0008F2
:102A10001F2E0008252E0008332E00087B2E0008EC
:102A2000812E0008912F0008912F0008912F000897
:102A3000912F0008912F0008912F0008912F000876
:102A4000912F0008912F0008912F0008912F000866
:102A5000912F0008B72E0008C52E0008912F0008FE
:102A6000912F0008912F0008D32E0008F52E0008A2
:102A7000312F0008912F0008912F0008912F000896
:102A8000912F0008552F00087B4B9B78D8B27A4BCA
:102A9000DB78D9B2784B1B79DBB29BB21B029AB2BE
:102AA000754B5B79DBB29BB213449BB21A46FFF7BE
:102AB00001FC6DE2704B9B78DAB26F4BDB78DBB2D6
:102AC0001046194603F026FA62E26C4B33221A7064
:102AD00002F082FF5CE2694B30221A7058E2664BCA
:102AE0009B78DBB2184601F06FF951E2624B9B789C
:102AF000DBB2184601F0C2F94AE2604B1B78DBB248
:102B0000332B05D15C4B9B78DAB25D4B1A703FE2F8
:102B10003EE2594B1B78DBB21A46574B9B5CDBB24B
:102B200018460F21FFF79EFEC82004F0D7FC524B39
:102B30009B78D9B2504BDB78DAB24F4B1B79DBB2C2
:102B4000084611461A4600F081FB21E203F044FAE0
:102B500003463C334B4A13604B4B00221A704B4BDD
:102B600000221A704A4B00221A7011E2444B0022D4
:102B70001A70424B33221A70434B1B78DBB203F0BE
:102B80000103DAB2404B1A700020002103F0C2F9B1
:102B90000120002103F0BEF90220002103F0BAF960
:102BA0000320002103F0B6F902F016FFFFF7F6FA52
:102BB000EEE1314B9B78DBB21B022F4AD278D2B2C6
:102BC00013441B022C4A1279D2B213441B022A4A24
:102BD0005279D2B21344184603F010FAD8E1264BCA
:102BE0001B78DBB21A46244B9B5CDBB218460521EE
:102BF000FFF738FE42F2107004F070FCC8E11E4B83
:102C00001B78DBB21A461C4B9B5CDBB218460F21CB
:102C1000FFF728FE052004F061FC174B9B78DAB221
:102C2000154BDB78DBB21046194601F033FEAFE1FD
:102C3000114B9B78DBB29AB20F4BDB78DBB29BB2C5
:102C40001B029BB21344FB81FB891846012100F053
:102C50003DFB9DE1084B9B78DBB29AB2064BDB78DB
:102C6000DBB29BB21B029BB21344FB81FB8918466B
:102C7000102100F02BFB8BE1C4180020260000205F
:102C80002800002030010020230100202201002024
:102C90006C010020A04B9B78DBB29AB29E4BDB7894
:102CA000DBB29BB21B029BB21344FB81FB8918462B
:102CB0000A2100F00BFB6BE1974B9B78DBB29AB2D9
:102CC000954BDB78DBB29BB21B029BB21344FB81BA
:102CD000FB8918460B2100F0F9FA59E103F058FD81
:102CE00056E18D4B9B78DAB28C4B1A7050E18A4BCF
:102CF0009B78DAB28A4B1A704AE1874B9B78DAB23A
:102D0000884B1A7044E1844B9B78DBB21B029AB269
:102D1000814BDB78DBB29BB21344FB81FA89BB1D8C
:102D20001046194607F0AAFC7B4B1B79DBB2002B3F
:102D300014D1FB88DBB29BB2FB80774B5B79DBB2B3
:102D40001B029BB29AB2FB8813449BB2FB80FB88A8
:102D5000FA891046194607F0DDFC17E06E4B1B7927
:102D6000DBB2012B12D1FB8823F0FF039BB2FB8067
:102D7000694B5B79DBB29AB2FB8813449BB2FB8050
:102D8000FB88FA891046194607F0C4FC00E1624B43
:102D90009B78DBB21B029AB25F4BDB78DBB29BB253
:102DA0001344FB815C4B1B79DBB21B029AB25A4B7A
:102DB0005B79DBB29BB213449BB2FB80FB88FA8940
:102DC0001046194607F0A6FCFA88574B1A80574A56
:102DD000FB891380DCE0504B9B78DBB21B029AB27C
:102DE0004D4BDB78DBB29BB21344FB814A4B1B7922
:102DF000DBB21B02484A5279D2B213441B02464A44
:102E00009279D2B213441B02434AD279D2B213440C
:102E1000BB60FB891846B96803F0C2F8B8E002F05D
:102E2000CBF8B5E03C4B9B78DBB2184600F0CEF80F
:102E3000AEE0394B1B79DBB29AB2374BDB78DBB2B1
:102E40009BB21B029BB213449BB2FB80324B9B791B
:102E5000DBB29AB2304B5B79DBB29BB21B029BB206
:102E60001344BB812C4B9B78D9B2FA88BB890846A6
:102E700011461A46FFF75EFD8AE0FFF78FF987E0FB
:102E8000254B9B79DBB21A46234B5B79DBB21B02E5
:102E90009BB21A44204B1B79DBB21B0403F47F0363
:102EA0001A441D4BDB78DBB21B061344BB60B868C9
:102EB000FFF7E6F96CE0184B9B78DBB2184600F0A0
:102EC0004FFB65E0012000F04BFB022000F048FBC7
:102ED0005EE0114B9B78DBB29AB20F4BDB78DBB232
:102EE0001B029BB213409BB29BB21846022100F01A
:102EF000EDF94DE0084B9B78DBB29AB2064BDB78DC
:102F0000DBB29BB21B029BB213449BB21846012159
:102F100000F092FA3CE000BFC418002041010020FC
:102F200042010020430100209C0000209A00002064
:102F3000234B9B78DBB29AB2214BDB78DBB29BB29E
:102F40001B029BB21344FB81FB891846022100F04F
:102F500073FA1DE01A4B9B78DBB29AB2184BDB7800
:102F6000DBB29BB21B029BB21344FB81144B1B7957
:102F7000DBB29AB2124B5B79DBB29BB21B029BB203
:102F800013449BB24FF40070194600F093F800BF51
:102F9000322004F0A3FA0A4B5B78DBB2632B0CD926
:102FA00002230093064807490722002303F0B0F8E4
:102FB000034B5B78DAB2044B1A701037BD4680BD04
:102FC000C4180020B01800206101002080B584B032
:102FD00000AF78600023FB6002F0FEFF02467B68D2
:102FE0001344FB6007E0094B00229A86642004F03A
:102FF00075FA07F0CBFD02F0EFFF0246FB689A423C
:10300000F1D302F0E9FC1037BD4680BD002C014031
:1030100080B584B000AF03460A46FB8013467B713F
:103020000023BB810023BB600023FB73FFF7BCFBC5
:103030000023FB7332E00023BB81FB7B9BB25B0070
:103040009BB2DBB29AB2FB881344BB810023BB6006
:10305000BB89184603F0D6F9B860FB7B9B00BA68C1
:10306000120ED1B2124AD154FB7B9B000133BA68D5
:10307000120CD1B20E4AD154FB7B9B000233BA68CA
:10308000120AD1B20A4AD154FB7B9B000333BA68BF
:10309000D1B2074AD154FB7B0133FB737B795B08C8
:1030A000DBB2FA7B9A42C6D31037BD4680BD00BF63
:1030B000F818002080B584B000AF03460A46FB80B4
:1030C0001346BB800023FB8100237B7300233B73EB
:1030D0005A4B5A221A70594B58225A70574B312268
:1030E0009A70FB881B099BB25B010C331B12DAB28E
:1030F000524BDA70FB881B099BB2DBB25B01DBB27F
:103100000C33DAB24D4B1A71BB881B0A9BB2DAB290
:103110004A4B5A71BB88DAB2484B9A71484B072226
:103120001A70474B1B78DBB21846444900F0B2FCDA
:1031300004E0322004F0D2F907F028FD4FF40050EB
:1031400006F0BEFE0346002BF3D00F2004F0C6F9B4
:1031500000203A490722FFF719F903463B73FFF7AE
:1031600023FB384B00221A70642004F0B7F90023C7
:10317000FB8140E0FB89DBB29BB21B019AB2BB88AA
:1031800013449BB218461021FFF742FF00237B73C4
:1031900009E07B7B294AD35CDAB23B7B53403B732B
:1031A0007B7B01337B737B7B1F2BF2D9244B20224B
:1031B0001A70234B1B78DBB21846204900F06AFCDA
:1031C00004E01E2004F08AF907F0E0FC4FF4005000
:1031D00006F076FE0346002B06D11B4B1B889BB2E4
:1031E00003F04003002BECD007F0D0FCFFF7DCFA33
:1031F000FB890133FB81FB881B099BB2FA899A4248
:10320000B8D301237B7306E07B7B0C497A7BCA54DD
:103210007B7B01337B737B7B042BF5D9074A3B7B9C
:103220001370FFF7E1FA0F2004F058F9FFF7BCFA2A
:10323000044B00221A701037BD4680BDF8180020DC
:1032400027000020E70000200038014080B584B04E
:1032500000AF0346FB710B46BB7113467B71002325
:10326000BB600023FB6002F0B7FEF860BA79FB6830
:103270001344BB60FB791846012101F08DFA02204E
:1032800004F02CF9FA797B791046194601F084FA9A
:103290000FE002F0A1FEF86007F078FCC82004F00F
:1032A0001DF9012000F05CF907F070FCC82004F063
:1032B00015F9FA68BB689A42EBD3FB7918460021EE
:1032C00001F06AFA1037BD4680BD00BF80B586B0F8
:1032D00000AF03460A46FB8013467B7100233B6127
:1032E0000023FB757B79012B14D1514B1B79DBB289
:1032F0009AB24F4B5B79DBB29BB21B029BB2134479
:103300009AB24C4B1A804B4B1B88FA8810461946D0
:1033100007F000FA7B79022B18D1454B1B79DBB201
:103320001A46434B5B79DBB21B021A44404B9B7934
:10333000DBB21B041A443E4BDB79DBB21B061344A1
:103340003B61FB881846396902F02AFE7B79102B15
:103350002AD10023FB7524E0364B00221A80FB7D26
:1033600002335B00324AD35CDBB29AB2FB7D5B0274
:1033700003F5A0632E49CB5CDBB29BB213449AB237
:103380002C4B1A80FB885A1CFA802A4A128818464D
:10339000114607F0BFF9012004F0A0F8FB7D0133CE
:1033A000FB75FB7D1F2BD7D97B790A2B1DD1002301
:1033B000FB81FA8807F10E031046194607F05EF903
:1033C000FB89DBB29BB2FB81194B1B79DBB21B0281
:1033D0009AB2FB899BB213409BB29BB2FB81FB89E3
:1033E000FA881046194607F095F97B790B2B1BD10B
:1033F0000023BB81FA8807F10C031046194607F039
:103400003DF9BB8923F0FF039BB2BB81084B1B79BD
:10341000DBB29AB2BB8913409BB2BB81BB89FA88ED
:103420001046194607F076F91837BD4680BD00BF33
:10343000C41800207601002090B585B000AF034687
:103440000A46FB8013467B71404B5A221A703F4B51
:1034500058225A703D4B31229A707B79012B1DD135
:10346000FA8807F10A031046194607F007F9374BA7
:103470000922DA70364B9B78DAB2344B1A71344B2E
:10348000DB78DAB2314B5A717B89DAB22F4B9A7101
:103490007B891B0A9BB2DAB22C4BDA717B79022B47
:1034A00024D1FB88184602F0ADFFF860274B0B22B1
:1034B000DA70274B9B78DAB2244B1A71244BDB78F5
:1034C000DAB2224B5A71FB68DAB2204B9A71FB6870
:1034D0001B0ADAB21D4BDA71FB681B0CDAB21B4B0C
:1034E0001A72FB681B0EDAB2184B5A72174BDB7854
:1034F000DBB25C1E154BDB78DBB2013BDBB200209C
:1035000012491A46FEF742FF03461A460F4B1A5558
:103510000E4BDB78DAB20F4B1A700F4B00221A7089
:103520000E4B01221A7002E0012003F0D7FF0A4B74
:103530001B78DAB2074B1B78DBB29A42F4D3074B05
:1035400000221A701437BD4690BD00BFF818002045
:10355000C418002027000020E8000020E700002019
:1035600090B583B000AF0346FB71974B1B78DBB27D
:10357000002B40F06182954B5A221A70934B5822CF
:103580005A70924B33229A70904B2922DA70FB7951
:10359000012B40F0D9808E4B1B78DAB28B4B1A711D
:1035A0008C4B1B68DAB2894B5A718B4B1B68DAB2B1
:1035B000864B9A71854B0022DA71884B1B889BB22F
:1035C000DAB2824B1A72864B1B78DAB27F4B5A7290
:1035D000844B1B78DAB27D4B9A72824B5B78DAB2FD
:1035E0007A4BDA727F4B9B78DAB2784B1A737D4B49
:1035F000DB78DAB2754B5A737B4B1B8B9BB2DAB21A
:10360000724B9A73784B1B8B9BB21B0A9BB2DAB23C
:103610006E4BDA73744B9B8B9BB2DAB26B4B1A74A2
:10362000714B9B8B9BB21B0A9BB2DAB2674B5A74ED
:103630006E4B1B889BB2DAB2644B9A746B4B1B883F
:103640009BB21B0A9BB2DAB2604BDA74674B5B88A1
:103650009BB2DAB25D4B1A75644B5B889BB21B0A56
:103660009BB2DAB2594B5A75614B1B88DAB2574B91
:103670009A755F4B1B881B0A9BB2DAB2534BDA7503
:103680005C4B1B88DAB2514B1A765A4B1B881B0ACB
:103690009BB2DAB24D4B5A76574B9B889BB2DAB24B
:1036A0004A4B9A76544B9B889BB21B0A9BB2DAB268
:1036B000464BDA76504BDB889BB2DAB2434B1A7733
:1036C0004D4BDB889BB21B0A9BB2DAB23F4B5A7759
:1036D0004A4B1B78DAB23D4B9A77494B1B889BB219
:1036E0001B0A9BB2DAB2394BDA77454B1B889BB287
:1036F000DAB2364B83F82020424B9B8E9BB2424A73
:10370000A2FB0323DB089BB2DAB2304B83F8212003
:103710003E4B1B78DAB22D4B83F822203C4B1B78B2
:10372000DAB22A4B83F823203A4B1B78DAB2274BC4
:1037300083F82420384B1B78DAB2244B83F82520F9
:10374000224AFB7982F82630FB79022B76D1334B63
:103750001B889BB2DAB21D4B1A71304B1B889BB28F
:103760001B0A9BB2DAB2194B5A712D4B1B889BB2C4
:10377000DAB2164B9A712A4B1B889BB21B0A9BB27A
:10378000DAB2124BDA71114B00221A721A4B1B88F3
:103790009BB21B0A9BB2DAB20C4B5A72164B5B8877
:1037A0009BB2DAB2094B9A72134B5B889BB21B0A2D
:1037B0009BB2DAB2054BDA720F4B9B889BB2DAB23E
:1037C000024B1A732EE000BFE7000020F81800201B
:1037D0002600002024010020280100203E010020B6
:1037E0005C010020B8000020002800408C00002070
:1037F0009E000020A0000020540100206C01002049
:10380000E2000020002C0140CDCCCCCC5E01002099
:103810002800002022010020230100204601002072
:1038200048010020864B9B889BB21B0A9BB2DAB2F0
:10383000844B5A73834AFB7982F82630FB79032B39
:103840003BD1814B9B68DAB27E4B1A717E4B9B68F1
:103850001B0ADAB27B4B5A717B4B9B681B0CDAB2AA
:10386000784B9A71784B9B681B0EDAB2754BDA7104
:10387000764B9B68DAB2734B1A72744B9B681B0AC7
:10388000DAB2704B5A72714B9B681B0CDAB26D4BFB
:103890009A726E4B9B681B0EDAB26A4BDA726C4BF3
:1038A0009B78DAB2674B1A73694BDB78DAB2654BF7
:1038B0005A73644AFB7982F82630FB79042B1CD1B9
:1038C000604B00225A72634B1B78DAB25D4B9A72DE
:1038D000614B1B889BB2DAB25A4BDA725E4B1B8883
:1038E0009BB21B0A9BB2DAB2564B1A73554B4D2250
:1038F0005A73544AFB7982F82630FB79052B39D16B
:10390000564B1B889BB2DAB24E4B1A71534B1B8835
:103910009BB21B0A9BB2DAB24A4B5A714F4B5B887F
:103920009BB2DAB2474B9A714C4B5B889BB21B0A35
:103930009BB2DAB2434BDA71494B1B68DAB2414BA6
:103940001A72474B1B681B0ADAB23E4B5A72444B41
:103950001B681B0CDAB23B4B9A72414B1B681B0E67
:10396000DAB2384BDA72374B4D225A73354AFB794B
:1039700082F82630FB79062B43D1384B1B889BB24B
:10398000DAB2304B1A71354B1B889BB21B0A9BB2C3
:10399000DAB22C4B5A71314B5B889BB2DAB2294BAD
:1039A0009A712E4B5B889BB21B0A9BB2DAB2254BF5
:1039B0005A712B4B5B68DAB2224B1A72284B5B6848
:1039C0001B0ADAB21F4B5A72254B5B681B0CDAB22A
:1039D0001C4B9A72224B5B681B0EDAB2194BDA72DF
:1039E0001D4B5B889BB2DAB2164B1A731A4B5B887D
:1039F0009BB21B0A9BB2DAB2124B5A73114AFB7983
:103A00009375104BDB78DBB29C1E0E4BDB78DBB280
:103A1000023BDBB200200B491A46FEF7B7FC034617
:103A20001A46084B1A55074BDB78DBB2013B054AB7
:103A30000021D154FEF7D8FE0C37BD4690BD00BF23
:103A400054010020F818002000080140000C01403B
:103A5000C00000205E010020B81800208C0000206B
:103A6000A018002080B400AF044B1B68034B1B68F8
:103A7000024B1B68BD465DF8047B704700000240A6
:103A800080B400AF024B1B68BD465DF8047B7047F5
:103A90000000024080B582B000AF03463960FB7180
:103AA0001F491F4B1A684FF6FE7313400B601D4BE6
:103AB0005B6903F00103002B05D11A4A194B5B69BE
:103AC00043F001035361164B174ADA60144B174A4F
:103AD0009A60134AFB795360114A114B1B6843F4F7
:103AE000425343F011031360114A114B9B8A9BB25E
:103AF00043F080039BB29382094A094B1B6843F051
:103B0000010313600A4A0A4B1B889BB223F040034F
:103B10009BB213800E20FDF7F1FE0837BD4680BD35
:103B20004400024000100240F81800200438014010
:103B30000038014080B586B000AF0120012103F0BC
:103B400085FA0520012103F09FFA25233B75002308
:103B50007B750023BB750123FB7507F11403184621
:103B600006F004FA4FF400733B820323BB7418235E
:103B7000FB7407F1100322481946FDF739FD4FF495
:103B800080633B820423FB7407F110031C48194631
:103B9000FDF72EFD1B4804F0BDFA28201A49FFF757
:103BA00079FF4FF48040012103F06EFA4FF4165371
:103BB0003B600023BB800023FB8000233B8100236C
:103BC000BB810C237B813B460E48194604F0FEFA6C
:103BD0000C484FF4587104F0E3FB0A4A094B9B89E7
:103BE0009BB243F020039BB293810648012104F06D
:103BF000A7FB2520FDF782FE1837BD4680BD00BF1C
:103C00000008014000380140F818002080B588B055
:103C100000AF1020012103F037FA0220012103F048
:103C200051FA07F11C031846FDF7A2FD4FF470731B
:103C3000BB830323BB771823FB7707F11C032148C1
:103C40001946FDF7D5FC20480121FDF7A5FD07F138
:103C500010031846FCF704FD4FF40073FB8240F29A
:103C6000E733BB82EF233B8207F110031748194665
:103C7000FCF778FA3B461846FCF70CFD01237B80E5
:103C800060233B800023FB803B4610481946FCF72D
:103C9000E5FA3B460D481946FCF76CFB3B460B48E2
:103CA0001946FCF7EFFB3B4608481946FCF770FC49
:103CB00006480121FCF710FD00F00AF82037BD4648
:103CC00080BD00BF00100140000C1A00000400403D
:103CD00080B582B000AF0023FB710023FB7107E0C9
:103CE000FB791846002100F057FDFB790133FB7189
:103CF000FB79032BF4D90837BD4680BD80B588B069
:103D000000AF0120012103F0BFF90820012103F0D9
:103D1000BBF94FF40060012103F0B6F907F11C0371
:103D20001846FDF725FD4FF40053BB830323BB77F3
:103D30001823FB7707F11C0321481946FDF758FCAF
:103D400007F110031846FCF78BFC4FF40073FB825D
:103D500040F2E733BB8217233B8200237B8207F1CB
:103D6000100318481946FCF7FDF93B461846FCF7C6
:103D700091FC01237B8070233B804FF4FA73FB801E
:103D800002233B8100237B8101237B800423BB80B2
:103D90004FF48073BB810023FB813B4609481946E1
:103DA000FCF75CFA07480121FCF796FC0548012165
:103DB000FCF7B2FC01F010FE2037BD4680BD00BF0D
:103DC000000C0140002C014080B483B000AF0346DA
:103DD000FB71FB79002B0DD0FB79042B0AD8244909
:103DE000234B5B69FA790332012000FA02F2134394
:103DF0004B612AE0FB79042B0DD9FB79072B0AD8FC
:103E00001C491C4B5B69FA790532012000FA02F269
:103E100013434B6119E0FB79072B0DD9FB790B2B71
:103E20000AD81349124B5B69FA790332012000FA70
:103E300002F213434B6108E0FB790C2B05D10C4ACD
:103E40000B4B5B6943F480735361FB79012202FAE7
:103E500003F39AB2084B1B889BB29BB213439BB2ED
:103E60009AB2054B1A800C37BD465DF8047B70474B
:103E70000008014000100140E200002080B483B03F
:103E800000AF0346FB71FB79002B0DD0FB79042BAF
:103E90000AD82549244B1B69FA790332012000FA1C
:103EA00002F213430B612AE0FB79042B0DD9FB7955
:103EB000072B0AD81D491D4B1B69FA7905320120D1
:103EC00000FA02F213430B6119E0FB79072B0DD9BD
:103ED000FB790B2B0AD81449134B1B69FA7903326F
:103EE000012000FA02F213430B6108E0FB790C2B6E
:103EF00005D10D4A0C4B1B6943F480731361FB79A8
:103F0000012202FA03F39BB2DB439AB2084B1B88EF
:103F10009BB29BB213409BB29AB2054B1A800C37EE
:103F2000BD465DF8047B7047000801400010014069
:103F3000E200002080B500AF012003F011FA034B2E
:103F40001B680133014A136080BD00BFA018002028
:103F500080B500AF022003F003FA034B5B68013326
:103F6000014A536080BD00BFA018002080B500AF9B
:103F7000042003F0F5F980BD80B500AF4FF48060F8
:103F800003F0EEF94FF4006003F0EAF94FF48050CB
:103F900003F0E6F94FF4004003F0BEF90346002BAE
:103FA00000F09F804FF4004003F0DAF99E4B9B68CD
:103FB00003F40043002B40F08F809C4B1B889BB286
:103FC000002B00F089809A4B9B8C9AB2994B1A80F7
:103FD000974B00229A84954B1B889BB21A46642308
:103FE00003FB02F3934A128892B293FBF2F39AB264
:103FF000914B1A80914B1B78DBB2002B61D0904B18
:104000001B78DBB2002B5CD18B4B1B889BB23C2B0B
:104010001BD9894B1B889BB24A2B16D8894B1B781E
:10402000DBB21A4601239340D843874B1B781A46CC
:10403000854B1B781946854B5B5CD9B2C3B20B40EC
:10404000DBB2D9B2814B995415E07E4B1B78DBB2C1
:104050001A46012303FA02F07B4B1B781A467A4B6F
:104060001B781946794B5B5CD9B2C3B20B43DBB208
:10407000D9B2764B9954734B1B78DBB2002B19D114
:10408000704B07221A70704B1B780133DAB26E4BFB
:104090001A706D4B1B78052B13D1694B01221A70D6
:1040A000694B00221A70674B07221A70684B012275
:1040B0001A7006E0634B1B78DBB2013BDAB2614B4E
:1040C0001A705E4B1B78DBB20133DAB25B4B1A70AD
:1040D000564B00221A8004E0554B9B8C9AB2534BEE
:1040E0001A804FF4804003F017F90346002B00F0CC
:1040F000B6804FF4804003F033F94B4B9B6803F4D8
:104100008043002B40F0A680484B1B889BB2002BBD
:1041100000F0A080464B9B8C9AB2464B1A80444BD1
:1041200000229A84414B1B889BB21A46642303FBEE
:1041300002F3404A128892B293FBF2F39AB23E4BDA
:104140001A803E4B1B78DBB2002B61D03C4B1B78B6
:10415000DBB2002B5CD1384B1B889BB23C2B1BD9AC
:10416000354B1B889BB24A2B16D8364B1B78DBB2DB
:104170001A4601239340D843334B1B781A46324BDF
:104180001B781946314B5B5CD9B2C3B20B40DBB232
:10419000D9B22E4B995415E02A4B1B78DBB21A4644
:1041A000012303FA02F0284B1B781A46264B1B7892
:1041B0001946264B5B5CD9B2C3B20B43DBB2D9B212
:1041C000224B99541F4B1B78DBB2002B19D11D4B8E
:1041D00007221A701C4B1B780133DAB21A4B1A7083
:1041E000194B1B78052B13D1154B01221A70164B56
:1041F00000221A70134B07221A70154B00221A70F6
:1042000006E0104B1B78DBB2013BDAB20D4B1A70A3
:104210000A4B1B78DBB20133DAB2084B1A70034B3E
:1042200000221A801BE000BF000C0140A800002003
:1042300000400140AA000020AC000020C500002082
:10424000C600002024000020C700002030190020F4
:1042500025000020024B9B8C9AB2024B1A8080BD35
:1042600000400140A800002080B58EB000AF03469A
:10427000FB71994B00221A70984B02221A70FB793D
:10428000012202FA03F3DAB2954B1B78DBB2DBB200
:104290001343DBB2DAB2924B1A7000233B6301F096
:1042A0009BFE38638D4B03221A7000233B82002350
:1042B00087F837300023FB620023BB6200237B6258
:1042C00000233B620023FB830023BB830023FB818D
:1042D00000237B8300233B830023BB810023FB75EA
:1042E0000023BB7501F078FE38623B6A7B627B4B32
:1042F00004221A70642003F0F1F87A4B5B88BB83C8
:10430000FB799BB21A461201D31A9BB203F21E63C9
:104310007B837A8B07F10E031046194606F0AEF93F
:10432000FB89DBB29BB2FB81642003F0D7F86E4BB4
:104330005B889AB26B4B5B889BB2D31AFB8302F00B
:1043400041FB6A4802F0DCFAFB8B694AA2FB0323BB
:104350005B099BB2DBB2184601F0C8FFFB8BDBB2F6
:10436000184601F0C3FF634802F0CAFA5D4B5B8850
:104370009BB21846FDF7D2FF0120002102F0FEFAA1
:104380005D4802F0BDFA584B5B889BB21846FDF7BA
:10439000C5FF5A4802F0B4FAFB891846FDF7BEFF84
:1043A0004FF4FA5003F09AF8FDF7F8FEFB89544AEF
:1043B000A2FB03235B089BB2FA8B9A4280F0E58054
:1043C000FB89BA8BD31AFB83FB8B1846002100F0C4
:1043D000FFFFC82003F082F806F0D8FB3F4B06220F
:1043E0001A70BB8BDAB23F4B5B889BB2DBB2D31A3D
:1043F000FB75FB891A461346DB001344414A82FBD6
:1044000003129210DB17D31ABB75002387F83730DD
:10441000B6E00A2003F062F897F837305733DAB283
:104420002E4B1A7000237B83FB799BB21A46120134
:10443000D31A9BB203F21F637B837B8B184601F078
:10444000E1FFB862FB799BB21A461201D31A9BB204
:1044500003F221637B837B8B184601F0D3FF7862E4
:10446000642003F03BF897F837309BB21A4692006D
:1044700013449BB203F2A7637B837A8B07F110038B
:104480001046194606F0FAF80023BB8600237B7518
:10449000642003F023F83B8A002B35D001F09CFD0B
:1044A00002467B6AD21ABB6AB2FBF3F3FB6264205A
:1044B00003F014F8094BC8221A70C82003F00EF854
:1044C0003B8ADAB2FB6AB3FBF2F102FB01F29B1A00
:1044D0007B750123BB8619E03000002022010020FB
:1044E0005C0100208C0000205001002054AE000828
:1044F0001F85EB5158AE00085CAE000860AE0008A6
:10450000ABAAAAAA676666660023BB86322002F0C1
:10451000E5FF3B8A1B0A3B833B8B002B2BD03B8B5D
:10452000FE2B28D83B8B013B3B8300237B83FB790D
:104530009BB23A8B9A4218D1BB8E002B15D0584BA8
:1045400063221A704FF4C87002F0C8FF97F8373032
:10455000184600F0AFF897F837306433DAB2504BB2
:104560001A704FF4FA6002F0B9FF642002F0B6FF4F
:104570004B4B08221A7097F83730013387F83730E1
:1045800097F83730082B7FF644AF322002F0A6FFB1
:10459000434B09221A70FB799BB21A461201D31AB7
:1045A0009BB203F227637B837A8B07F10C031046DF
:1045B000194606F063F8FDF7F1FD0120FFF704FC52
:1045C000BB891846FDF7C6FD354B0A221A70002339
:1045D0003B7500237B82334B1B783B75314B30227C
:1045E0001A70322002F07AFFFB799BB21A46120150
:1045F000D31A9BB203F21D637B830023FB817A8B6A
:1046000007F10E031046194606F038F8FB891A46E2
:10461000BB891046194600F091FEFB799BB21A4601
:104620001201D31A9BB203F225637B837B8B18465E
:10463000396B01F0B5FC1A4B0C221A7044F620605D
:1046400002F04CFF174A3B7D1370174B1B78DBB20F
:1046500023F00803DAB2144B1A70114B0D221A70B2
:104660004FF47A7002F03AFFFDF798FDFB790122D2
:1046700002FA03F3DBB2DB43DAB20C4B1B78DBB29A
:10468000DBB21340DBB2DAB2084B1A70084B0122DE
:104690001A70C82002F022FF3837BD4680BD00BF27
:1046A0002201002026000020230100205C010020C0
:1046B0003000002080B586B000AF0346FB71FDF7E7
:1046C0006DFD322002F00AFF0023FB810023BB8135
:1046D00000237B810023FB8200233B61FB799BB29B
:1046E0001A46920013449BB203F2A663FB82FA8A35
:1046F00007F10E031046194605F0C0FF322002F004
:10470000EDFEFB799BB21A46920013449BB203F272
:10471000A563FB82FA8A07F10C031046194605F0DF
:10472000ADFFFB79C3F1FF2303F57F03C833DAB292
:10473000184B1A70282002F0D1FE06F027FA002349
:10474000FB82FB799BB21A46920013449BB203F59D
:10475000D563FB82282002F0C1FEFA8A07F10A0322
:104760001046194605F08AFF282002F0B7FE06F031
:104770000DFA7989FA89BB89DBB2084611461A46D7
:10478000012300F029FD4FF4C87002F0A7FE18378E
:10479000BD4680BD2201002080B584B000AF034635
:1047A0000A46FB711346BB710023FB81BB79002BCA
:1047B0000ED0FB79012202FA03F3DAB2334B1B78F5
:1047C000DBB2DBB21343DBB2DAB2304B1A700FE06C
:1047D000FB79012202FA03F3DBB2DB43DAB22B4BA3
:1047E0001B78DBB2DBB21340DBB2DAB2274B1A70B4
:1047F000BB79012B02D10023BB7113E0BB79652B80
:104800000CD107F10E0340F21760194605F036FF90
:10481000022002F063FEFB89BB7103E0BB79C3F1A8
:104820006403BB71FB79002B08D1194ABB799BB299
:10483000194689000B445B009BB29386FB79012BE0
:1048400008D1134ABB799BB2194689000B445B001F
:104850009BB21387FB79022B08D10D4ABB799BB21F
:10486000194689000B445B009BB29387FB79032BAD
:1048700009D1074ABB799BB2194689000B445B00FA
:104880009BB2A2F840301037BD4680BD5E010020CB
:104890000004004080B584B000AF03460A46FB71B7
:1048A0001346BB710023FB6001F096FB0346013306
:1048B000FB6002E0022002F011FE01F08DFB0246D7
:1048C000FB689A42F6D301F087FB0246BB7913449A
:1048D000FB60FB7918460121FFF75EFF02E0022032
:1048E00002F0FCFD01F078FB0246FB689A42F6D329
:1048F000FB7918460021FFF74FFF1037BD4680BDFA
:1049000080B58CB000AF786000237B6200233B62EF
:104910000023FB610023FB620023BB6100237B615A
:1049200000237B820023BB8100237B74002387F854
:104930002B3000233B74002387F82A300023FB81AF
:10494000FDF72CFC44F6206002F0C8FD002387F838
:104950002B30D4E00A2002F0C1FD97F82B309BB237
:104960001A461201D31A9BB203F221637B827B8A1F
:10497000184601F047FDB86197F82B309BB21A46F4
:104980001201D31A9BB203F223637B827B8A1846FF
:1049900001F038FD7861322002F0A0FD97F82B304D
:1049A0009BB21A461201D31A9BB203F21E637B829A
:1049B0007A8A07F10C031046194605F05FFEBB89A1
:1049C0001B0A9BB287F82A30322002F087FD4F4B3A
:1049D0001B68DAB297F82A3013403B743B7C002BFB
:1049E00003D0012387F82A3002E0002387F82A3019
:1049F000142002F073FD00233B7497F82B309BB218
:104A00001A461201D31A9BB203F227637B8200235A
:104A1000BB817A8A07F10C031046194605F02EFE79
:104A20004FF4FA7002F05AFDBB89FB8197F82B30E6
:104A30009BB21A461201D31A9BB203F225637B8202
:104A40007B8A184601F0DEFC386297F82B309BB267
:104A50001A461201D31A9BB203F21F637B827B8A30
:104A6000184601F0CFFCF8610A2002F037FD01F092
:104A7000B3FA02463B6A9A4206D901F0ADFA024601
:104A80003B6AD31AFB6201E00023FB6201F0A4FA47
:104A90007862FA6AFB699A4217D97A6ABB699A42C4
:104AA00013D97A6A7B699A420FD2FB89002B0CD00A
:104AB00097F82A30012B08D1154B1B68002B04D125
:104AC00097F82B301846FFF7CFFB322002F006FD97
:104AD000104B1B78642B0AD90D4B01221A600D4B29
:104AE0001B78184600F00EFD094B00221A60322098
:104AF00002F0F4FC97F82B30013387F82B3097F84D
:104B00002B30072B7FF626AF20E700BF24010020C3
:104B1000680100206101002080B582B000AF78609C
:104B200002F05CFD0920FFF74FF906F02FF87868D6
:104B300000F026FE0320FFF747F906F027F8786813
:104B400000F01EFE0A20FFF73FF906F01FF8786814
:104B500000F016FE0B20FFF737F906F017F878681B
:104B600000F00EFE0820FFF72FF906F00FF8786826
:104B700000F006FE0C20FFF727F906F007F802F018
:104B80003BFD0837BD4680BD80B582B000AF786080
:104B900002F024FD0920FFF771F905F0F7FF7868AE
:104BA00000F0EEFD0320FFF769F905F0EFFF7868EC
:104BB00000F0E6FD0A20FFF761F905F0E7FF7868ED
:104BC00000F0DEFD0B20FFF759F905F0DFFF7868F4
:104BD00000F0D6FD0820FFF751F905F0D7FF7868FF
:104BE00000F0CEFD0C20FFF749F905F0CFFF02F0F1
:104BF00003FD0837BD4680BD80B582B000AF786048
:104C000002F0ECFC0C20FFF7DFF805F0BFFF78683E
:104C100000F0B6FD0820FFF7D7F805F0B7FF786879
:104C200000F0AEFD0B20FFF7CFF805F0AFFF78687E
:104C300000F0A6FD0A20FFF7C7F805F0A7FF786887
:104C400000F09EFD0320FFF7BFF805F09FFF786896
:104C500000F096FD0920FFF7B7F805F097FF02F086
:104C6000CBFC0837BD4680BD80B582B000AF786010
:104C700002F0B4FC0C20FFF701F905F087FF78681B
:104C800000F07EFD0820FFF7F9F805F07FFF786857
:104C900000F076FD0B20FFF7F1F805F077FF78685C
:104CA00000F06EFD0A20FFF7E9F805F06FFF786865
:104CB00000F066FD0320FFF7E1F805F067FF786874
:104CC00000F05EFD0920FFF7D9F805F05FFF02F064
:104CD00093FC0837BD4680BD80B582B000AF7860D8
:104CE00002F07CFC0A20FFF76FF80B20FFF76CF84E
:104CF00005F04CFF786800F043FD0320FFF764F8EF
:104D00000820FFF761F805F041FF786800F038FDF2
:104D10000920FFF759F80C20FFF756F805F036FF89
:104D200002F06AFC0837BD4680BD00BF80B582B086
:104D300000AF786002F052FC0A20FFF79FF80B20CA
:104D4000FFF79CF805F022FF786800F019FD0320BA
:104D5000FFF794F80820FFF791F805F017FF78683F
:104D600000F00EFD0920FFF789F80C20FFF786F808
:104D700005F00CFF02F040FC0837BD4680BD00BFC7
:104D800080B582B000AF786002F028FC0920FFF700
:104D90001BF805F0FBFE786800F0F2FC0320FFF73B
:104DA00013F80920FFF76AF805F0F0FE786800F0C4
:104DB000E7FC0A20FFF708F80320FFF75FF805F08B
:104DC000E5FE786800F0DCFC0B20FEF7FDFF0A2012
:104DD000FFF754F805F0DAFE786800F0D1FC0820FF
:104DE000FEF7F2FF0B20FFF749F805F0CFFE7868D9
:104DF00000F0C6FC0C20FEF7E7FF0820FFF73EF8A6
:104E000005F0C4FE786800F0BBFC0C20FFF736F814
:104E100005F0BCFE02F0F0FB0837BD4680BD00BFC8
:104E200080B582B000AF786002F0D8FB05F0AEFE2E
:104E30000C20FEF7C9FF786800F0A2FC0820FEF7FE
:104E4000C3FF0C20FFF71AF805F0A0FE786800F009
:104E500097FC0B20FEF7B8FF0820FFF70FF805F0CE
:104E600095FE786800F08CFC0A20FEF7ADFF0B2061
:104E7000FFF704F805F08AFE786800F081FC032053
:104E8000FEF7A2FF0A20FEF7F9FF05F07FFE786823
:104E900000F076FC0920FEF797FF0320FEF7EEFFF7
:104EA00005F074FE786800F06BFC0920FEF7E6FF61
:104EB00005F06CFE02F0A0FB0837BD4680BD00BFC8
:104EC00080B584B000AF0346FB710023FB73FB7910
:104ED0001846FEF779FF0023FB7307E005F056FE46
:104EE0000A2002F0FBFAFB7B0133FB73FB7B312BC7
:104EF000F4D9FB791846FEF7C1FF1037BD4680BDD7
:104F000080B582B000AF0023FB710023FB7106E087
:104F1000FB791846FFF7D4FFFB790133FB71FB796E
:104F20000E2BF5D90023BB714FF47A70FFF7F4FD17
:104F30004FF47A70FFF728FE4FF4FA7002F0CEFAC1
:104F40004FF47A70FFF758FE4FF47A70FFF78CFE3B
:104F50004FF4FA7002F0C2FAFDF720F90023BB719A
:104F600012E0BB794FF4FA7202FB03F31846FFF725
:104F700007FFBB794FF4FA7202FB03F31846FFF701
:104F80004FFFBB790133BB71BB79042BE9D9642096
:104F900002F0A4FA4FF47A70FFF79EFE642002F04C
:104FA0009DFA4FF47A70FFF7C1FE4FF4FA7002F0E9
:104FB00095FA0837BD4680BD80B582B000AF0023AA
:104FC000FB710023BB710023BB711BE0FFF798FF4F
:104FD0000023FB7110E0FB791846FEF7F5FEC820B0
:104FE00002F07CFAFB791846FEF748FFC82002F071
:104FF00075FAFB790133FB71FB790F2BEBD9BB7988
:105000000133BB71BB79042BE0D90220012101F0EF
:1050100079FAC82002F062FA0220002101F072FA47
:10502000C82002F05BFA0220012101F06BFAC820CF
:1050300002F054FA0220002101F064FAC82002F0C4
:105040004DFA0023FB710EE0444AFB799BB21946EE
:1050500089000B445B009BB293860A2002F03EFA63
:10506000FB790133FB71FB793B2BEDD93C23FB71C1
:105070000EE03A4AFB799BB2194689000B445B006B
:105080009BB293860A2002F029FAFB79013BFB715F
:10509000FB79002BEDD1314B4FF47A729A860023C5
:1050A000FB710EE02D4AFB799BB2194689000B4437
:1050B0005B009BB213870A2002F010FAFB790133E0
:1050C000FB71FB793B2BEDD9244B4FF47A721A8795
:1050D0000023FB710EE0214AFB799BB2194689003F
:1050E0000B445B009BB293870A2002F0F7F9FB792F
:1050F0000133FB71FB793B2BEDD9184B4FF47A72DE
:105100009A870023FB710FE0144AFB799BB2194682
:1051100089000B445B009BB2A2F840300A2002F0E9
:10512000DDF9FB790133FB71FB793B2BECD90B4BA0
:105130004FF47A72A3F84020094B00229A864FF46C
:105140007A7002F0CBF9064B4FF47A729A864FF4DC
:105150007A7002F0C3F90837BD4680BD00040040F4
:10516000002C014080B584B000AF0346FB800023D3
:10517000BB600023FB60FB88BB60BB689BB2BB606D
:1051800000F02AFF0246BB681344BB60FDF706F837
:105190000120FEF719FE0420FEF716FE00F01CFFAA
:1051A000F86009E000F018FFF860C82002F096F9F6
:1051B00000F0E2FB05F0EAFCFA68BB689A42F1D322
:1051C00000F00AFC4FF4FA7002F088F9FCF7E6FFF1
:1051D0001037BD4680BD00BF90B587B000AF044614
:1051E000084611461A462346FB800346BB800B4601
:1051F000FB701346BB7000233B610023FB60002360
:105200007B6100F0E9FE7861BB88FB60FB689BB2C4
:10521000FB60FA687B691344FB60FB883B613B6978
:105220009BB23B613A697B6913443B61FCF7B6FF73
:105230000120FEF7C9FD0420FEF7C6FD642002F040
:105240004DF900F099FBBB88DAB2F978BB780846D3
:1052500011461A46FDF7FAFF0FE000F0BDFE786137
:1052600005F094FCC82002F039F9BB88DAB20D4B86
:105270001A7000F081FB05F089FC7A693B699A425B
:10528000EBD300F0A9FBFB7818460021FFF784FA66
:105290004FF4FA7002F022F9FCF780FF1C37BD468C
:1052A00090BD00BF2201002080B584B000AF03464E
:1052B0000A46FB8013467B710023BB600023FB6022
:1052C000FB88BB60BB689BB2BB6000F085FE0246FA
:1052D000BB681344BB60FCF761FF0120FEF774FD5F
:1052E0007B791846FEF770FD00F076FEF86009E065
:1052F00000F072FEF860C82002F0F0F800F03CFB0D
:1053000005F044FCFA68BB689A42F1D300F064FBF4
:10531000BB680533BB6007E000F05EFEF860C820A4
:1053200002F0DCF805F032FCFA68BB689A42F3D36D
:10533000FCF734FF1037BD4680BD00BF80B584B098
:1053400000AF03460A46FB801346BB800023BB60C8
:105350000023FB60FB88BB60BB689BB2BB6000F0B6
:105360003BFE0246BB681344BB60FCF717FF0120FD
:10537000FEF72AFDBB881846FCF7ECFE00F02CFE79
:10538000F86009E000F028FEF860C82002F0A6F8F6
:1053900000F0F2FA05F0FAFBFA68BB689A42F1D322
:1053A00000F01AFBBB680533BB6007E000F014FE99
:1053B000F860C82002F092F805F0E8FBFA68BB68D4
:1053C0009A42F3D3FCF7EAFE1037BD4680BD00BF1A
:1053D00080B584B000AF03460A46FB8013467B715C
:1053E0000023FB81104B5B88FB81FCF7D7FE042078
:1053F000FEF7EAFC0AE00220FEF7E6FC00F0BCFA49
:105400004FF4C87002F06AF805F0C0FB064B5B88E9
:105410009BB2FA889A42EED300F0DEFAFCF7BEFEA9
:105420001037BD4680BD00BF8C00002080B584B021
:1054300000AF03460A46FB8013467B710023FB81C5
:105440000023BB81FCF7AAFE144B5B88FB81FA8921
:10545000FB88D31ABB810420FEF7B6FC0AE00220C9
:10546000FEF7B2FC00F088FA4FF4C87002F036F88C
:1054700005F08CFB094B5B889BB2BA899A42EED34C
:1054800000F0AAFA0220FEF7F9FC4FF47A7002F05D
:1054900025F8FCF783FE1037BD4680BD8C00002048
:1054A00080B584B000AF03460A46FB8013467B718B
:1054B0000023FB81FCF772FE114B5B88FB8101200E
:1054C000FEF782FC0BE07B791846FEF77DFC00F0CE
:1054D00053FA4FF4C87002F001F805F057FB084B7F
:1054E0005B889BB2FA889A42EDD800F075FA4FF4C7
:1054F0007A7001F0F3FFFCF751FE1037BD4680BD16
:105500008C00002080B584B000AF0346FB710023FF
:10551000FB810023BB81FB79653B062B00F2938066
:1055200001A252F823F000BF475600084555000875
:105530006D5500088D550008CF550008F755000837
:105540001F560008434B1B78DBB21B029AB2414B3B
:105550005B78DBB29BB21344FB813E4B9B78DBB2A2
:10556000FA8910461946FFF79FFE6CE0394B1B780D
:10557000DBB21B029AB2374B5B78DBB29BB21344AF
:10558000FB81FB891846FFF7EDFD5CE0314B1B7892
:10559000DBB21B029AB22F4B5B78DBB29BB2134497
:1055A000FB812C4B9B78DBB21B029AB2294BDB7838
:1055B000DBB29BB21344BB81264B1B79DAB2254B7D
:1055C0005B79DBB2F889B989FFF706FE3BE0214B36
:1055D0001B78DBB21B029AB21E4B5B78DBB29BB22C
:1055E0001344FB811B4B9B78DBB2FA8910461946AA
:1055F000FFF7EEFE27E0174B1B78DBB21B029AB2D7
:10560000144B5B78DBB29BB21344FB81114B9B784C
:10561000DBB2FA8910461946FFF708FF13E00D4B7D
:105620001B78DBB21B029AB20A4B5B78DBB29BB2EF
:105630001344FB81074B9B78DBB2FA89104619466D
:10564000FFF72EFF00BF044B00221A701037BD4633
:1056500080BD00BFB01800206101002080B400AF01
:10566000BD465DF8047B704780B400AFBD465DF871
:10567000047B704780B500AF4FF4807001F04CFEA2
:105680000346002B26D04FF4807001F069FE294BB1
:105690009B681B0A03F00103002B16D1264B9B8C41
:1056A0009BB21A46254B1B889BB2D31A40F6B732E1
:1056B00093420FDC204B9B8C9AB2204B1B889BB2F1
:1056C000D31A9AB21E4B1A8004E01B4B9B8C9AB2E1
:1056D0001A4B1A804FF4007001F01EFE0346002B97
:1056E00026D04FF4007001F03BFE124B9B685B0A22
:1056F00003F00103002B16D10F4B9B8C9BB21A4673
:10570000104B1B889BB2D31A40F6B73293420FDC82
:10571000094B9B8C9AB20B4B1B889BB2D31A9AB243
:10572000074B5A8004E0044B9B8C9AB2054B1A80BD
:1057300080BD00BF000C0140000800407201002045
:105740008C0000207401002080B500AF0B480821B8
:10575000FBF708F80346002B03D008480821FBF7A5
:105760002BF806481021FAF7FDFF0346002B03D063
:1057700002481021FBF720F880BD00BF0008004060
:1057800080B485B000AF78600023FB607B68FA22AC
:1057900002FB03F3FB6000BFFB685A1EFA60002B9C
:1057A000FAD11437BD465DF8047B704780B582B0EE
:1057B00000AF0023FB710023FB710FE0FB799BB26C
:1057C00003F20A6399B2FB795B00074A1344084667
:1057D000194604F053FFFB790133FB71FB79072B6A
:1057E000ECD90837BD4680BD1001002080B49BB0C5
:1057F00000AF002387F86730002387F86630002366
:105800003B660023FB650023BB6500237B6500230B
:1058100087F866307FE0002387F867304CE097F820
:10582000672097F8673001335B0007F168010B448C
:1058300033F8281C530007F1680213440A4623F882
:10584000282C97F8672097F8673001335B0007F141
:1058500068010B4433F83C1C530007F16802134401
:105860000A4623F83C2C97F8672097F867300133F5
:105870005B0007F168010B4433F8501C530007F13B
:10588000680213440A4623F8502C97F8672097F8CB
:10589000673001335B0007F168010B4433F8641C87
:1058A000530007F1680213440A4623F8642C97F862
:1058B0006730013387F8673097F86730082BAED927
:1058C0002A4BDB6B9BB2A7F85230284B1B6C9BB268
:1058D000FB87264B5B6C9BB27B85244B9B6C9BB2FE
:1058E000FB82B7F852301A463B6E13443B66FB8F7F
:1058F0001A46FB6D1344FB657B8D1A46BB6D134442
:10590000BB65FB8A1A467B6D13447B6597F866304E
:10591000013387F8663097F86630082B7FF67BAF47
:105920003B6E134AA2FB0323DB089AB2114B1A8089
:10593000FB6D0F4AA2FB0323DB089AB20D4B5A8082
:10594000BB6D0B4AA2FB0323DB089AB2094B9A807A
:105950007B6D074AA2FB0323DB089AB2054BDA8072
:105960006C37BD465DF8047B704700BF00240140E2
:10597000CDCCCCCC5401002080B400AF134B00221E
:105980009A86134B1B78DBB243F00403DAB2104B58
:105990001A70104B1B78DBB223F00103DAB20D4B07
:1059A0001A700C4B1B78DBB223F00803DAB2094BF8
:1059B0001A70074B1B78DBB243F00903DAB2044BD1
:1059C0001A70BD465DF8047B704700BF002C014093
:1059D000280000202301002080B400AF074B4FF4C3
:1059E0007A729A86064B1B78DBB223F00103DAB297
:1059F000034B1A70BD465DF8047B7047002C0140D4
:105A00002800002080B500AF274B1B78DBB203F0E5
:105A10000103002B45D0254B1B78DBB203F00803B4
:105A2000DB10002B3DD1214B1B78DBB203F00103CF
:105A3000002B36D11E4B1B78DBB2302B31D11D4BE6
:105A40009B889AB21C4B1B889BB29A4205D91B4B70
:105A50004FF47A721A80FFF7BFFF164B9B889AB2F9
:105A6000174B1B889BB29A421AD2164B1B78DBB29B
:105A7000C3F164039BB21A46920013445B009AB2CE
:105A80000E4B1A80104A0F4B1B78DBB2C3F1640334
:105A90009BB2194689000B445B009BB2938602E0DF
:105AA00001E0FFF799FF80BD2800002023010020BE
:105AB0002600002054010020460100203200002072
:105AC0004801002043010020002C014080B588B02F
:105AD00000AF78600023FB770023BB770023BB6116
