:020000040800F2
:10000000BC1B00201908000839BC000845BC0008CA
:100010004DBC000855BC00085DBC00080000000095
:1000200000000000000000000000000031CA0008CD
:1000300065BC00080000000005CB000841CB0008AB
:10004000750800087508000875080008750800089C
:100050007508000875080008714C00088D4C0008F0
:10006000A94C000875080008750800087508000804
:1000700075080008750800088147000895470008C2
:1000800075080008750800087508000800000000E1
:10009000000000000000000000000000CD6B000820
:1000A00075080008B56B0008C16B000875080008EA
:1000B0007508000875080008716C000871BC00081C
:1000C00029C2000805BF000891C100087508000892
:1000D000750800080D2C0008750800087508000850
:1000E000B54C0008750800087508000800000000FD
:1000F0000000000000000000000000000000000000
:1001000000000000000000000000000000000000EF
:1001100000000000000000007508000875080008D5
:100120005FF808F180B588B000AF786007F1080388
:1001300018460AF031FAFB68094AA2FB03235B0B5D
:100140007A6802FB03F3FB610023FB6102E0FB69B9
:10015000013BFB61FB69002BF9D12037BD4680BD17
:100160005917B7D180B588B000AF786007F10803A0
:1001700018460AF011FAFB68094AA2FB03239B0DFB
:100180007A6802FB03F3FB610023FB6102E0FB6979
:10019000013BFB61FB69002BF9D12037BD4680BDD7
:1001A0006BCA5F6B80B485B000AF786039600023A4
:1001B000FB817B681B88FB817B682E4A934213D0AE
:1001C0007B682D4A93420FD07B68B3F1804F0BD0F0
:1001D0007B682A4A934207D07B68294A934203D01E
:1001E0007B68284A934208D1FB8923F07003FB8186
:1001F0003B685A88FB891343FB817B68224A934200
:100200000CD07B68214A934208D0FB8923F44073C9
:10021000FB813B68DA88FB891343FB817B68FA89A1
:100220001A803B689A887B689A853B681A887B6845
:100230001A857B680F4A93420FD07B680E4A93421F
:100240000BD07B68124A934207D07B68114A9342D5
:1002500003D07B68104A934204D13B681B7A9AB260
:100260007B681A867B6801229A821437BD465DF846
:10027000047B7047002C0140003401400004004022
:1002800000080040000C0040001000400014004036
:1002900000400140004401400048014080B485B066
:1002A00000AF7860396000237B810023FB8100234D
:1002B000BB817B681B8C9BB223F001039AB27B68E5
:1002C0001A847B681B8CFB817B689B88BB817B6865
:1002D0001B8B7B817B8923F070037B817B8923F0DF
:1002E00003037B813B681A887B8913437B81FB89ED
:1002F00023F00203FB813B681A89FB891343FB81CE
:100300003B685A88FB891343FB817B68244A9342EC
:100310000FD07B68234A93420BD07B68224A9342DA
:1003200007D07B68214A934203D07B68204A9342DE
:1003300023D1FB8923F00803FB813B685A89FB89A1
:100340001343FB81FB8923F00403FB813B689A88FC
:10035000FB891343FB81BB8923F48073BB81BB8979
:1003600023F40073BB813B689A89BB891343BB812B
:100370003B68DA89BB891343BB817B68BA899A8061
:100380007B687A891A833B68DA887B689A867B68FF
:10039000FA891A841437BD465DF8047B704700BFA4
:1003A000002C014000340140004001400044014065
:1003B0000048014080B485B000AF78603960002308
:1003C0007B810023FB810023BB817B681B8C9BB25C
:1003D00023F010039AB27B681A847B681B8CFB8124
:1003E0007B689B88BB817B681B8B7B817B8923F42B
:1003F000E0437B817B8923F440737B813B681B88CE
:100400001B029AB27B8913437B81FB8923F0200373
:10041000FB813B681B891B019AB2FB891343FB815B
:100420003B685B881B019AB2FB891343FB817B68A5
:10043000224A934203D07B68214A93422BD1FB8905
:1004400023F08003FB813B685B891B019AB2FB8927
:100450001343FB81FB8923F04003FB813B689B88AE
:100460001B019AB2FB891343FB81BB8923F4806390
:10047000BB81BB8923F40063BB813B689B899B00E4
:100480009AB2BB891343BB813B68DB899B009AB25C
:10049000BB891343BB817B68BA899A807B687A8960
:1004A0001A833B68DA887B681A877B68FA891A8422
:1004B0001437BD465DF8047B704700BF002C014037
:1004C0000034014080B485B000AF7860396000230B
:1004D0007B810023FB810023BB817B681B8C9BB24B
:1004E00023F480739AB27B681A847B681B8CFB812F
:1004F0007B689B88BB817B689B8B7B817B8923F09E
:1005000070037B817B8923F003037B813B681A881E
:100510007B8913437B81FB8923F40073FB813B6858
:100520001B891B029AB2FB891343FB813B685B88E2
:100530001B029AB2FB891343FB817B68224A9342D8
:1005400003D07B68214A93422BD1FB8923F40063BB
:10055000FB813B685B891B029AB2FB891343FB81D9
:10056000FB8923F48063FB813B689B881B029AB262
:10057000FB891343FB81BB8923F48053BB81BB8977
:1005800023F40053BB813B689B891B019AB2BB8952
:100590001343BB813B68DB891B019AB2BB891343C0
:1005A000BB817B68BA899A807B687A899A833B6829
:1005B000DA887B689A877B68FA891A841437BD4683
:1005C0005DF8047B704700BF002C014000340140FF
:1005D00080B485B000AF786039600023BB81002310
:1005E0007B810023FB817B681B8C9BB223F48053AF
:1005F0009AB27B681A847B681B8C7B817B689B88A2
:10060000FB817B689B8BBB81BB8923F4E043BB816F
:10061000BB8923F44073BB813B681B881B029AB2E1
:10062000BB891343BB817B8923F400537B813B68E7
:100630001B891B039AB27B8913437B813B685B88D0
:100640001B039AB27B8913437B817B68124A9342D6
:1006500003D07B68114A93420AD1FB8923F480437B
:10066000FB813B689B899B019AB2FB891343FB8109
:100670007B68FA899A807B68BA899A833B68DA88B2
:100680007B68A3F840207B687A891A841437BD46BA
:100690005DF8047B704700BF002C0140003401402E
:1006A00080B483B000AF78607B684FF6FF729A80A9
:1006B0007B6800221A807B680022DA807B68002237
:1006C0005A807B6800221A720C37BD465DF8047BA5
:1006D000704700BF80B483B000AF78607B680022B1
:1006E0001A807B6800225A807B6800229A807B688F
:1006F0000022DA807B6800221A817B6800225A81FE
:100700007B6800229A817B680022DA810C37BD4623
:100710005DF8047B704700BF80B483B000AF7860A1
:100720000B46FB70FB78002B08D07B681B889BB2C4
:1007300043F001039AB27B681A8007E07B681B884C
:100740009BB223F001039AB27B681A800C37BD4636
:100750005DF8047B704700BF80B483B000AF786061
:100760000B46FB70FB78002B0CD07B68B3F8443051
:100770009BB26FEA43436FEA53439AB27B68A3F894
:10078000442009E07B68B3F844309BB2C3F30E0306
:100790009AB27B68A3F844200C37BD465DF8047B11
:1007A000704700BF80B485B000AF78600B467B8097
:1007B0000023FB730023BB8100237B817B681B8AA2
:1007C0009AB27B881340BB817B689B899AB27B88F5
:1007D00013407B81BB89002B05D07B89002B02D085
:1007E0000123FB7301E00023FB73FB7B18461437E6
:1007F000BD465DF8047B704780B483B000AF78607D
:100800000B467B807B88DB439AB27B681A820C376D
:10081000BD465DF8047B704780B582B000AF104BD9
:100820007B60104B3B6007E03B681A1D3A607A68BA
:10083000111D796012681A603B680B4A9342F3D32A
:100840000A480B494FF000028842B8BF40F8042B19
:10085000FADB00F043FE09F0A7F90837BD4680BD7A
:10086000C0E3000800000020840000208800002071
:10087000C017002080B400AFFEE700BF80B400AF17
:1008800062B6BD465DF8047B704700BF80B400AF20
:1008900072B6BD465DF8047B704700BF80B586B078
:1008A00000AFF860B9607A60FB7000237B610023C1
:1008B0003B61FB689B889BB243F480739AB2FB68F0
:1008C0009A80FB78022B40F08C80F868B9687A68CF
:1008D000012300F08DFDFB689B889BB243F480539D
:1008E0009AB2FB689A80FB689B889BB243F40063D2
:1008F0009AB2FB689A804FF6FF733B61FB681B88D6
:100900009BB243F480739AB2FB681A8006E03B699D
:100910005A1E3A61002B01D1002379E2FB689B8AC1
:100920009BB203F00103002BF1D04FF6FF733B6144
:1009300097F8203043F0010387F82030964A97F863
:1009400020301370944B1B78DBB29AB2FB681A828A
:1009500006E03B695A1E3A61002B01D1002357E2A1
:10096000FB689B8A9BB203F00203002BF1D0FB686B
:100970001B8B9BB27B61FB68884A934210D100BFFE
:100980004FF000700CF01CFA0346002BF8D084489E
:1009900000210CF0F9F94FF000700CF03BFA0FE079
:1009A00000BF4FF400300CF00BFA0346002BF8D0D8
:1009B0007C4800210CF0E8F94FF400300CF02AFAE2
:1009C000FB681B889BB243F400739AB2FB681A80E1
:1009D00000BFFB681B889BB203F40073002BF8D1A7
:1009E00015E2FB78002B40F0CA817B68012B72D1A5
:1009F0004FF6FF733B61FB681B889BB243F4807327
:100A00009AB2FB681A8006E03B695A1E3A61002BD5
:100A100001D10023FCE1FB689B8A9BB203F0010338
:100A2000002BF1D097F8203043F0010387F82030F5
:100A3000594A97F820301370574B1B78DBB29AB2A3
:100A4000FB681A824FF6FF733B6106E03B695A1E52
:100A50003A61002B01D10023DAE1FB689B8A9BB24B
:100A600003F00203002BF1D0FB681B889BB223F438
:100A700080639AB2FB681A80FFF708FFFB681B8B44
:100A80009BB27B61FB681B889BB243F400739AB2F4
:100A9000FB681A80FFF7F2FE00BFFB689B8A9BB2DF
:100AA00003F04003002BF8D0FB681B8A9BB2DAB23C
:100AB000BB681A7000BFFB681B889BB203F400730D
:100AC000002BF8D1FB681B889BB243F480639AB279
:100AD000FB681A809BE17B68022B40F0A380FB68D7
:100AE0001B889BB243F400639AB2FB681A804FF6EE
:100AF000FF733B61FB681B889BB243F480739AB21F
:100B0000FB681A8006E03B695A1E3A61002B01D14E
:100B100000237DE1FB689B8A9BB203F00103002B5D
:100B2000F1D04FF6FF733B6197F8203043F001039B
:100B300087F82030184A97F820301370164B1B782E
:100B4000DBB29AB2FB681A8206E03B695A1E3A6130
:100B5000002B01D100235BE1FB689B8A9BB203F071
:100B60000203002BF1D0FFF791FEFB681B8B9BB2B9
:100B70007B61FB681B889BB223F480639AB2FB689D
:100B80001A80FFF77BFE0FE03B695A1E3A61002B8B
:100B90000AD100233CE100BF181700200054004098
:100BA0008000024058000240FB689B8A9BB203F021
:100BB0000403002BE8D0FFF769FEF86801210CF070
:100BC0009BFAFB681B8A9BB2DAB2BB681A70FFF70C
:100BD00055FEBB680133BB60FB681B8A9BB2DAB26F
:100BE000BB681A7006E03B695A1E3A61002B01D1BE
:100BF00000230DE1FB681B889BB203F40073002BFC
:100C0000F1D1FB681B889BB243F480639AB2FB6806
:100C10001A80FB681B889BB223F400639AB2FB68BE
:100C20001A80F4E04FF6FF733B61FB681B889BB2B0
:100C300043F480739AB2FB681A8006E03B695A1E3F
:100C40003A61002B01D10023E2E0FB689B8A9BB252
:100C500003F00103002BF1D04FF6FF733B6197F8CF
:100C6000203043F0010387F820306B4A97F820309A
:100C70001370694B1B78DBB29AB2FB681A8206E0EC
:100C80003B695A1E3A61002B01D10023C0E0FB688A
:100C90009B8A9BB203F00203002BF1D0FB681B8BF5
:100CA0009BB27B6157E07B68032B13D000BFFB68CE
:100CB0009B8A9BB203F00403002BF8D0FB681B8ACD
:100CC0009BB2DAB2BB681A70BB680133BB607B6849
:100CD000013B7B607B68032B3DD100BFFB689B8A97
:100CE0009BB203F00403002BF8D0FB681B889BB277
:100CF00023F480639AB2FB681A80FFF7C7FDFB6894
:100D00001B8A9BB2DAB2BB681A70BB680133BB6046
:100D1000FB681B889BB243F400739AB2FB681A808D
:100D2000FB681B8A9BB2DAB2BB681A70FFF7A6FD9C
:100D3000BB680133BB6000BFFB689B8A9BB203F0BA
:100D40004003002BF8D0FB681B8A9BB2DAB2BB6869
:100D50001A7000237B607B68002BA4D100BFFB6866
:100D60001B889BB203F40073002BF8D1FB681B882F
:100D70009BB243F480639AB2FB681A8047E0FB6839
:100D80009B889BB243F400739AB2FB689A80FB681D
:100D90009B889BB243F480639AB2FB689A801F4B96
:100DA00001221A6097F8203043F0010387F82030C1
:100DB000194A97F820301370FB68194A934203D1FF
:100DC000184A7B68136002E0174A7B681360FB686F
:100DD0001B889BB243F480739AB2FB681A8000BFF1
:100DE000FB681B889BB203F48073002BF8D100BF13
:100DF000FB681B8B9BB203F00203002BF8D1FB684E
:100E00001B889BB243F480639AB2FB681A8001236B
:100E100018461837BD4680BD1817002088000020EE
:100E200000540040201700201C17002080B586B019
:100E300000AFF860B9607A60FB7000237B6100232B
:100E40003B61FB78022B40F0B7804FF6FF733B61AC
:100E5000F868B9687A68002300F0CAFAFB689B88D2
:100E60009BB243F400639AB2FB689A80FB681B88CC
:100E70009BB243F480739AB2FB681A8008E03B6926
:100E80005A1E3A61002B01D1002357E10CF0FCFD02
:100E9000FB689B8A9BB203F00103002BEFD04FF657
:100EA000FF733B6197F8203023F0010387F820306F
:100EB000A44A97F820301370A24B1B78DBB29AB289
:100EC000FB681A8208E03B695A1E3A61002B01D187
:100ED000002333E10CF0D8FDFB689B8A9BB203F042
:100EE0000203002BEFD04FF6FF733B61FB681B8BB7
:100EF0009BB27B61FB68944A934210D100BF4FF4D0
:100F000000100BF05DFF0346002BF8D08F48002146
:100F10000BF03AFF4FF400100BF07CFF1BE008E0F1
:100F20003B695A1E3A61002B01D1002306E10CF007
:100F3000ABFD4FF400500BF043FF0346002BEFD006
:100F40004FF6FF733B61824800210BF01DFF4FF409
:100F500000500BF05FFF08E03B695A1E3A61002B1E
:100F600001D10023EAE00CF08FFDFB689B8A9BB265
:100F700003F00403002BEFD04FF6FF733B61FB68D7
:100F80001B889BB243F400739AB2FB681A8008E096
:100F90003B695A1E3A61002B01D10023CEE00CF0D0
:100FA00073FDFB681B889BB203F40073002BEFD129
:100FB0004FF6FF733B61C0E0FB78002B7DD14FF60D
:100FC000FF733B61FB681B889BB243F480739AB24A
:100FD000FB681A8008E00CF057FD3B695A1E3A6125
:100FE000002B01D10023A9E0FB689B8A9BB203F090
:100FF0000103002BEFD097F8203023F0010387F88E
:101000002030504A97F8203013704E4B1B78DBB2DB
:101010009AB2FB681A824FF6FF733B6108E00CF04E
:1010200033FD3B695A1E3A61002B01D1002385E054
:10103000FB689B8A9BB203F00203002BEFD0FB6896
:101040001B8B9BB27B61BB681B789AB2FB681A82D0
:10105000BB680133BB607B68013B7B600FE000BF76
:10106000FB689B8A9BB203F00403002BF8D0BB689B
:101070001B789AB2FB681A82BB680133BB607B683D
:101080005A1E7A60002BEAD100BFFB689B8A9BB294
:1010900003F00403002BF8D0FB681B889BB243F4D9
:1010A00000739AB2FB681A8000BFFB681B889BB272
:1010B00003F40073002BF8D13FE0FB689B889BB2E0
:1010C00043F400739AB2FB689A80FB689B889BB2DA
:1010D00043F480639AB2FB689A801E4B00221A6028
:1010E00097F8203023F0010387F82030154A97F84D
:1010F00020301370FB68144A934203D1164A7B6870
:10110000136002E0154A7B681360FB681B889BB282
:1011100043F480739AB2FB681A8000BFFB681B8897
:101120009BB203F48073002BF8D100BFFB681B8BCC
:101130009BB203F00203002BF8D1012318461837A5
:10114000BD4680BD18170020005400406C000240CE
:101150004400024088000020201700201C170020B7
:1011600080B582B000AF0023FB710023BB71174B29
:101170009B680023BB71BB79002B23D1134A134B0F
:101180001B6943F480631361052005F0E7FE00232B
:10119000FB7114E00D4A0D4B5B6943F480635361AE
:1011A000052005F0DBFE094A084B1B6943F4806308
:1011B0001361052005F0D2FEFB790133FB71FB7949
:1011C000092BE7D90837BD4680BD00BF000C0140A0
:1011D00080B588B000AF78600920012109F0A8FA35
:1011E0000120012109F086FA7B68764A934223D1D7
:1011F0004FF40010012109F0B9FA4023BB83032307
:10120000BB771C23FB7707F11C036F48194600F0DE
:10121000D5FB8023BB8307F11C036B48194600F004
:10122000CDFB4FF40010012109F0DCFA4FF400105F
:10123000002109F0D7FA3EE04FF40063BB83482356
:10124000FB7707F11C036048194600F0B7FB4FF429
:101250008063BB831023FB7707F11C035A481946B0
:1012600000F0ACFBFFF77CFF4FF48000012109F098
:101270007DFA4FF48063BB830323BB771C23FB778A
:1012800007F11C035048194600F098FB1C23FB771C
:101290004FF40063BB8307F11C034B48194600F071
:1012A0008DFB4FF48000012109F09CFA4FF480007F
:1012B000002109F097FA00233B824BF6FF737B82F3
:1012C0003023BB824FF48063FB824FF480433B8327
:1012D0003E4BFB6007F10C033A4819460BF04AFEFF
:1012E0001023BB8207F10C03394819460BF042FE6C
:1012F0007B68344A934231D136480BF04BFC364B75
:10130000364A1A60344B00225A60334B10229A60DE
:10131000314B4FF6FF72DA602F4B00221A612E4BD1
:1013200080225A612C4B00229A612B4B0022DA61F9
:10133000294B00221A62284B4FF440525A62264B26
:1013400000229A62234824490BF0E0FC24480BF069
:1013500021FC234820490BF0D9FC30E021480BF058
:1013600019FC1D4B204A1A601B4B00225A601A4B75
:1013700010229A60184B4FF6FF72DA60164B00226B
:101380001A61154B80225A61134B00229A61124B4D
:101390000022DA61104B00221A620F4B4FF44052C8
:1013A0005A620D4B00229A620E480B490BF0AEFCBC
:1013B0000E480BF0EFFB0D4807490BF0A7FC203758
:1013C000BD4680BD00540040000C0140801A06005C
:1013D000005800406C000240EC1600201054004001
:1013E0008000024044000240105800405800024073
:1013F00080B584B000AFF860B9607A603B603B684C
:10140000002B2CD1BB682D4A53602C4B10229A60C4
:101410002A4A7B68D360FB68294A93420FD1274B45
:10142000284A1A60284800210BF0AEFC26482349C0
:101430000BF06CFC244801210BF0A6FC3BE01F4B99
:10144000224A1A60224800210BF09EFC20481B49CA
:101450000BF05CFC1E4801210BF096FC2BE0BB68F6
:10146000164A5360154B00229A60144A7B68D36079
:10147000FB68134A93420FD1104B124A1A60154869
:1014800000210BF081FC13480C490BF03FFC114884
:1014900001210BF079FC0EE0084B0C4A1A600E4853
:1014A00000210BF071FC0C4804490BF02FFC0A489A
:1014B00001210BF069FC1037BD4680BDEC16002001
:1014C00000540040105400406C000240105800408E
:1014D00044000240800002405800024080B500AF46
:1014E000164A164B1B6843F0010313601349134B54
:1014F0005A68134B13404B60104A104B1B6823F083
:10150000847323F4803313600C4A0C4B1B6823F460
:1015100080231360094A094B5B6823F4FE03536080
:10152000064B4FF41F029A60044B0022DA6200F06F
:101530000BF8044B4FF000629A6080BD001002402F
:101540000000FFF800ED00E080B500AF00F002F809
:1015500080BD00BF80B483B000AF00237B60002358
:101560003B60304A2F4B1B6843F4803313602D4B94
:101570001B6803F400333B607B6801337B603B688E
:10158000002B03D17B68B3F5A06FF0D1254B1B680E
:1015900003F00203002B02D001233B6001E0002393
:1015A0003B603B68012B37D11E4A1E4B5B68536082
:1015B0001C4A1C4B5B6853601A4A1A4B5B685360A9
:1015C000184A184B5B6823F47C135360154A154B7B
:1015D0005B6843F498135360124A124B1B6843F044
:1015E0008073136000BF0F4B1B6803F00073002B68
:1015F000F9D00C4A0B4B5B6823F003035360094A94
:10160000084B5B6843F00203536000BF054B5B6807
:1016100003F00C03082BF9D10C37BD465DF8047BB1
:10162000704700BF0010024080B582B000AF034693
:10163000FB71FB791846012100F076F80837BD46AA
:1016400080BD00BF80B582B000AF0346FB710B4682
:10165000BB7113467B710C4AFB7913700A4ABB7944
:101660005371094A7B799371074B0822DA71064B53
:1016700000225A70BA797B791046194600F0E0F8DA
:101680000837BD4680BD00BF9000002080B584B003
:1016900002AF03460A46FB711346BB711F4B002283
:1016A0001A701F4B1A78BB791343DAB2FB791B010E
:1016B000DBB21343DBB243F00403DAB2174B1A7008
:1016C000164B1B781A464E230093164811460122EA
:1016D0000123FFF7ABFB642005F056FC104B1A7892
:1016E000BB791343DBB2DAB2FB791B01DBB21343E4
:1016F000DBB2DAB2094B1A70084B1B781A464E233C
:1017000000930848114601220123FFF78FFB642054
:1017100005F03AFC0837BD4680BD00BF0000002040
:101720008C0000200054004080B584B002AF034616
:101730000A46FB711346BB713E4B00221A7007200C
:1017400005F022FC3C4B1A78BB791343DAB2FB79E3
:1017500023F00F03DBB21343DBB243F00403DAB22E
:10176000344B1A70334B1B781A464E230093334880
:10177000114601220123FFF759FB022005F004FC6A
:101780002D4B1A78BB791343DBB2DAB2FB7923F025
:101790000F03DBB21343DBB2DAB2264B1A70254BD0
:1017A0001B781A464E230093244811460122012338
:1017B000FFF73CFB022005F0E7FB1F4B1A78BB79D3
:1017C0001343DAB2FB791B01DBB21343DBB243F004
:1017D0000403DAB2174B1A70164B1B781A464E23C5
:1017E00000931648114601220123FFF71FFB022038
:1017F00005F0CAFB104B1A78BB791343DBB2DAB29F
:10180000FB791B01DBB21343DBB2DAB2094B1A706E
:10181000084B1B781A464E230093084811460122B4
:101820000123FFF703FB0A2005F0AEFB0837BD4696
:1018300080BD00BF000000208C000020005400404C
:1018400080B584B002AF03460A46FB711346BB71F4
:10185000BB79012B07D9254B5B78DBB243F008033A
:10186000DAB2224B5A70214ABB7913713220FEF74B
:1018700059FC3220FEF756FC1D4B00221A701C4BFF
:101880000C221A701A4B1B781A464E2300931948E3
:10189000114601220123FFF7C9FA174B08221A70DB
:1018A00002200021FFF7F2FE322005F06DFB02203E
:1018B0000021FFF7EBFE322005F066FB0820002137
:1018C000FFF7E4FE322005F05FFB00200021FFF768
:1018D000DDFE0C200021FFF7D9FE322005F054FB7D
:1018E000322005F051FB0837BD4680BD9000002036
:1018F00000000020005400408C00002080B500AFA4
:10190000012000F011F840F6B830FEF72BFC80BD46
:1019100080B500AF034B0822DA71082000F012F8FE
:1019200080BD00BF9000002080B582B000AF0346AC
:10193000FB71FB7918460021FFF7F6FE0837BD461C
:1019400080BD00BF80B584B002AF0346FB710B4B76
:10195000DB79DAB2FB791343DAB2094B1A70084B20
:101960001B781A464E230093064811460122012394
:10197000FFF75CFA0837BD4680BD00BF900000202D
:10198000000000200054004080B584B000AF7860B3
:101990000023FB7309E0FB7B7A6813441B7818462D
:1019A000FFF742FEFB7B0133FB73FB7B7A6813443A
:1019B0001B78002BEFD11037BD4680BD80B489B0B5
:1019C00000AF786039600023FB6100233B61002396
:1019D000BB610023FB6000237B610023BB603B688D
:1019E000DB7803F00F03FB613B68DB7803F0100347
:1019F000002B05D03B689B781A46FB691343FB61BB
:101A00003B681B88DBB2002B44D07B681B687B6182
:101A10000023BB6138E0BB69012202FA03F3FB60DB
:101A20003B681B881A46FB6813403B613A69FB68B8
:101A30009A4226D1BB699B00FB60FB680F2202FA29
:101A400003F3BB60BB68DB437A6913407B61FB68CF
:101A5000FA6902FA03F37A6913437B613B68DB7826
:101A6000282B05D1BB6901229A407B685A6108E0A6
:101A70003B68DB78482B04D1BB6901229A407B6824
:101A80001A61BB690133BB61BB69072BC3D97B6892
:101A90007A691A603B681B88FF2B4AD97B685B68B0
:101AA0007B610023BB613EE0BB6908331A4601231A
:101AB0009340FB603B681B881A46FB6813403B6100
:101AC0003A69FB689A422BD1BB699B00FB60FB68BB
:101AD0000F2202FA03F3BB60BB68DB437A69134051
:101AE0007B61FB68FA6902FA03F37A6913437B614D
:101AF0003B68DB78282B07D1BB6908331A460123E2
:101B000003FA02F27B685A613B68DB78482B07D105
:101B1000BB6908331A46012303FA02F27B681A6193
:101B2000BB690133BB61BB69072BBDD97B687A698F
:101B30005A602437BD465DF8047B704780B483B09B
:101B400000AF78607B684FF6FF721A807B680222D4
:101B50009A707B680422DA700C37BD465DF8047B0E
:101B6000704700BF80B487B000AF78600B46FB7051
:101B700000233B610023FB6000237B610023BB60EB
:101B80007B68002B03DA2E4BDB697B6102E02C4B78
:101B90005B687B617B6803F470231B0CBB607B6814
:101BA0009BB23B617B6803F44013B3F5401F0AD13D
:101BB0007B6923F070637B61214A214B5B6823F0D2
:101BC0007063536021E07B6803F48013002B0ED018
:101BD000BB68032202FA03F3FB60FB68DB437A690C
:101BE00013407B617B6943F070637B610DE07B6830
:101BF0005B0D1B011A463B699340DB437A69134036
:101C00007B617B6943F070637B61FB78002B08D0BC
:101C10007B685B0D1B011A463B6993407A6913434D
:101C20007B617B68002B03DA054A7B69D36102E0A4
:101C3000034A7B6953601C37BD465DF8047B7047DF
:101C40000000014090B484B000AF03460A46FB7127
:101C50001346BB710023FB60BB7903F003039B00B9
:101C60000F2202FA03F3FB601649BB799B08DBB233
:101C70001846144ABB799B08DBB2023352F8232082
:101C8000FB68DB431A40831C41F823200D48BB79D5
:101C90009B08DBB21C460B4ABB799B08DBB20233C4
:101CA00052F82320F979BB7903F003039B0001FA72
:101CB00003F31A43A31C40F823201037BD4690BC01
:101CC000704700BF0000014080B483B000AF0346FE
:101CD000FB71084997F907305B09FA7902F01F0296
:101CE000012000FA02F241F823200C37BD465DF8CE
:101CF000047B704700E100E080B483B000AF03468E
:101D0000FB71094997F907305B09FA7902F01F0264
:101D1000012000FA02F2203341F823200C37BD469F
:101D20005DF8047B704700BF00E100E080B483B041
:101D300000AF03463960FB7197F90730002B0BDACF
:101D40000D49FB7903F00F03043B3A68D2B212014C
:101D5000D2B20B441A7609E0084997F907303A687D
:101D6000D2B21201D2B20B4483F800230C37BD4625
:101D70005DF8047B704700BF00ED00E000E100E08B
:101D800080B483B000AF0346FB71FB79002B02D017
:101D9000012B05D009E0074B4FF480425A6104E063
:101DA000044B4FF400425A6100BF0C37BD465DF84A
:101DB000047B7047000C014080B483B000AF034641
:101DC000FB71FB79002B02D0012B05D009E0074BFA
:101DD0004FF480421A6104E0044B4FF400421A6150
:101DE00000BF0C37BD465DF8047B7047000C014016
:101DF00080B582B000AF0346FB71FB79184600F056
:101E00009BFAFB791846FFF7BBFF45F2082005F067
:101E1000A5F8FB791846FFF7CFFFFB79184600F0CD
:101E200023FA094B07221A70084B00221A70084B3C
:101E300000221A70074B00221A70074B00221A80EA
:101E40000837BD4680BD00BF24000020CD00002023
:101E5000CF000020CE000020B000002080B584B06C
:101E600000AF0346FB710120FFF7A6FF192008F021
:101E700091FE0023FB7306E0FB7B0F4A0021D15447
:101E8000FB7B0133FB73FB7B042BF5D90B4B00224F
:101E90001A802520FFF730FFFB791846FFF7A8FFCF
:101EA000C82008F077FE2520FFF70EFF00F008F8A5
:101EB0001037BD4680BD00BFB8170020B00000201D
:101EC00080B582B000AF0A2008F064FE0023FB71E9
:101ED000804B1B78DBB2012B40F0B0810A2008F068
:101EE00059FE7D4B1B781B029AB27B4B5B789BB2F1
:101EF00013449AB2794B5A80774B9B781B029AB263
:101F0000754BDB789BB213449AB2744B1A80724BB8
:101F10001A79724B1A71714B5B889AB2704B1B889D
:101F20009BB29A420AD96D4B5B889AB26D4B1B8863
:101F30009BB29A4202D26C4B00221A70674B5B88AC
:101F40009AB2674B1B889BB29A4202D2664B01221F
:101F50001A70624B5B889AB2624B1B889BB29A42A2
:101F600002D9614B02221A705B480021042200F062
:101F70001BFA03461A46584B1B799A4240F05E8181
:101F80000A2008F007FE594B1B78DBB2002B03D068
:101F9000012B00F09B804EE10023FB7108E0FB79F0
:101FA000FA794D49895C524AD154FB790133FB716E
:101FB000FB79032BF3D90A2008F0ECFD474B1B8873
:101FC0009BB24C4AA2FB031292094FF47A7101FBB7
:101FD00002F29B1A9BB2484AA2FB03235B099BB205
:101FE000DBB23033DAB2454B1A703C4B1B889BB2E4
:101FF000414AA2FB03125209642101FB02F29B1A1F
:102000009BB23F4AA2FB0323DB089BB2DBB2303317
:10201000DAB23A4B5A70394B2E229A702F4B1B88EA
:102020009AB2374BA3FB0213D9080B469B000B4413
:102030005B00D31A9BB2DBB23033DAB22F4BDA70CB
:102040000A2008F0A7FD254B5B889BB2294AA2FB1A
:10205000031292094FF47A7101FB02F29B1A9BB2B0
:10206000254AA2FB03235B099BB2DBB23033DAB211
:10207000244B1A70194B5B889BB21F4AA2FB0312B8
:102080005209642101FB02F29B1A9BB21C4AA2FB7B
:102090000323DB089BB2DBB23033DAB2194B5A7040
:1020A000184B2E229A700D4B5B889AB2144BA3FBEF
:1020B0000213D9080B469B000B445B00D31A9BB25A
:1020C000DBB23033DAB20F4BDA70B4E00023FB71CD
:1020D00023E000BFCE000020B8170020B800002089
:1020E000AC000020AA000020AE0000202500002047
:1020F000C0000020D34D62101F85EB51D40000209A
:10210000CDCCCCCCD0000020FB79FA794D49895C4C
:102110004D4AD154FB790133FB71FB79032BF3D981
:102120000A2008F037FD494B1B889BB2484AA2FBA6
:10213000031292094FF47A7101FB02F29B1A9BB2CF
:10214000444AA2FB03235B099BB2DBB23033DAB211
:10215000414B1A703D4B1B889BB23E4AA2FB0312B7
:102160005209642101FB02F29B1A9BB23B4AA2FB7B
:102170000323DB089BB2DBB23033DAB2364B5A7042
:10218000354B2E229A70314B1B889AB2334BA3FBEE
:102190000213D9080B469B000B445B00D31A9BB279
:1021A000DBB23033DAB22C4BDA700A2008F0F2FCE2
:1021B000264B5B889BB2264AA2FB031292094FF47E
:1021C0007A7101FB02F29B1A9BB2224AA2FB032303
:1021D0005B099BB2DBB23033DAB2214B1A701B4B76
:1021E0005B889BB21B4AA2FB03125209642101FBCC
:1021F00002F29B1A9BB2194AA2FB0323DB089BB293
:10220000DBB23033DAB2164B5A70154B2E229A706D
:102210000E4B5B889AB2114BA3FB0213D9080B46F5
:102220009B000B445B00D31A9BB2DBB23033DAB2B3
:102230000B4BDA7000BF0B4B00221A700837BD46FB
:1022400080BD00BFB8170020C8000020B8000020E3
:10225000D34D62101F85EB51DC000020CDCCCCCCDF
:10226000D8000020CE00002080B586B000AF034625
:10227000FB7107F114031846FFF760FC08200121E9
:1022800008F056FA4823FB75FB79002B02D0012B8E
:1022900013D025E04FF48043BB8207F11403234899
:1022A0001946FFF78BFB28233B7201200E21FFF715
:1022B000C9FC4FF48043FB6012E04FF40043BB8243
:1022C00007F1140319481946FFF778FB28233B72DE
:1022D00001200F21FFF7B6FC4FF40043FB6000BF65
:1022E000134A134B9B6943F480339361114B0022D3
:1022F0001A85104B01221A8000233B7410237B7433
:102300000123BB7407F10C03184608F0D1FA0F2320
:102310007B720F23BB720123FB7207F1080318467F
:102320000AF0A4FD1837BD4680BD00BF000C014077
:10233000001002400040014080B487B000AF034667
:10234000FB7100233B610023FB60FB79012B0CD068
:10235000022B13D0002B12D1124B7B614FF0406344
:102360003B614FF08073FB6009E00E4B7B614FF0E7
:1023700040433B614FF08053FB6000E000BF7B694E
:102380005A683B69DB431A407B695A607B695A682B
:10239000FB681A437B695A601C37BD465DF8047BB5
:1023A000704700BF000C014080B485B000AF78607A
:1023B0000B46FB701346BB700023FB730023BB73FB
:1023C0000023BB730CE0BA7BFB7813441A467B688E
:1023D00013441A78FB7B1344FB73BB7B0133BB7341
:1023E000BA7BBB789A42EED3FB7B18461437BD46C6
:1023F0005DF8047B704700BF80B582B000AF404BF2
:102400001B78DBB203F004039B10012B72D13D4B10
:102410009B889BB240F68C22934204D905F05AFA6D
:10242000394B3D221A70012008F0B4FB06F0C6FDBE
:102430007860334B1B78DBB203F00803DB10012B11
:1024400022D1304B9B889AB2304B1B889BB29A4268
:102450001AD22B4B1B78DBB203F00103002B13D0F5
:102460002B4B1B687A689A420DD9274B3E221A7073
:1024700005F030FA274B1B78DBB243F00803DAB2E1
:10248000244B1A7009E008E006F098FD0246224B42
:102490001B889BB213441E4A1360012008F07AFB8C
:1024A0001E4B1B889AB21E4B1B889BB29A4207D2C6
:1024B0001A4B1B889BB2002B02D0002002F07CFB41
:1024C000012008F067FB154B5B889AB2144B5B88C0
:1024D0009BB29A4207D2114B5B889BB2002B02D071
:1024E000022002F069FB012008F054FB0B4B5B88D3
:1024F0000C4B5B88012008F04DFB0837BD4680BDC2
:10250000280000205C0100202A0100203C0100205E
:10251000380100202B0100203E01002098000020FF
:10252000540100205801002080B584B000AF03465C
:10253000FB800023FB730023BB730023FB7311E0BC
:10254000FA88FB7B42FA03F3DBB203F00103BB73AF
:10255000BB7B012B03D1FB7B184602F0D3FAFB7B3C
:102560000133FB73FB7B0F2BEAD91037BD4680BDCF
:1025700080B582B000AF0023FB710023FB7106E041
:10258000FB79184602F018FBFB790133FB71FB79EC
:102590000E2BF5D90837BD4680BD00BF80B584B08D
:1025A00000AF78600023BB600023FB6006F006FDEF
:1025B000F86006F003FD02467B681344BB6005F03B
:1025C00059F91E2008F0E6FA22E00020002107F069
:1025D0002FFD1C4807F0EEFC1B4B1B78DBB21846A6
:1025E00007F068F84FF4FA7008F0D4FA05F088F9AB
:1025F000BB68DAB2FB68DBB2D31ADAB2124B1A70DC
:1026000006F0DCFCF860322008F0C4FA0BF03CFA6B
:102610000E4B1B78DBB203F00803DB10002B03D159
:10262000FA68BB689A42D0D3094B1B78DBB223F01F
:102630000103DAB2064B1A7005F04CF91037BD46AB
:1026400080BD00BFA8DC00082A0100202B0100206B
:102650002800002080B582B000AF7860FFF788FFC7
:10266000042002F04FFA4FF4FA7008F093FA0120B8
:1026700002F048FA4FF4FA7008F08CFA7868FFF725
:102680008DFF0837BD4680BD80B582B000AF0346E0
:10269000FB711D4B1B78DBB2002B12D11B4B1B783F
:1026A000DBB25A1CD1B2194A11701946FB79184A8B
:1026B000A2FB03235B09DBB23033DAB2154B5A5469
:1026C00011E0124B1B78DBB25A1CD1B20F4A1170C9
:1026D0001946FB790E4AA2FB03235B09DBB23033B8
:1026E000DAB20D4B5A54FB79094AA2FB0312520984
:1026F000642101FB02F29B1ADBB2184606F0DAFFF6
:102700000837BD4680BD00BF150100201401002020
:102710001F85EB51F40000200401002080B584B037
:1027200000AF0023FB730023BB7300237B730023E4
:102730007B8100237B6000233B6007F09DFC744895
:1027400007F038FC4FF4FA7008F024FA714B0022BD
:102750001A7034E006F08EFE03461A466D4B1A706E
:102760000020002107F064FC6B4807F023FC6B4B52
:102770001B689BB2184600F0EDF9694807F01AFC97
:10278000664B5B689BB2184600F0E4F9012000211B
:1027900007F04EFC0A2008F0FDF9624807F00AFC39
:1027A0005E4B9B689BB2184600F0D4F95E4807F078
:1027B00001FC5A4BDB689BB2184600F0CBF9554B35
:1027C0001B78DBB2002BC5D007F056FC514B1B78B1
:1027D000DBB2013BBB734F4B00221A70534807F02A
:1027E000E9FBFB7B184605F07BFC0346FB73FB7B98
:1027F000184602F0E1F907F03FFC4D4807F0DAFB1C
:102800007B7B184605F06CFC03467B73BB7B434A1D
:1028100052F823307B6007F02FFC464807F0CAFBD4
:10282000FB7B184602F06EF93A4B00221A7019E051
:102830000A2008F0AFF906F01DFE03461A46354B94
:102840001A7007F019FC3C4807F0B4FB0120002186
:1028500007F0EEFBBB7B314A52F823309BB218469F
:1028600000F078F92B4B1B78DBB2022BE0D1BB7B5D
:102870002A4A52F823303B60FB7B184602F09CF951
:10288000C82008F087F93B689AB27B689BB2D31ADC
:102890009BB21A467B7B92FBF3F37B81BB7B274980
:1028A0007A8921F8132007F0E7FB254807F082FB1F
:1028B0003B689BB2184600F04DF90120002107F05B
:1028C000B7FB204807F076FB7B89184600F042F9F9
:1028D0007B8940F2426019460AF09AFE0D4B0022B5
:1028E0001A7008E00A2008F055F906F0C3FD034607
:1028F0001A46084B1A70074B1B78DBB2022BF1D13A
:1029000007F0BAFBC82008F045F91037BD4680BD76
:10291000B0DC000829010020BCDC000828170020DA
:10292000C0DC0008C4DC0008C8DC0008CCDC0008FF
:10293000DCDC0008ECDC0008FCDC000840170020B0
:102940000CDD000814DD000880B584B000AF03463C
:10295000FB710B46BB711346BB800023FB60BB8839
:10296000104A128892B202FB03F30F4AA2FB032320
:10297000DB08FB60002002F0C5F8BB790B4A0021A0
:1029800042F8231002E00A2008F004F9074B1A6805
:10299000FB689A42F7D3002002F00EF91037BD46CB
:1029A00080BD00BF40170020CDCCCCCC2817002024
:1029B00080B584B000AF0346FB710B46BB71134674
:1029C000BB800023BB600023FB8107F055FB56480A
:1029D00007F0F0FA08E00A2008F0DCF806F04AFDFB
:1029E00003461A46514B1A70504B1B78DBB2002B32
:1029F000F1D04E4B1B78DBB2022B01D1FFF78EFEDC
:102A000001237B7389E007F037FB494807F0D2FACE
:102A1000484B1B889BB2184600F09CF8FB8918466F
:102A2000052105F00FFC0346FB81FB89414A128812
:102A300092B202FB03F3404AA2FB0323DB08BB6014
:102A400007F01AFB3D4807F0B5FABB689BB2184681
:102A500000F080F80120002107F0EAFA384807F07A
:102A6000A9FABB79374A52F82330364A52F8233054
:102A70009BB2184600F06EF82C4B00221A70002012
:102A800002F040F8BB792F4A002142F823101BE0E6
:102A90000A2008F07FF807F0EFFA2B4807F08AFACF
:102AA000BB79284A52F823309BB2184600F052F8FE
:102AB0000120002107F0BCFA244807F07BFABB682C
:102AC0009BB2184600F046F81E4B1A68BB689A4243
:102AD000DED3002002F070F807F0CEFA1C4807F0B1
:102AE00069FA08E00A2008F055F806F0C3FC03462E
:102AF0001A460E4B1A700D4B1B78DBB2002BF1D02F
:102B00000A4B1B78DBB2022B05D101237B730D4BE3
:102B100000221A6001E000237B737B7B012B3FF4D2
:102B200072AF1037BD4680BD1CDD000829010020B2
:102B30002CDD000840170020CDCCCCCC38DD0008BF
:102B400040DD00082817002044DD00084CDD0008A7
:102B500050DD000880B582B000AF0346FB80FB88E3
:102B6000164AA2FB03235B0B9BB2DBB2184606F0AE
:102B7000A1FDFB88114AA2FB0312520B42F2107115
:102B800001FB02F29B1A9BB20D4AA2FB03235B09D5
:102B90009BB2DBB2184606F08DFDFB88084AA2FB0B
:102BA00003125209642101FB02F29B1A9BB2DBB2B1
:102BB000184606F07FFD0837BD4680BD5917B7D1CE
:102BC0001F85EB5180B485B000AF03463960FB71BF
:102BD0001346BB710023FB730023FB730AE0FB7BEE
:102BE0003A6813441B78DAB2FB795340FB71FB7BE4
:102BF0000133FB73FA7BBB799A42F0D3FB79184619
:102C00001437BD465DF8047B704700BF80B500AF48
:102C1000784840F2255108F03FFE0346002B2AD0A9
:102C2000744808F019FE0346DAB2734B1A70734BFE
:102C30001B78DBB25A1CD1B2704A11701A466E4B27
:102C40001B78D9B26E4B99546E4B1B8801339AB2E4
:102C50006C4B1A806B4B1B884EF66022934202D954
:102C6000684B00221A80634A624B1B889BB223F098
:102C700020039BB21380644B1B78DBB2012B15D170
:102C8000624B1B78DAB2624B1B78DBB29A420DD2F0
:102C9000584A5E4B1B78DBB2591CC8B25B490870BE
:102CA00019465C4B5B5CDBB29BB29380514A514B43
:102CB0001B889BB223F040039BB21380564B1B78BA
:102CC000DBB2002B40F09580544B1B78DBB2042B19
:102CD00052D1534B1B78DBB2002B04D1464B1B78EF
:102CE000DAB2504B1A704E4B1B78DBB25A1CD1B281
:102CF0004B4A11701A46404B1B78D9B2404B99543D
:102D0000474B1B78DBB21A46464B1B78DBB2033BC2
:102D10009A4231D1434B1B78DBB2043BDBB230200B
:102D200037491A46FFF74EFF03461A463E4B1A70C4
:102D30003A4B00221A703A4B00221A703B4B002289
:102D40001A70394B1B78DBB2002B13D1354B1B7833
:102D5000DBB2043B2A4AD35CDAB2354B1A70354BEE
:102D60001B78DBB20133DAB2324B1A702A4B0122E4
:102D70001A7001E000F032F91F4B1B78DBB25A2BBE
:102D800003D12A4B01221A7033E01B4B1B78DBB2B4
:102D9000582B08D1254B1B78DBB2012B03D1234BD9
:102DA00002221A7025E0214B1B78DBB2022B20D1C6
:102DB000114B1B78DBB2302B18D00F4B1B78DBB2DA
:102DC000312B06D1154B03221A70154B00221A70B5
:102DD0000CE0094B1B78DBB2322B07D10F4B0422DE
:102DE0001A700F4B00221A7000F0F8F80F4B0022F7
:102DF0001A7080BD00380140EE000020F100002074
:102E00004C170020E0000020EF000020F000002020
:102E100027000020801700206E0100206D01002097
:102E20006B0100206C010020F20000206A010020EC
:102E3000A4000020A000002080B586B002AF78601A
:102E40004FF47A6007F0A6FE0023FB600120012109
:102E500006F05AFE0023FB7206F0B0F803463C333E
:102E6000FB6004F0D9FB06F0A9F80246FB689A4221
:102E70000FD90120002106F047FEC82007F08AFE86
:102E80000120012106F040FE06F098F803460A33BF
:102E9000FB600123FB72642007F07CFEFB7A002BB1
:102EA00016D01F4B5B789AB21D4B1B781B029BB24E
:102EB00013449AB21B4B1A809A2300931A4818495C
:102EC00002220223FDF7EAFCFB7A013BFB720DE0D4
:102ED0000A23FB7214480AF02BF8C82007F05AFEA8
:102EE0001148FEF775F9C82007F054FE642007F07A
:102EF00051FE04F005FD0020FEF7B0FF322007F080
:102F000049FE0AF077FDFFF777FA322007F042FE1C
:102F10000120FEF7A3FF4FF4C87007F03BFEA0E7C7
:102F200018000020780100200058004080B584B0CF
:102F300000AF78600023FB730AF0A6FD224B1B78DC
:102F4000DBB203F00803DAB21F4B1A701E2007F041
:102F500021FE1E4B1B78DBB2012B30D100F05AF959
:102F60001B4B5B78DBB2312B04D9194B5B78DBB29E
:102F7000632B21D9164B5B78DAB2164B1A700023FB
:102F8000FB7311E0124B1B78DBB2043B104AD35C9D
:102F9000DBB2184600F0C4F8192007F0FBFD0AF078
:102FA00073FDFB7B0133FB73FB7B092BEAD900F03C
:102FB00015F8094B00221A70044B00221A703220B7
:102FC00007F0E8FDB8E700BF740100206E010020A3
:102FD0004C1700207C0100206B01002080B483B0DE
:102FE00000AF0023FB710023FB7106E0FB79074A69
:102FF0000021D154FB790133FB71FB79292BF5D9E1
:103000000C37BD465DF8047B704700BF4C170020AD
:1030100080B582B000AF0023FB710B4B00221A7009
:103020000023FB7109E0FB79084A0021D1540120FB
:1030300007F0B0FDFB790133FB71FB79292BF2D945
:103040000837BD4680BD00BF270000208017002044
:1030500080B500AF1D4B00221A701D4BDB78DBB230
:103060000133DAB21B4B1A70194BDB78DBB21A460C
:10307000174B0D219954184B00221A70134B012243
:103080001A70164A144B1B78DBB2591CC8B212498D
:10309000087019460E4B5B5CDBB29BB2938004E078
:1030A000052007F077FD0AF0EFFC0B4B1B78DAB236
:1030B000084B1B78DBB29A42F2D3064B00221A70FF
:1030C000FFF7A6FF014B00221A7080BDEF00002021
:1030D0008017002027000020F00000200038014069
:1030E00080B584B000AF03460A46FB711346BB713E
:1030F0000023FB730023FB730BE0FB79184600F001
:103100000FF8322007F046FD0AF0BEFCFB7B0133CE
:10311000FB73FA7BBB799A42EFD31037BD4680BD73
:1031200090B583B000AF0346FB71FFF771FF1D4BF5
:103130005A221A701B4B58225A701A4B37229A7017
:10314000184B0722DA70174AFB791371154BDB789D
:10315000DBB29C1E134BDB78DBB2013BDBB2002001
:1031600010491A46FFF72EFD03461A460D4B1A5515
:103170000C4BDB78DBB2013B0A4A0021D154012021
:1031800007F008FDFFF764FF074B1B78DBB2013344
:10319000DAB2054B1A70054AFB7913700C37BD463D
:1031A00090BD00BF80170020EC000020ED00002043
:1031B00080B582B000AF0346FB710B46BB8013465F
:1031C0007B80FFF7D5F9FB79184601F09BFCBB88A3
:1031D0001846FFF7A9F90837BD4680BD80B582B013
:1031E00000AF0023FB800023BB800DE0FB8803F5CC
:1031F000B863BB80BB88184600F05AFFFB881033C9
:10320000FB80022007F0C6FCFB88C72BEED90837ED
:10321000BD4680BD80B586B002AF0023FB81002390
:10322000FB800023BB810023BB60C44B5B78DBB217
:103230003F2B00F22D8301A252F823F03D3300080A
:10324000693300087F3300088B330008933300088C
:10325000A1330008AF33000891380008BD330008DF
:10326000D53300080F3400082F34000875340008E7
:10327000A1340008C1340008F334000817350008F1
:10328000593500087D350008A1350008913800083F
:1032900091380008A7350008B3350008BF3500088D
:1032A00091380008913800089138000891380008DA
:1032B0009138000891380008CB35000853360008D3
:1032C0009B360008E3360008E9360008F7360008A8
:1032D0003F3700084537000891380008913800084A
:1032E000913800089138000891380008913800089A
:1032F000913800089138000891380008913800088A
:1033000091380008913800087B3700088937000899
:103310009138000891380008913800089737000864
:10332000B9370008F5370008193800083B3800089D
:103330004138000847380008553800087F4B9B7813
:10334000D8B27E4BDB78D9B27C4B1B79DBB29BB217
:103350001B029AB2794B5B79DBB29BB213449BB2EE
:103360001A46FFF7F1FA93E2744B9B78DAB2734B8B
:10337000DB78DBB21046194604F090FD88E2704B12
:1033800033221A7004F0A6FA82E26D4B30221A70D2
:103390007EE26A4B9B78DBB2184601F0B3FB77E222
:1033A000664B9B78DBB2184601F006FC70E2634B7B
:1033B0009B78DBB2184600F00BFF69E2604B1B788C
:1033C000DBB2332B05D15D4B9B78DAB25D4B1A70C3
:1033D0005EE25DE2594B1B78DBB21A46574B9B5CB1
:1033E000DBB218460F21FFF77BFEC82007F0D2FBA7
:1033F000524B9B78D9B2514BDB78DAB24F4B1B79E9
:10340000DBB2084611461A4600F0CAFC40E205F05D
:10341000D5FD03463C334C4A13604C4B00221A70D6
:103420004B4B00221A704B4B00221A7030E2454B76
:1034300000221A70424B33221A70444B1B78DBB2C5
:1034400003F00103DAB2414B1A700020002104F0AE
:1034500025FD0120002104F021FD0220002104F0BF
:103460001DFD0320002104F019FD04F033FAFFF7DD
:103470007FF80DE2314B9B78DBB21B022F4AD278EA
:10348000D2B213441B022D4A1279D2B213441B024A
:103490002A4A5279D2B21344184605F0A1FDF7E149
:1034A000264B1B78DBB21A46244B9B5CDBB21846DA
:1034B0000521FFF715FE42F2107007F06BFBE7E104
:1034C0001E4B1B78DBB21A461C4B9B5CDBB21846CA
:1034D0000F21FFF705FE052007F05CFB174B9B78DB
:1034E000DAB2164BDB78DBB21046194602F09AFCD2
:1034F000CEE1124B9B78DBB29AB2104BDB78DBB299
:103500009BB21B029BB21344FB81FB89184601212D
:1035100000F084FCBCE1094B9B78DBB29AB2074B0C
:10352000DB78DBB29BB21B029BB21344FB81FB89AD
:103530001846102100F072FCAAE100BF4C170020D1
:103540002600002028000020380100202B01002048
:103550002A01002074010020A04B9B78DBB29AB2B4
:103560009E4BDB78DBB29BB21B029BB21344FB8108
:10357000FB8918460A2100F051FC89E1974B9B78A2
:10358000DBB29AB2954BDB78DBB29BB21B029BB2EB
:103590001344FB81FB8918460B2100F03FFC77E1C7
:1035A00006F050FC74E18D4B9B78DAB28C4B1A70AC
:1035B0006EE18A4B9B78DAB28A4B1A7068E1874BCE
:1035C0009B78DAB2884B1A7062E1844B9B78DBB24D
:1035D0001B029AB2814BDB78DBB29BB21344FB81B6
:1035E000FA89BB1D1046194609F0C6FF7B4B1B79B3
:1035F000DBB2002B14D1FB88DBB29BB2FB80774B94
:103600005B79DBB21B029BB29AB2FB8813449BB27C
:10361000FB80FB88FA891046194609F0F9FF17E08C
:103620006E4B1B79DBB2012B12D1FB8823F0FF0319
:103630009BB2FB80694B5B79DBB29AB2FB88134487
:103640009BB2FB80FB88FA891046194609F0E0FF1F
:103650001EE1624B9B78DBB21B029AB25F4BDB78B8
:10366000DBB29BB21344FB815C4B1B79DBB21B02C8
:103670009AB25A4B5B79DBB29BB213449BB2FB808C
:10368000FB88FA891046194609F0C2FFFA88574BA1
:103690001A80574AFB891380FAE0504B9B78DBB2C3
:1036A0001B029AB24D4BDB78DBB29BB21344FB8119
:1036B0004A4B1B79DBB21B02484A5279D2B21344FF
:1036C0001B02464A9279D2B213441B02434AD27972
:1036D000D2B21344BB60FB891846B96804F024FCDD
:1036E000D6E002F035FFD3E03C4B9B78DBB21846C6
:1036F00000F0ECF8CCE0394B1B79DBB29AB2374BD7
:10370000DB78DBB29BB21B029BB213449BB2FB8003
:10371000324B9B79DBB29AB2304B5B79DBB29BB216
:103720001B029BB21344BB812C4B9B78D9B2FA8805
:10373000BB89084611461A46FFF73AFDA8E0FEF796
:1037400017FFA5E0254B9B79DBB21A46234B5B792B
:10375000DBB21B029BB21A44204B1B79DBB21B0469
:1037600003F47F031A441D4BDB78DBB21B061344C2
:10377000BB60B868FEF76EFF8AE0184B9B78DBB23F
:10378000184600F07BFD83E0012000F077FD022069
:1037900000F074FD7CE0114B9B78DBB29AB20F4BCA
:1037A000DB78DBB21B029BB213409BB29BB2184684
:1037B000022100F033FB6BE0084B9B78DBB29AB23E
:1037C000064BDB78DBB29BB21B029BB213449BB26D
:1037D0001846012100F0D8FB5AE000BF4C1700202A
:1037E000490100204A0100204B010020A8000020D0
:1037F000A6000020324B9B78DBB29AB2304BDB78CC
:10380000DBB29BB21B029BB21344FB81FB891846BF
:10381000022100F0B9FB3BE0294B9B78DBB29AB266
:10382000274BDB78DBB29BB21B029BB21344FB81BC
:10383000FB89184600F03CFC2AE0FFF7CFFC27E0AC
:1038400000F0BAF824E04FF400704FF4B86100F0D3
:1038500097F91DE01A4B9B78DBB29AB2184BDB78D4
:10386000DBB29BB21B029BB21344FB81144B1B794E
:10387000DBB29AB2124B5B79DBB29BB21B029BB2FA
:1038800013449BB24FF40070194600F079F900BF61
:10389000322007F07FF90A4B5B78DBB2632B0CD93F
:1038A00002230093064807490722002305F022FC63
:1038B000034B5B78DAB2044B1A701037BD4680BDFB
:1038C0004C170020381700206901002080B584B013
:1038D00000AF78600023FB6005F070FB02467B6858
:1038E0001344FB6007E00A4B00229A86642007F02D
:1038F00051F90AF0C9F805F061FB0246FB689A42EB
:10390000F1D3034B4FF47A729A861037BD4680BDCF
:10391000002C014080B584B000AF03460A46FB800E
:1039200013467B710023BB810023BB600023FB7324
:10393000FFF76EFB0023FB7332E00023BB81FB7BB0
:103940009BB25B009BB2DBB29AB2FB881344BB8193
:103950000023BB60BB89184606F056F8B860FB7BB5
:103960009B00BA68120ED1B2124AD154FB7B9B0065
:103970000133BA68120CD1B20E4AD154FB7B9B00C2
:103980000233BA68120AD1B20A4AD154FB7B9B00B7
:103990000333BA68D1B2074AD154FB7B0133FB73BE
:1039A0007B795B08DBB2FA7B9A42C6D31037BD46FF
:1039B00080BD00BF8017002080B582B000AF00231B
:1039C000FB8000237B7100233B71684B5A221A70E5
:1039D000664B58225A70654B31229A70634B042211
:1039E000DA70624B0A221A71614B00221A70614B25
:1039F00005221A70604B00221A705D4B01221A706A
:103A00005E4A5D4B1B78DBB2591CC8B25A4908703C
:103A10001946564B5B5CDBB29BB2938004E00520F9
:103A200007F0B8F80AF030F8534B1B78DAB2514B74
:103A30001B78DBB29A42F2D30F2007F0ABF80020DC
:103A40004A490522FFF7BEF803463B71FFF7E0FA4B
:103A5000474B00221A70642007F09CF80023FB807B
:103A600049E0FB88DBB25C339BB21B019BB218467A
:103A70001021FFF74FFF00237B7109E07B793B4A60
:103A8000D35CDAB23B7953403B717B7901337B7174
:103A90007B791F2BF2D9364B00221A70354B20222E
:103AA0001A70354B00221A70314B01221A70334ABA
:103AB000314B1B78DBB2591CC8B22F49087019462C
:103AC0002A4B5B5CDBB29BB2938004E0012007F0E1
:103AD00061F809F0D9FF284B1B78DAB2254B1B7827
:103AE000DBB29A42F2D3FFF793FA214B00221A700D
:103AF000FB880133FB80FB881E2BB2D901237B712D
:103B000006E07B7919497A79CA547B7901337B7154
:103B10007B79042BF5D9154A3B791370144B00229D
:103B20001A70144B04221A70134B00221A70104B97
:103B300001221A70114B00229A8004E0012007F044
:103B400029F809F0A1FF0C4B1B78DAB2094B1B785E
:103B5000DBB29A42F2D30F2007F01CF8FFF758FAB5
:103B6000034B00221A700837BD4680BD8017002025
:103B7000EF00002027000020F00000200038014066
:103B800080B584B000AF03460A46FB801346BB8075
:103B90000023FB8100237B7300233B737B4B5A2262
:103BA0001A707A4B58225A70784B31229A70FB88DF
:103BB0001B099BB25B010C331B12DAB2734BDA7038
:103BC000FB881B099BB2DBB25B01DBB20C33DAB2C0
:103BD0006E4B1A71BB881B0A9BB2DAB26B4B5A71DF
:103BE000BB88DAB2694B9A71694B00221A70694B33
:103BF00007221A70684B00221A70654B01221A7056
:103C0000664A654B1B78DBB2591CC8B26249087022
:103C100019465E4B5B5CDBB29BB2938004E00520EF
:103C200006F0B8FF09F030FF5B4B1B78DAB2594B56
:103C30001B78DBB29A42F2D30F2006F0ABFF0020D4
:103C400052490722FEF7BEFF03463B73FFF7E0F938
:103C50004F4B00221A70642006F09CFF0023FB816A
:103C60004BE0FB89DBB29BB21B019AB2BB881344C9
:103C70009BB218461021FFF74DFE00237B7309E02D
:103C80007B7B424AD35CDAB23B7B53403B737B7B0A
:103C900001337B737B7B1F2BF2D93D4B00221A70C3
:103CA0003C4B20221A703C4B00221A70384B0122E8
:103CB0001A703A4A384B1B78DBB2591CC8B23649E5
:103CC00008701946314B5B5CDBB29BB2938004E019
:103CD000012006F05FFF09F0D7FE2F4B1B78DAB208
:103CE0002C4B1B78DBB29A42F2D3FFF791F9284BA9
:103CF00000221A70FB890133FB81FB881B099BB2F0
:103D0000FA899A42ADD301237B7306E07B7B1F497E
:103D10007A7BCA547B7B01337B737B7B042BF5D985
:103D20001A4A3B7B13701A4B00221A70194B04225B
:103D30001A70194B00221A70154B01221A70174A7B
:103D4000154B1B78DBB2591CC8B2134908701946D1
:103D50000E4B5B5CDBB29BB2938004E0012006F06B
:103D600019FF09F091FE0C4B1B78DAB2094B1B7856
:103D7000DBB29A42F2D30F2006F00CFFFFF748F9AE
:103D8000034B00221A701037BD4680BD80170020FB
:103D9000EF00002027000020F00000200038014044
:103DA00080B584B000AF0346FB710B46BB71134670
:103DB0007B710023BB600023FB6005F0FFF8F86017
:103DC000BA79FB681344BB60FB791846012101F006
:103DD000ABFF022006F0DEFEFA797B791046194629
:103DE00001F0A2FF0DE005F0E9F8F86009F04CFEE3
:103DF0000A2006F0CFFE012000F040FA0A2006F06B
:103E0000C9FEFA68BB689A42EDD3FB7918460021D7
:103E100001F08AFF1037BD4680BD00BF80B586B077
:103E200000AF03460A46FB8013467B7100233B61CB
:103E30000023FB757B79012B14D1514B1B79DBB22D
:103E40009AB24F4B5B79DBB29BB21B029BB213441D
:103E50009AB24C4B1A804B4B1B88FA881046194675
:103E600009F0D6FB7B79022B18D1454B1B79DBB2CD
:103E70001A46434B5B79DBB21B021A44404B9B79D9
:103E8000DBB21B041A443E4BDB79DBB21B06134446
:103E90003B61FB881846396904F046F87B79102BA2
:103EA0002AD10023FB7524E0364B00221A80FB7DCB
:103EB00002335B00324AD35CDBB29AB2FB7D5B0219
:103EC00003F5A0632E49CB5CDBB29BB213449AB2DC
:103ED0002C4B1A80FB885A1CFA802A4A12881846F2
:103EE000114609F095FB012006F054FEFB7D0133DD
:103EF000FB75FB7D1F2BD7D97B790A2B1DD10023A6
:103F0000FB81FA8807F10E031046194609F034FBCD
:103F1000FB89DBB29BB2FB81194B1B79DBB21B0225
:103F20009AB2FB899BB213409BB29BB2FB81FB8987
:103F3000FA881046194609F06BFB7B790B2B1BD1D5
:103F40000023BB81FA8807F10C031046194609F0DB
:103F500013FBBB8923F0FF039BB2BB81084B1B798A
:103F6000DBB29AB2BB8913409BB2BB81BB89FA8892
:103F70001046194609F04CFB1837BD4680BD00BFFE
:103F80004C1700208201002090B585B000AF034699
:103F90000A46FB8013467B71404B5A221A703F4BF6
:103FA00058225A703D4B31229A707B79012B1DD1DA
:103FB000FA8807F10A031046194609F0DDFA374B73
:103FC0000922DA70364B9B78DAB2344B1A71344BD3
:103FD000DB78DAB2314B5A717B89DAB22F4B9A71A6
:103FE0007B891B0A9BB2DAB22C4BDA717B79022BEC
:103FF00024D1FB88184605F007FDF860274B0B22FB
:10400000DA70274B9B78DAB2244B1A71244BDB7899
:10401000DAB2224B5A71FB68DAB2204B9A71FB6814
:104020001B0ADAB21D4BDA71FB681B0CDAB21B4BB0
:104030001A72FB681B0EDAB2184B5A72174BDB78F8
:10404000DBB25C1E154BDB78DBB2013BDBB2002040
:1040500012491A46FEF7B6FD03461A460F4B1A558B
:104060000E4BDB78DAB20F4B1A700F4B00221A702E
:104070000E4B01221A7002E0012006F08BFD0A4B64
:104080001B78DAB2074B1B78DBB29A42F4D3074BAA
:1040900000221A701437BD4690BD00BF8017002063
:1040A0004C17002027000020F0000020EF00002027
:1040B00090B585B000AF0346FB800023FB73062359
:1040C000BB733E4B5A221A703C4B58225A703B4BE2
:1040D00031229A70394B2722DA70394B9B78DAB249
:1040E000364B1A71364BDB78DAB2344B5A710023F7
:1040F000FB7332E00023BB60FB7B9BB25B009AB298
:10410000FB8813449BB2184605F07EFCB860BB7B6D
:104110005A1CBA731A46BB681B0ED9B2274B995466
:10412000BB7B5A1CBA731A46BB681B0CD9B2234B13
:104130009954BB7B5A1CBA731A46BB681B0AD9B286
:104140001E4B9954BB7B5A1CBA731A46BB68D9B232
:104150001A4B9954FB7B0133FB73FB7B072BC9D9AB
:10416000BC7B164BDB78DBB2013BDBB20020134992
:104170001A46FEF727FD03461A46104B1A550F4BF9
:10418000DB78DAB20F4B1A700F4B00221A700F4B0C
:1041900001221A7002E0012006F0FCFC0A4B1B7899
:1041A000DAB2084B1B78DBB29A42F4D3074B0022F9
:1041B0001A70FEF72DFF1437BD4690BD8017002002
:1041C0004C17002027000020F0000020EF00002006
:1041D00080B584B000AF0346FB710023FB7300235E
:1041E000BB8100237B81234B5A221A70214B58221A
:1041F0005A70204B31229A701E4B2A22DA701D4AC7
:10420000FB7913710023FB732AE0FB799BB21A46FA
:10421000D20013449AB2FB7B9BB213449BB203F5CA
:1042200038739BB25B00BB81BA8907F10A03104661
:10423000194609F0A1F9FB7B5B0005330D4A00210B
:10424000D154FB7B03335B007A89D2B25242D1B2A4
:10425000084AD154012006F09DFCFB7B0133FB731F
:10426000FB7B112BD1D9044B01221A701037BD46AC
:1042700080BD00BF80170020EF00002090B583B004
:1042800000AF0346FB71974B1B78DBB2002B40F06D
:104290006182954B5A221A70934B58225A70924B56
:1042A00033229A70904B2922DA70FB79012B40F06F
:1042B000DB808E4B1B78DAB28B4B1A718C4B1B68F0
:1042C000DAB2894B5A718B4B1B68DAB2864B9A7102
:1042D000854B0022DA71884B1B889BB2DAB2824B85
:1042E0001A72864B1B78DAB27F4B5A72844B1B785A
:1042F000DAB27D4B9A72824B5B78DAB27A4BDA7221
:104300007F4B9B78DAB2784B1A737D4BDB78DAB24D
:10431000754B5A737B4B1B8B9BB2DAB2724B9A7301
:10432000784B1B8B9BB21B0A9BB2DAB26E4BDA73D3
:10433000744B9B8B9BB2DAB26B4B1A74714B9B8B99
:104340009BB21B0A9BB2DAB2674B5A746E4B1B8846
:104350009BB2DAB2644B9A746B4B1B889BB21B0AFC
:104360009BB2DAB2604BDA74674B5B889BB2DAB20D
:104370005D4B1A75644B5B889BB21B0A9BB2DAB229
:10438000594B5A75614B1B88DAB2574B9A755F4B84
:104390001B881B0A9BB2DAB2534BDA755C4B5B8805
:1043A0009BB2DAB2504B1A76594B5B889BB21B0A10
:1043B0009BB2DAB24C4B5A76554B9B889BB2DAB221
:1043C000494B9A76524B9B889BB21B0A9BB2DAB23E
:1043D000454BDA764E4BDB889BB2DAB2424B1A770A
:1043E0004B4BDB889BB21B0A9BB2DAB23E4B5A772F
:1043F000484B1B78DAB23C4B9A77474B1B889BB2F1
:104400001B0A9BB2DAB2384BDA77434B1B889BB25C
:10441000DAB2354B83F82020404B9B8E9BB2404A4A
:10442000A2FB0323DB089BB2DAB22F4B83F82120D7
:104430003C4B1B78DAB22C4B83F822203A4B1B788A
:10444000DAB2294B83F82320384B1B78DAB2264B9B
:1044500083F82420364B1B78DAB2234B83F82520CF
:10446000214AFB7982F82630FB79022B74D1314B3B
:104470001B889BB2DAB21C4B1A712E4B1B889BB265
:104480001B0A9BB2DAB2184B5A712B4B1B889BB29A
:10449000DAB2154B9A71284B1B889BB21B0A9BB250
:1044A000DAB2114BDA71104B00221A72184B1B88CA
:1044B0009BB21B0A9BB2DAB20B4B5A72144B5B884D
:1044C0009BB2DAB2084B9A72114B5B889BB21B0A03
:1044D0009BB2DAB2044BDA720D4B9B889BB2DAB214
:1044E0002CE000BFEF0000208017002026000020F5
:1044F0002C01002030010020460100206401002032
:10450000C000002000280040980000207801002012
:104510005C01002074010020EA000020002C014012
:10452000CDCCCCCC66010020280000202A01002040
:104530002B0100204E01002050010020874B1A73F0
:10454000874B9B889BB21B0A9BB2DAB2834B5A7390
:10455000824AFB7982F82630FB79032B3BD1814BD1
:104560009B68DAB27D4B1A717E4B9B681B0ADAB2EC
:104570007A4B5A717B4B9B681B0CDAB2774B9A7162
:10458000784B9B681B0EDAB2744BDA71764B9B68E2
:10459000DAB2724B1A72744B9B681B0ADAB26F4B19
:1045A0005A72714B9B681B0CDAB26C4B9A726E4B51
:1045B0009B681B0EDAB2694BDA726C4B9B78DAB2ED
:1045C000664B1A73694BDB78DAB2644B5A73634AF1
:1045D000FB7982F82630FB79042B1CD15F4B00223B
:1045E0005A72634B1B78DAB25C4B9A72614B1B8830
:1045F0009BB2DAB2594BDA725E4B1B889BB21B0A34
:104600009BB2DAB2554B1A73544B4D225A73534A2C
:10461000FB7982F82630FB79052B39D1564B1B8864
:104620009BB2DAB24D4B1A71534B1B889BB21B0ADB
:104630009BB2DAB2494B5A714F4B5B889BB2DAB2EC
:10464000464B9A714C4B5B889BB21B0A9BB2DAB209
:10465000424BDA71494B1B68DAB2404B1A72474B36
:104660001B681B0ADAB23D4B5A72444B1B681B0C89
:10467000DAB23A4B9A72414B1B681B0EDAB2374BD7
:10468000DA72364B4D225A73344AFB7982F826305F
:10469000FB79062B43D1384B1B889BB2DAB22F4BE8
:1046A0001A71354B1B889BB21B0A9BB2DAB22B4B9B
:1046B0005A71314B5B889BB2DAB2284B9A712E4B00
:1046C0005B889BB21B0A9BB2DAB2244B5A712B4B0C
:1046D0005B68DAB2214B1A72284B5B681B0ADAB2AC
:1046E0001E4B5A72254B5B681B0CDAB21B4B9A723D
:1046F000224B5B681B0EDAB2184BDA721D4B5B88DB
:104700009BB2DAB2154B1A731A4B5B889BB21B0A29
:104710009BB2DAB2114B5A73104AFB7993750F4B67
:10472000DB78DBB29C1E0D4BDB78DBB2023BDBB2ED
:1047300000200A491A46FEF745FA03461A46074B77
:104740001A55064BDB78DBB2013B044A0021D154F9
:10475000FEF77EFC0C37BD4690BD00BF80170020E1
:104760005C01002000080140000C0140C80000204E
:104770006601002040170020980000202817002024
:1047800080B400AF024B1B68BD465DF8047B7047E8
:104790000000024080B400AF024B1B68BD465DF8CC
:1047A000047B70470000024080B586B000AF012056
:1047B000012105F09FFF0520012105F0B9FF252308
:1047C0003B7500237B750023BB750123FB7507F147
:1047D0001403184608F04AFB4FF400733B8203238E
:1047E000BB741823FB7407F1100324481946FDF726
:1047F000E5F84FF480633B820423FB7407F1100358
:104800001E481946FDF7DAF81D4806F0EFFE4FF492
:104810008040012105F08CFF4FF416533B600023CC
:10482000BB800023FB8000233B810023BB810C2342
:104830007B813B461248194606F034FF10484FF47E
:10484000587107F019F80E4A0D4B9B899BB243F043
:1048500020039BB293810A4A094B9B899BB243F088
:1048600040039BB293810648012106F0D5FF252025
:10487000FDF72AFA1837BD4680BD00BF0008014089
:104880000038014080B588B000AF1020012105F04C
:104890004FFF0220012105F069FF07F11C031846B4
:1048A000FDF74CF94FF47073BB830323BB771823D8
:1048B000FB7707F11C0321481946FDF77FF82048D4
:1048C0000121FDF74FF907F110031846FBF7E8FE49
:1048D0004FF40073FB8240F2E733BB82EF233B824D
:1048E00007F1100317481946FBF75CFC3B461846D6
:1048F000FBF7F0FE01237B8060233B800023FB80DD
:104900003B4610481946FBF7C9FC3B460D48194683
:10491000FBF750FD3B460B481946FBF7D3FD3B46E2
:1049200008481946FBF754FE06480121FBF7F4FE40
:1049300000F00AF82037BD4680BD00BF00100140DE
:10494000000C1A000004004080B582B000AF0023C4
:10495000FB710023FB7107E0FB791846002101F091
:10496000E3F9FB790133FB71FB79032BF4D90837A9
:10497000BD4680BD80B588B000AF0120012105F0A3
:10498000D7FE0820012105F0D3FE4FF4006001217D
:1049900005F0CEFE07F11C031846FDF7CFF84FF4E3
:1049A0000053BB830323BB771823FB7707F11C035A
:1049B00021481946FDF702F807F110031846FBF7E6
:1049C0006FFE4FF40073FB8240F2E733BB82172384
:1049D0003B8200237B8207F1100318481946FBF73E
:1049E000E1FB3B461846FBF775FE01237B807023F5
:1049F0003B804FF4FA73FB8002233B8100237B81D1
:104A000001237B800423BB804FF48073BB81002390
:104A1000FB813B4609481946FBF740FC074801214A
:104A2000FBF77AFE05480121FBF796FE02F052FFE4
:104A30002037BD4680BD00BF000C0140002C014066
:104A400080B582B000AF05F017FB0023FB80002388
:104A50007B7105F011FB0A2006F09CF805F00CFBB9
:104A6000234805F0A7FA234B00221A701EE004F039
:104A700001FD03461A461F4B1A701F4B1B88FB8013
:104A8000052006F087F80120002105F0D1FAFB8807
:104A90001A4AA2FB03235B099BB2DBB2184604F05F
:104AA00009FEFB88DBB2184604F004FE114B1B78AC
:104AB000DBB2022BDBD10A2006F06CF8FB8840F257
:104AC000D650194608F0A4FD02F0BEFE4FF4FA607D
:104AD00006F060F80A4805F06DFA064B00221A70DD
:104AE00005F0CAFA05F0AEF90837BD4680BD00BF33
:104AF00064DD000829010020980000201F85EB518B
:104B000078DD000880B483B000AF0346FB71FB7909
:104B1000002B0DD0FB79042B0AD82449234B5B6969
:104B2000FA790332012000FA02F213434B612AE0C2
:104B3000FB79042B0DD9FB79072B0AD81C491C4B98
:104B40005B69FA790532012000FA02F213434B61E6
:104B500019E0FB79072B0DD9FB790B2B0AD81349E8
:104B6000124B5B69FA790332012000FA02F2134317
:104B70004B6108E0FB790C2B05D10C4A0B4B5B69B0
:104B800043F480735361FB79012202FA03F39AB272
:104B9000084B1B889BB29BB213439BB29AB2054B46
:104BA0001A800C37BD465DF8047B70470008014051
:104BB00000100140EA00002080B483B000AF03463B
:104BC000FB71FB79002B0DD0FB79042B0AD825490A
:104BD000244B1B69FA790332012000FA02F21343D5
:104BE0000B612AE0FB79042B0DD9FB79072B0AD83E
:104BF0001D491D4B1B69FA790532012000FA02F2AA
:104C000013430B6119E0FB79072B0DD9FB790B2BB3
:104C10000AD81449134B1B69FA790332012000FAB0
:104C200002F213430B6108E0FB790C2B05D10D4A0E
:104C30000C4B1B6943F480731361FB79012202FA68
:104C400003F39BB2DB439AB2084B1B889BB29BB227
:104C500013409BB29AB2054B1A800C37BD465DF8E3
:104C6000047B70470008014000100140EA0000206A
:104C700080B500AF012005F0B1FE034B1B68013386
:104C8000014A136080BD00BF2817002080B500AF27
:104C9000022005F0A3FE034B5B680133014A536019
:104CA00080BD00BF2817002080B500AF042005F0AC
:104CB00095FE80BD80B500AF4FF4806005F08EFE9C
:104CC0004FF4006005F08AFE4FF4805005F086FE38
:104CD0004FF4004005F05EFE0346002B00F09F807D
:104CE0004FF4004005F07AFE9E4B9B6803F40043AE
:104CF000002B40F08F809C4B1B889BB2002B00F058
:104D000089809A4B9B8C9AB2994B1A80974B0022C0
:104D10009A84954B1B889BB21A46642303FB02F3CB
:104D2000934A128892B293FBF2F39AB2914B1A8093
:104D3000914B1B78DBB2002B61D0904B1B78DBB220
:104D4000002B5CD18B4B1B889BB23C2B1BD9894B16
:104D50001B889BB24A2B16D8894B1B78DBB21A46AC
:104D600001239340D843874B1B781A46854B1B7809
:104D70001946854B5B5CD9B2C3B20B40DBB2D9B2EA
:104D8000814B995415E07E4B1B78DBB21A46012308
:104D900003FA02F07B4B1B781A467A4B1B781946B4
:104DA000794B5B5CD9B2C3B20B43DBB2D9B2764B61
:104DB0009954734B1B78DBB2002B19D1704B07222F
:104DC0001A70704B1B780133DAB26E4B1A706D4B50
:104DD0001B78052B13D1694B01221A70694B0022F5
:104DE0001A70674B07221A70684B01221A7006E08E
:104DF000634B1B78DBB2013BDAB2614B1A705E4B3E
:104E00001B78DBB20133DAB25B4B1A70564B0022CF
:104E10001A8004E0554B9B8C9AB2534B1A804FF486
:104E2000804005F0B7FD0346002B00F0B6804FF43C
:104E3000804005F0D3FD4B4B9B6803F48043002B6F
:104E400040F0A680484B1B889BB2002B00F0A0804E
:104E5000464B9B8C9AB2464B1A80444B00229A8454
:104E6000414B1B889BB21A46642303FB02F3404A62
:104E7000128892B293FBF2F39AB23E4B1A803E4BE9
:104E80001B78DBB2002B61D03C4B1B78DBB2002BD4
:104E90005CD1384B1B889BB23C2B1BD9354B1B88F4
:104EA0009BB24A2B16D8364B1B78DBB21A4601232D
:104EB0009340D843334B1B781A46324B1B78194624
:104EC000314B5B5CD9B2C3B20B40DBB2D9B22E4BD3
:104ED000995415E02A4B1B78DBB21A46012303FADA
:104EE00002F0284B1B781A46264B1B781946264B96
:104EF0005B5CD9B2C3B20B43DBB2D9B2224B99543B
:104F00001F4B1B78DBB2002B19D11D4B07221A70E7
:104F10001C4B1B780133DAB21A4B1A70194B1B78F1
:104F2000052B13D1154B01221A70164B00221A7053
:104F3000134B07221A70154B00221A7006E0104B13
:104F40001B78DBB2013BDAB20D4B1A700A4B1B78AF
:104F5000DBB20133DAB2084B1A70034B00221A801D
:104F60001BE000BF000C0140B000002000400140E9
:104F7000B2000020B4000020CD000020CE000020B0
:104F800024000020CF000020B817002025000020BA
:104F9000024B9B8C9AB2024B1A8080BD00400140AC
:104FA000B000002080B582B000AF40F2DC53FB803F
:104FB0000023BB80294B00221A7047E004F05AFA04
:104FC00003461A46254B1A700023BB80FA883B1D06
:104FD0001046194608F0D0FA052005F0DBFD05F073
:104FE0004BF81F4804F0E6FFFB881846FDF7B2FDBA
:104FF0000120002105F01CF81A4804F0DBFFBB88F3
:105000001846FDF7A7FD154B1B78DBB2022B0AD122
:10501000FB88B3F5FA6F03D2FB880133FB8002E013
:105020004FF4AF63FB800D4B1B78DBB2012B0AD131
:10503000FB88B3F5AF6F03D9FB88013BFB8002E02F
:105040004FF4FA63FB80192005F0A4FD034B1B7895
:10505000DBB2042BB2D10837BD4680BD2901002048
:1050600084DD00088CDD000880B582B000AF05202B
:1050700005F090FD0023FB7104F0FEFF464B00227B
:105080001A707DE0142005F085FD04F0F3F9034665
:105090001A46414B1A700020002104F0C9FF3F4816
:1050A00004F088FFFB79184604F004FB3A4B1B78A8
:1050B000DBB2042B03D1FB791846FFF723FD364BF7
:1050C0001B78DBB2032B03D1FB791846FFF774FD85
:1050D000314B1B78DBB2012B08D1FB79092B03D8AC
:1050E000FB790133FB7101E00023FB71012005F026
:1050F00051FD0120002104F09BFF294804F05AFFD4
:10510000284B1B889BB21846FDF724FD012005F0B3
:1051100041FD254804F04EFF244B9B6803F010032B
:10512000002B03D0224804F045FF02E0214804F0A0
:1051300041FF1E4B9B6803F02003002B03D01C484B
:1051400004F038FF1CE01B4804F034FF174B9B6849
:1051500003F04003002B03D0154804F02BFF02E0BE
:10516000144804F027FF114B9B6803F48073002B55
:1051700003D00F4804F01EFF02E00E4804F01AFFAF
:10518000054B1B78DBB2022B7FF47CAF04F074FF7D
:105190000837BD4680BD00BF2901002094DD00080E
:1051A000A0DD0008EA000020A4DD0008000801409E
:1051B000ACDD0008B0DD000880B584B000AF034668
:1051C000FB800B467B7113463B710023FB7300236E
:1051D000BB7300237B73FA887B7942FA03F37B73FA
:1051E0000020002104F024FF514804F0E3FE514B5D
:1051F00000221A7060E004F03DF903461A464D4B58
:105200001A700120002104F013FF0023FB7305E056
:10521000494804F0CFFEFB7B0133FB73FA7B3979FD
:105220007B79CB1A9A42F3DB012005F0B3FC002313
:10523000FB7309E00020002104F0FAFE3F4804F06F
:10524000B9FEFB7B0133FB73FA7B39797B79CB1A8F
:105250009A42EFDBBB7B0020194604F0E9FE34489C
:1052600004F0A8FE052005F095FC324B1B78DBB25C
:10527000042B08D1BA7B39797B79CB1A9A4202DAAE
:10528000BB7B0133BB732B4B1B78DBB2012B05D1EE
:10529000BB7B002B02D0BB7B013BBB73254B1B7838
:1052A000DBB2032B08D1BB7B012202FA03F3DAB293
:1052B0007B7B5340DBB27B731E4B1B78DBB2022B34
:1052C00099D10023FB7325E07A7BFB7B42FA03F341
:1052D00003F00103002B0DD0FA7B7B791344012BE3
:1052E000CCBF01230023DBB29AB2FB8813439BB2ED
:1052F000FB800CE0FA7B7B791344012202FA03F372
:105300009BB2DB439AB2FB8813409BB2FB80FB7BD2
:105310000133FB73FA7B39797B79CB1A9A42D3DB61
:1053200002F092FAFB8818461037BD4680BD00BFD8
:10533000C4DD000829010020ACDD0008BCDD000848
:1053400080B586B000AF0346FB710023BB8200230B
:105350007B8100233B8100233B6104F08DFE654887
:1053600004F028FEC82005F015FCFB799BB21A4614
:105370001201D31A9BB203F21E63BB82BA8A07F1F1
:105380000A031046194608F0F7F87B89DBB2184685
:1053900002F0A6FE03469BB27B817B89BA8A104647
:1053A000194608F035F904F067FE0020052104F0E5
:1053B0003FFE514804F0FEFDC82005F0EBFBFB79F1
:1053C0009BB21A461201D31A9BB203F22763BB8227
:1053D000BA8A07F108031046194608F0CDF83B8950
:1053E000184600210322FFF7E7FE03463B81002316
:1053F000FB7511E004F03EF803461A463F4B1A7065
:105400003E4B1B78DBB2042B03D1FB7DC3F10103C0
:10541000FB75192005F0BEFB384B1B78DBB2002B67
:10542000E8D0FB7D012B05D13B8943F001039BB202
:105430003B8104E03B8923F001039BB23B813B8924
:10544000BA8A1046194608F0E3F8052005F0A2FBD9
:1054500002F0FAF90023FB60FB799BB21A461201B5
:10546000D31A9BB203F22163BB82BB8A184604F0B5
:10547000CBFAF860F868012103F046F9F860FB68A0
:105480009BB2BA8A1046194608F0C2F8FB799BB263
:105490001A461201D31A9BB203F22363BB82BB8A62
:1054A000184604F0B1FAF860F868012103F02CF90D
:1054B000F860FB689BB2BA8A1046194608F0A8F853
:1054C000FB799BB21A461201D31A9BB203F21F63F7
:1054D000BB82BB8A184604F097FAF860F86802F0BD
:1054E00015FFF860BB8A1846F96802F01DFD1837F1
:1054F000BD4680BDC8DD0008D0DD000829010020C0
:1055000080B582B000AF0023FB7104F0B5FD0948FF
:1055100004F050FDC82005F03DFBFB79184602F071
:10552000DFFD0346FB71FB79184600F021F80837D0
:10553000BD4680BDDCDD000880B582B000AF002331
:10554000FB7104F099FD094804F034FDC82005F012
:1055500021FBFB79184602F0C3FD0346FB71FB7982
:105560001846FFF7EDFE0837BD4680BDDCDD0008BC
:1055700080B584B000AF0346FB710023FB8100239C
:10558000BB81FB799BB21A46920013449BB203F293
:10559000A563FB81FA8907F10C031046194607F051
:1055A000EBFF04F069FD574804F004FDBB89184681
:1055B00002F0ECFD0346BB81BB89FA89104619460F
:1055C00008F026F8FB799BB21A46920013449BB26E
:1055D00003F2A663FB81FA8907F10C031046194612
:1055E00007F0CAFF04F048FD474804F0E3FCBB891C
:1055F000184602F0CBFD0346BB81BB89FA891046F1
:10560000194608F005F8FA8907F10C031046194607
:1056100007F0B2FF04F030FD3C4804F0CBFCBB893E
:10562000184602F0B3FD0346BB81BB89FA891046D8
:10563000194607F0EDFFFB799BB21A46920013441E
:105640009BB203F2A763FB81FA8907F10C031046B2
:10565000194607F091FF04F00FFD2D4804F0AAFC55
:10566000BB89184602F092FD0346BB81BB89FA89CB
:105670001046194607F0CCFFFB799BB21A46920000
:1056800013449BB203F2A763FB81FA8907F10C0371
:105690001046194607F070FF04F0EEFC1D4804F0B8
:1056A00089FCBB89184602F071FD0346BB81BB89AA
:1056B000FA891046194607F0ABFFFA8907F10C0387
:1056C0001046194607F058FF04F0D6FC124804F0C3
:1056D00071FCBB89184602F059FD0346BB810A20C4
:1056E00005F058FABB89FA891046194607F090FF71
:1056F00004F0C2FC0A2005F04DFA04F0A3FB1037B9
:10570000BD4680BDE8DD0008FCDD00080CDE0008B9
:105710001CDE000828DE000838DE000890B585B0E1
:1057200000AF0023BB730023FB7304F0A5FC3548D6
:1057300004F040FCC82005F02DFABB7B184602F0AF
:10574000CFFC0346BB7304F097FC2F4804F032FCF7
:10575000BB7B184603F0AEFF2C4804F02BFC002363
:10576000FB7306E01E2005F015FA03F083FE0346E6
:10577000FB73FB7B022B02D0FB7B032BF2D1C820F7
:1057800005F008FAFB7B022B33D1BA7B13461B01D1
:105790009B1A03F21F63BB60BB689BB2184604F000
:1057A00033F97860BA7B13461B019B1A03F221631D
:1057B000BB6003F003FC3860BB689BB218463968D5
:1057C00002F0B2FBBA7B13461B019B1A03F225635E
:1057D000BB60BB689CB203F0F1FB02467B68D31A46
:1057E00005332046194602F09FFBBB7B184600F0AC
:1057F0000FF804F041FCC82005F0CCF91437BD4681
:1058000090BD00BFDCDD000844DE000850DE00086B
:1058100080B58EB000AF0346FB719A4B00221A7020
:10582000994B02221A70FB79012202FA03F3DAB2D1
:10583000964B1B78DBB2DBB21343DBB2DAB2934B8D
:105840001A7000233B6303F0B9FB38638E4B0322CD
:105850001A7000233B82002387F837300023FB6255
:105860000023BB6200237B6200233B620023FB8397
:105870000023BB830023FB8100237B8300233B8326
:105880000023BB810023FB750023BB7503F096FB4F
:1058900038623B6A7B627C4B04221A70642005F0FC
:1058A00079F97B4B5B88BB83FB799BB21A4612016B
:1058B000D31A9BB203F21E637B837A8B07F10E032C
:1058C0001046194607F058FEFB89DBB29BB2FB81FC
:1058D000642005F05FF96F4B5B889AB26C4B5B8874
:1058E0009BB2D31AFB8304F0C7FB6B4804F062FB46
:1058F000FB8B6A4AA2FB03235B099BB2DBB218460F
:1059000003F0D8FEFB8BDBB2184603F0D3FE6448ED
:1059100004F050FB5E4B5B889BB21846FDF71AF90A
:105920000120002104F084FB5E4804F043FB594B46
:105930005B889BB21846FDF70DF95B4804F03AFB13
:10594000FB891846FDF706F94FF4FA5005F022F9E5
:10595000FCF70EFEFB89554AA2FB03235B089BB2B2
:10596000FA8B9A4280F0E180FB89BA8BD31AFB83D1
:10597000FB8B1846002100F0D7FFC82005F00AF97C
:1059800008F082F8404B06221A70BB8BDAB2404B0B
:105990005B889BB2DBB2D31AFB75FB891A461346B0
:1059A000DB001344424A82FB03129210DB17D31A26
:1059B000BB75002387F83730B2E00A2005F0EAF81B
:1059C00097F837305733DAB22F4B1A7000237B83A6
:1059D000FB799BB21A461201D31A9BB203F21F63E2
:1059E0007B837B8B184604F00FF8B862FB799BB27F
:1059F0001A461201D31A9BB203F221637B837B8B7D
:105A0000184604F001F87862642005F0C3F897F8AE
:105A100037309BB21A46920013449BB203F2A7633D
:105A20007B837A8B07F110031046194607F0A4FD1B
:105A30000023BB8600237B75642005F0ABF83B8A0E
:105A40009BB2002B36D003F0B9FA02467B6AD21A19
:105A5000BB6AB2FBF3F3FB62642005F09BF80A4BD0
:105A6000C8221A70C82005F095F83B8A9BB2DAB2BA
:105A7000FB6AB3FBF2F102FB01F29B1A7B75012377
:105A8000BB8619E0300000202A01002064010020BC
:105A9000980000205801002054DE00081F85EB51BB
:105AA00058DE00085CDE000860DE0008ABAAAAAA87
:105AB000676666660023BB86322005F06BF83B8A7A
:105AC0009BB21B0A9BB2013B3B8300237B83FB7988
:105AD0009BB23A8B9A4218D1BB8E002B15D0584BF3
