:020000040800F2
:100000002C1D0020D907000839B4000845B40008A9
:100010004DB4000855B400085DB4000800000000AD
:1000200000000000000000000000000031C20008D5
:1000300065B400080000000005C3000841C30008C3
:10004000350800083508000835080008350800089C
:1000500035080008350800083545000851450008F6
:100060006D45000835080008350800083508000807
:100070003508000835080008A13F0008BD3F00080A
:1000800035080008350800083508000800000000A1
:10009000000000000000000000000000D96400081B
:1000A00035080008C1640008CD6400083508000860
:1000B0003508000835080008AD65000871B400086F
:1000C00029BA000805B7000891B9000835080008EA
:1000D0003508000821250008350800083508000803
:1000E00079450008350800083508000800000000C0
:1000F0000000000000000000000000000000000000
:1001000000000000000000000000000000000000EF
:100110000000000000000000350800083508000855
:100120005FF808F180B588B000AF786007F1080388
:10013000184609F079FEFB68094AA2FB03235B0B12
:100140007A6802FB03F3FB610023FB6102E0FB69B9
:10015000013BFB61FB69002BF9D12037BD4680BD17
:100160005917B7D180B485B000AF786039600023EB
:10017000FB817B681B88FB817B682E4A934213D0EE
:100180007B682D4A93420FD07B68B3F1804F0BD030
:100190007B682A4A934207D07B68294A934203D05E
:1001A0007B68284A934208D1FB8923F07003FB81C6
:1001B0003B685A88FB891343FB817B68224A934240
:1001C0000CD07B68214A934208D0FB8923F440730A
:1001D000FB813B68DA88FB891343FB817B68FA89E2
:1001E0001A803B689A887B689A853B681A887B6886
:1001F0001A857B680F4A93420FD07B680E4A934260
:100200000BD07B68124A934207D07B68114A934215
:1002100003D07B68104A934204D13B681B7A9AB2A0
:100220007B681A867B6801229A821437BD465DF886
:10023000047B7047002C0140003401400004004062
:1002400000080040000C0040001000400014004076
:1002500000400140004401400048014080B485B0A6
:1002600000AF7860396000237B810023FB8100238D
:10027000BB817B681B8C9BB223F001039AB27B6825
:100280001A847B681B8CFB817B689B88BB817B68A5
:100290001B8B7B817B8923F070037B817B8923F01F
:1002A00003037B813B681A887B8913437B81FB892D
:1002B00023F00203FB813B681A89FB891343FB810E
:1002C0003B685A88FB891343FB817B68244A93422D
:1002D0000FD07B68234A93420BD07B68224A93421B
:1002E00007D07B68214A934203D07B68204A93421F
:1002F00023D1FB8923F00803FB813B685A89FB89E2
:100300001343FB81FB8923F00403FB813B689A883C
:10031000FB891343FB81BB8923F48073BB81BB89B9
:1003200023F40073BB813B689A89BB891343BB816B
:100330003B68DA89BB891343BB817B68BA899A80A1
:100340007B687A891A833B68DA887B689A867B683F
:10035000FA891A841437BD465DF8047B704700BFE4
:10036000002C0140003401400040014000440140A5
:100370000048014080B485B000AF78603960002348
:100380007B810023FB810023BB817B681B8C9BB29C
:1003900023F010039AB27B681A847B681B8CFB8164
:1003A0007B689B88BB817B681B8B7B817B8923F46B
:1003B000E0437B817B8923F440737B813B681B880E
:1003C0001B029AB27B8913437B81FB8923F02003B4
:1003D000FB813B681B891B019AB2FB891343FB819C
:1003E0003B685B881B019AB2FB891343FB817B68E6
:1003F000224A934203D07B68214A93422BD1FB8946
:1004000023F08003FB813B685B891B019AB2FB8967
:100410001343FB81FB8923F04003FB813B689B88EE
:100420001B019AB2FB891343FB81BB8923F48063D0
:10043000BB81BB8923F40063BB813B689B899B0024
:100440009AB2BB891343BB813B68DB899B009AB29C
:10045000BB891343BB817B68BA899A807B687A89A0
:100460001A833B68DA887B681A877B68FA891A8462
:100470001437BD465DF8047B704700BF002C014077
:100480000034014080B485B000AF7860396000234B
:100490007B810023FB810023BB817B681B8C9BB28B
:1004A00023F480739AB27B681A847B681B8CFB816F
:1004B0007B689B88BB817B689B8B7B817B8923F0DE
:1004C00070037B817B8923F003037B813B681A885F
:1004D0007B8913437B81FB8923F40073FB813B6899
:1004E0001B891B029AB2FB891343FB813B685B8823
:1004F0001B029AB2FB891343FB817B68224A934219
:1005000003D07B68214A93422BD1FB8923F40063FB
:10051000FB813B685B891B029AB2FB891343FB8119
:10052000FB8923F48063FB813B689B881B029AB2A2
:10053000FB891343FB81BB8923F48053BB81BB89B7
:1005400023F40053BB813B689B891B019AB2BB8992
:100550001343BB813B68DB891B019AB2BB89134300
:10056000BB817B68BA899A807B687A899A833B6869
:10057000DA887B689A877B68FA891A841437BD46C3
:100580005DF8047B704700BF002C0140003401403F
:1005900080B485B000AF786039600023BB81002350
:1005A0007B810023FB817B681B8C9BB223F48053EF
:1005B0009AB27B681A847B681B8C7B817B689B88E2
:1005C000FB817B689B8BBB81BB8923F4E043BB81B0
:1005D000BB8923F44073BB813B681B881B029AB222
:1005E000BB891343BB817B8923F400537B813B6828
:1005F0001B891B039AB27B8913437B813B685B8811
:100600001B039AB27B8913437B817B68124A934216
:1006100003D07B68114A93420AD1FB8923F48043BB
:10062000FB813B689B899B019AB2FB891343FB8149
:100630007B68FA899A807B68BA899A833B68DA88F2
:100640007B68A3F840207B687A891A841437BD46FA
:100650005DF8047B704700BF002C0140003401406E
:1006600080B483B000AF78607B684FF6FF729A80E9
:100670007B6800221A807B680022DA807B68002277
:100680005A807B6800221A720C37BD465DF8047BE5
:10069000704700BF80B483B000AF78607B680022F1
:1006A0001A807B6800225A807B6800229A807B68CF
:1006B0000022DA807B6800221A817B6800225A813E
:1006C0007B6800229A817B680022DA810C37BD4664
:1006D0005DF8047B704700BF80B483B000AF7860E2
:1006E0000B46FB70FB78002B08D07B681B889BB205
:1006F00043F001039AB27B681A8007E07B681B888D
:100700009BB223F001039AB27B681A800C37BD4676
:100710005DF8047B704700BF80B483B000AF7860A1
:100720000B46FB70FB78002B0CD07B68B3F8443091
:100730009BB26FEA43436FEA53439AB27B68A3F8D4
:10074000442009E07B68B3F844309BB2C3F30E0346
:100750009AB27B68A3F844200C37BD465DF8047B51
:10076000704700BF80B485B000AF78600B467B80D7
:100770000023FB730023BB8100237B817B681B8AE2
:100780009AB27B881340BB817B689B899AB27B8835
:1007900013407B81BB89002B05D07B89002B02D0C5
:1007A0000123FB7301E00023FB73FB7B1846143726
:1007B000BD465DF8047B704780B483B000AF7860BD
:1007C0000B467B807B88DB439AB27B681A820C37AE
:1007D000BD465DF8047B704780B582B000AF104B1A
:1007E0007B60104B3B6007E03B681A1D3A607A68FB
:1007F000111D796012681A603B680B4A9342F3D36B
:100800000A480B494FF000028842B8BF40F8042B59
:10081000FADB00F0A9FC08F043FE0837BD4680BDB6
:1008200030DB000800000020840000208800002049
:100830003019002080B400AFFEE700BF80B400AFE5
:1008400062B6BD465DF8047B704700BF80B400AF60
:1008500072B6BD465DF8047B704700BF80B586B0B8
:1008600000AFF860B9607A60FB7000237B61002301
:100870003B61FB689B889BB243F480739AB2FB6830
:100880009A80FB78022B40F08C80F868B9687A680F
:10089000012300F0F3FBFB689B889BB243F4805379
:1008A0009AB2FB689A80FB689B889BB243F4006312
:1008B0009AB2FB689A804FF6FF733B61FB681B8816
:1008C0009BB243F480739AB2FB681A8006E03B69DE
:1008D0005A1E3A61002B01D1002379E2FB689B8A02
:1008E0009BB203F00103002BF1D04FF6FF733B6185
:1008F00097F8203043F0010387F82030964A97F8A4
:1009000020301370944B1B78DBB29AB2FB681A82CA
:1009100006E03B695A1E3A61002B01D1002357E2E1
:10092000FB689B8A9BB203F00203002BF1D0FB68AB
:100930001B8B9BB27B61FB68884A934210D100BF3E
:100940004FF000700BF03CFE0346002BF8D08448BB
:1009500000210BF019FE4FF000700BF05BFE0FE072
:1009600000BF4FF400300BF02BFE0346002BF8D0F5
:100970007C4800210BF008FE4FF400300BF04AFEDB
:10098000FB681B889BB243F400739AB2FB681A8021
:1009900000BFFB681B889BB203F40073002BF8D1E7
:1009A00015E2FB78002B40F0CA817B68012B72D1E5
:1009B0004FF6FF733B61FB681B889BB243F4807367
:1009C0009AB2FB681A8006E03B695A1E3A61002B16
:1009D00001D10023FCE1FB689B8A9BB203F0010379
:1009E000002BF1D097F8203043F0010387F8203036
:1009F000594A97F820301370574B1B78DBB29AB2E4
:100A0000FB681A824FF6FF733B6106E03B695A1E92
:100A10003A61002B01D10023DAE1FB689B8A9BB28B
:100A200003F00203002BF1D0FB681B889BB223F478
:100A300080639AB2FB681A80FFF708FFFB681B8B84
:100A40009BB27B61FB681B889BB243F400739AB234
:100A5000FB681A80FFF7F2FE00BFFB689B8A9BB21F
:100A600003F04003002BF8D0FB681B8A9BB2DAB27C
:100A7000BB681A7000BFFB681B889BB203F400734D
:100A8000002BF8D1FB681B889BB243F480639AB2B9
:100A9000FB681A809BE17B68022B40F0A380FB6817
:100AA0001B889BB243F400639AB2FB681A804FF62E
:100AB000FF733B61FB681B889BB243F480739AB25F
:100AC000FB681A8006E03B695A1E3A61002B01D18F
:100AD00000237DE1FB689B8A9BB203F00103002B9E
:100AE000F1D04FF6FF733B6197F8203043F00103DC
:100AF00087F82030184A97F820301370164B1B786F
:100B0000DBB29AB2FB681A8206E03B695A1E3A6170
:100B1000002B01D100235BE1FB689B8A9BB203F0B1
:100B20000203002BF1D0FFF791FEFB681B8B9BB2F9
:100B30007B61FB681B889BB223F480639AB2FB68DD
:100B40001A80FFF77BFE0FE03B695A1E3A61002BCB
:100B50000AD100233CE100BF881800200054004067
:100B60008000024058000240FB689B8A9BB203F061
:100B70000403002BE8D0FFF769FEF86801210BF0B1
:100B8000BBFEFB681B8A9BB2DAB2BB681A70FFF728
:100B900055FEBB680133BB60FB681B8A9BB2DAB2AF
:100BA000BB681A7006E03B695A1E3A61002B01D1FE
:100BB00000230DE1FB681B889BB203F40073002B3C
:100BC000F1D1FB681B889BB243F480639AB2FB6847
:100BD0001A80FB681B889BB223F400639AB2FB68FF
:100BE0001A80F4E04FF6FF733B61FB681B889BB2F1
:100BF00043F480739AB2FB681A8006E03B695A1E80
:100C00003A61002B01D10023E2E0FB689B8A9BB292
:100C100003F00103002BF1D04FF6FF733B6197F80F
:100C2000203043F0010387F820306B4A97F82030DA
:100C30001370694B1B78DBB29AB2FB681A8206E02C
:100C40003B695A1E3A61002B01D10023C0E0FB68CA
:100C50009B8A9BB203F00203002BF1D0FB681B8B35
:100C60009BB27B6157E07B68032B13D000BFFB680E
:100C70009B8A9BB203F00403002BF8D0FB681B8A0D
:100C80009BB2DAB2BB681A70BB680133BB607B6889
:100C9000013B7B607B68032B3DD100BFFB689B8AD7
:100CA0009BB203F00403002BF8D0FB681B889BB2B7
:100CB00023F480639AB2FB681A80FFF7C7FDFB68D4
:100CC0001B8A9BB2DAB2BB681A70BB680133BB6087
:100CD000FB681B889BB243F400739AB2FB681A80CE
:100CE000FB681B8A9BB2DAB2BB681A70FFF7A6FDDD
:100CF000BB680133BB6000BFFB689B8A9BB203F0FB
:100D00004003002BF8D0FB681B8A9BB2DAB2BB68A9
:100D10001A7000237B607B68002BA4D100BFFB68A6
:100D20001B889BB203F40073002BF8D1FB681B886F
:100D30009BB243F480639AB2FB681A8047E0FB6879
:100D40009B889BB243F400739AB2FB689A80FB685D
:100D50009B889BB243F480639AB2FB689A801F4BD6
:100D600001221A6097F8203043F0010387F8203001
:100D7000194A97F820301370FB68194A934203D13F
:100D8000184A7B68136002E0174A7B681360FB68AF
:100D90001B889BB243F480739AB2FB681A8000BF31
:100DA000FB681B889BB203F48073002BF8D100BF53
:100DB000FB681B8B9BB203F00203002BF8D1FB688E
:100DC0001B889BB243F480639AB2FB681A800123AC
:100DD00018461837BD4680BD8818002088000020BE
:100DE00000540040901800208C18002080B582B07C
:100DF00000AF0023FB710023BB71174B9B680023DE
:100E0000BB71BB79002B23D1134A134B1B6943F4ED
:100E100080631361052005F03FFD0023FB7114E0A2
:100E20000D4A0D4B5B6943F480635361052005F067
:100E300033FD094A084B1B6943F4806313610520A5
:100E400005F02AFDFB790133FB71FB79092BE7D90A
:100E50000837BD4680BD00BF000C014080B588B09A
:100E600000AF78600920012109F0AAF801200121D2
:100E700009F088F87B68764A934223D14FF400103A
:100E8000012109F0BBF84023BB830323BB771C235C
:100E9000FB7707F11C036F48194600F01DFA802309
:100EA000BB8307F11C036B48194600F015FA4FF499
:100EB0000010012109F0DEF84FF40010002109F0C4
:100EC000D9F83EE04FF40063BB834823FB7707F17A
:100ED0001C036048194600F0FFF94FF48063BB83A0
:100EE0001023FB7707F11C035A48194600F0F4F968
:100EF000FFF77CFF4FF48000012109F07FF84FF4E9
:100F00008063BB830323BB771C23FB7707F11C03A0
:100F10005048194600F0E0F91C23FB774FF40063BA
:100F2000BB8307F11C034B48194600F0D5F94FF479
:100F30008000012109F09EF84FF48000002109F0A3
:100F400099F800233B824BF6FF737B823023BB82F0
:100F50004FF48063FB824FF480433B833E4BFB6046
:100F600007F10C033A4819460BF004FC1023BB822E
:100F700007F10C03394819460BF0FCFB7B68344A37
:100F8000934231D136480BF005FA364B364A1A6097
:100F9000344B00225A60334B10229A60314B4FF68B
:100FA000FF72DA602F4B00221A612E4B80225A61A9
:100FB0002C4B00229A612B4B0022DA61294B002234
:100FC0001A62284B4FF440525A62264B00229A6212
:100FD000234824490BF09AFA24480BF0DBF9234804
:100FE00020490BF093FA30E021480BF0D3F91D4B68
:100FF000204A1A601B4B00225A601A4B10229A603A
:10100000184B4FF6FF72DA60164B00221A61154B2F
:1010100080225A61134B00229A61124B0022DA613E
:10102000104B00221A620F4B4FF440525A620D4B84
:1010300000229A620E480B490BF068FA0E480BF03A
:10104000A9F90D4807490BF061FA2037BD4680BD6C
:1010500000540040000C0140801A06000058004077
:101060006C0002405C1800201054004080000240D8
:1010700044000240105800405800024080B584B03F
:1010800000AFF860B9607A603B603B68002B2CD100
:10109000BB682D4A53602C4B10229A602A4A7B6809
:1010A000D360FB68294A93420FD1274B284A1A6024
:1010B000284800210BF068FA264823490BF026FA4D
:1010C000244801210BF060FA3BE01F4B224A1A60D2
:1010D000224800210BF058FA20481B490BF016FA61
:1010E0001E4801210BF050FA2BE0BB68164A5360F2
:1010F000154B00229A60144A7B68D360FB68134A40
:1011000093420FD1104B124A1A60154800210BF080
:101110003BFA13480C490BF0F9F9114801210BF087
:1011200033FA0EE0084B0C4A1A600E4800210BF00F
:101130002BFA0C4804490BF0E9F90A4801210BF09D
:1011400023FA1037BD4680BD5C18002000540040D3
:10115000105400406C00024010580040440002400F
:10116000800002405800024080B500AF164A164B7E
:101170001B6843F0010313601349134B5A68134B68
:1011800013404B60104A104B1B6823F0847323F408
:10119000803313600C4A0C4B1B6823F480231360CC
:1011A000094A094B5B6823F4FE035360064B4FF476
:1011B0001F029A60044B0022DA6200F00BF8044B25
:1011C0004FF000629A6080BD001002400000FFF8FE
:1011D00000ED00E080B500AF00F002F880BD00BF78
:1011E00080B483B000AF00237B6000233B60304AB3
:1011F0002F4B1B6843F4803313602D4B1B6803F4A3
:1012000000333B607B6801337B603B68002B03D17C
:101210007B68B3F5A06FF0D1254B1B6803F0020388
:10122000002B02D001233B6001E000233B603B68C0
:10123000012B37D11E4A1E4B5B6853601C4A1C4B66
:101240005B6853601A4A1A4B5B685360184A184B24
:101250005B6823F47C135360154A154B5B6843F4B9
:1012600098135360124A124B1B6843F0807313604B
:1012700000BF0F4B1B6803F00073002BF9D00C4A22
:101280000B4B5B6823F003035360094A084B5B6810
:1012900043F00203536000BF054B5B6803F00C038F
:1012A000082BF9D10C37BD465DF8047B704700BFB1
:1012B0000010024080B483B000AF03460A46FB71C1
:1012C0001346BB71034B00221A700C37BD465DF804
:1012D000047B70470000002080B489B000AF7860C4
:1012E00039600023FB6100233B610023BB610023C5
:1012F000FB6000237B610023BB603B68DB7803F06D
:101300000F03FB613B68DB7803F01003002B05D073
:101310003B689B781A46FB691343FB613B681B885B
:10132000DBB2002B44D07B681B687B610023BB6170
:1013300038E0BB69012202FA03F3FB603B681B88BB
:101340001A46FB6813403B613A69FB689A4226D112
:10135000BB699B00FB60FB680F2202FA03F3BB60D2
:10136000BB68DB437A6913407B61FB68FA6902FA68
:1013700003F37A6913437B613B68DB78282B05D143
:10138000BB6901229A407B685A6108E03B68DB78C0
:10139000482B04D1BB6901229A407B681A61BB6962
:1013A0000133BB61BB69072BC3D97B687A691A60BB
:1013B0003B681B88FF2B4AD97B685B687B610023F5
:1013C000BB613EE0BB6908331A4601239340FB60D2
:1013D0003B681B881A46FB6813403B613A69FB680F
:1013E0009A422BD1BB699B00FB60FB680F2202FA7B
:1013F00003F3BB60BB68DB437A6913407B61FB6826
:10140000FA6902FA03F37A6913437B613B68DB787C
:10141000282B07D1BB6908331A46012303FA02F2CD
:101420007B685A613B68DB78482B07D1BB6908337E
:101430001A46012303FA02F27B681A61BB69013381
:10144000BB61BB69072BBDD97B687A695A602437B9
:10145000BD465DF8047B704780B483B000AF786010
:101460007B684FF6FF721A807B6802229A707B6855
:101470000422DA700C37BD465DF8047B704700BF6C
:1014800080B487B000AF78600B46FB7000233B61EF
:101490000023FB6000237B610023BB607B68002B83
:1014A00003DA2E4BDB697B6102E02C4B5B687B61CE
:1014B0007B6803F470231B0CBB607B689BB23B61B1
:1014C0007B6803F44013B3F5401F0AD17B6923F016
:1014D00070637B61214A214B5B6823F0706353602A
:1014E00021E07B6803F48013002B0ED0BB6803223D
:1014F00002FA03F3FB60FB68DB437A6913407B610C
:101500007B6943F070637B610DE07B685B0D1B01C1
:101510001A463B699340DB437A6913407B617B69E0
:1015200043F070637B61FB78002B08D07B685B0D18
:101530001B011A463B6993407A6913437B617B68C0
:10154000002B03DA054A7B69D36102E0034A7B6919
:1015500053601C37BD465DF8047B704700000140B6
:1015600090B484B000AF03460A46FB711346BB71CA
:101570000023FB60BB7903F003039B000F2202FAF8
:1015800003F3FB601649BB799B08DBB21846144A8B
:10159000BB799B08DBB2023352F82320FB68DB43A4
:1015A0001A40831C41F823200D48BB799B08DBB20D
:1015B0001C460B4ABB799B08DBB2023352F823204E
:1015C000F979BB7903F003039B0001FA03F31A4393
:1015D000A31C40F823201037BD4690BC704700BFC5
:1015E0000000014080B483B000AF0346FB7108499E
:1015F00097F907305B09FA7902F01F02012000FA1F
:1016000002F241F823200C37BD465DF8047B704799
:1016100000E100E080B483B000AF0346FB710949EC
:1016200097F907305B09FA7902F01F02012000FAEE
:1016300002F2203341F823200C37BD465DF8047BCD
:10164000704700BF00E100E080B483B000AF034604
:101650003960FB7197F90730002B0BDA0D49FB79E4
:1016600003F00F03043B3A68D2B21201D2B20B442A
:101670001A7609E0084997F907303A68D2B21201A0
:10168000D2B20B4483F800230C37BD465DF8047BCF
:10169000704700BF00ED00E000E100E080B483B0DF
:1016A00000AF0346FB71FB79002B02D0012B05D064
:1016B00009E0074B4FF480425A6104E0044B4FF4B9
:1016C00000425A6100BF0C37BD465DF8047B70478D
:1016D000000C014080B483B000AF0346FB71FB797E
:1016E000002B02D0012B05D009E0074B4FF48042BC
:1016F0001A6104E0044B4FF400421A6100BF0C373A
:10170000BD465DF8047B7047000C014080B582B097
:1017100000AF0346FB71FB79184600F09BFAFB799A
:101720001846FFF7BBFF45F2082005F0B5F8FB7936
:101730001846FFF7CFFFFB79184600F023FA094B54
:1017400007221A70084B00221A70084B00221A70E8
:10175000074B00221A70074B00221A800837BD463B
:1017600080BD00BF24000020C1000020C300002075
:10177000C2000020A400002080B584B000AF034662
:10178000FB710120FFF7A6FF192008F003FE0023DC
:10179000FB7306E0FB7B0F4A0021D154FB7B013336
:1017A000FB73FB7B042BF5D90B4B00221A80252001
:1017B000FFF730FFFB791846FFF7A8FFC82008F0B5
:1017C000E9FD2520FFF70EFF00F008F81037BD46B1
:1017D00080BD00BF28190020A400002080B582B081
:1017E00000AF0A2008F0D6FD0023FB71804B1B7868
:1017F000DBB2012B40F0B0810A2008F0CBFD7D4B1D
:101800001B781B029AB27B4B5B789BB213449AB253
:10181000794B5A80774B9B781B029AB2754BDB78D9
:101820009BB213449AB2744B1A80724B1A79724B62
:101830001A71714B5B889AB2704B1B889BB29A42AB
:101840000AD96D4B5B889AB26D4B1B889BB29A424A
:1018500002D26C4B00221A70674B5B889AB2674BBE
:101860001B889BB29A4202D2664B01221A70624BCD
:101870005B889AB2624B1B889BB29A4202D9614B39
:1018800002221A705B480021042200F01BFA034672
:101890001A46584B1B799A4240F05E810A2008F0A4
:1018A00079FD594B1B78DBB2002B03D0012B00F0E4
:1018B0009B804EE10023FB7108E0FB79FA794D49EA
:1018C000895C524AD154FB790133FB71FB79032BBC
:1018D000F3D90A2008F05EFD474B1B889BB24C4AA7
:1018E000A2FB031292094FF47A7101FB02F29B1AD8
:1018F0009BB2484AA2FB03235B099BB2DBB23033A5
:10190000DAB2454B1A703C4B1B889BB2414AA2FB92
:1019100003125209642101FB02F29B1A9BB23F4A57
:10192000A2FB0323DB089BB2DBB23033DAB23A4BC3
:101930005A70394B2E229A702F4B1B889AB2374B14
:10194000A3FB0213D9080B469B000B445B00D31A80
:101950009BB2DBB23033DAB22F4BDA700A2008F0D8
:1019600019FD254B5B889BB2294AA2FB0312920901
:101970004FF47A7101FB02F29B1A9BB2254AA2FB3B
:1019800003235B099BB2DBB23033DAB2244B1A700B
:10199000194B5B889BB21F4AA2FB031252096421B8
:1019A00001FB02F29B1A9BB21C4AA2FB0323DB0839
:1019B0009BB2DBB23033DAB2194B5A70184B2E227D
:1019C0009A700D4B5B889AB2144BA3FB0213D90893
:1019D0000B469B000B445B00D31A9BB2DBB2303347
:1019E000DAB20F4BDA70B4E00023FB7123E000BFE2
:1019F000C200002028190020AC000020A000002018
:101A00009E000020A200002025000020B40000203D
:101A1000D34D62101F85EB51C8000020CDCCCCCC3B
:101A2000C4000020FB79FA794D49895C4D4AD154B4
:101A3000FB790133FB71FB79032BF3D90A2008F002
:101A4000A9FC494B1B889BB2484AA2FB031292098E
:101A50004FF47A7101FB02F29B1A9BB2444AA2FB3B
:101A600003235B099BB2DBB23033DAB2414B1A700D
:101A70003D4B1B889BB23E4AA2FB031252096421D4
:101A800001FB02F29B1A9BB23B4AA2FB0323DB0839
:101A90009BB2DBB23033DAB2364B5A70354B2E2262
:101AA0009A70314B1B889AB2334BA3FB0213D908AF
:101AB0000B469B000B445B00D31A9BB2DBB2303366
:101AC000DAB22C4BDA700A2008F064FC264B5B88F3
:101AD0009BB2264AA2FB031292094FF47A7101FBD2
:101AE00002F29B1A9BB2224AA2FB03235B099BB220
:101AF000DBB23033DAB2214B1A701B4B5B889BB2DE
:101B00001B4AA2FB03125209642101FB02F29B1A39
:101B10009BB2194AA2FB0323DB089BB2DBB2303332
:101B2000DAB2164B5A70154B2E229A700E4B5B8808
:101B30009AB2114BA3FB0213D9080B469B000B442E
:101B40005B00D31A9BB2DBB23033DAB20B4BDA70E4
:101B500000BF0B4B00221A700837BD4680BD00BF86
:101B600028190020BC000020AC000020D34D6210DA
:101B70001F85EB51D0000020CDCCCCCCCC00002078
:101B8000C200002080B586B000AF0346FB7107F1AC
:101B900014031846FFF760FC0820012108F010FA32
:101BA0004823FB75FB79002B02D0012B13D025E0D5
:101BB0004FF48043BB8207F1140323481946FFF713
:101BC0008BFB28233B7201200E21FFF7C9FC4FF449
:101BD0008043FB6012E04FF40043BB8207F1140323
:101BE00019481946FFF778FB28233B7201200F2183
:101BF000FFF7B6FC4FF40043FB6000BF134A134BE2
:101C00009B6943F480339361114B00221A85104B7A
:101C100001221A8000233B7410237B740123BB74C0
:101C200007F10C03184608F043FA0F237B720F23C9
:101C3000BB720123FB7207F1080318460AF016FD78
:101C40001837BD4680BD00BF000C014000100240A7
:101C50000040014080B487B000AF0346FB71002311
:101C60003B610023FB60FB79012B0CD0022B13D0CE
:101C7000002B12D1124B7B614FF040633B614FF060
:101C80008073FB6009E00E4B7B614FF040433B618A
:101C90004FF08053FB6000E000BF7B695A683B69EE
:101CA000DB431A407B695A607B695A68FB681A43B8
:101CB0007B695A601C37BD465DF8047B704700BFE6
:101CC000000C014080B485B000AF78600B46FB701B
:101CD0001346BB700023FB730023BB730023BB734D
:101CE0000CE0BA7BFB7813441A467B6813441A78DD
:101CF000FB7B1344FB73BB7B0133BB73BA7BBB78A9
:101D00009A42EED3FB7B18461437BD465DF8047B40
:101D1000704700BF80B582B000AF3E4B1B78DBB28E
:101D200003F004039B10012B6ED13B4B9B889BB2AD
:101D300040F68C22934202D9384B3D221A70012082
:101D400008F028FB06F0D8FD7860324B1B78DBB238
:101D500003F00803DB10012B20D12F4B9B889AB294
:101D60002F4B1B889BB29A4218D22A4B1B78DBB2AE
:101D700003F00103002B11D02A4B1B687A689A42AA
:101D80000BD9264B3E221A70274B1B78DBB243F04F
:101D90000803DAB2244B1A7009E008E006F0ACFD43
:101DA0000246224B1B889BB213441E4A136001203B
:101DB00008F0F0FA1E4B1B889AB21E4B1B889BB290
:101DC0009A4207D21A4B1B889BB2002B02D00020EC
:101DD00002F054FB012008F0DDFA154B5B889AB243
:101DE000144B5B889BB29A4207D2114B5B889BB223
:101DF000002B02D0022002F041FB012008F0CAFAB9
:101E00000B4B5B880C4B5B88012008F0C3FA08374A
:101E1000BD4680BD28000020500100201E0100208A
:101E2000300100202C0100201F0100203201002081
:101E30008C000020480100204C01002080B584B0B7
:101E400000AF0346FB800023FB730023BB7300231A
:101E5000FB7311E0FA88FB7B42FA03F3DBB203F079
:101E60000103BB73BB7B012B03D1FB7B184602F044
:101E7000ABFAFB7B0133FB73FB7B0F2BEAD91037EB
:101E8000BD4680BD80B582B000AF0023FB7100234A
:101E9000FB7106E0FB79184602F0F0FAFB7901339A
:101EA000FB71FB790E2BF5D90837BD4680BD00BF0D
:101EB00080B584B000AF78600023BB600023FB6076
:101EC00006F01AFDF86006F017FD02467B68134421
:101ED000BB6005F06DF91E2008F05CFA22E00020DE
:101EE000002107F0EDFC1C4807F0ACFC1B4B1B78F5
:101EF000DBB2184607F07CF84FF4FA7008F04AFAA3
:101F000005F09CF9BB68DAB2FB68DBB2D31ADAB22F
:101F1000124B1A7006F0F0FCF860322008F03AFA22
:101F20000BF084F90E4B1B78DBB203F00803DB10D7
:101F3000002B03D1FA68BB689A42D0D3094B1B78B7
:101F4000DBB223F00103DAB2064B1A7005F060F938
:101F50001037BD4680BD00BF34D400081E010020EC
:101F60001F0100202800002080B582B000AF7860FB
:101F7000FFF788FF042002F027FA4FF4FA7008F008
:101F800009FA012002F020FA4FF4FA7008F002FA80
:101F90007868FFF78DFF0837BD4680BD80B582B0F9
:101FA00000AF0346FB711D4B1B78DBB2002B12D137
:101FB0001B4B1B78DBB25A1CD1B2194A117019465F
:101FC000FB79184AA2FB03235B09DBB23033DAB298
:101FD000154B5A5411E0124B1B78DBB25A1CD1B28C
:101FE0000F4A11701946FB790E4AA2FB03235B09C5
:101FF000DBB23033DAB20D4B5A54FB79094AA2FBFB
:1020000003125209642101FB02F29B1ADBB218464B
:1020100006F0EEFF0837BD4680BD00BF0901002075
:10202000080100201F85EB51E8000020F800002087
:1020300080B584B000AF0023FB730023BB73002383
:102040007B7300237B8100237B6000233B6007F0D0
:102050005BFC744807F0F6FB4FF4FA7008F09AF94D
:10206000714B00221A7034E006F0A2FE03461A46B5
:102070006D4B1A700020002107F022FC6B4807F01E
:10208000E1FB6B4B1B689BB2184600F0EDF9694809
:1020900007F0D8FB664B5B689BB2184600F0E4F98A
:1020A0000120002107F00CFC0A2008F073F96248B7
:1020B00007F0C8FB5E4B9B689BB2184600F0D4F952
:1020C0005E4807F0BFFB5A4BDB689BB2184600F036
:1020D000CBF9554B1B78DBB2002BC5D007F014FCB5
:1020E000514B1B78DBB2013BBB734F4B00221A7084
:1020F000534807F0A7FBFB7B184605F08FFC03460F
:10210000FB73FB7B184602F0B9F907F0FDFB4D4865
:1021100007F098FB7B7B184605F080FC03467B7339
:10212000BB7B434A52F823307B6007F0EDFB464807
:1021300007F088FBFB7B184602F046F93A4B002279
:102140001A7019E00A2008F025F906F031FE03465E
:102150001A46354B1A7007F0D7FB3C4807F072FB64
:102160000120002107F0ACFBBB7B314A52F8233041
:102170009BB2184600F078F92B4B1B78DBB2022B90
:10218000E0D1BB7B2A4A52F823303B60FB7B1846E8
:1021900002F074F9C82008F0FDF83B689AB27B6839
:1021A0009BB2D31A9BB21A467B7B92FBF3F37B81E3
:1021B000BB7B27497A8921F8132007F0A5FB254826
:1021C00007F040FB3B689BB2184600F04DF9012038
:1021D000002107F075FB204807F034FB7B89184687
:1021E00000F042F97B8940F2426019460AF012FE83
:1021F0000D4B00221A7008E00A2008F0CBF806F018
:10220000D7FD03461A46084B1A70074B1B78DBB202
:10221000022BF1D107F078FBC82008F0BBF810378B
:10222000BD4680BD3CD400081D01002048D40008F4
:10223000981800204CD4000850D4000854D400084A
:1022400058D4000868D4000878D4000888D400085E
:10225000B018002098D40008A0D4000880B584B03D
:1022600000AF0346FB710B46BB711346BB800023D6
:10227000FB60BB88104A128892B202FB03F30F4A3C
:10228000A2FB0323DB08FB60002002F09DF8BB7972
:102290000B4A002142F8231002E00A2008F07AF8E5
:1022A000074B1A68FB689A42F7D3002002F0E6F861
:1022B0001037BD4680BD00BFB0180020CDCCCCCCBF
:1022C0009818002080B584B000AF0346FB710B4620
:1022D000BB711346BB800023BB600023FB8107F06A
:1022E00013FB564807F0AEFA08E00A2008F052F84F
:1022F00006F05EFD03461A46514B1A70504B1B7890
:10230000DBB2002BF1D04E4B1B78DBB2022B01D19C
:10231000FFF78EFE01237B7389E007F0F5FA494849
:1023200007F090FA484B1B889BB2184600F09CF8C7
:10233000FB891846052105F023FC0346FB81FB8938
:10234000414A128892B202FB03F3404AA2FB0323E4
:10235000DB08BB6007F0D8FA3D4807F073FABB68AA
:102360009BB2184600F080F80120002107F0A8FA7F
:10237000384807F067FABB79374A52F82330364AB3
:1023800052F823309BB2184600F06EF82C4B002216
:102390001A70002002F018F8BB792F4A002142F889
:1023A00023101BE00A2007F0F5FF07F0ADFA2B48D9
:1023B00007F048FABB79284A52F823309BB21846F6
:1023C00000F052F80120002107F07AFA244807F0C3
:1023D00039FABB689BB2184600F046F81E4B1A68E3
:1023E000BB689A42DED3002002F048F807F08CFA6E
:1023F0001C4807F027FA08E00A2007F0CBFF06F098
:10240000D7FC03461A460E4B1A700D4B1B78DBB2F5
:10241000002BF1D00A4B1B78DBB2022B05D1012334
:102420007B730D4B00221A6001E000237B737B7BE2
:10243000012B3FF472AF1037BD4680BDA8D4000811
:102440001D010020B8D40008B0180020CDCCCCCCA1
:10245000C4D40008CCD4000898180020D0D40008B8
:10246000D8D40008DCD4000880B582B000AF0346A1
:10247000FB80FB88164AA2FB03235B0B9BB2DBB2FB
:10248000184606F0B5FDFB88114AA2FB0312520B59
:1024900042F2107101FB02F29B1A9BB20D4AA2FBA1
:1024A00003235B099BB2DBB2184606F0A1FDFB8853
:1024B000084AA2FB03125209642101FB02F29B1A93
:1024C0009BB2DBB2184606F093FD0837BD4680BDCF
:1024D0005917B7D11F85EB5180B485B000AF0346C3
:1024E0003960FB711346BB710023FB730023FB7340
:1024F0000AE0FB7B3A6813441B78DAB2FB7953405D
:10250000FB71FB7B0133FB73FA7BBB799A42F0D3FF
:10251000FB7918461437BD465DF8047B704700BF51
:1025200080B500AF674840F2255108F0B5FD03467D
:10253000002B2AD0634808F08FFD0346DAB2624BC5
:102540001A70624B1B78DBB25A1CD1B25F4A117011
:102550001A465D4B1B78D9B25D4B99545D4B1B8875
:1025600001339AB25B4B1A805A4B1B884EF660229D
:10257000934202D9574B00221A80524A514B1B8872
:102580009BB223F020039BB21380534B1B78DBB22A
:10259000002B40F09580514B1B78DBB2042B52D1BD
:1025A0004F4B1B78DBB2002B04D1474B1B78DAB2C0
:1025B0004C4B1A704A4B1B78DBB25A1CD1B2484ABA
:1025C00011701A46404B1B78D9B2414B9954444B79
:1025D0001B78DBB21A46434B1B78DBB2033B9A42B3
:1025E00031D1404B1B78DBB2043BDBB230203849A1
:1025F0001A46FFF771FF03461A463B4B1A70374BDA
:1026000000221A70364B00221A70384B00221A70C2
:10261000354B1B78DBB2002B13D1324B1B78DBB26E
:10262000043B2B4AD35CDAB2314B1A70314B1B7826
:10263000DBB20133DAB22F4B1A70274B01221A702A
:1026400001E000F029F9204B1B78DBB25A2B03D1B3
:10265000264B01221A7033E01B4B1B78DBB2582B40
:1026600008D1224B1B78DBB2012B03D11F4B022276
:102670001A7025E01D4B1B78DBB2022B20D1124BC8
:102680001B78DBB2302B18D00F4B1B78DBB2312B11
:1026900006D1124B03221A70114B00221A700CE063
:1026A000094B1B78DBB2322B07D10C4B04221A707A
:1026B0000B4B00221A7000F0EFF80C4B00221A703E
:1026C00080BD00BF00380140E2000020E50000208E
:1026D000BC180020D400002062010020610100200D
:1026E0005F01002060010020E60000205E01002064
:1026F000980000209400002080B586B002AF78607A
:102700004FF47A6007F046FE0023FB6001200121B0
:1027100006F076FE0023FB7206F0EEF803463C332B
:10272000FB6004F017FC06F0E7F80246FB689A42EB
:102730000FD90120002106F063FEC82007F02AFE11
:102740000120012106F05CFE06F0D6F803460A33AC
:10275000FB600123FB72642007F01CFEFB7A002B58
:1027600016D01E4B5B789AB21C4B1B781B029BB297
:1027700013449AB21A4B1A809A23009319481749A6
:1027800002220223FEF76AF8FB7A013BFB720DE09E
:102790000A23FB72134809F0CBFFC82007F0FAFDAB
:1027A0001048FEF75BFBC82007F0F4FD642007F03B
:1027B000F1FD0020FEF7E0FF322007F0EBFD0AF00C
:1027C0001BFDFFF7A7FA322007F0E4FD0120FEF71A
:1027D000D3FF4FF4C87007F0DDFDA2E7180000201A
:1027E0006C0100200058004080B584B000AF7860D4
:1027F0000023FB730AF01AFD224B1B78DBB203F0B7
:102800000803DAB21F4B1A701E2007F0C3FD1E4BDF
:102810001B78DBB2012B30D100F050F91B4B5B78F9
:10282000DBB2312B04D9194B5B78DBB2632B21D996
:10283000164B5B78DAB2164B1A700023FB7311E06B
:10284000124B1B78DBB2043B104AD35CDBB2184658
:1028500000F0BAF8192007F09DFD0AF0E7FCFB7BB9
:102860000133FB73FB7B092BEAD900F015F8094B08
:1028700000221A70044B00221A70322007F08AFDE1
:10288000B8E700BF6801002062010020BC180020EA
:10289000700100205F01002080B483B000AF0023EE
:1028A000FB710023FB7106E0FB79074A0021D1543C
:1028B000FB790133FB71FB79292BF5D90C37BD4628
:1028C0005DF8047B704700BFBC18002080B582B063
:1028D00000AF0023FB710B4B00221A700023FB7129
:1028E00009E0FB79084A0021D154012007F052FD8C
:1028F000FB790133FB71FB79292BF2D90837BD46EF
:1029000080BD00BF27000020F018002080B500AF78
:10291000194B00221A70194BDB78DBB20133DAB2A3
:10292000174B1A70154BDB78DBB21A46134B0D218F
:102930009954144B00221A700F4B01221A70104B3D
:102940001B78DBB218460D4901F042FB04E014206D
:1029500007F020FD0AF06AFC4FF4005009F030FE49
:102960000346002BF3D0322007F014FD0AF05EFC82
:10297000014B00221A7080BDE3000020F0180020F7
:1029800027000020E400002080B584B000AF03469B
:102990000A46FB711346BB710023FB730023FB73D4
:1029A0000BE0FB79184600F00FF8322007F0F2FC3C
:1029B0000AF03CFCFB7B0133FB73FA7BBB799A4248
:1029C000EFD31037BD4680BD90B583B000AF03464E
:1029D000FB71FFF77BFF1D4B5A221A701B4B5822CD
:1029E0005A701A4B37229A70184B0722DA70174A1E
:1029F000FB791371154BDB78DBB29C1E134BDB7834
:102A0000DBB2013BDBB2002010491A46FFF764FD40
:102A100003461A460D4B1A550C4BDB78DBB2013BD3
:102A20000A4A0021D154012007F0B4FCFFF76EFFE1
:102A3000074B1B78DBB20133DAB2054B1A70054A3B
:102A4000FB7913700C37BD4690BD00BFF018002015
:102A5000E0000020E100002080B582B000AF034616
:102A6000FB710B46BB8013467B80FFF70BFAFB79AB
:102A7000184601F0A9FCBB881846FFF7DFF90837B4
:102A8000BD4680BD80B582B000AF0023FB8000232F
:102A9000BB800DE0FB8803F5B863BB80BB8818469C
:102AA00000F016FFFB881033FB80022007F072FC59
:102AB000FB88C72BEED90837BD4680BD80B586B0F0
:102AC00002AF0023FB810023FB800023BB81002396
:102AD000BB60C44B5B78DBB23F2B00F22D8301A2BD
:102AE00052F823F0E52B0008112C0008272C0008D1
:102AF000332C00083B2C0008492C0008572C0008F8
:102B000039310008652C00087D2C0008B72C00081E
:102B1000D72C00081D2D0008492D0008692D00083C
:102B20009B2D0008BF2D0008012E0008252E00084F
:102B3000492E000839310008393100084F2E0008AD
:102B40005B2E0008672E0008393100083931000873
:102B500039310008393100083931000839310008AD
:102B6000732E0008FB2E0008432F00088B2F00084F
:102B7000912F00089F2F0008E72F0008ED2F000875
:102B8000393100083931000839310008393100087D
:102B9000393100083931000839310008393100086D
:102BA000393100083931000839310008393100085D
:102BB000233000083130000839310008393100086D
:102BC000393100083F300008613000089D300008AE
:102BD000C1300008E3300008E9300008EF30000899
:102BE000FD3000087F4B9B78D8B27E4BDB78D9B2A2
:102BF0007C4B1B79DBB29BB21B029AB2794B5B799F
:102C0000DBB29BB213449BB21A46FFF727FB93E259
:102C1000744B9B78DAB2734BDB78DBB21046194603
:102C200004F0DAFD88E2704B33221A7004F0F0FAF7
:102C300082E26D4B30221A707EE26A4B9B78DBB2E7
:102C4000184601F0C1FB77E2664B9B78DBB2184671
:102C500001F014FC70E2634B9B78DBB2184600F085
:102C6000C7FE69E2604B1B78DBB2332B05D15D4BAD
:102C70009B78DAB25D4B1A705EE25DE2594B1B78CD
:102C8000DBB21A46574B9B5CDBB218460F21FFF7AD
:102C90007BFEC82007F07EFB524B9B78D9B2514B8C
:102CA000DB78DAB24F4B1B79DBB2084611461A4685
:102CB00000F084FC40E205F01FFE03463C334C4A22
:102CC00013604C4B00221A704B4B00221A704B4B76
:102CD00000221A7030E2454B00221A70424B332218
:102CE0001A70444B1B78DBB203F00103DAB2414B9C
:102CF0001A700020002104F06FFD0120002104F073
:102D00006BFD0220002104F067FD0320002104F088
:102D100063FD04F07DFAFFF7B5F80DE2314B9B78C7
:102D2000DBB21B022F4AD278D2B213441B022D4AC7
:102D30001279D2B213441B022A4A5279D2B21344F6
:102D4000184605F0EBFDF7E1264B1B78DBB21A467F
:102D5000244B9B5CDBB218460521FFF715FE42F2BF
:102D6000107007F017FBE7E11E4B1B78DBB21A4629
:102D70001C4B9B5CDBB218460F21FFF705FE0520BC
:102D800007F008FB174B9B78DAB2164BDB78DBB207
:102D90001046194602F0ACFCCEE1124B9B78DBB238
:102DA0009AB2104BDB78DBB29BB21B029BB213448E
:102DB000FB81FB891846012100F040FCBCE1094B76
:102DC0009B78DBB29AB2074BDB78DBB29BB21B027B
:102DD0009BB21344FB81FB891846102100F02EFCA6
:102DE000AAE100BFBC180020260000202800002017
:102DF0002C0100201F0100201E010020680100207E
:102E0000A04B9B78DBB29AB29E4BDB78DBB29BB2D5
:102E10001B029BB21344FB81FB8918460A2100F078
:102E20000DFC89E1974B9B78DBB29AB2954BDB782E
:102E3000DBB29BB21B029BB21344FB81FB89184699
:102E40000B2100F0FBFB77E106F044FC74E18D4BB5
:102E50009B78DAB28C4B1A706EE18A4B9B78DAB2AF
:102E60008A4B1A7068E1874B9B78DAB2884B1A70EC
:102E700062E1844B9B78DBB21B029AB2814BDB7818
:102E8000DBB29BB21344FB81FA89BB1D1046194685
:102E900009F074FF7B4B1B79DBB2002B14D1FB884C
:102EA000DBB29BB2FB80774B5B79DBB21B029BB240
:102EB0009AB2FB8813449BB2FB80FB88FA891046C8
:102EC000194609F0A7FF17E06E4B1B79DBB2012B07
:102ED00012D1FB8823F0FF039BB2FB80694B5B7927
:102EE000DBB29AB2FB8813449BB2FB80FB88FA8961
:102EF0001046194609F08EFF1EE1624B9B78DBB24B
:102F00001B029AB25F4BDB78DBB29BB21344FB81AE
:102F10005C4B1B79DBB21B029AB25A4B5B79DBB27A
:102F20009BB213449BB2FB80FB88FA89104619467A
:102F300009F070FFFA88574B1A80574AFB891380B3
:102F4000FAE0504B9B78DBB21B029AB24D4BDB7818
:102F5000DBB29BB21344FB814A4B1B79DBB21B02F1
:102F6000484A5279D2B213441B02464A9279D2B2ED
:102F700013441B02434AD279D2B21344BB60FB898B
:102F80001846B96804F06EFCD6E002F047FFD3E0C3
:102F90003C4B9B78DBB2184600F0ECF8CCE0394BA8
:102FA0001B79DBB29AB2374BDB78DBB29BB21B02E8
:102FB0009BB213449BB2FB80324B9B79DBB29AB23B
:102FC000304B5B79DBB29BB21B029BB21344BB81DB
:102FD0002C4B9B78D9B2FA88BB89084611461A4611
:102FE000FFF73AFDA8E0FEF74DFFA5E0254B9B79E2
:102FF000DBB21A46234B5B79DBB21B029BB21A444D
:10300000204B1B79DBB21B0403F47F031A441D4BD6
:10301000DB78DBB21B061344BB60B868FEF7A4FF85
:103020008AE0184B9B78DBB2184600F037FD83E04E
:10303000012000F033FD022000F030FD7CE0114B58
:103040009B78DBB29AB20F4BDB78DBB21B029BB2F0
:1030500013409BB29BB21846022100F0EFFA6BE0DE
:10306000084B9B78DBB29AB2064BDB78DBB29BB2A3
:103070001B029BB213449BB21846012100F094FB43
:103080005AE000BFBC1800203D0100203E01002096
:103090003F0100209C0000209A000020324B9B78CA
:1030A000DBB29AB2304BDB78DBB29BB21B029BB235
:1030B0001344FB81FB891846022100F075FB3BE0BD
:1030C000294B9B78DBB29AB2274BDB78DBB29BB201
:1030D0001B029BB21344FB81FB89184600F0F8FBEE
:1030E0002AE0FFF7CFFC27E000F0B8F824E04FF427
:1030F00000704FF4B86100F095F91DE01A4B9B7811
:10310000DBB29AB2184BDB78DBB29BB21B029BB2EC
:103110001344FB81144B1B79DBB29AB2124B5B79DF
:10312000DBB29BB21B029BB213449BB24FF4007004
:10313000194600F077F900BF322007F02BF90A4B4F
:103140005B78DBB2632B0CD9022300930648074956
:103150000722002305F06CFC034B5B78DAB2044BCA
:103160001A701037BD4680BDBC180020A81800207A
:103170005D01002080B584B000AF78600023FB6063
:1031800005F0BAFB02467B681344FB6007E0094B7D
:1031900000229A86642007F0FDF80AF047F805F04F
:1031A000ABFB0246FB689A42F1D304F031F81037CA
:1031B000BD4680BD002C014080B584B000AF034601
:1031C0000A46FB8013467B710023BB810023BB6052
:1031D0000023FB73FFF77AFB0023FB7332E000232D
:1031E000BB81FB7B9BB25B009BB2DBB29AB2FB88DC
:1031F0001344BB810023BB60BB89184606F0A2F8CC
:10320000B860FB7B9B00BA68120ED1B2124AD1544F
:10321000FB7B9B000133BA68120CD1B20E4AD15429
:10322000FB7B9B000233BA68120AD1B20A4AD1541E
:10323000FB7B9B000333BA68D1B2074AD154FB7BB6
:103240000133FB737B795B08DBB2FA7B9A42C6D30E
:103250001037BD4680BD00BFF018002080B582B099
:1032600000AF0023FB8000237B7100233B71684B80
:103270005A221A70664B58225A70654B31229A7046
:10328000634B0422DA70624B0A221A71614B0022EE
:103290001A70614B05221A70604B00221A705D4B48
:1032A00001221A705E4A5D4B1B78DBB2591CC8B212
:1032B0005A4908701946564B5B5CDBB29BB293804F
:1032C00004E0052007F066F809F0B0FF534B1B78C7
:1032D000DAB2514B1B78DBB29A42F2D30F2007F0DF
:1032E00059F800204A490522FFF7F6F803463B71DA
:1032F000FFF7ECFA474B00221A70642007F04AF8F7
:103300000023FB8049E0FB88DBB25C339BB21B01EE
:103310009BB218461021FFF74FFF00237B7109E095
:103320007B793B4AD35CDAB23B7953403B717B7982
:1033300001337B717B791F2BF2D9364B00221A7037
:10334000354B20221A70354B00221A70314B012266
:103350001A70334A314B1B78DBB2591CC8B22F4963
:10336000087019462A4B5B5CDBB29BB2938004E089
:10337000012007F00FF809F059FF284B1B78DAB24B
:10338000254B1B78DBB29A42F2D3FFF79FFA214B11
:1033900000221A70FB880133FB80FB881E2BB2D9F8
:1033A00001237B7106E07B7919497A79CA547B79CC
:1033B00001337B717B79042BF5D9154A3B79137066
:1033C000144B00221A70144B04221A70134B002263
:1033D0001A70104B01221A70114B00229A8004E0DF
:1033E000012006F0D7FF09F021FF0C4B1B78DAB261
:1033F000094B1B78DBB29A42F2D30F2006F0CAFFCA
:10340000FFF764FA034B00221A700837BD4680BDEF
:10341000F0180020E300002027000020E400002036
:103420000038014080B584B000AF03460A46FB80F7
:103430001346BB800023FB8100237B7300233B7377
:103440005A4B5A221A70594B58225A70574B3122F4
:103450009A70FB881B099BB25B010C331B12DAB21A
:10346000524BDA70FB881B099BB2DBB25B01DBB20B
:103470000C33DAB24D4B1A71BB881B0A9BB2DAB21D
:103480004A4B5A71BB88DAB2484B9A71484B0722B3
:103490001A70474B1B78DBB21846444900F098FD80
:1034A00004E0322006F076FF09F0C0FE4FF4005031
:1034B00009F086F80346002BF3D00F2006F06AFFD0
:1034C00000203A490722FFF707F803463B73FFF74E
:1034D000FDF9384B00221A70642006F05BFF0023D0
:1034E000FB8140E0FB89DBB29BB21B019AB2BB8837
:1034F00013449BB218461021FFF75EFE00237B7336
:1035000009E07B7B294AD35CDAB23B7B53403B73B7
:103510007B7B01337B737B7B1F2BF2D9244B2022D7
:103520001A70234B1B78DBB21846204900F050FD7F
:1035300004E01E2006F02EFF09F078FE4FF4005044
:1035400009F03EF80346002B06D11B4B1B889BB2AB
:1035500003F04003002BECD009F068FEFFF7B6F94A
:10356000FB890133FB81FB881B099BB2FA899A42D4
:10357000B8D301237B7306E07B7B0C497A7BCA546A
:103580007B7B01337B737B7B042BF5D9074A3B7B29
:103590001370FFF7BBF90F2006F0FCFEFFF796F95A
:1035A000044B00221A701037BD4680BDF018002071
:1035B00027000020E30000200038014080B584B0DF
:1035C00000AF0346FB710B46BB7113467B710023B2
:1035D000BB600023FB6005F08FF9F860BA79FB68E7
:1035E0001344BB60FB791846012102F003F8022066
:1035F00006F0D0FEFA797B791046194601F0FAFF01
:103600000FE005F079F9F86009F010FEC82006F027
:10361000C1FE012000F042FA09F008FEC82006F0C1
:10362000B9FEFA68BB689A42EBD3FB7918460021D1
:1036300001F0E0FF1037BD4680BD00BF80B586B009
:1036400000AF03460A46FB8013467B7100233B61B3
:103650000023FB757B79012B14D1514B1B79DBB215
:103660009AB24F4B5B79DBB29BB21B029BB2134405
:103670009AB24C4B1A804B4B1B88FA88104619465D
:1036800009F0C8FB7B79022B18D1454B1B79DBB2C3
:103690001A46434B5B79DBB21B021A44404B9B79C1
:1036A000DBB21B041A443E4BDB79DBB21B0613442E
:1036B0003B61FB881846396904F0D4F87B79102BFC
:1036C0002AD10023FB7524E0364B00221A80FB7DB3
:1036D00002335B00324AD35CDBB29AB2FB7D5B0201
:1036E00003F5A0632E49CB5CDBB29BB213449AB2C4
:1036F0002C4B1A80FB885A1CFA802A4A12881846DA
:10370000114609F087FB012006F044FEFB7D0133E2
:10371000FB75FB7D1F2BD7D97B790A2B1DD100238D
:10372000FB81FA8807F10E031046194609F026FBC3
:10373000FB89DBB29BB2FB81194B1B79DBB21B020D
:103740009AB2FB899BB213409BB29BB2FB81FB896F
:10375000FA881046194609F05DFB7B790B2B1BD1CB
:103760000023BB81FA8807F10C031046194609F0C3
:1037700005FBBB8923F0FF039BB2BB81084B1B7980
:10378000DBB29AB2BB8913409BB2BB81BB89FA887A
:103790001046194609F03EFB1837BD4680BD00BFF4
:1037A000BC1800207601002090B585B000AF03461C
:1037B0000A46FB8013467B71404B5A221A703F4BDE
:1037C00058225A703D4B31229A707B79012B1DD1C2
:1037D000FA8807F10A031046194609F0CFFA374B69
:1037E0000922DA70364B9B78DAB2344B1A71344BBB
:1037F000DB78DAB2314B5A717B89DAB22F4B9A718E
:103800007B891B0A9BB2DAB22C4BDA717B79022BD3
:1038100024D1FB88184605F095FDF860274B0B2254
:10382000DA70274B9B78DAB2244B1A71244BDB7881
:10383000DAB2224B5A71FB68DAB2204B9A71FB68FC
:103840001B0ADAB21D4BDA71FB681B0CDAB21B4B98
:103850001A72FB681B0EDAB2184B5A72174BDB78E0
:10386000DBB25C1E154BDB78DBB2013BDBB2002028
:1038700012491A46FEF730FE03461A460F4B1A55F8
:103880000E4BDB78DAB20F4B1A700F4B00221A7016
:103890000E4B01221A7002E0012006F07BFD0A4B5C
:1038A0001B78DAB2074B1B78DBB29A42F4D3074B92
:1038B00000221A701437BD4690BD00BFF0180020DA
:1038C000BC18002027000020E4000020E3000020B6
:1038D00090B585B000AF0346FB800023FB73062341
:1038E000BB733E4B5A221A703C4B58225A703B4BCA
:1038F00031229A70394B2722DA70394B9B78DAB231
:10390000364B1A71364BDB78DAB2344B5A710023DE
:10391000FB7332E00023BB60FB7B9BB25B009AB27F
:10392000FB8813449BB2184605F00CFDB860BB7BC6
:103930005A1CBA731A46BB681B0ED9B2274B99544E
:10394000BB7B5A1CBA731A46BB681B0CD9B2234BFB
:103950009954BB7B5A1CBA731A46BB681B0AD9B26E
:103960001E4B9954BB7B5A1CBA731A46BB68D9B21A
:103970001A4B9954FB7B0133FB73FB7B072BC9D993
:10398000BC7B164BDB78DBB2013BDBB2002013497A
:103990001A46FEF7A1FD03461A46104B1A550F4B67
:1039A000DB78DAB20F4B1A700F4B00221A700F4BF4
:1039B00001221A7002E0012006F0ECFC0A4B1B7891
:1039C000DAB2084B1B78DBB29A42F4D3074B0022E1
:1039D0001A70FEF77BFF1437BD4690BDF01800202B
:1039E000BC18002027000020E4000020E300002095
:1039F00080B584B000AF0346FB710023FB73002346
:103A0000BB8100237B81234B5A221A70214B582201
:103A10005A70204B31229A701E4B2A22DA701D4AAE
:103A2000FB7913710023FB732AE0FB799BB21A46E2
:103A3000D20013449AB2FB7B9BB213449BB203F5B2
:103A400038739BB25B00BB81BA8907F10A03104649
:103A5000194609F093F9FB7B5B0005330D4A002101
:103A6000D154FB7B03335B007A89D2B25242D1B28C
:103A7000084AD154012006F08DFCFB7B0133FB7317
:103A8000FB7B112BD1D9044B01221A701037BD4694
:103A900080BD00BFF0180020E300002090B583B087
:103AA00000AF0346FB71974B1B78DBB2002B40F055
:103AB0006182954B5A221A70934B58225A70924B3E
:103AC00033229A70904B2922DA70FB79012B40F057
:103AD000DB808E4B1B78DAB28B4B1A718C4B1B68D8
:103AE000DAB2894B5A718B4B1B68DAB2864B9A71EA
:103AF000854B0022DA71884B1B889BB2DAB2824B6D
:103B00001A72864B1B78DAB27F4B5A72844B1B7841
:103B1000DAB27D4B9A72824B5B78DAB27A4BDA7208
:103B20007F4B9B78DAB2784B1A737D4BDB78DAB235
:103B3000754B5A737B4B1B8B9BB2DAB2724B9A73E9
:103B4000784B1B8B9BB21B0A9BB2DAB26E4BDA73BB
:103B5000744B9B8B9BB2DAB26B4B1A74714B9B8B81
:103B60009BB21B0A9BB2DAB2674B5A746E4B1B882E
:103B70009BB2DAB2644B9A746B4B1B889BB21B0AE4
:103B80009BB2DAB2604BDA74674B5B889BB2DAB2F5
:103B90005D4B1A75644B5B889BB21B0A9BB2DAB211
:103BA000594B5A75614B1B88DAB2574B9A755F4B6C
:103BB0001B881B0A9BB2DAB2534BDA755C4B5B88ED
:103BC0009BB2DAB2504B1A76594B5B889BB21B0AF8
:103BD0009BB2DAB24C4B5A76554B9B889BB2DAB209
:103BE000494B9A76524B9B889BB21B0A9BB2DAB226
:103BF000454BDA764E4BDB889BB2DAB2424B1A77F2
:103C00004B4BDB889BB21B0A9BB2DAB23E4B5A7716
:103C1000484B1B78DAB23C4B9A77474B1B889BB2D8
:103C20001B0A9BB2DAB2384BDA77434B1B889BB244
:103C3000DAB2354B83F82020404B9B8E9BB2404A32
:103C4000A2FB0323DB089BB2DAB22F4B83F82120BF
:103C50003C4B1B78DAB22C4B83F822203A4B1B7872
:103C6000DAB2294B83F82320384B1B78DAB2264B83
:103C700083F82420364B1B78DAB2234B83F82520B7
:103C8000214AFB7982F82630FB79022B74D1314B23
:103C90001B889BB2DAB21C4B1A712E4B1B889BB24D
:103CA0001B0A9BB2DAB2184B5A712B4B1B889BB282
:103CB000DAB2154B9A71284B1B889BB21B0A9BB238
:103CC000DAB2114BDA71104B00221A72184B1B88B2
:103CD0009BB21B0A9BB2DAB20B4B5A72144B5B8835
:103CE0009BB2DAB2084B9A72114B5B889BB21B0AEB
:103CF0009BB2DAB2044BDA720D4B9B889BB2DAB2FC
:103D00002CE000BFE3000020F01800202600002077
:103D100020010020240100203A0100205801002049
:103D2000B4000020002800408C0000206C0100201E
:103D30005001002068010020DE000020002C01401E
:103D4000CDCCCCCC5A010020280000201E01002040
:103D50001F0100204201002044010020874B1A73FC
:103D6000874B9B889BB21B0A9BB2DAB2834B5A7378
:103D7000824AFB7982F82630FB79032B3BD1814BB9
:103D80009B68DAB27D4B1A717E4B9B681B0ADAB2D4
:103D90007A4B5A717B4B9B681B0CDAB2774B9A714A
:103DA000784B9B681B0EDAB2744BDA71764B9B68CA
:103DB000DAB2724B1A72744B9B681B0ADAB26F4B01
:103DC0005A72714B9B681B0CDAB26C4B9A726E4B39
:103DD0009B681B0EDAB2694BDA726C4B9B78DAB2D5
:103DE000664B1A73694BDB78DAB2644B5A73634AD9
:103DF000FB7982F82630FB79042B1CD15F4B002223
:103E00005A72634B1B78DAB25C4B9A72614B1B8817
:103E10009BB2DAB2594BDA725E4B1B889BB21B0A1B
:103E20009BB2DAB2554B1A73544B4D225A73534A14
:103E3000FB7982F82630FB79052B39D1564B1B884C
:103E40009BB2DAB24D4B1A71534B1B889BB21B0AC3
:103E50009BB2DAB2494B5A714F4B5B889BB2DAB2D4
:103E6000464B9A714C4B5B889BB21B0A9BB2DAB2F1
:103E7000424BDA71494B1B68DAB2404B1A72474B1E
:103E80001B681B0ADAB23D4B5A72444B1B681B0C71
:103E9000DAB23A4B9A72414B1B681B0EDAB2374BBF
:103EA000DA72364B4D225A73344AFB7982F8263047
:103EB000FB79062B43D1384B1B889BB2DAB22F4BD0
:103EC0001A71354B1B889BB21B0A9BB2DAB22B4B83
:103ED0005A71314B5B889BB2DAB2284B9A712E4BE8
:103EE0005B889BB21B0A9BB2DAB2244B5A712B4BF4
:103EF0005B68DAB2214B1A72284B5B681B0ADAB294
:103F00001E4B5A72254B5B681B0CDAB21B4B9A7224
:103F1000224B5B681B0EDAB2184BDA721D4B5B88C2
:103F20009BB2DAB2154B1A731A4B5B889BB21B0A11
:103F30009BB2DAB2114B5A73104AFB7993750F4B4F
:103F4000DB78DBB29C1E0D4BDB78DBB2023BDBB2D5
:103F500000200A491A46FEF7BFFA03461A46074BE5
:103F60001A55064BDB78DBB2013B044A0021D154E1
:103F7000FEF7CCFC0C37BD4690BD00BFF01800200A
:103F80005001002000080140000C0140BC0000204E
:103F90005A010020B01800208C0000209818002042
:103FA00080B400AF044B1B68034B1B68024B1B68BB
:103FB000BD465DF8047B70470000024080B400AF4E
:103FC000024B1B68BD465DF8047B70470000024051
:103FD00080B582B000AF03463960FB711F491F4BAB
:103FE0001A684FF6FE7313400B601D4B5B6903F0BC
:103FF0000103002B05D11A4A194B5B6943F00103F9
:104000005361164B174ADA60144B174A9A60134AE9
:10401000FB795360114A114B1B6843F4425343F040
:1040200011031360114A114B9B8A9BB243F080032A
:104030009BB29382094A094B1B6843F0010313604A
:104040000A4A0A4B1B889BB223F040039BB21380A1
:104050000E20FDF7C7FA0837BD4680BD4400024078
:1040600000100240F01800200438014000380140E0
:1040700080B586B000AF0120012105F083FF052047
:10408000012105F09DFF25233B7500237B7500234F
:10409000BB750123FB7507F11403184608F0E6FA17
:1040A0004FF400733B820323BB741823FB7407F1A6
:1040B000100322481946FDF70FF94FF480633B8245
:1040C0000423FB7407F110031C481946FDF704F99B
:1040D0001B4806F08BFE28201A49FFF779FF4FF4A2
:1040E0008040012105F06CFF4FF416533B60002324
:1040F000BB800023FB8000233B810023BB810C237A
:104100007B813B460E48194606F0CCFE0C484FF426
:10411000587106F0B1FF0A4A094B9B899BB243F0E4
:1041200020039BB293810648012106F075FF2520EC
:10413000FDF758FA1837BD4680BD00BF00080140A2
:1041400000380140F018002080B588B000AF102082
:10415000012105F035FF0220012105F04FFF07F195
:104160001C031846FDF778F94FF47073BB830323E3
:10417000BB771823FB7707F11C0321481946FDF78D
:10418000ABF820480121FDF77BF907F11003184631
:10419000FCF766FA4FF40073FB8240F2E733BB8210
:1041A000EF233B8207F1100317481946FBF7DAFFAC
:1041B0003B461846FCF76EFA01237B8060233B8068
:1041C0000023FB803B4610481946FCF747F83B4666
:1041D0000D481946FCF7CEF83B460B481946FCF74C
:1041E00051F93B4608481946FCF7D2F90648012127
:1041F000FCF772FA00F00AF82037BD4680BD00BF18
:1042000000100140000C1A000004004080B582B08C
:1042100000AF0023FB710023FB7107E0FB79184618
:10422000002101F0E7F9FB790133FB71FB79032BE6
:10423000F4D90837BD4680BD80B588B000AF0120F5
:10424000012105F0BDFE0820012105F0B9FE4FF463
:104250000060012105F0B4FE07F11C031846FDF7CC
:10426000FBF84FF40053BB830323BB771823FB7782
:1042700007F11C0321481946FDF72EF807F110033A
:104280001846FCF7EDF94FF40073FB8240F2E73378
:10429000BB8217233B8200237B8207F1100318485F
:1042A0001946FBF75FFF3B461846FCF7F3F901237D
:1042B0007B8070233B804FF4FA73FB8002233B81A9
:1042C00000237B8101237B800423BB804FF4807318
:1042D000BB810023FB813B4609481946FBF7BEFF23
:1042E00007480121FCF7F8F905480121FCF714FA09
:1042F00002F08EFF2037BD4680BD00BF000C01409C
:10430000002C014080B582B000AF05F0FDFA00231B
:10431000FB8000237B7105F0F7FA0A2006F03AF8DB
:1043200005F0F2FA234805F08DFA234B00221A70AB
:104330001EE004F03DFD03461A461F4B1A701F4B4A
:104340001B88FB80052006F025F80120002105F0E0
:10435000B7FAFB881A4AA2FB03235B099BB2DBB2C4
:10436000184604F045FEFB88DBB2184604F040FE18
:10437000114B1B78DBB2022BDBD10A2006F00AF8C6
:10438000FB8840F2D650194608F044FD02F0FAFED0
:104390004FF4FA6005F0FEFF0A4805F053FA064BA9
:1043A00000221A7005F0B0FA05F094F90837BD46FE
:1043B00080BD00BFF0D400081D0100208C0000204B
:1043C0001F85EB5104D5000880B483B000AF0346CD
:1043D000FB71FB79002B0DD0FB79042B0AD8244903
:1043E000234B5B69FA790332012000FA02F213438E
:1043F0004B612AE0FB79042B0DD9FB79072B0AD8F6
:104400001C491C4B5B69FA790532012000FA02F263
:1044100013434B6119E0FB79072B0DD9FB79092B6D
:104420000AD81349124B5B69FA790332012000FA6A
:1044300002F213434B6108E0FB790C2B05D10C4AC7
:104440000B4B5B6943F480735361FB79012202FAE1
:1044500003F39AB2084B1B889BB29BB213439BB2E7
:104460009AB2054B1A800C37BD465DF8047B704745
:104470000008014000100140DE00002080B483B03D
:1044800000AF0346FB71FB79002B0DD0FB79042BA9
:104490000AD82549244B1B69FA790332012000FA16
:1044A00002F213430B612AE0FB79042B0DD9FB794F
:1044B000072B0AD81D491D4B1B69FA7905320120CB
:1044C00000FA02F213430B6119E0FB79072B0DD9B7
:1044D000FB79092B0AD81449134B1B69FA7903326B
:1044E000012000FA02F213430B6108E0FB790C2B68
:1044F00005D10D4A0C4B1B6943F480731361FB79A2
:10450000012202FA03F39BB2DB439AB2084B1B88E9
:104510009BB29BB213409BB29AB2054B1A800C37E8
:10452000BD465DF8047B7047000801400010014063
:10453000DE00002080B500AF012005F04FFE034BE8
:104540001B680133014A136080BD00BF981800202A
:1045500080B500AF022005F041FE034B5B680133DC
:10456000014A536080BD00BF9818002080B500AF9D
:10457000042005F033FE80BD80B500AF4FF48060AD
:1045800005F02CFE4FF4006005F028FE4FF480503B
:1045900005F024FE4FF4004005F0FCFD0346002B1F
:1045A00000F09F804FF4004005F018FE9E4B9B6882
:1045B00003F40043002B40F08F809C4B1B889BB280
:1045C000002B00F089809A4B9B8C9AB2994B1A80F1
:1045D000974B00229A84954B1B889BB21A46642302
:1045E00003FB02F3934A128892B293FBF2F39AB25E
:1045F000914B1A80914B1B78DBB2002B61D0904B12
:104600001B78DBB2002B5CD18B4B1B889BB23C2B05
:104610001BD9894B1B889BB24A2B16D8894B1B7818
:10462000DBB21A4601239340D843874B1B781A46C6
:10463000854B1B781946854B5B5CD9B2C3B20B40E6
:10464000DBB2D9B2814B995415E07E4B1B78DBB2BB
:104650001A46012303FA02F07B4B1B781A467A4B69
:104660001B781946794B5B5CD9B2C3B20B43DBB202
:10467000D9B2764B9954734B1B78DBB2002B19D10E
:10468000704B07221A70704B1B780133DAB26E4BF5
:104690001A706D4B1B78052B13D1694B01221A70D0
:1046A000694B00221A70674B07221A70684B01226F
:1046B0001A7006E0634B1B78DBB2013BDAB2614B48
:1046C0001A705E4B1B78DBB20133DAB25B4B1A70A7
:1046D000564B00221A8004E0554B9B8C9AB2534BE8
:1046E0001A804FF4804005F055FD0346002B00F082
:1046F000B6804FF4804005F071FD4B4B9B6803F48E
:104700008043002B40F0A680484B1B889BB2002BB7
:1047100000F0A080464B9B8C9AB2464B1A80444BCB
:1047200000229A84414B1B889BB21A46642303FBE8
:1047300002F3404A128892B293FBF2F39AB23E4BD4
:104740001A803E4B1B78DBB2002B61D03C4B1B78B0
:10475000DBB2002B5CD1384B1B889BB23C2B1BD9A6
:10476000354B1B889BB24A2B16D8364B1B78DBB2D5
:104770001A4601239340D843334B1B781A46324BD9
:104780001B781946314B5B5CD9B2C3B20B40DBB22C
:10479000D9B22E4B995415E02A4B1B78DBB21A463E
:1047A000012303FA02F0284B1B781A46264B1B788C
:1047B0001946264B5B5CD9B2C3B20B43DBB2D9B20C
:1047C000224B99541F4B1B78DBB2002B19D11D4B88
:1047D00007221A701C4B1B780133DAB21A4B1A707D
:1047E000194B1B78052B13D1154B01221A70164B50
:1047F00000221A70134B07221A70154B00221A70F0
:1048000006E0104B1B78DBB2013BDAB20D4B1A709D
:104810000A4B1B78DBB20133DAB2084B1A70034B38
:1048200000221A801BE000BF000C0140A400002001
:1048300000400140A6000020A8000020C100002088
:10484000C200002024000020C300002028190020FE
:1048500025000020024B9B8C9AB2024B1A8080BD2F
:1048600000400140A400002080B582B000AF40F2BB
:10487000DC53FB800023BB80294B00221A7047E0E9
:1048800004F096FA03461A46254B1A700023BB80A3
:10489000FA883B1D1046194608F070FA052005F00D
:1048A00079FD05F031F81F4804F0CCFFFB8818466D
:1048B000FDF7DAFD0120002105F002F81A4804F0A6
:1048C000C1FFBB881846FDF7CFFD154B1B78DBB247
:1048D000022B0AD1FB88B3F5FA6F03D2FB880133B0
:1048E000FB8002E04FF4AF63FB800D4B1B78DBB223
:1048F000012B0AD1FB88B3F5AF6F03D9FB88013BCD
:10490000FB8002E04FF4FA63FB80192005F042FDC2
:10491000034B1B78DBB2042BB2D10837BD4680BDF8
:104920001D01002010D5000818D5000880B582B000
:1049300000AF052005F02EFD0023FB7104F0E4FF1D
:10494000464B00221A707DE0142005F023FD04F090
:104950002FFA03461A46414B1A700020002104F03A
:10496000AFFF3F4804F06EFFFB79184604F040FBB0
:104970003A4B1B78DBB2042B03D1FB791846FFF7C7
:1049800023FD364B1B78DBB2032B03D1FB79184692
:10499000FFF774FD314B1B78DBB2012B08D1FB799B
:1049A000092B03D8FB790133FB7101E00023FB7174
:1049B000012005F0EFFC0120002104F081FF2948CF
:1049C00004F040FF284B1B889BB21846FDF74CFDB6
:1049D000012005F0DFFC254804F034FF244B9B68E0
:1049E00003F01003002B03D0224804F02BFF02E059
:1049F000214804F027FF1E4B9B6803F02003002B87
:104A000003D01C4804F01EFF1CE01B4804F01AFFF2
:104A1000174B9B6803F04003002B03D0154804F0AC
:104A200011FF02E0144804F00DFF114B9B6803F4E2
:104A30008073002B03D00F4804F004FF02E00E48FF
:104A400004F000FF054B1B78DBB2022B7FF47CAF38
:104A500004F05AFF0837BD4680BD00BF1D0100208D
:104A600020D500082CD50008DE00002030D5000835
:104A70000008014038D500083CD5000880B584B056
:104A800000AF0346FB800B467B7113463B7100234E
:104A9000FB730023BB7300237B73FA887B7942FA94
:104AA00003F37B730020002104F00AFF514804F057
:104AB000C9FE514B00221A7060E004F079F90346F8
:104AC0001A464D4B1A700120002104F0F9FE002314
:104AD000FB7305E0494804F0B5FEFB7B0133FB7333
:104AE000FA7B39797B79CB1A9A42F3DB012005F006
:104AF00051FC0023FB7309E00020002104F0E0FEDC
:104B00003F4804F09FFEFB7B0133FB73FA7B39794E
:104B10007B79CB1A9A42EFDBBB7B0020194604F06D
:104B2000CFFE344804F08EFE052005F033FC324BF6
:104B30001B78DBB2042B08D1BA7B39797B79CB1A8D
:104B40009A4202DABB7B0133BB732B4B1B78DBB27F
:104B5000012B05D1BB7B002B02D0BB7B013BBB7380
:104B6000254B1B78DBB2032B08D1BB7B012202FA59
:104B700003F3DAB27B7B5340DBB27B731E4B1B78B3
:104B8000DBB2022B99D10023FB7325E07A7BFB7B00
:104B900042FA03F303F00103002B0DD0FA7B7B797B
:104BA0001344012BCCBF01230023DBB29AB2FB8854
:104BB00013439BB2FB800CE0FA7B7B791344012208
:104BC00002FA03F39BB2DB439AB2FB8813409BB219
:104BD000FB80FB7B0133FB73FA7B39797B79CB1A42
:104BE0009A42D3DB02F0CEFAFB8818461037BD4656
:104BF00080BD00BF50D500081D01002038D5000839
:104C000048D5000880B586B000AF0346FB7100238D
:104C1000BB8200237B8100233B8100233B6104F0A6
:104C200073FE654804F00EFEC82005F0B3FBFB7967
:104C30009BB21A461201D31A9BB203F21E63BB82C7
:104C4000BA8A07F10A031046194608F097F87B89DB
:104C5000DBB2184602F0E2FE03469BB27B817B8901
:104C6000BA8A1046194608F0D5F804F04DFE002027
:104C7000052104F025FE514804F0E4FDC82005F0AC
:104C800089FBFB799BB21A461201D31A9BB203F23D
:104C90002763BB82BA8A07F108031046194608F059
:104CA0006DF83B89184600210322FFF7E7FE034613
:104CB0003B810023FB7511E004F07AF803461A46A5
:104CC0003F4B1A703E4B1B78DBB2042B03D1FB7DAC
:104CD000C3F10103FB75192005F05CFB384B1B7811
:104CE000DBB2002BE8D0FB7D012B05D13B8943F0E3
:104CF00001039BB23B8104E03B8923F001039BB29B
:104D00003B813B89BA8A1046194608F083F8052092
:104D100005F040FB02F036FA0023FB60FB799BB202
:104D20001A461201D31A9BB203F22163BB82BB8ADB
:104D3000184604F007FBF860F868012103F082F9D7
:104D4000F860FB689BB2BA8A1046194608F062F810
:104D5000FB799BB21A461201D31A9BB203F223636A
:104D6000BB82BB8A184604F0EDFAF860F8680121AE
:104D700003F068F9F860FB689BB2BA8A10461946DE
:104D800008F048F8FB799BB21A461201D31A9BB27D
:104D900003F21F63BB82BB8A184604F0D3FAF860A3
:104DA000F86802F051FFF860BB8A1846F96802F013
:104DB00059FD1837BD4680BD54D500085CD50008A4
:104DC0001D01002080B582B000AF0023FB7104F00C
:104DD0009BFD094804F036FDC82005F0DBFAFB799D
:104DE000184602F01BFE0346FB71FB79184600F0E3
:104DF00021F80837BD4680BD68D5000880B582B06F
:104E000000AF0023FB7104F07FFD094804F01AFD98
:104E1000C82005F0BFFAFB79184602F0FFFD0346F3
:104E2000FB71FB791846FFF7EDFE0837BD4680BDE4
:104E300068D5000880B584B000AF0346FB7100233D
:104E4000FB810023BB81FB799BB21A46920013447D
:104E50009BB203F2A563FB81FA8907F10C031046AC
:104E6000194607F08BFF04F04FFD574804F0EAFCA9
:104E7000BB89184602F028FE0346BB81BB89FA892C
:104E80001046194607F0C6FFFB799BB21A469200FE
:104E900013449BB203F2A663FB81FA8907F10C036A
:104EA0001046194607F06AFF04F02EFD474804F04B
:104EB000C9FCBB89184602F007FE0346BB81BB89CB
:104EC000FA891046194607F0A5FFFA8907F10C0385
:104ED0001046194607F052FF04F016FD3C4804F056
:104EE000B1FCBB89184602F0EFFD0346BB81BB89CC
:104EF000FA891046194607F08DFFFB799BB21A46D6
:104F0000920013449BB203F2A763FB81FA8907F175
:104F10000C031046194607F031FF04F0F5FC2D484C
:104F200004F090FCBB89184602F0CEFD0346BB811D
:104F3000BB89FA891046194607F06CFFFB799BB2D2
:104F40001A46920013449BB203F2A763FB81FA89CD
:104F500007F10C031046194607F010FF04F0D4FCCB
:104F60001D4804F06FFCBB89184602F0ADFD0346F6
:104F7000BB81BB89FA891046194607F04BFFFA89B5
:104F800007F10C031046194607F0F8FE04F0BCFCCC
:104F9000124804F057FCBB89184602F095FD034601
:104FA000BB810A2005F0F6F9BB89FA89104619463B
:104FB00007F030FF04F0A8FC0A2005F0EBF904F03C
:104FC00089FB1037BD4680BD74D5000888D5000820
:104FD00098D50008A8D50008B4D50008C4D50008A5
:104FE00090B585B000AF0023BB730023FB7304F0C2
:104FF0008BFC354804F026FCC82005F0CBF9BB7BC0
:10500000184602F00BFD0346BB7304F07DFC2F48ED
:1050100004F018FCBB7B184603F0EAFF2C4804F0B0
:1050200011FC0023FB7306E01E2005F0B3F903F02A
:10503000BFFE0346FB73FB7B022B02D0FB7B032BE3
:10504000F2D1C82005F0A6F9FB7B022B33D1BA7B45
:1050500013461B019B1A03F21F63BB60BB689BB224
:10506000184604F06FF97860BA7B13461B019B1A4F
:1050700003F22163BB6003F03FFC3860BB689BB266
:105080001846396802F0EEFBBA7B13461B019B1AE7
:1050900003F22563BB60BB689CB203F02DFC0246A3
:1050A0007B68D31A05332046194602F0DBFBBB7B35
:1050B000184600F00FF804F027FCC82005F06AF944
:1050C0001437BD4690BD00BF68D50008D0D5000894
:1050D000DCD5000880B58EB000AF0346FB71994B5C
:1050E00000221A70984B02221A70FB79012202FAF0
:1050F00003F3DAB2954B1B78DBB2DBB21343DBB2BE
:10510000DAB2924B1A7000233B6303F0F5FB38636D
:105110008D4B03221A7000233B82002387F837301F
:105120000023FB620023BB6200237B6200233B62FF
:105130000023FB830023BB830023FB8100237B83AD
:1051400000233B830023BB810023FB750023BB7539
:1051500003F0D2FB38623B6A7B627B4B04221A70FD
:10516000642005F017F97A4B5B88BB83FB799BB20F
:105170001A461201D31A9BB203F21E637B837A8B09
:1051800007F10E031046194607F0F8FDFB89DBB264
:105190009BB2FB81642005F0FDF86E4B5B889AB2F0
:1051A0006B4B5B889BB2D31AFB8304F0ADFB6A4860
:1051B00004F048FBFB8B694AA2FB03235B099BB20B
:1051C000DBB2184603F014FFFB8BDBB2184603F08A
:1051D0000FFF634804F036FB5D4B5B889BB21846BB
:1051E000FDF742F90120002104F06AFB5D4804F05C
:1051F00029FB584B5B889BB21846FDF735F95A4896
:1052000004F020FBFB891846FDF72EF94FF4FA5005
:1052100005F0C0F8FCF736FEFB89544AA2FB0323D5
:105220005B089BB2FA8B9A4280F0E580FB89BA8BCF
:10523000D31AFB83FB8B1846002100F0FBFFC8202C
:1052400005F0A8F807F0F2FF3F4B06221A70BB8B5F
:10525000DAB23F4B5B889BB2DBB2D31AFB75FB899A
:105260001A461346DB001344414A82FB0312921094
:10527000DB17D31ABB75002387F83730B6E00A2056
:1052800005F088F897F837305733DAB22E4B1A709A
:1052900000237B83FB799BB21A461201D31A9BB27F
:1052A00003F21F637B837B8B184604F04BF8B862D4
:1052B000FB799BB21A461201D31A9BB203F2216307
:1052C0007B837B8B184604F03DF87862642005F000
:1052D00061F897F837309BB21A46920013449BB29C
:1052E00003F2A7637B837A8B07F1100310461946FC
:1052F00007F044FD0023BB8600237B75642005F086
:1053000049F83B8A002B35D003F0F6FA02467B6A57
:10531000D21ABB6AB2FBF3F3FB62642005F03AF8E1
:10532000094BC8221A70C82005F034F83B8ADAB25B
:10533000FB6AB3FBF2F102FB01F29B1A7B750123BE
:10534000BB8619E0300000201E010020580100201B
:105350008C0000204C010020E0D500081F85EB5197
:10536000E4D50008E8D50008ECD50008ABAAAAAA45
:10537000676666660023BB86322005F00BF83B8A21
:105380001B0A3B833B8B002B2BD03B8BFE2B28D85F
:105390003B8B013B3B8300237B83FB799BB23A8BA6
:1053A0009A4218D1BB8E002B15D0584B63221A702D
:1053B0004FF4C87004F0EEFF97F83730184600F04D
:1053C000AFF897F837306433DAB2504B1A704FF4B5
:1053D000FA6004F0DFFF642004F0DCFF4B4B08228E
:1053E0001A7097F83730013387F8373097F837302D
:1053F000082B7FF644AF322004F0CCFF434B092248
:105400001A70FB799BB21A461201D31A9BB203F2AF
:1054100027637B837A8B07F10C031046194607F04C
:10542000ADFCFCF72FFD0120FEF7CEFFBB8918462F
:10543000FCF704FD354B0A221A7000233B7500234C
:105440007B82334B1B783B75314B30221A703220F4
:1054500004F0A0FFFB799BB21A461201D31A9BB24B
:1054600003F21D637B830023FB817A8B07F10E031C
:105470001046194607F082FCFB891A46BB89104684
:10548000194600F08DFEFB799BB21A461201D31A21
:105490009BB203F225637B837B8B1846396B02F04A
:1054A000E1F91A4B0C221A7044F6206004F072FFE6
:1054B000174A3B7D1370174B1B78DBB223F00803B0
:1054C000DAB2144B1A70114B0D221A704FF47A7025
:1054D00004F060FFFCF7D6FCFB79012202FA03F32B
:1054E000DBB2DB43DAB20C4B1B78DBB2DBB213402E
:1054F000DBB2DAB2084B1A70084B01221A70C820CE
:1055000004F048FF3837BD4680BD00BF1E010020B3
:10551000260000201F01002058010020300000203C
:1055200080B586B000AF0346FB71FCF7ABFC3220C0
:1055300004F030FF00237B61FB799BB21A46920096
:1055400013449BB203F2A6637B827A8A07F11003AD
:105550001046194607F012FC322004F01BFFFB79BD
:105560009BB21A46920013449BB203F2A5637B825E
:105570007A8A07F10E031046194607F0FFFBFB7904
:10558000C3F1FF2303F57F03C833DAB2184B1A7057
:10559000282004F0FFFE07F049FE00237B82FB7900
:1055A0009BB21A46920013449BB203F5D5637B82EB
:1055B000282004F0EFFE7A8A07F10C031046194602
:1055C00007F0DCFB282004F0E5FE07F02FFEB98988
:1055D0003A8AFB89DBB2084611461A46012300F0DD
:1055E0002DFD4FF4C87004F0D5FE1837BD4680BDC0
:1055F0001E01002080B584B000AF03460A46FB714F
:105600001346BB710023FB81BB79002B0ED0FB79C5
:10561000012202FA03F3DAB2334B1B78DBB2DBB2BE
:105620001343DBB2DAB2304B1A700FE0FB79012280
:1056300002FA03F3DBB2DB43DAB22B4B1B78DBB2AB
:10564000DBB21340DBB2DAB2274B1A70BB79012B05
:1056500002D10023BB7113E0BB79652B0CD107F19C
:105660000E0340F21760194607F088FB022004F091
:1056700091FEFB89BB7103E0BB79C3F16403BB718D
:10568000FB79002B08D1194ABB799BB219468900D6
:105690000B445B009BB29386FB79012B08D1134A24
:1056A000BB799BB2194689000B445B009BB2138700
:1056B000FB79022B08D10D4ABB799BB219468900B0
:1056C0000B445B009BB29387FB79032B09D1074AFC
:1056D000BB799BB2194689000B445B009BB2A2F8D0
:1056E00040301037BD4680BD5A0100200004004004
:1056F00080B584B000AF03460A46FB711346BB7108
:105700000023FB6003F0F8F803460133FB6002E07E
:10571000022004F03FFE03F0EFF80246FB689A42D5
:10572000F6D303F0E9F80246BB791344FB60FB793A
:1057300018460121FFF75EFF02E0022004F02AFE76
:1057400003F0DAF80246FB689A42F6D3FB79184672
:105750000021FFF74FFF1037BD4680BD80B58CB0EC
:1057600000AF786000237B6200233B620023FB6173
:105770000023FB620023BB6100237B6100237B824B
:105780000023BB8100237B74002387F82B30002388
:105790003B74002387F82A300023FB81FCF772FB5F
:1057A00044F6206004F0F6FD002387F82B30D4E0A7
:1057B0000A2004F0EFFD97F82B309BB21A46120135
:1057C000D31A9BB203F221637B827B8A184603F0D3
:1057D000B9FDB86197F82B309BB21A461201D31A63
:1057E0009BB203F223637B827B8A184603F0AAFDF7
:1057F0007861322004F0CEFD97F82B309BB21A4628
:105800001201D31A9BB203F21E637B827A8A07F1DC
:105810000C031046194607F0B1FABB891B0A9BB26C
:1058200087F82A30322004F0B5FD4F4B1B68DAB2FE
:1058300097F82A3013403B743B7C002B03D00123A4
:1058400087F82A3002E0002387F82A30142004F079
:10585000A1FD00233B7497F82B309BB21A4612012E
:10586000D31A9BB203F227637B820023BB817A8A1F
:1058700007F10C031046194607F080FA4FF4FA704E
:1058800004F088FDBB89FB8197F82B309BB21A4648
:105890001201D31A9BB203F225637B827B8A1846DE
:1058A00003F050FD386297F82B309BB21A46120174
:1058B000D31A9BB203F21F637B827B8A184603F0E4
:1058C00041FDF8610A2004F065FD03F015F8024679
:1058D0003B6A9A4206D903F00FF802463B6AD31A94
:1058E000FB6201E00023FB6203F006F87862FA6ACB
:1058F000FB699A4217D97A6ABB699A4213D97A6AC4
:105900007B699A420FD2FB89002B0CD097F82A3082
:10591000012B08D1154B1B68002B04D197F82B30B5
:105920001846FFF7D7FB322004F034FD104B1B78EC
:10593000642B0AD90D4B01221A600D4B1B781846B7
:1059400000F012FD094B00221A60322004F022FD03
:1059500097F82B30013387F82B3097F82B30072B33
:105960007FF626AF20E700BF200100206401002061
:105970005D01002080B582B000AF786004F06CFD5E
:105980000920FEF721FD07F051FC786800F09AFF2E
:105990000320FEF719FD07F049FC786800F092FF3C
:1059A0000A20FEF711FD07F041FC786800F08AFF3D
:1059B0000B20FEF709FD07F039FC786800F082FF44
:1059C0000820FEF701FD07F031FC786800F07AFF4F
:1059D0000C20FEF7F9FC07F029FC04F04BFD08371A
:1059E000BD4680BD80B582B000AF786004F034FD64
:1059F0000920FEF743FD07F019FC786800F062FF0C
:105A00000320FEF73BFD07F011FC786800F05AFF19
:105A10000A20FEF733FD07F009FC786800F052FF1A
:105A20000B20FEF72BFD07F001FC786800F04AFF21
:105A30000820FEF723FD07F0F9FB786800F042FF2D
:105A40000C20FEF71BFD07F0F1FB04F013FD0837F7
:105A5000BD4680BD80B582B000AF786004F0FCFC2C
:105A60000C20FEF7B1FC07F0E1FB786800F02AFF9C
:105A70000820FEF7A9FC07F0D9FB786800F022FFA8
:105A80000B20FEF7A1FC07F0D1FB786800F01AFFAD
:105A90000A20FEF799FC07F0C9FB786800F012FFB6
:105AA0000320FEF791FC07F0C1FB786800F00AFFC5
:105AB0000920FEF789FC07F0B9FB04F0DBFC08378E
:105AC000BD4680BD80B582B000AF786004F0C4FCF4
:105AD0000C20FEF7D3FC07F0A9FB786800F0F2FE7B
