:020000040800F2
:10000000C41B0020D907000835080008350800087F
:100010003508000835080008350800080000000011
:1000200000000000000000000000000091BA00087D
:10003000350800080000000065BB0008A1BB0008EF
:10004000350800083508000835080008350800089C
:100050003508000835080008E94000080541000897
:100060002141000835080008350800083508000857
:100070003508000835080008F93B00080D3C000869
:1000800035080008350800083508000800000000A1
:100090000000000000000000000000006162000895
:1000A0003508000849620008556200083508000854
:1000B0003508000835080008056300083508000801
:1000C000350800083508000835080008350800081C
:1000D00035080008C9200008350800083508000860
:1000E0002D41000835080008350800080000000010
:1000F0000000000000000000000000000000000000
:1001000000000000000000000000000000000000EF
:100110000000000000000000350800083508000855
:100120005FF808F180B588B000AF786007F1080388
:10013000184609F039FDFB68094AA2FB03235B0B53
:100140007A6802FB03F3FB610023FB6102E0FB69B9
:10015000013BFB61FB69002BF9D12037BD4680BD17
:100160005917B7D180B485B000AF786039600023EB
:10017000FB817B681B88FB817B682E4A934213D0EE
:100180007B682D4A93420FD07B68B3F1804F0BD030
:100190007B682A4A934207D07B68294A934203D05E
:1001A0007B68284A934208D1FB8923F07003FB81C6
:1001B0003B685A88FB891343FB817B68224A934240
:1001C0000CD07B68214A934208D0FB8923F440730A
:1001D000FB813B68DA88FB891343FB817B68FA89E2
:1001E0001A803B689A887B689A853B681A887B6886
:1001F0001A857B680F4A93420FD07B680E4A934260
:100200000BD07B68124A934207D07B68114A934215
:1002100003D07B68104A934204D13B681B7A9AB2A0
:100220007B681A867B6801229A821437BD465DF886
:10023000047B7047002C0140003401400004004062
:1002400000080040000C0040001000400014004076
:1002500000400140004401400048014080B485B0A6
:1002600000AF7860396000237B810023FB8100238D
:10027000BB817B681B8C9BB223F001039AB27B6825
:100280001A847B681B8CFB817B689B88BB817B68A5
:100290001B8B7B817B8923F070037B817B8923F01F
:1002A00003037B813B681A887B8913437B81FB892D
:1002B00023F00203FB813B681A89FB891343FB810E
:1002C0003B685A88FB891343FB817B68244A93422D
:1002D0000FD07B68234A93420BD07B68224A93421B
:1002E00007D07B68214A934203D07B68204A93421F
:1002F00023D1FB8923F00803FB813B685A89FB89E2
:100300001343FB81FB8923F00403FB813B689A883C
:10031000FB891343FB81BB8923F48073BB81BB89B9
:1003200023F40073BB813B689A89BB891343BB816B
:100330003B68DA89BB891343BB817B68BA899A80A1
:100340007B687A891A833B68DA887B689A867B683F
:10035000FA891A841437BD465DF8047B704700BFE4
:10036000002C0140003401400040014000440140A5
:100370000048014080B485B000AF78603960002348
:100380007B810023FB810023BB817B681B8C9BB29C
:1003900023F010039AB27B681A847B681B8CFB8164
:1003A0007B689B88BB817B681B8B7B817B8923F46B
:1003B000E0437B817B8923F440737B813B681B880E
:1003C0001B029AB27B8913437B81FB8923F02003B4
:1003D000FB813B681B891B019AB2FB891343FB819C
:1003E0003B685B881B019AB2FB891343FB817B68E6
:1003F000224A934203D07B68214A93422BD1FB8946
:1004000023F08003FB813B685B891B019AB2FB8967
:100410001343FB81FB8923F04003FB813B689B88EE
:100420001B019AB2FB891343FB81BB8923F48063D0
:10043000BB81BB8923F40063BB813B689B899B0024
:100440009AB2BB891343BB813B68DB899B009AB29C
:10045000BB891343BB817B68BA899A807B687A89A0
:100460001A833B68DA887B681A877B68FA891A8462
:100470001437BD465DF8047B704700BF002C014077
:100480000034014080B485B000AF7860396000234B
:100490007B810023FB810023BB817B681B8C9BB28B
:1004A00023F480739AB27B681A847B681B8CFB816F
:1004B0007B689B88BB817B689B8B7B817B8923F0DE
:1004C00070037B817B8923F003037B813B681A885F
:1004D0007B8913437B81FB8923F40073FB813B6899
:1004E0001B891B029AB2FB891343FB813B685B8823
:1004F0001B029AB2FB891343FB817B68224A934219
:1005000003D07B68214A93422BD1FB8923F40063FB
:10051000FB813B685B891B029AB2FB891343FB8119
:10052000FB8923F48063FB813B689B881B029AB2A2
:10053000FB891343FB81BB8923F48053BB81BB89B7
:1005400023F40053BB813B689B891B019AB2BB8992
:100550001343BB813B68DB891B019AB2BB89134300
:10056000BB817B68BA899A807B687A899A833B6869
:10057000DA887B689A877B68FA891A841437BD46C3
:100580005DF8047B704700BF002C0140003401403F
:1005900080B485B000AF786039600023BB81002350
:1005A0007B810023FB817B681B8C9BB223F48053EF
:1005B0009AB27B681A847B681B8C7B817B689B88E2
:1005C000FB817B689B8BBB81BB8923F4E043BB81B0
:1005D000BB8923F44073BB813B681B881B029AB222
:1005E000BB891343BB817B8923F400537B813B6828
:1005F0001B891B039AB27B8913437B813B685B8811
:100600001B039AB27B8913437B817B68124A934216
:1006100003D07B68114A93420AD1FB8923F48043BB
:10062000FB813B689B899B019AB2FB891343FB8149
:100630007B68FA899A807B68BA899A833B68DA88F2
:100640007B68A3F840207B687A891A841437BD46FA
:100650005DF8047B704700BF002C0140003401406E
:1006600080B483B000AF78607B684FF6FF729A80E9
:100670007B6800221A807B680022DA807B68002277
:100680005A807B6800221A720C37BD465DF8047BE5
:10069000704700BF80B483B000AF78607B680022F1
:1006A0001A807B6800225A807B6800229A807B68CF
:1006B0000022DA807B6800221A817B6800225A813E
:1006C0007B6800229A817B680022DA810C37BD4664
:1006D0005DF8047B704700BF80B483B000AF7860E2
:1006E0000B46FB70FB78002B08D07B681B889BB205
:1006F00043F001039AB27B681A8007E07B681B888D
:100700009BB223F001039AB27B681A800C37BD4676
:100710005DF8047B704700BF80B483B000AF7860A1
:100720000B46FB70FB78002B0CD07B68B3F8443091
:100730009BB26FEA43436FEA53439AB27B68A3F8D4
:10074000442009E07B68B3F844309BB2C3F30E0346
:100750009AB27B68A3F844200C37BD465DF8047B51
:10076000704700BF80B485B000AF78600B467B80D7
:100770000023FB730023BB8100237B817B681B8AE2
:100780009AB27B881340BB817B689B899AB27B8835
:1007900013407B81BB89002B05D07B89002B02D0C5
:1007A0000123FB7301E00023FB73FB7B1846143726
:1007B000BD465DF8047B704780B483B000AF7860BD
:1007C0000B467B807B88DB439AB27B681A820C37AE
:1007D000BD465DF8047B704780B582B000AF104B1A
:1007E0007B60104B3B6007E03B681A1D3A607A68FB
:1007F000111D796012681A603B680B4A9342F3D36B
:100800000A480B494FF000028842B8BF40F8042B59
:10081000FADB00F023FA08F0D5FC0837BD4680BDAE
:1008200088D0000800000020680000206800002038
:10083000C817002080B400AFFEE700BF80B586B0C7
:1008400000AFF860B9607A60FB7000237B61002321
:100850003B61FB78022B40F0B7804FF6FF733B61A2
:10086000F868B9687A68002300F082F9FB689B8811
:100870009BB243F400639AB2FB689A80FB681B88C2
:100880009BB243F480739AB2FB681A8008E03B691C
:100890005A1E3A61002B01D1002357E10BF052FFA1
:1008A000FB689B8A9BB203F00103002BEFD04FF64D
:1008B000FF733B6197F8203023F0010387F8203065
:1008C000A44A97F820301370A24B1B78DBB29AB27F
:1008D000FB681A8208E03B695A1E3A61002B01D17D
:1008E000002333E10BF02EFFFB689B8A9BB203F0E1
:1008F0000203002BEFD04FF6FF733B61FB681B8BAD
:100900009BB27B61FB68944A934210D100BF4FF4C5
:1009100000100BF0C9F90346002BF8D08F480021D6
:100920000BF0A6F94FF400100BF0E8F91BE008E01B
:100930003B695A1E3A61002B01D1002306E10BF0FE
:1009400001FF4FF400500BF0AFF90346002BEFD03E
:100950004FF6FF733B61824800210BF089F94FF499
:1009600000500BF0CBF908E03B695A1E3A61002BAE
:1009700001D10023EAE00BF0E5FEFB689B8A9BB205
:1009800003F00403002BEFD04FF6FF733B61FB68CD
:100990001B889BB243F400739AB2FB681A8008E08C
:1009A0003B695A1E3A61002B01D10023CEE00BF0C7
:1009B000C9FEFB681B889BB203F40073002BEFD1C8
:1009C0004FF6FF733B61C0E0FB78002B7DD14FF603
:1009D000FF733B61FB681B889BB243F480739AB240
:1009E000FB681A8008E00BF0ADFE3B695A1E3A61C5
:1009F000002B01D10023A9E0FB689B8A9BB203F086
:100A00000103002BEFD097F8203023F0010387F883
:100A10002030504A97F8203013704E4B1B78DBB2D1
:100A20009AB2FB681A824FF6FF733B6108E00BF045
:100A300089FE3B695A1E3A61002B01D1002385E0F3
:100A4000FB689B8A9BB203F00203002BEFD0FB688C
:100A50001B8B9BB27B61BB681B789AB2FB681A82C6
:100A6000BB680133BB607B68013B7B600FE000BF6C
:100A7000FB689B8A9BB203F00403002BF8D0BB6891
:100A80001B789AB2FB681A82BB680133BB607B6833
:100A90005A1E7A60002BEAD100BFFB689B8A9BB28A
:100AA00003F00403002BF8D0FB681B889BB243F4CF
:100AB00000739AB2FB681A8000BFFB681B889BB268
:100AC00003F40073002BF8D13FE0FB689B889BB2D6
:100AD00043F400739AB2FB689A80FB689B889BB2D0
:100AE00043F480639AB2FB689A801E4B00221A601E
:100AF00097F8203023F0010387F82030154A97F843
:100B000020301370FB68144A934203D1164A7B6865
:100B1000136002E0154A7B681360FB681B889BB278
:100B200043F480739AB2FB681A8000BFFB681B888D
:100B30009BB203F48073002BF8D100BFFB681B8BC2
:100B40009BB203F00203002BF8D10123184618379B
:100B5000BD4680BD08170020005400406C000240D4
:100B60004400024068000020101700200C170020ED
:100B700080B584B000AFF860B9607A603B603B68D4
:100B8000002B2CD1BB682D4A53602C4B10229A604D
:100B90002A4A7B68D360FB68294A93420FD1274BCE
:100BA000284A1A60284800210BF062F82648234999
:100BB0000BF020F8244801210BF05AF83BE01F4BC2
:100BC000224A1A60224800210BF052F820481B49A3
:100BD0000BF010F81E4801210BF04AF82BE0BB681F
:100BE000164A5360154B00229A60144A7B68D36002
:100BF000FB68134A93420FD1104B124A1A601548F2
:100C000000210BF035F813480C490AF0F3FF1148A6
:100C100001210BF02DF80EE0084B0C4A1A600E482B
:100C200000210BF025F80C4804490AF0E3FF0A48BC
:100C300001210BF01DF81037BD4680BDDC160020E9
:100C400000540040105400406C0002401058004016
:100C500044000240800002405800024080B500AFCE
:100C6000164A164B1B6843F0010313601349134BDC
:100C70005A68134B13404B60104A104B1B6823F00B
:100C8000847323F4803313600C4A0C4B1B6823F4E9
:100C900080231360094A094B5B6823F4FE03536009
:100CA000064B4FF41F029A60044B0022DA6200F0F8
:100CB0000BF8044B4FF000629A6080BD00100240B8
:100CC0000000FFF800ED00E080B500AF00F002F892
:100CD00080BD00BF80B483B000AF00237B600023E1
:100CE0003B60304A2F4B1B6843F4803313602D4B1D
:100CF0001B6803F400333B607B6801337B603B6817
:100D0000002B03D17B68B3F5A06FF0D1254B1B6896
:100D100003F00203002B02D001233B6001E000231B
:100D20003B603B68012B37D11E4A1E4B5B6853600A
:100D30001C4A1C4B5B6853601A4A1A4B5B68536031
:100D4000184A184B5B6823F47C135360154A154B03
:100D50005B6843F498135360124A124B1B6843F0CC
:100D60008073136000BF0F4B1B6803F00073002BF0
:100D7000F9D00C4A0B4B5B6823F003035360094A1C
:100D8000084B5B6843F00203536000BF054B5B6890
:100D900003F00C03082BF9D10C37BD465DF8047B3A
:100DA000704700BF0010024080B584B002AF034618
:100DB0000A46FB711346BB713E4B00221A70072096
:100DC00005F02CFC3C4B1A78BB791343DAB2FB7963
:100DD00023F00F03DBB21343DBB243F00403DAB2B8
:100DE000344B1A70334B1B781A464E23009333480A
:100DF000114601220123FFF721FD022005F00EFC20
:100E00002D4B1A78BB791343DBB2DAB2FB7923F0AE
:100E10000F03DBB21343DBB2DAB2264B1A70254B59
:100E20001B781A464E2300932448114601220123C1
:100E3000FFF704FD022005F0F1FB1F4B1A78BB7988
:100E40001343DAB2FB791B01DBB21343DBB243F08D
:100E50000403DAB2174B1A70164B1B781A464E234E
:100E600000931648114601220123FFF7E7FC0220F8
:100E700005F0D4FB104B1A78BB791343DBB2DAB21E
:100E8000FB791B01DBB21343DBB2DAB2094B1A70F8
:100E9000084B1B781A464E2300930848114601223E
:100EA0000123FFF7CBFC0A2005F0B8FB0837BD464D
:100EB00080BD00BF000000206C00002000540040F6
:100EC00080B489B000AF786039600023FB610023F3
:100ED0003B610023BB610023FB6000237B61002397
:100EE000BB603B68DB7803F00F03FB613B68DB789A
:100EF00003F01003002B05D03B689B781A46FB6972
:100F00001343FB613B681B88DBB2002B44D07B683A
:100F10001B687B610023BB6138E0BB69012202FAD8
:100F200003F3FB603B681B881A46FB6813403B6178
:100F30003A69FB689A4226D1BB699B00FB60FB685B
:100F40000F2202FA03F3BB60BB68DB437A691340EC
:100F50007B61FB68FA6902FA03F37A6913437B61E8
:100F60003B68DB78282B05D1BB6901229A407B685E
:100F70005A6108E03B68DB78482B04D1BB69012249
:100F80009A407B681A61BB690133BB61BB69072B5F
:100F9000C3D97B687A691A603B681B88FF2B4AD9E2
:100FA0007B685B687B610023BB613EE0BB69083303
:100FB0001A4601239340FB603B681B881A46FB6876
:100FC00013403B613A69FB689A422BD1BB699B0095
:100FD000FB60FB680F2202FA03F3BB60BB68DB43D4
:100FE0007A6913407B61FB68FA6902FA03F37A6954
:100FF00013437B613B68DB78282B07D1BB6908333F
:101000001A46012303FA02F27B685A613B68DB78D7
:10101000482B07D1BB6908331A46012303FA02F2B1
:101020007B681A61BB690133BB61BB69072BBDD902
:101030007B687A695A602437BD465DF8047B704747
:1010400080B483B000AF78607B684FF6FF721A807F
:101050007B6802229A707B680422DA700C37BD46E6
:101060005DF8047B704700BF80B487B000AF786044
:101070000B46FB7000233B610023FB6000237B6178
:101080000023BB607B68002B03DA2E4BDB697B619E
:1010900002E02C4B5B687B617B6803F470231B0CC4
:1010A000BB607B689BB23B617B6803F44013B3F584
:1010B000401F0AD17B6923F070637B61214A214B79
:1010C0005B6823F07063536021E07B6803F4801356
:1010D000002B0ED0BB68032202FA03F3FB60FB680F
:1010E000DB437A6913407B617B6943F070637B610A
:1010F0000DE07B685B0D1B011A463B699340DB43A7
:101100007A6913407B617B6943F070637B61FB7894
:10111000002B08D07B685B0D1B011A463B6993408E
:101120007A6913437B617B68002B03DA054A7B698C
:10113000D36102E0034A7B6953601C37BD465DF80A
:10114000047B70470000014090B484B000AF0346B8
:101150000A46FB711346BB710023FB60BB7903F0A9
:1011600003039B000F2202FA03F3FB601649BB79CD
:101170009B08DBB21846144ABB799B08DBB20233EA
:1011800052F82320FB68DB431A40831C41F82320DC
:101190000D48BB799B08DBB21C460B4ABB799B0808
:1011A000DBB2023352F82320F979BB7903F0030351
:1011B0009B0001FA03F31A43A31C40F823201037C5
:1011C000BD4690BC704700BF0000014080B483B0B2
:1011D00000AF0346FB71084997F907305B09FA79BC
:1011E00002F01F02012000FA02F241F823200C371E
:1011F000BD465DF8047B704700E100E080B483B039
:1012000000AF0346FB71094997F907305B09FA798A
:1012100002F01F02012000FA02F2203341F82320DD
:101220000C37BD465DF8047B704700BF00E100E06D
:1012300080B483B000AF0346FB71FB79002B02D072
:10124000012B05D009E0074B4FF480425A6104E0BE
:10125000044B4FF400425A6100BF0C37BD465DF8A5
:10126000047B7047000C014080B483B000AF03469C
:10127000FB71FB79002B02D0012B05D009E0074B55
:101280004FF480421A6104E0044B4FF400421A61AB
:1012900000BF0C37BD465DF8047B7047000C014071
:1012A00080B582B000AF0346FB71FB79184600F0B1
:1012B000A1FAFB791846FFF7BBFF45F2082005F0BD
:1012C00097F9FB791846FFF7CFFFFB79184600F036
:1012D00023FA094B07221A70084B00221A70084B98
:1012E00000221A70074B00221A70074B00221A8046
:1012F0000837BD4680BD00BF08000020AD000020BB
:10130000AF000020AE0000209000002080B584B027
:1013100000AF0346FB710120FFF7A6FF192008F07C
:1013200041FF0023FB7306E0FB7B0F4A0021D154F1
:10133000FB7B0133FB73FB7B042BF5D90B4B0022AA
:101340001A802520FFF75AFFFB791846FFF7A8FF00
:10135000C82008F027FF2520FFF738FF00F008F825
:101360001037BD4680BD00BFC01700209000002090
:1013700080B582B000AF0A2008F014FF0023FB7193
:10138000804B1B78DBB2012B40F0B0810A2008F0C3
:1013900009FF7D4B1B781B029AB27B4B5B789BB29B
:1013A00013449AB2794B5A80774B9B781B029AB2BE
:1013B000754BDB789BB213449AB2744B1A80724B14
:1013C0001A79724B1A71714B5B889AB2704B1B88F9
:1013D0009BB29A420AD96D4B5B889AB26D4B1B88BF
:1013E0009BB29A4202D26C4B00221A70674B5B8808
:1013F0009AB2674B1B889BB29A4202D2664B01227B
:101400001A70624B5B889AB2624B1B889BB29A42FD
:1014100002D9614B02221A705B480021042200F0BD
:1014200021FA03461A46584B1B799A4240F05E81D6
:101430000A2008F0B7FE594B1B78DBB2002B03D013
:10144000012B00F09B804EE10023FB7108E0FB794B
:10145000FA794D49895C524AD154FB790133FB71C9
:10146000FB79032BF3D90A2008F09CFE474B1B881D
:101470009BB24C4AA2FB031292094FF47A7101FB12
:1014800002F29B1A9BB2484AA2FB03235B099BB260
:10149000DBB23033DAB2454B1A703C4B1B889BB23F
:1014A000414AA2FB03125209642101FB02F29B1A7A
:1014B0009BB23F4AA2FB0323DB089BB2DBB2303373
:1014C000DAB23A4B5A70394B2E229A702F4B1B8846
:1014D0009AB2374BA3FB0213D9080B469B000B446F
:1014E0005B00D31A9BB2DBB23033DAB22F4BDA7027
:1014F0000A2008F057FE254B5B889BB2294AA2FBC5
:10150000031292094FF47A7101FB02F29B1A9BB20B
:10151000254AA2FB03235B099BB2DBB23033DAB26C
:10152000244B1A70194B5B889BB21F4AA2FB031213
:101530005209642101FB02F29B1A9BB21C4AA2FBD6
:101540000323DB089BB2DBB23033DAB2194B5A709B
:10155000184B2E229A700D4B5B889AB2144BA3FB4A
:101560000213D9080B469B000B445B00D31A9BB2B5
:10157000DBB23033DAB20F4BDA70B4E00023FB7128
:1015800023E000BFAE000020C0170020980000201C
:101590008C0000208A0000208E000020090000201E
:1015A000A0000020D34D62101F85EB51B400002035
:1015B000CDCCCCCCB0000020FB79FA794D49895CC8
:1015C0004D4AD154FB790133FB71FB79032BF3D9DD
:1015D0000A2008F0E7FD494B1B889BB2484AA2FB52
:1015E000031292094FF47A7101FB02F29B1A9BB22B
:1015F000444AA2FB03235B099BB2DBB23033DAB26D
:10160000414B1A703D4B1B889BB23E4AA2FB031212
:101610005209642101FB02F29B1A9BB23B4AA2FBD6
:101620000323DB089BB2DBB23033DAB2364B5A709D
:10163000354B2E229A70314B1B889AB2334BA3FB49
:101640000213D9080B469B000B445B00D31A9BB2D4
:10165000DBB23033DAB22C4BDA700A2008F0A2FD8C
:10166000264B5B889BB2264AA2FB031292094FF4D9
:101670007A7101FB02F29B1A9BB2224AA2FB03235E
:101680005B099BB2DBB23033DAB2214B1A701B4BD1
:101690005B889BB21B4AA2FB03125209642101FB27
:1016A00002F29B1A9BB2194AA2FB0323DB089BB2EE
:1016B000DBB23033DAB2164B5A70154B2E229A70C9
:1016C0000E4B5B889AB2114BA3FB0213D9080B4651
:1016D0009B000B445B00D31A9BB2DBB23033DAB20F
:1016E0000B4BDA7000BF0B4B00221A700837BD4657
:1016F00080BD00BFC0170020A80000209800002077
:10170000D34D62101F85EB51BC000020CDCCCCCC5A
:10171000B8000020AE00002080B58AB000AF0346BC
:10172000FB7107F118031846FFF78AFC002387F8BE
:10173000273000233B620023FB770820012108F0BB
:10174000FFFA4823FB76FB79002B02D0012B13D044
:1017500025E04FF480433B8307F1180322481946E4
:10176000FFF7AEFB28233B7301200E21FFF7ECFCB3
:101770004FF480433B6112E04FF400433B8307F199
:10178000180319481946FFF79BFB28233B730120D8
:101790000F21FFF7D9FC4FF400433B6100BF134A10
:1017A000124B9B6943F480339361114B00221A85DD
:1017B0000F4B01221A8000233B7510237B750123F8
:1017C000BB7507F11003184608F07AFB0F237B73F3
:1017D0000F23BB730123FB7307F10C0318460AF0B8
:1017E000A7FA2837BD4680BD000C0140001002401A
:1017F0000040014080B487B000AF0346FB71002376
:101800003B610023FB60FB79012B0CD0022B13D032
:10181000002B12D1124B7B614FF040633B614FF0C4
:101820008073FB6009E00E4B7B614FF040433B61EE
:101830004FF08053FB6000E000BF7B695A683B6952
:10184000DB431A407B695A607B695A68FB681A431C
:101850007B695A601C37BD465DF8047B704700BF4A
:10186000000C014080B485B000AF78600B46FB707F
:101870001346BB700023FB730023BB730023BB73B1
:101880000CE0BA7BFB7813441A467B6813441A7841
:10189000FB7B1344FB73BB7B0133BB73BA7BBB780D
:1018A0009A42EED3FB7B18461437BD465DF8047BA5
:1018B000704700BF80B582B000AF404B1B78DBB2F1
:1018C00003F004039B10012B72D13D4B9B889BB20C
:1018D00040F68C22934204D905F040FB394B3D225F
:1018E0001A70012008F05EFC06F062FE7860334B4F
:1018F0001B78DBB203F00803DB10012B22D1304B45
:101900009B889AB2304B1B889BB29A421AD22B4BBF
:101910001B78DBB203F00103002B13D02B4B1B68A9
:101920007A689A420DD9274B3E221A7005F016FBB1
:10193000274B1B78DBB243F00803DAB2244B1A7052
:1019400009E008E006F034FE0246224B1B889BB2F9
:1019500013441E4A1360012008F024FC1E4B1B8810
:101960009AB21E4B1B889BB29A4207D21A4B1B8815
:101970009BB2002B02D0002002F05AFB012008F09D
:1019800011FC154B5B889AB2144B5B889BB29A4250
:1019900007D2114B5B889BB2002B02D0022002F0D1
:1019A00047FB012008F0FEFB0B4B5B880C4B5B8870
:1019B000012008F0F7FB0837BD4680BD0C00002071
:1019C0003C0100200A0100201C0100201801002019
:1019D0000B0100201E0100207800002034010020AF
:1019E0003801002080B584B000AF0346FB8000239F
:1019F000FB730023BB730023FB7311E0FA88FB7BAE
:101A000042FA03F3DBB203F00103BB73BB7B012B90
:101A100003D1FB7B184602F0B1FAFB7B0133FB7369
:101A2000FB7B0F2BEAD91037BD4680BD80B582B055
:101A300000AF0023FB710023FB7106E0FB79184621
:101A400002F0F6FAFB790133FB71FB790E2BF5D925
:101A50000837BD4680BD00BF80B584B000AF786058
:101A60000023BB600023FB6006F0A2FDF86006F0D7
:101A70009FFD02467B681344BB6005F045FA1E20BB
:101A800008F090FB22E00020002107F0D9FD1C485F
:101A900007F098FD1B4B1B78DBB2184607F050F996
:101AA0004FF4FA7008F07EFB05F06EFABB68DAB20C
:101AB000FB68DBB2D31ADAB2124B1A7006F078FD6B
:101AC000F860322008F06EFB0AF03CFE0E4B1B78EB
:101AD000DBB203F00803DB10002B03D1FA68BB680C
:101AE0009A42D0D3094B1B78DBB223F00103DAB260
:101AF000064B1A7005F032FA1037BD4680BD00BFA4
:101B000064C900080A0100200B0100200C0000201D
:101B100080B582B000AF7860FFF788FF042002F044
:101B20002DFA4FF4FA7008F03DFB012002F026FA7E
:101B30004FF4FA7008F036FB7868FFF78DFF08372E
:101B4000BD4680BD80B582B000AF0346FB711D4B22
:101B50001B78DBB2002B12D11B4B1B78DBB25A1C5B
:101B6000D1B2194A11701946FB79184AA2FB032316
:101B70005B09DBB23033DAB2154B5A5411E0124B29
:101B80001B78DBB25A1CD1B20F4A11701946FB798F
:101B90000E4AA2FB03235B09DBB23033DAB20D4BF2
:101BA0005A54FB79094AA2FB03125209642101FB32
:101BB00002F29B1ADBB2184607F0C2F80837BD469E
:101BC00080BD00BFF5000020F40000201F85EB5110
:101BD000D4000020E400002080B584B000AF0023D2
:101BE000FB730023BB7300237B7300237B810023E3
:101BF0007B6000233B6007F047FD744807F0E2FC80
:101C00004FF4FA7008F0CEFA714B00221A7034E0EB
:101C100006F076FF03461A466D4B1A70002000212D
:101C200007F00EFD6B4807F0CDFC6B4B1B689BB2B9
:101C3000184600F0EDF9694807F0C4FC664B5B6894
:101C40009BB2184600F0E4F90120002107F0F8FCEF
:101C50000A2008F0A7FA624807F0B4FC5E4B9B68C4
:101C60009BB2184600F0D4F95E4807F0ABFC5A4B23
:101C7000DB689BB2184600F0CBF9554B1B78DBB202
:101C8000002BC5D007F000FD514B1B78DBB2013BA8
:101C9000BB734F4B00221A70534807F093FCFB7B39
:101CA000184605F039FD0346FB73FB7B184602F02E
:101CB000BFF907F0E9FC4D4807F084FC7B7B184630
:101CC00005F02AFD03467B73BB7B434A52F8233061
:101CD0007B6007F0D9FC464807F074FCFB7B184694
:101CE00002F04CF93A4B00221A7019E00A2008F071
:101CF00059FA06F005FF03461A46354B1A7007F0ED
:101D0000C3FC3C4807F05EFC0120002107F098FC72
:101D1000BB7B314A52F823309BB2184600F078F969
:101D20002B4B1B78DBB2022BE0D1BB7B2A4A52F84B
:101D300023303B60FB7B184602F07AF9C82008F09C
:101D400031FA3B689AB27B689BB2D31A9BB21A46AF
:101D50007B7B92FBF3F37B81BB7B27497A8921F85C
:101D6000132007F091FC254807F02CFC3B689BB240
:101D7000184600F04DF90120002107F061FC2048D1
:101D800007F020FC7B89184600F042F97B8940F27D
:101D9000426019460AF09AFA0D4B00221A7008E0C8
:101DA0000A2008F0FFF906F0ABFE03461A46084B7E
:101DB0001A70074B1B78DBB2022BF1D107F064FCE1
:101DC000C82008F0EFF91037BD4680BD6CC9000887
:101DD0000901002078C90008201700207CC90008EC
:101DE00080C9000884C9000888C9000898C900088B
:101DF000A8C90008B8C9000848170020C8C90008C9
:101E0000D0C9000880B584B000AF0346FB710B4613
:101E1000BB711346BB800023FB60BB88104A12884D
:101E200092B202FB03F30F4AA2FB0323DB08FB6021
:101E3000002002F0A3F8BB790B4A002142F82310DE
:101E400002E00A2008F0AEF9074B1A68FB689A42D4
:101E5000F7D3002002F0ECF81037BD4680BD00BF7C
:101E600048170020CDCCCCCC2017002080B584B002
:101E700000AF0346FB710B46BB711346BB800023CA
:101E8000BB600023FB8107F0FFFB564807F09AFB7D
:101E900008E00A2008F086F906F032FE03461A46EA
:101EA000514B1A70504B1B78DBB2002BF1D04E4BCC
:101EB0001B78DBB2022B01D1FFF78EFE01237B736F
:101EC00089E007F0E1FB494807F07CFB484B1B88A1
:101ED0009BB2184600F09CF8FB891846052105F0D6
:101EE000CDFC0346FB81FB89414A128892B202FB7A
:101EF00003F3404AA2FB0323DB08BB6007F0C4FBEB
:101F00003D4807F05FFBBB689BB2184600F080F8C5
:101F10000120002107F094FB384807F053FBBB7900
:101F2000374A52F82330364A52F823309BB21846CB
:101F300000F06EF82C4B00221A70002002F01EF800
:101F4000BB792F4A002142F823101BE00A2008F039
:101F500029F907F099FB2B4807F034FBBB79284A95
:101F600052F823309BB2184600F052F801200021AD
:101F700007F066FB244807F025FBBB689BB21846B8
:101F800000F046F81E4B1A68BB689A42DED3002068
:101F900002F04EF807F078FB1C4807F013FB08E04E
:101FA0000A2008F0FFF806F0ABFD03461A460E4B78
:101FB0001A700D4B1B78DBB2002BF1D00A4B1B784B
:101FC000DBB2022B05D101237B730D4B00221A607B
:101FD00001E000237B737B7B012B3FF472AF103752
:101FE000BD4680BDD8C9000809010020E8C9000825
:101FF00048170020CDCCCCCCF4C90008FCC900089F
:102000002017002000CA000808CA00080CCA0008EF
:1020100080B582B000AF0346FB80FB88164AA2FB66
:1020200003235B0B9BB2DBB2184606F089FEFB88EC
:10203000114AA2FB0312520B42F2107101FB02F291
:102040009B1A9BB20D4AA2FB03235B099BB2DBB236
:10205000184606F075FEFB88084AA2FB03125209D7
:10206000642101FB02F29B1A9BB2DBB2184606F018
:1020700067FE0837BD4680BD5917B7D11F85EB51A4
:1020800080B485B000AF03463960FB711346BB7165
:102090000023FB730023FB730AE0FB7B3A681344C5
:1020A0001B78DAB2FB795340FB71FB7B0133FB7386
:1020B000FA7BBB799A42F0D3FB7918461437BD46B8
:1020C0005DF8047B704700BF80B500AF784840F2F0
:1020D000255108F009FF0346002B2AD0744808F068
:1020E000C3FE0346DAB2734B1A70734B1B78DBB234
:1020F0005A1CD1B2704A11701A466E4B1B78D9B275
:102100006E4B99546E4B1B8801339AB26C4B1A80FC
:102110006B4B1B884EF66022934202D9684B00221B
:102120001A80634A624B1B889BB223F020039BB248
:102130001380644B1B78DBB2012B15D1624B1B78EB
:10214000DAB2624B1B78DBB29A420DD2584A5E4B30
:102150001B78DBB2591CC8B25B49087019465C4B4E
:102160005B5CDBB29BB29380514A514B1B889BB2A4
:1021700023F040039BB21380564B1B78DBB2002B3D
:1021800040F09580544B1B78DBB2042B52D1534B5B
:102190001B78DBB2002B04D1464B1B78DAB2504BD4
:1021A0001A704E4B1B78DBB25A1CD1B24B4A1170DD
:1021B0001A46404B1B78D9B2404B9954474B1B7879
:1021C000DBB21A46464B1B78DBB2033B9A4231D155
:1021D000434B1B78DBB2043BDBB2302037491A4655
:1021E000FFF74EFF03461A463E4B1A703A4B002249
:1021F0001A703A4B00221A703B4B00221A70394B6E
:102200001B78DBB2002B13D1354B1B78DBB2043BC0
:102210002A4AD35CDAB2354B1A70354B1B78DBB2E5
:102220000133DAB2324B1A702A4B01221A7001E0E4
:1022300000F0FEF81F4B1B78DBB25A2B03D12A4B60
:1022400001221A7033E01B4B1B78DBB2582B08D1EC
:10225000254B1B78DBB2012B03D1234B02221A70D2
:1022600025E0214B1B78DBB2022B20D1114B1B78D0
:10227000DBB2302B18D00F4B1B78DBB2312B06D1E1
:10228000154B03221A70154B00221A700CE0094BF3
:102290001B78DBB2322B07D10F4B04221A700F4B85
:1022A00000221A7000F0C4F80F4B00221A7080BD93
:1022B00000380140CE000020D1000020541700203B
:1022C000C0000020CF000020D00000200B00002024
:1022D000881700204E0100204D0100204B010020F6
:1022E0004C010020D20000204A0100208400002080
:1022F0008000002080B584B000AF78604FF47A6031
:1023000007F050FF0023FB720023FB6008F048FE3B
:102310000120012106F006FF0023BB7206F048F9F8
:1023200003463C33FB6006F043F90246FB689A42E1
:102330000FD90120002106F0F5FEC82007F032FF7A
:102340000120012106F0EEFE06F032F903460A33C1
:10235000FB60642007F026FF642007F023FF04F0F1
:1023600013FE0020FEF7D2FF0AF0A2F9FFF7A2FA4F
:102370000120FEF7CBFF4FF4FA7007F013FFD2E70E
:1023800080B584B000AF78600023FB730AF0DAF9FF
:10239000224B1B78DBB203F00803DAB21F4B1A7032
:1023A0001E2007F0FFFE1E4B1B78DBB2012B30D145
:1023B00000F05AF91B4B5B78DBB2312B04D9194B77
:1023C0005B78DBB2632B21D9164B5B78DAB2164B04
:1023D0001A700023FB7311E0124B1B78DBB2043B35
:1023E000104AD35CDBB2184600F0C4F8192007F09D
:1023F000D9FE0AF0A7F9FB7B0133FB73FB7B092BAA
:10240000EAD900F015F8094B00221A70044B00229B
:102410001A701E2007F0C6FEB8E700BF4F0100206B
:102420004E01002054170020700100204B010020B5
:1024300080B483B000AF0023FB710023FB7106E082
:10244000FB79074A0021D154FB790133FB71FB79F9
:10245000292BF5D90C37BD465DF8047B704700BFCA
:102460005417002080B582B000AF0023FB710B4BE6
:1024700000221A700023FB7109E0FB79084A002151
:10248000D154012007F08EFEFB790133FB71FB79FB
:10249000292BF2D90837BD4680BD00BF0B000020B4
:1024A0008817002080B500AF1D4B00221A701D4B0D
:1024B000DB78DBB20133DAB21B4B1A70194BDB78D5
:1024C000DBB21A46174B0D219954184B00221A7093
:1024D000134B01221A70164A144B1B78DBB2591C9D
:1024E000C8B21249087019460E4B5B5CDBB29BB256
:1024F000938004E0052007F055FE0AF023F90B4B0A
:102500001B78DAB2084B1B78DBB29A42F2D3064B47
:1025100000221A70FFF7A6FF014B00221A7080BD3F
:10252000CF000020881700200B000020D0000020E2
:102530000038014080B584B000AF03460A46FB7105
:102540001346BB710023FB730023FB730BE0FB7985
:10255000184600F00FF8322007F024FE0AF0F2F8D7
:10256000FB7B0133FB73FA7BBB799A42EFD31037C5
:10257000BD4680BD90B583B000AF0346FB71FFF749
:1025800071FF1D4B5A221A701B4B58225A701A4B5E
:1025900037229A70184B0722DA70174AFB791371A9
:1025A000154BDB78DBB29C1E134BDB78DBB2013BB7
:1025B000DBB2002010491A46FFF762FD03461A46B7
:1025C0000D4B1A550C4BDB78DBB2013B0A4A00215C
:1025D000D154012007F0E6FDFFF764FF074B1B789D
:1025E000DBB20133DAB2054B1A70054AFB7913707E
:1025F0000C37BD4690BD00BF88170020CC000020DE
:10260000CD00002080B582B000AF0346FB710B46C1
:10261000BB8013467B80FFF709FAFB79184601F06F
:10262000ADFCBB881846FFF7DDF90837BD4680BD15
:1026300080B582B000AF0023FB800023BB800DE09B
:10264000FB8803F5B863BB80BB88184600F06CFFBD
:10265000FB881033FB80022007F0A4FDFB88C72B0A
:10266000EED90837BD4680BD80B586B002AF0023E5
:10267000FB8100237B800023BB810023FB720023AE
:102680007B60C44B5B78DBB23F2B00F2348301A24A
:1026900052F823F095270008C1270008D727000823
:1026A000E3270008EB270008F9270008072800089F
:1026B000F72C0008152800082D28000867280008B6
:1026C00087280008CD280008F928000819290008E3
:1026D0004B2900086F290008B1290008D5290008F6
:1026E000F9290008F72C0008F72C0008FF2900083A
:1026F0000B2A0008172A0008F72C0008F72C0008FE
:10270000F72C0008F72C0008F72C0008F72C00081D
:10271000232A0008B32A0008FB2A00084B2B0008D4
:10272000512B00085F2B0008A72B0008AD2B0008D9
:10273000F72C0008F72C0008F72C0008F72C0008ED
:10274000F72C0008F72C0008F72C0008F72C0008DD
:10275000F72C0008F72C0008F72C0008F72C0008CD
:10276000E32B0008F12B0008F72C0008F72C0008D9
:10277000F72C0008FF2B0008392C00085B2C000800
:102780007F2C0008A12C0008A72C0008AD2C000805
:10279000BB2C00087F4B9B78D8B27E4BDB78D9B23C
:1027A0007C4B1B79DBB29BB21B029AB2794B5B79F3
:1027B000DBB29BB213449BB21A46FFF723FB9AE2AB
:1027C000744B9B78DAB2734BDB78DBB21046194658
:1027D00004F080FE8FE2704B33221A7004F0BEFBCF
:1027E00089E26D4B30221A7085E26A4B9B78DBB22E
:1027F000184601F0C3FB7EE2664B9B78DBB21846BD
:1028000001F016FC77E2634B9B78DBB2184600F0D0
:102810001BFF70E2604B1B78DBB2332B05D15D4BA5
:102820009B78DAB25D4B1A7065E264E2594B1B7813
:10283000DBB21A46574B9B5CDBB218460F21FFF701
:1028400079FEC82007F0AEFC524B9B78D9B2514BB1
:10285000DB78DAB24F4B1B79DBB2084611461A46D9
:1028600000F0DAFC47E205F0A3FE03463C334C4A95
:1028700013604C4B00221A704B4B00221A704B4BCA
:1028800000221A7037E2454B00221A70424B332265
:102890001A70444B1B78DBB203F00103DAB2414BF0
:1028A0001A700020002104F015FE0120002104F020
:1028B00011FE0220002104F00DFE0320002104F08F
:1028C00009FE04F04BFBFFF7B1F814E2314B9B78A3
:1028D000DBB21B022F4AD278D2B213441B022D4A1C
:1028E0001279D2B213441B022A4A5279D2B213444B
:1028F000184605F06FFEFEE1264B1B78DBB21A4648
:10290000244B9B5CDBB218460521FFF713FE42F215
:10291000107007F047FCEEE11E4B1B78DBB21A4645
:102920001C4B9B5CDBB218460F21FFF703FE052012
:1029300007F038FC174B9B78DAB2164BDB78DBB22A
:102940001046194602F0F0FDD5E1124B9B78DBB240
:102950009AB2104BDB78DBB29BB21B029BB21344E2
:10296000FB81FB891846012100F094FCC3E1094B6F
:102970009B78DBB29AB2074BDB78DBB29BB21B02CF
:102980009BB21344FB81FB891846102100F082FCA6
:10299000B1E100BF541700200A0000200C00002005
:1029A000180100200B0100200A0100204F01002027
:1029B0009B4B9B78DBB29AB2994BDB78DBB29BB234
:1029C0001B029BB21344FB81FB8918460A2100F0CD
:1029D00061FC90E1924B9B78DBB29AB2904BDB7832
:1029E000DBB29BB21B029BB21344FB81FB891846EE
:1029F0000B2100F04FFC7EE106F006FD7BE1884BE9
:102A00009B78DAB2874B1A7075E1854B9B78DAB206
:102A1000854B1A706FE1824B9B78DAB2834B1A7048
:102A200069E17F4B9B78DBB21B029AB27C4BDB786F
:102A3000DBB29BB21344FB81FA89BB1C10461946DA
:102A400009F0F8FB764B1B79DBB2002B16D17B88A3
:102A5000DBB29BB27B80724B5B79DBB21B029BB219
:102A60009AB27B889BB213409BB29BB27B807B88DF
:102A7000FA891046194609F029FC19E0684B1B79C0
:102A8000DBB2012B14D17B8823F0FF039BB27B8048
:102A9000634B5B79DBB29AB27B889BB213409BB2EB
:102AA0009BB27B807B88FA891046194609F00EFCA0
:102AB00021E15B4B9B78DBB21B029AB2584BDB786F
:102AC000DBB29BB21344FB81554B1B79DBB21B027B
:102AD0009AB2534B5B79DBB29BB213449BB27B80BF
:102AE0007B88FA891046194609F0F0FB7A88504B2A
:102AF0001A80504AFB891380FDE0494B9B78DBB27A
:102B00001B029AB2464BDB78DBB29BB21344FB81CB
:102B1000434B1B79DBB21A06414B5B79DBB21B04DA
:102B200003F07F431A443E4B9B79DBB21B0203F058
:102B30007F4313443A4AD279D2B213447B60FB8973
:102B40001846796804F00CFDD5E003F087F8D2E070
:102B5000334B9B78DBB2184600F0ECF8CBE0304BFF
:102B60001B79DBB29AB22E4BDB78DBB29BB21B0235
:102B70009BB213449BB27B80294B9B79DBB29AB208
:102B8000274B5B79DBB29BB21B029BB21344BB8128
:102B9000234B9B78D9B27A88BB89084611461A46DE
:102BA000FFF730FDA7E0FEF741FFA4E01C4B9B7947
:102BB000DBB21A461A4B5B79DBB21B029BB21A449A
:102BC000174B1B79DBB21B0403F47F031A44144B2D
:102BD000DB78DBB21B0613447B607868FEF798FF56
:102BE00089E00F4B9B78DBB2184600F083FD82E052
:102BF000012000F07FFD022000F07CFD7BE0084B0F
:102C00009B78DBB29AB2064BDB78DBB21B029BB23D
:102C100013409BB29BB21846022100F03BFB6AE0D6
:102C200054170020290100202A0100202B01002038
:102C300088000020860000203B4B9B78DBB29AB2D4
:102C4000394BDB78DBB29BB21B029BB213449BB2C5
:102C50001846012100F0D4FB4DE0334B9B78DBB2EA
:102C60009AB2314BDB78DBB29BB21B029BB21344AE
:102C7000FB81FB891846022100F0C2FB3BE02A4B96
:102C80009B78DBB29AB2284BDB78DBB29BB21B029B
:102C90009BB21344FB81FB89184600F045FC2AE0F7
:102CA000FFF7C6FC27E000F0BBF824E04FF400700B
:102CB0004FF4B86100F09CF91DE01B4B9B78DBB230
:102CC0009AB2194BDB78DBB29BB21B029BB2134466
:102CD000FB81154B1B79DBB29AB2134B5B79DBB2EC
:102CE0009BB21B029BB213449BB24FF40070194677
:102CF00000F07EF900BF322007F054FA0A4B5B78EF
:102D0000DBB2632B0CD90223009307480749072243
:102D1000002305F0E9FC044B5B78DAB2044B1A702F
:102D20001037BD4680BD00BF54170020301700206B
:102D30004901002080B584B000AF78600023FB60BB
:102D400005F036FC02467B681344FB6007E00A4B43
:102D500000229A86642007F025FA09F0F3FC05F0BA
:102D600027FC0246FB689A42F1D3034B4FF47A7278
:102D70009A861037BD4680BD002C014080B584B0D6
:102D800000AF03460A46FB8013467B710023BB81DC
:102D90000023BB600023FB73FFF764FB0023FB737E
:102DA00032E00023BB81FB7B9BB25B009BB2DBB2BA
:102DB0009AB2FB881344BB810023BB60BB891846D1
:102DC00006F030F9B860FB7B9B00BA68120ED1B2F6
:102DD000124AD154FB7B9B000133BA68120CD1B26A
:102DE0000E4AD154FB7B9B000233BA68120AD1B25F
:102DF0000A4AD154FB7B9B000333BA68D1B2074A1D
:102E0000D154FB7B0133FB737B795B08DBB2FA7B2C
:102E10009A42C6D31037BD4680BD00BF8817002038
:102E200080B584B000AF0023FB8100237B730023B7
:102E3000BB600023FB8000233B73684B5A221A704F
:102E4000664B58225A70654B31229A70634B0422AC
:102E5000DA70624B0A221A71614B00221A70614BC0
:102E600005221A70604B00221A705D4B01221A7005
:102E70005E4A5D4B1B78DBB2591CC8B25A490870D8
:102E80001946564B5B5CDBB29BB2938004E0052095
:102E900007F088F909F056FC534B1B78DAB2514B16
:102EA0001B78DBB29A42F2D30F2007F07BF90020A7
:102EB0004A490522FFF7E4F803463B73FFF7D2FACD
:102EC000474B00221A70642007F06CF90023FB8145
:102ED00049E0FB89DBB25C339BB21B019BB2184615
:102EE0001021FFF74BFF00237B7309E07B7B3B4AFC
:102EF000D35CDAB23B7B53403B737B7B01337B7308
:102F00007B7B1F2BF2D9364B00221A70354B2022C7
:102F10001A70354B00221A70314B01221A70334A55
:102F2000314B1B78DBB2591CC8B22F4908701946C7
:102F30002A4B5B5CDBB29BB2938004E0012007F07C
:102F400031F909F0FFFB284B1B78DAB2254B1B78CF
:102F5000DBB29A42F2D3FFF785FA214B00221A70B6
:102F6000FB890133FB81FB891E2BB2D901237B73C3
:102F700006E07B7B19497A7BCA547B7B01337B73E8
:102F80007B7B042BF5D9154A3B7B1370144B002235
:102F90001A70144B04221A70134B00221A70104B33
:102FA00001221A70114B00229A8004E0012007F0E0
:102FB000F9F809F0C7FB0C4B1B78DAB2094B1B7808
:102FC000DBB29A42F2D30F2007F0ECF8FFF74AFA8F
:102FD000034B00221A701037BD4680BD88170020B1
:102FE000CF0000200B000020D0000020003801405E
:102FF00080B586B000AF03460A46FB801346BB800F
:103000000023FB8200237B7500233B610023FB81AF
:1030100000233B757B4B5A221A707A4B58225A7008
:10302000784B31229A70FB881B099BB25B010C33F1
:103030001B12DAB2734BDA70FB881B099BB2DBB24E
:103040005B01DBB20C33DAB26E4B1A71BB881B0A20
:103050009BB2DAB26B4B5A71BB88DAB2694B9A7188
:10306000694B00221A70694B07221A70684B0022C4
:103070001A70654B01221A70664A654B1B78DBB2E9
:10308000591CC8B26249087019465E4B5B5CDBB2E2
:103090009BB2938004E0052007F084F809F052FB0E
:1030A0005B4B1B78DAB2594B1B78DBB29A42F2D3F6
:1030B0000F2007F077F8002052490722FEF7E0FFC3
:1030C00003463B75FFF7CEF94F4B00221A70642080
:1030D00007F068F80023FB824BE0FB8ADBB29BB26F
:1030E0001B019AB2BB8813449BB218461021FFF70C
:1030F00045FE00237B7509E07B7D424AD35CDAB252
:103100003B7D53403B757B7D01337B757B7D1F2B66
:10311000F2D93D4B00221A703C4B20221A703C4BD6
:1031200000221A70384B01221A703A4A384B1B7829
:10313000DBB2591CC8B2364908701946314B5B5C8A
:10314000DBB29BB2938004E0012007F02BF809F07A
:10315000F9FA2F4B1B78DAB22C4B1B78DBB29A4270
:10316000F2D3FFF77FF9284B00221A70FB8A013354
:10317000FB82FB881B099BB2FA8A9A42ADD30123DA
:103180007B7506E07B7D1F497A7DCA547B7D0133C8
:103190007B757B7D042BF5D91A4A3B7D13701A4B46
:1031A00000221A70194B04221A70194B00221A704F
:1031B000154B01221A70174A154B1B78DBB2591CAC
:1031C000C8B21349087019460E4B5B5CDBB29BB268
:1031D000938004E0012006F0E5FF09F0B3FA0C4B00
:1031E0001B78DAB2094B1B78DBB29A42F2D30F207C
:1031F00006F0D8FFFFF736F9034B00221A70183794
:10320000BD4680BD88170020CF0000200B000020A5
:10321000D00000200038014080B584B000AF0346E4
:10322000FB710B46BB7113467B710023BB6000230F
:10323000FB6005F0BDF9F860BA79FB681344BB6028
:10324000FB791846012102F0F1F8022006F0AAFFEE
:10325000FA797B791046194602F0E8F80DE005F09E
:10326000A7F9F86009F06EFA0A2006F09BFF01202A
:1032700000F040FA0A2006F095FFFA68BB689A420F
:10328000EDD3FB791846002102F0D0F81037BD4687
:1032900080BD00BF80B586B000AF03460A46FB8004
:1032A00013467B7100233B610023FB757B79012B67
:1032B00014D1514B1B79DBB29AB24F4B5B79DBB225
:1032C0009BB21B029BB213449AB24C4B1A804B4BDD
:1032D0001B88FA881046194608F0F8FF7B79022B04
:1032E00018D1454B1B79DBB21A46434B5B79DBB2F5
:1032F0001B021A44404B9B79DBB21B041A443E4B21
:10330000DB79DBB21B0613443B61FB881846396945
:1033100004F026F97B79102B2AD10023FB7524E0D9
:10332000364B00221A80FB7D02335B00324AD35CAD
:10333000DBB29AB2FB7D5B0203F5A0632E49CB5C46
:10334000DBB29BB213449AB22C4B1A80FB885A1CF6
:10335000FA802A4A12881846114608F0B7FF012061
:1033600006F020FFFB7D0133FB75FB7D1F2BD7D9BA
:103370007B790A2B1DD10023FB81FA8807F10E030C
:103380001046194608F056FFFB89DBB29BB2FB8161
:10339000194B1B79DBB21B029AB2FB899BB213401B
:1033A0009BB29BB2FB81FB89FA881046194608F054
:1033B0008DFF7B790B2B1BD10023BB81FA8807F192
:1033C0000C031046194608F035FFBB8923F0FF03B4
:1033D0009BB2BB81084B1B79DBB29AB2BB8913400D
:1033E0009BB2BB81BB89FA881046194608F06EFF74
:1033F0001837BD4680BD00BF54170020760100205D
:1034000090B585B000AF03460A46FB8013467B713A
:10341000404B5A221A703F4B58225A703D4B312272
:103420009A707B79012B1DD1FA8807F10A031046A7
:10343000194608F0FFFE374B0922DA70364B9B78AD
:10344000DAB2344B1A71344BDB78DAB2314B5A7141
:103450007B89DAB22F4B9A717B891B0A9BB2DAB255
:103460002C4BDA717B79022B24D1FB88184605F0AE
:10347000D9FDF860274B0B22DA70274B9B78DAB224
:10348000244B1A71244BDB78DAB2224B5A71FB6859
:10349000DAB2204B9A71FB681B0ADAB21D4BDA7163
:1034A000FB681B0CDAB21B4B1A72FB681B0EDAB2FC
:1034B000184B5A72174BDB78DBB25C1E154BDB786E
:1034C000DBB2013BDBB2002012491A46FEF7D8FD01
:1034D00003461A460F4B1A550E4BDB78DAB20F4BE8
:1034E0001A700F4B00221A700E4B01221A7002E064
:1034F000012006F057FE0A4B1B78DAB2074B1B7807
:10350000DBB29A42F4D3074B00221A701437BD463F
:1035100090BD00BF88170020541700200B0000202A
:10352000D0000020CF00002090B585B000AF03464A
:10353000FB800023FB730623BB733E4B5A221A7099
:103540003C4B58225A703B4B31229A70394B272200
:10355000DA70394B9B78DAB2364B1A71364BDB781E
:10356000DAB2344B5A710023FB7332E00023BB60A4
:10357000FB7B9BB25B009AB2FB8813449BB218465C
:1035800005F050FDB860BB7B5A1CBA731A46BB6885
:103590001B0ED9B2274B9954BB7B5A1CBA731A46DF
:1035A000BB681B0CD9B2234B9954BB7B5A1CBA7312
:1035B0001A46BB681B0AD9B21E4B9954BB7B5A1CD6
:1035C000BA731A46BB68D9B21A4B9954FB7B0133C4
:1035D000FB73FB7B072BC9D9BC7B164BDB78DBB2BB
:1035E000013BDBB2002013491A46FEF749FD0346B2
:1035F0001A46104B1A550F4BDB78DAB20F4B1A7084
:103600000F4B00221A700F4B01221A7002E00120AA
:1036100006F0C8FD0A4B1B78DAB2084B1B78DBB208
:103620009A42F4D3074B00221A70FEF71BFF14379F
:10363000BD4690BD88170020541700200B000020C5
:10364000D0000020CF00002080B584B000AF03463A
:10365000FB710023FB730023BB8100237B81234B81
:103660005A221A70214B58225A70204B31229A70DC
:103670001E4B2A22DA701D4AFB7913710023FB735B
:103680002AE0FB799BB21A46D20013449AB2FB7B24
:103690009BB213449BB203F538739BB25B00BB81B2
:1036A000BA8907F10A031046194608F0C3FDFB7BEF
:1036B0005B0005330D4A0021D154FB7B03335B00D3
:1036C0007A89D2B25242D1B2084AD154012006F0CE
:1036D00069FDFB7B0133FB73FB7B112BD1D9044BC1
:1036E00001221A701037BD4680BD00BF8817002028
:1036F000CF00002090B583B000AF0346FB71974B1D
:103700001B78DBB2002B40F06182954B5A221A7075
:10371000934B58225A70924B33229A70904B292225
:10372000DA70FB79012B40F0DB808E4B1B78DAB22C
:103730008B4B1A718C4B1B68DAB2894B5A718B4BCD
:103740001B68DAB2864B9A71854B0022DA71884B7E
:103750001B889BB2DAB2824B1A72864B1B78DAB2A4
:103760007F4B5A72844B1B78DAB27D4B9A72824B34
:103770005B78DAB27A4BDA727F4B9B78DAB2784BAD
:103780001A737D4BDB78DAB2754B5A737B4B1B8B0C
:103790009BB2DAB2724B9A73784B1B8B9BB21B0AAB
:1037A0009BB2DAB26E4BDA73744B9B8B9BB2DAB27C
:1037B0006B4B1A74714B9B8B9BB21B0A9BB2DAB298
:1037C000674B5A746E4B1B889BB2DAB2644B9A7487
:1037D0006B4B1B889BB21B0A9BB2DAB2604BDA744C
:1037E000674B5B889BB2DAB25D4B1A75644B5B88A2
:1037F0009BB21B0A9BB2DAB2594B5A75614B1B88BC
:10380000DAB2574B9A755F4B1B881B0A9BB2DAB230
:10381000534BDA755C4B5B889BB2DAB2504B1A762D
:10382000594B5B889BB21B0A9BB2DAB24C4B5A765F
:10383000554B9B889BB2DAB2494B9A76524B9B8888
:103840009BB21B0A9BB2DAB2454BDA764E4BDB8851
:103850009BB2DAB2424B1A774B4BDB889BB21B0A06
:103860009BB2DAB23E4B5A77484B1B78DAB23C4BEC
:103870009A77474B1B889BB21B0A9BB2DAB2384B34
:10388000DA77434B1B889BB2DAB2354B83F82020A2
:10389000404B9B8E9BB2404AA2FB0323DB089BB2AA
:1038A000DAB22F4B83F821203C4B1B78DAB22C4B39
:1038B00083F822203A4B1B78DAB2294B83F8232075
:1038C000384B1B78DAB2264B83F82420364B1B7812
:1038D000DAB2234B83F82520214AFB7982F826307F
:1038E000FB79022B74D1314B1B889BB2DAB21C4B93
:1038F0001A712E4B1B889BB21B0A9BB2DAB2184B73
:103900005A712B4B1B889BB2DAB2154B9A71284B1C
:103910001B889BB21B0A9BB2DAB2114BDA71104BB7
:1039200000221A72184B1B889BB21B0A9BB2DAB298
:103930000B4B5A72144B5B889BB2DAB2084B9A72EB
:10394000114B5B889BB21B0A9BB2DAB2044BDA7252
:103950000D4B9B889BB2DAB22CE000BFCF00002059
:10396000881700200A0000200C0100201001002010
:103970002601002044010020A00000200028004073
:10398000780000206C0100203C0100204F01002045
:10399000CA000020002C0140CDCCCCCC4601002038
:1039A0000C0000200A0100200B0100202E01002045
:1039B00030010020874B1A73874B9B889BB21B0AF0
:1039C0009BB2DAB2834B5A73824AFB7982F8263073
:1039D000FB79032B3BD1814B9B68DAB27D4B1A718B
:1039E0007E4B9B681B0ADAB27A4B5A717B4B9B6801
:1039F0001B0CDAB2774B9A71784B9B681B0EDAB2CC
:103A0000744BDA71764B9B68DAB2724B1A72744B54
:103A10009B681B0ADAB26F4B5A72714B9B681B0C86
:103A2000DAB26C4B9A726E4B9B681B0EDAB2694B22
:103A3000DA726C4B9B78DAB2664B1A73694BDB789F
:103A4000DAB2644B5A73634AFB7982F82630FB7909
:103A5000042B1CD15F4B00225A72634B1B78DAB2E5
:103A60005C4B9A72614B1B889BB2DAB2594BDA728B
:103A70005E4B1B889BB21B0A9BB2DAB2554B1A7382
:103A8000544B4D225A73534AFB7982F82630FB7906
:103A9000052B39D1564B1B889BB2DAB24D4B1A71AC
:103AA000534B1B889BB21B0A9BB2DAB2494B5A712B
:103AB0004F4B5B889BB2DAB2464B9A714C4B5B889A
:103AC0009BB21B0A9BB2DAB2424BDA71494B1B68BC
:103AD000DAB2404B1A72474B1B681B0ADAB23D4BF5
:103AE0005A72444B1B681B0CDAB23A4B9A72414B28
:103AF0001B681B0EDAB2374BDA72364B4D225A7303
:103B0000344AFB7982F82630FB79062B43D1384BB7
:103B10001B889BB2DAB22F4B1A71354B1B889BB2B4
:103B20001B0A9BB2DAB22B4B5A71314B5B889BB2AA
:103B3000DAB2284B9A712E4B5B889BB21B0A9BB260
:103B4000DAB2244B5A712B4B5B68DAB2214B1A72F2
:103B5000284B5B681B0ADAB21E4B5A72254B5B6816
:103B60001B0CDAB21B4B9A72224B5B681B0EDAB24B
:103B7000184BDA721D4B5B889BB2DAB2154B1A7385
:103B80001A4B5B889BB21B0A9BB2DAB2114B5A7379
:103B9000104AFB7993750F4BDB78DBB29C1E0D4B03
:103BA000DB78DBB2023BDBB200200A491A46FEF7A3
:103BB00067FA03461A46074B1A55064BDB78DBB209
:103BC000013B044A0021D154FEF76CFC0C37BD4682
:103BD00090BD00BF881700203C0100200008014074
:103BE000000C0140A80000204601002048170020DA
:103BF000780000202017002080B400AF024B1B6823
:103C0000BD465DF8047B70470000024080B400AF01
:103C1000024B1B68BD465DF8047B70470000024004
:103C200080B586B000AF0120012106F06BF80520B9
:103C3000012106F085F825233B7500237B750023C1
:103C4000BB750123FB7507F11403184608F070F8E3
:103C50004FF400733B820323BB741823FB7407F1FA
:103C6000100324481946FDF72BF94FF480633B827B
:103C70000423FB7407F110031E481946FDF720F9D1
:103C80001D4806F0BBFF4FF48040012106F058F8B4
:103C90004FF416533B600023BB800023FB800023BE
:103CA0003B810023BB810C237B813B461248194694
:103CB00007F000F810484FF4587107F005F90E4A64
:103CC0000D4B9B899BB243F020039BB293810A4A20
:103CD000094B9B899BB243F040039BB293810648FA
:103CE000012107F0A1F82520FDF770FA1837BD462D
:103CF00080BD00BF000801400038014080B588B099
:103D000000AF1020012106F01BF80220012106F06F
:103D100035F807F11C031846FDF792F94FF470735C
:103D2000BB830323BB771823FB7707F11C032148D0
:103D30001946FDF7C5F820480121FDF795F907F16F
:103D400010031846FCF78CFC4FF40073FB8240F222
:103D5000E733BB82EF233B8207F110031748194674
:103D6000FCF700FA3B461846FCF794FC01237B80E5
:103D700060233B800023FB803B4610481946FCF73C
:103D80006DFA3B460D481946FCF7F4FA3B460B48E2
:103D90001946FCF777FB3B4608481946FCF7F8FB49
:103DA00006480121FCF798FC00F00AF82037BD46D0
:103DB00080BD00BF00100140000C1A00000400404C
:103DC00080B582B000AF0023FB710023FB7107E0D8
:103DD000FB791846002101F029FBFB790133FB71C7
:103DE000FB79032BF4D90837BD4680BD80B588B078
:103DF00000AF0120012105F0A3FF0820012105F0FB
:103E00009FFF4FF40060012105F09AFF07F11C03AA
:103E10001846FDF715F94FF40053BB830323BB7716
:103E20001823FB7707F11C0321481946FDF748F8D2
:103E300007F110031846FCF713FC4FF40073FB82E4
:103E400040F2E733BB8217233B8200237B8207F1DA
:103E5000100318481946FCF785F93B461846FCF74D
:103E600019FC01237B8070233B804FF4FA73FB80A5
:103E700002233B8100237B8101237B800423BB80C1
:103E80004FF48073BB810023FB813B4609481946F0
:103E9000FCF7E4F907480121FCF71EFC0548012165
:103EA000FCF73AFC03F05AF82037BD4680BD00BF4E
:103EB000000C0140002C014080B582B000AF05F03D
:103EC000E3FB0023FB8000237B7105F0DDFB0A2070
:103ED00006F068F905F0D8FB234805F073FB234B87
:103EE00000221A701EE004F00BFE03461A461F4B18
:103EF0001A701F4B1B88FB80052006F053F9012028
:103F0000002105F09DFBFB881A4AA2FB03235B09F5
:103F10009BB2DBB2184604F013FFFB88DBB21846F5
:103F200004F00EFF114B1B78DBB2022BDBD10A2011
:103F300006F038F9FB8840F2D650194608F0C6F969
:103F400002F0CCFF4FF4FA6006F02CF90A4805F0B5
:103F500039FB064B00221A7005F096FB05F054FA67
:103F60000837BD4680BD00BF2CCA000809010020EB
:103F7000780000201F85EB5140CA000880B483B050
:103F800000AF0346FB71FB79002B0DD0FB79042BAE
:103F90000AD82449234B5B69FA790332012000FADD
:103FA00002F213434B612AE0FB79042B0DD9FB7914
:103FB000072B0AD81C491C4B5B69FA790532012092
:103FC00000FA02F213434B6119E0FB79072B0DD97C
:103FD000FB790B2B0AD81349124B5B69FA79033230
:103FE000012000FA02F213434B6108E0FB790C2B2D
:103FF00005D10C4A0B4B5B6943F480735361FB7929
:10400000012202FA03F39AB2084B1B889BB29BB2BF
:1040100013439BB29AB2054B1A800C37BD465DF82C
:10402000047B70470008014000100140CA000020D6
:1040300080B483B000AF0346FB71FB79002B0DD039
:10404000FB79042B0AD82549244B1B69FA790332E2
:10405000012000FA02F213430B612AE0FB79042BE2
:104060000DD9FB79072B0AD81D491D4B1B69FA791D
:104070000532012000FA02F213430B6119E0FB79CB
:10408000072B0DD9FB790B2B0AD81449134B1B694D
:10409000FA790332012000FA02F213430B6108E0BF
:1040A000FB790C2B05D10D4A0C4B1B6943F4807333
:1040B0001361FB79012202FA03F39BB2DB439AB24C
:1040C000084B1B889BB29BB213409BB29AB2054B24
:1040D0001A800C37BD465DF8047B7047000801402C
:1040E00000100140CA00002080B500AF012005F09B
:1040F0007DFF034B1B680133014A136080BD00BF85
:104100002017002080B500AF022005F06FFF034BA1
:104110005B680133014A536080BD00BF2017002057
:1041200080B500AF042005F061FF80BD80B500AF11
:104130004FF4806005F05AFF4FF4006005F056FF21
:104140004FF4805005F052FF4FF4004005F02AFF75
:104150000346002B00F09F804FF4004005F046FF1F
:104160009E4B9B6803F40043002B40F08F809C4BD8
:104170001B889BB2002B00F089809A4B9B8C9AB2D3
:10418000994B1A80974B00229A84954B1B889BB2BF
:104190001A46642303FB02F3934A128892B293FBFC
:1041A000F2F39AB2914B1A80914B1B78DBB2002B41
:1041B00061D0904B1B78DBB2002B5CD18B4B1B8802
:1041C0009BB23C2B1BD9894B1B889BB24A2B16D820
:1041D000894B1B78DBB21A4601239340D843874BA7
:1041E0001B781A46854B1B781946854B5B5CD9B208
:1041F000C3B20B40DBB2D9B2814B995415E07E4B70
:104200001B78DBB21A46012303FA02F07B4B1B78C2
:104210001A467A4B1B781946794B5B5CD9B2C3B20C
:104220000B43DBB2D9B2764B9954734B1B78DBB29C
:10423000002B19D1704B07221A70704B1B78013379
:10424000DAB26E4B1A706D4B1B78052B13D1694B8C
:1042500001221A70694B00221A70674B07221A70EC
:10426000684B01221A7006E0634B1B78DBB2013BFE
:10427000DAB2614B1A705E4B1B78DBB20133DAB2F3
:104280005B4B1A70564B00221A8004E0554B9B8CF6
:104290009AB2534B1A804FF4804005F083FE0346D8
:1042A000002B00F0B6804FF4804005F09FFE4B4B92
:1042B0009B6803F48043002B40F0A680484B1B888A
:1042C0009BB2002B00F0A080464B9B8C9AB2464BD1
:1042D0001A80444B00229A84414B1B889BB21A4699
:1042E000642303FB02F3404A128892B293FBF2F379
:1042F0009AB23E4B1A803E4B1B78DBB2002B61D04A
:104300003C4B1B78DBB2002B5CD1384B1B889BB23B
:104310003C2B1BD9354B1B889BB24A2B16D8364BEE
:104320001B78DBB21A4601239340D843334B1B78EA
:104330001A46324B1B781946314B5B5CD9B2C3B27B
:104340000B40DBB2D9B22E4B995415E02A4B1B78A7
:10435000DBB21A46012303FA02F0284B1B781A46F7
:10436000264B1B781946264B5B5CD9B2C3B20B4374
:10437000DBB2D9B2224B99541F4B1B78DBB2002B16
:1043800019D11D4B07221A701C4B1B780133DAB26E
:104390001A4B1A70194B1B78052B13D1154B0122A0
:1043A0001A70164B00221A70134B07221A70154B05
:1043B00000221A7006E0104B1B78DBB2013BDAB228
:1043C0000D4B1A700A4B1B78DBB20133DAB2084B83
:1043D0001A70034B00221A801BE000BF000C014042
:1043E0009000002000400140920000209400002036
:1043F000AD000020AE00002008000020AF0000202B
:10440000C017002009000020024B9B8C9AB2024B7F
:104410001A8080BD004001409000002080B582B02D
:1044200000AF40F2DC53FB800023BB80294B00220D
:104430001A7047E004F064FB03461A46254B1A70D5
:104440000023BB80FA883B1D1046194607F0F2FE98
:10445000052005F0A7FE05F017F91F4805F0B2F892
:10446000FB881846FDF7D4FD0120002105F0E8F88F
:104470001A4805F0A7F8BB881846FDF7C9FD154B8B
:104480001B78DBB2022B0AD1FB88B3F5FA6F03D29B
:10449000FB880133FB8002E04FF4AF63FB800D4BE0
:1044A0001B78DBB2012B0AD1FB88B3F5AF6F03D9C0
:1044B000FB88013BFB8002E04FF4FA63FB8019208C
:1044C00005F070FE034B1B78DBB2042BB2D108372A
:1044D000BD4680BD090100204CCA000854CA00082E
:1044E00080B582B000AF052005F05CFE0023FB71B3
:1044F00005F0CAF8464B00221A707DE0142005F042
:1045000051FE04F0FDFA03461A46414B1A70002092
:10451000002105F095F83F4805F054F8FB7918465E
:1045200004F00EFC3A4B1B78DBB2042B03D1FB7971
:104530001846FFF723FD364B1B78DBB2032B03D164
:10454000FB791846FFF774FD314B1B78DBB2012B6A
:1045500008D1FB79092B03D8FB790133FB7101E00A
:104560000023FB71012005F01DFE0120002105F054
:1045700067F8294805F026F8284B1B889BB2184697
:10458000FDF746FD012005F00DFE254805F01AF85F
:10459000244B9B6803F01003002B03D0224805F046
:1045A00011F802E0214805F00DF81E4B9B6803F05E
:1045B0002003002B03D01C4805F004F81CE01B4826
:1045C00005F000F8174B9B6803F04003002B03D065
:1045D000154804F0F7FF02E0144804F0F3FF114B14
:1045E0009B6803F48073002B03D00F4804F0EAFFAC
:1045F00002E00E4804F0E6FF054B1B78DBB2022B0D
:104600007FF47CAF05F040F80837BD4680BD00BFA1
:10461000090100205CCA000868CA0008CA0000201E
:104620006CCA00080008014074CA000878CA000873
:1046300080B584B000AF0346FB800B467B71134608
:104640003B710023FB730023BB7300237B73FA8849
:104650007B7942FA03F37B730020002104F0F0FF22
:10466000514804F0AFFF514B00221A7060E004F093
:1046700047FA03461A464D4B1A700120002104F0F8
:10468000DFFF0023FB7305E0494804F09BFFFB7B41
:104690000133FB73FA7B39797B79CB1A9A42F3DBCE
:1046A000012005F07FFD0023FB7309E000200021BD
:1046B00004F0C6FF3F4804F085FFFB7B0133FB732A
:1046C000FA7B39797B79CB1A9A42EFDBBB7B0020EE
:1046D000194604F0B5FF344804F074FF052005F0D6
:1046E00061FD324B1B78DBB2042B08D1BA7B3979E0
:1046F0007B79CB1A9A4202DABB7B0133BB732B4B1B
:104700001B78DBB2012B05D1BB7B002B02D0BB7B1E
:10471000013BBB73254B1B78DBB2032B08D1BB7B62
:10472000012202FA03F3DAB27B7B5340DBB27B73E4
:104730001E4B1B78DBB2022B99D10023FB7325E0C3
:104740007A7BFB7B42FA03F303F00103002B0DD0CD
:10475000FA7B7B791344012BCCBF01230023DBB20E
:104760009AB2FB8813439BB2FB800CE0FA7B7B7907
:104770001344012202FA03F39BB2DB439AB2FB8893
:1047800013409BB2FB80FB7B0133FB73FA7B3979CF
:104790007B79CB1A9A42D3DB02F0A0FBFB88184648
:1047A0001037BD4680BD00BF8CCA0008090100203B
:1047B00074CA000884CA000880B586B000AF0346FA
:1047C000FB710023BB8200237B8100233B810023FC
:1047D0003B6104F059FF654804F0F4FEC82005F081
:1047E000E1FCFB799BB21A461201D31A9BB203F289
:1047F0001E63BB82BA8A07F10A031046194607F006
:1048000019FD7B89DBB2184602F086FF03469BB296
:104810007B817B89BA8A1046194607F057FD04F060
:1048200033FF0020052104F00BFF514804F0CAFEBD
:10483000C82005F0B7FCFB799BB21A461201D31AC7
:104840009BB203F22763BB82BA8A07F108031046C2
:10485000194607F0EFFC3B89184600210322FFF7B9
:10486000E7FE03463B810023FB7511E004F048F9A5
:1048700003461A463F4B1A703E4B1B78DBB2042BA3
:1048800003D1FB7DC3F10103FB75192005F08AFC00
:10489000384B1B78DBB2002BE8D0FB7D012B05D118
:1048A0003B8943F001039BB23B8104E03B8923F049
:1048B00001039BB23B813B89BA8A1046194607F037
:1048C00005FD052005F06EFC02F008FB0023FB60EF
:1048D000FB799BB21A461201D31A9BB203F22163F1
:1048E000BB82BB8A184604F09DFBF860F868012182
:1048F00003F026FAF860FB689BB2BA8A10461946A4
:1049000007F0E4FCFB799BB21A461201D31A9BB262
:1049100003F22363BB82BB8A184604F083FBF86072
:10492000F868012103F00CFAF860FB689BB2BA8AC0
:104930001046194607F0CAFCFB799BB21A461201D1
:10494000D31A9BB203F21F63BB82BB8A184604F0E2
:1049500069FBF860F86802F0F5FFF860BB8A18465A
:10496000F96802F0FDFD1837BD4680BD90CA000809
:1049700098CA00080901002080B582B000AF00236A
:10498000FB7104F081FE094804F01CFEC82005F00C
:1049900009FCFB79184602F0BFFE0346FB71FB7968
:1049A000184600F021F80837BD4680BDA4CA0008AB
:1049B00080B582B000AF0023FB7104F065FE0948AA
:1049C00004F000FEC82005F0EDFBFB79184602F06C
:1049D000A3FE0346FB71FB791846FFF7EDFE08378F
:1049E000BD4680BDA4CA000880B584B000AF0346B0
:1049F000FB710023FB810023BB81FB799BB21A462C
:104A0000920013449BB203F2A563FB81FA8907F17C
:104A10000C031046194607F00DFC04F035FE57480C
:104A200004F0D0FDBB89184602F0CCFE0346BB81E2
:104A3000BB89FA891046194607F048FCFB799BB2FE
:104A40001A46920013449BB203F2A663FB81FA89D3
:104A500007F10C031046194607F0ECFB04F014FEB6
:104A6000474804F0AFFDBB89184602F0ABFE034691
:104A7000BB81BB89FA891046194607F027FCFA89E1
:104A800007F10C031046194607F0D4FB04F0FCFDB7
:104A90003C4804F097FDBB89184602F093FE03469C
:104AA000BB81BB89FA891046194607F00FFCFB79D8
:104AB0009BB21A46920013449BB203F2A763FB8198
:104AC000FA8907F10C031046194607F0B3FB04F00E
:104AD000DBFD2D4804F076FDBB89184602F072FE1E
:104AE0000346BB81BB89FA891046194607F0EEFBE5
:104AF000FB799BB21A46920013449BB203F2A76360
:104B0000FB81FA8907F10C031046194607F092FB66
:104B100004F0BAFD1D4804F055FDBB89184602F0AB
:104B200051FE0346BB81BB89FA891046194607F03E
:104B3000CDFBFA8907F10C031046194607F07AFB02
:104B400004F0A2FD124804F03DFDBB89184602F0B6
:104B500039FE0346BB810A2005F024FBBB89FA8994
:104B60001046194607F0B2FB04F08EFD0A2005F04E
:104B700019FB04F049FC1037BD4680BDB0CA0008DF
:104B8000C4CA0008D4CA0008E4CA0008F0CA000871
:104B900000CB000890B585B000AF0023BB730023A5
:104BA000FB7304F071FD354804F00CFDC82005F0DE
:104BB000F9FABB7B184602F0AFFD0346BB7304F065
:104BC00063FD2F4804F0FEFCBB7B184604F0B8F8E8
:104BD0002C4804F0F7FC0023FB7306E01E2005F0D0
:104BE000E1FA03F08DFF0346FB73FB7B022B02D03F
:104BF000FB7B032BF2D1C82005F0D4FAFB7B022B00
:104C000033D1BA7B13461B019B1A03F21F63BB60AF
:104C1000BB689BB2184604F005FA7860BA7B13466D
:104C20001B019B1A03F22163BB6003F0C1FC3860D7
:104C3000BB689BB21846396802F092FCBA7B1346F7
:104C40001B019B1A03F22563BB60BB689CB203F097
:104C5000AFFC02467B68D31A05332046194602F0A2
:104C60007FFCBB7B184600F00FF804F00DFDC82058
:104C700005F098FA1437BD4690BD00BFA4CA0008DD
:104C80000CCB000818CB000880B590B000AF0346ED
:104C9000FB710220FFF772F9C82005F083FA0220A9
:104CA000FFF7C6F9A64B00221A70A64B02221A7013
:104CB000FB79012202FA03F3DAB2A34B1B78DBB2D1
:104CC000DBB21343DBB2DAB29F4B1A700023FB62F4
:104CD00003F06EFCF8629B4B03221A700023BB8129
:104CE000002387F83F300023BB6200237B62002350
:104CF0003B620023BB63954B7B630023FB83002354
:104D0000BB8300237B8300237B8100233B83002321
:104D1000FB8200233B810023BB820023FB74002322
:104D2000BB7403F045FCB863BB6B3B62854B04224C
:104D30001A70642005F036FA854B5B88BB83FB79DB
:104D40009BB21A461201D31A9BB203F21E633B8335
:104D50003A8B07F10A031046194607F06BFA7B8974
:104D6000DBB29BB27B81642005F01CFA794B5B8837
:104D70009AB2774B5B889BB2D31AFB8304F084FC16
:104D8000754804F01FFCFB8B744AA2FB03235B09EC
:104D90009BB2DBB2184603F0D3FFFB8BDBB21846A5
:104DA00003F0CEFF6E4804F00DFC694B5B889BB2AC
:104DB0001846FDF72DF90120002104F041FC694857
:104DC00004F000FC634B5B889BB21846FDF720F9AA
:104DD000654804F0F7FB7B891846FDF719F94FF495
:104DE000FA5005F0DFF9FCF721FE7B895F4AA2FB50
:104DF00003235B089BB2FA8B9A4280F063817B8924
:104E0000BA8BD31AFB8304F03FFC594804F0DAFB59
:104E1000FB8B1846FDF7FCF80120002104F010FC84
:104E2000544804F0CFFBBB8B1846FDF7F1F84E4811
:104E300004F0C8FB7B891846FDF7EAF842F21070CF
:104E400005F0B0F90220FFF799F804F01DFC02F01C
:104E50005BF84CE007F076FC3D4B5B889BB2DAB226
:104E6000FB8BDBB2D31ADAB2434B1A70384B5B8838
:104E70009BB2FA8B9A4207D803F09AFB034605339C
:104E80007B630220FFF77AF80020002104F0D8FBB2
:104E90003A4804F097FB384B1B78DBB22F4AA2FB51
:104EA00003235B09DBB2184603F04AFF324B1B7841
:104EB000DBB2184603F044FF0A2005F073F9012025
:104EC000002104F0BDFB2E4804F07CFB204B5B88E6
:104ED0009BB21846FDF79CF8C82005F063F903F073
:104EE00067FBB863174B05221A7002F04DF87A6B16
:104EF000BB6B9A42AED802F031F80220FFF798F867
:104F00004FF47A7005F04EF90E4B06221A70BB8BE7
:104F1000DAB20F4B5B889BB2DBB2D31AFB747B898E
:104F20001A461346DB001344164A82FB0312921002
:104F3000DB17D31ABB74002387F83F30BDE000BFF6
:104F4000140000200A0100204401002000286BEE1C
:104F500078000020380100201CCB00081F85EB5191
:104F600020CB000824CB000828CB0008ABAAAAAAB3
:104F70002CCB000830CB00087801002034CB00088F
:104F80003CCB0008676666660A2005F00BF997F8C7
:104F90003F305733DAB2964B1A7000233B83FB79CC
:104FA0009BB21A461201D31A9BB203F21F633B83D2
:104FB0003B8B184604F036F87862FB799BB21A46B0
:104FC0001201D31A9BB203F221633B833B8B184639
:104FD00004F028F83862642005F0E4F897F83F30D0
:104FE0009BB21A46920013449BB203F2A7633B8321
:104FF0003A8B07F10C031046194607F01BF9002302
:105000007B8600237B74642005F0CCF8BB899BB2BF
:10501000002B1ED003F0CCFA02463B6AD21A7B6A00
:10502000B2FBF3F3BB62642005F0BCF8704BC822FE
:105030001A70C82005F0B6F8BB899BB2DAB2BB6A19
:10504000B3FBF2F102FB01F29B1A7B7401237B8616
:1050500001E000237B86322005F0A4F8BB899BB2D7
:105060001B0AFB8200233B83FB799BB2FA8A9A429C
:1050700018D17B8E002B15D05D4B63221A704FF434
:10508000C87005F08FF897F83F30184600F038F9EF
:1050900097F83F306433DAB2554B1A704FF4FA6028
:1050A00005F080F8642005F07DF8514B08221A7055
:1050B00097F83F30013387F83F3097F83F30082B9F
:1050C0007FF662AF322005F06DF8494B09221A7065
:1050D000FB799BB21A461201D31A9BB203F22763E3
:1050E0003B833A8B07F108031046194607F0A2F8F4
:1050F000FCF79CFC0120FEF741FF012387F83F30BD
:105100001CE03B891A4697F83F3042FA03F303F05C
:105110000103002B05D097F83F301846FEF72EFF0D
:1051200004E097F83F301846FEF782FF642005F050
:1051300039F897F83F30013387F83F3097F83F3020
:10514000042BDED92A4B0A221A7000233B74002359
:10515000FB81284B1B783B74264B30221A7032207F
:1051600005F020F8FB799BB21A461201D31A9BB2C4
:1051700003F21D633B8300237B813A8B07F10A0313
:105180001046194607F056F803F012FA78637B8947
:105190001A467B6B13447B63174B1B78DBB243F0DF
:1051A0000403DAB2144B1A70144B1B78DBB223F0F1
:1051B0000103DAB2114B1A70104B1B78DBB223F0EB
:1051C0000803DAB20D4B1A700023BB630A4B1B783D
:1051D000DBB243F00903DAB2074B1A701E2004F069
:1051E000E1FF01F091FE1E2004F0DCFF2BE000BF88
:1051F0000A0100200A0000200C0000200B01002002
:1052000007F0A0FA0020002104F01AFA364804F052
:10521000D9F9364B1B78DBB2184603F091FD4FF4F9
:10522000FA7004F0BFFF01F0AFFE7B6BDAB2BB6B2C
:10523000DBB2D31ADAB22D4B1A7003F0B9F9B863A6
:10524000322004F0AFFF2A4B1B78DBB203F00803D7
:10525000DB10002B03D1BA6B7B6B9A42D0D301F0E9
:105260007DFE224B0C221A7044F6206004F09AFF57
:10527000204A3B7C13701E4B1B78DBB223F00803E3
:10528000DAB21B4B1A70194B0D221A704FF47A7058
:1052900004F088FF00F07EF9FB799BB21A461201F8
:1052A000D31A9BB203F225633B833B8B1846F96A02
:1052B00002F056F9FB79012202FA03F3DBB2DB4379
:1052C000DAB20D4B1B78DBB2DBB21340DBB2DAB2E1
:1052D000094B1A70094B01221A70C82004F062FFB2
:1052E0004037BD4680BD00BF64C900080A010020E8
:1052F0000B0100200A0000204401002014000020BF
:1053000080B586B000AF0346FB71FCF78FFB3220FF
:1053100004F048FF00237B61FB799BB21A469200A0
:1053200013449BB203F2A6637B827A8A07F11003CF
:105330001046194606F07EFF322004F033FFFB7959
:105340009BB21A46920013449BB203F2A5637B8280
:105350007A8A07F10E031046194606F06BFF324BAE
:105360005F221A704FF4C87004F01CFF00237B8288
:10537000FB799BB21A46920013449BB203F5D563A6
:105380007B82294B5E221A704FF4C87004F00AFF2A
:105390007A8A07F10C031046194606F04BFF224BA0
:1053A0005D221A704FF4C87004F0FCFE03F000F99F
:1053B00002463B8A13447B611B4B5C221A704FF4FC
:1053C000C87004F0EFFEFB89DBB21846652100F0DF
:1053D0002DF8154B5B221A704FF4C87004F0E2FEF2
:1053E00007E0114B5B221A70642004F0DBFE07F02B
:1053F000A9F903F0DDF802467B699A42F1D30A4B22
:105400005A221A704FF4C87004F0CCFEBB891846BB
:10541000FCF77EFB044B59221A704FF4C87004F05D
:10542000C1FE1837BD4680BD0A01002080B584B09A
:1054300000AF03460A46FB711346BB710023FB8194
:10544000BB79002B0ED0FB79012202FA03F3DAB20A
:10545000334B1B78DBB2DBB21343DBB2DAB2304B37
:105460001A700FE0FB79012202FA03F3DBB2DB438F
:10547000DAB22B4B1B78DBB2DBB21340DBB2DAB211
:10548000274B1A70BB79012B02D10023BB7113E0AB
:10549000BB79652B0CD107F10E0340F2176019465A
:1054A00006F0C8FE022004F07DFEFB89BB7103E01C
:1054B000BB79C3F16403BB71FB79002B08D1194A96
:1054C000BB799BB2194689000B445B009BB2938663
:1054D000FB79012B08D1134ABB799BB2194689008D
:1054E0000B445B009BB21387FB79022B08D10D4A5A
:1054F000BB799BB2194689000B445B009BB2938732
:10550000FB79032B09D1074ABB799BB21946890065
:105510000B445B009BB2A2F840301037BD4680BD03
:10552000460100200004004080B584B000AF03466F
:105530000A46FB711346BB710023FB6003F038F889
:1055400003460133FB6002E0022004F02BFE03F06F
:105550002FF80246FB689A42F6D303F029F8024678
:10556000BB791344FB60FB7918460121FFF75EFF0E
:1055700002E0022004F016FE03F01AF80246FB686F
:105580009A42F6D3FB7918460021FFF74FFF1037F8
:10559000BD4680BD80B500AF0320FEF749FD042065
:1055A000FEF746FD0020FEF743FD0120FEF740FD1B
:1055B0000220FEF73DFD80BD80B58CB000AF786065
:1055C00000237B6200233B620023FB610023FB621C
:1055D0000023BB6100237B6100237B820023FB81CE
:1055E00000237B74002387F82B3000233B740023B7
:1055F00087F82A30FFF7CEFF44F6206004F0D2FD92
:10560000002387F82B30CAE00A2004F0CBFD97F87E
:105610002B309BB21A461201D31A9BB203F22163BC
:105620007B827B8A184603F0FDFCB86197F82B302B
:105630009BB21A461201D31A9BB203F223637B82F8
:105640007B8A184603F0EEFC7861322004F0AAFD54
:1056500097F82B309BB21A461201D31A9BB203F271
:105660001E637B827A8A07F10E031046194606F004
:10567000E1FDFB891B0A9BB287F82A30322004F037
:1056800091FD4A4B1B68DAB297F82A3013403B74FD
:105690003B7C002B03D0012387F82A3002E0002353
:1056A00087F82A30142004F07DFD00233B7497F81E
:1056B0002B309BB21A461201D31A9BB203F2276316
:1056C0007B820023FB817A8A07F10E03104619467C
:1056D00006F0B0FD4FF4FA7004F064FDFB893B74F2
:1056E00097F82B309BB21A461201D31A9BB203F2E1
:1056F00025637B827B8A184603F094FC386297F816
:105700002B309BB21A461201D31A9BB203F21F63CD
:105710007B827B8A184603F085FCF8610A2004F03E
:1057200041FD02F045FF02463B6A9A4206D902F06B
:105730003FFF02463B6AD31AFB6201E00023FB6293
:1057400002F036FF7862FA6AFB699A4213D97A6AE4
:10575000BB699A420FD97A6A7B699A420BD23B7C29
:10576000002B08D097F82A30012B04D197F82B3062
:105770001846FFF789FA322004F014FD0C4B1B7811
:10578000642B04D90A4B1B78184600F0B1FC322078
:1057900004F008FD97F82B30013387F82B3097F889
:1057A0002B30072B7FF630AF2AE700BF0C0100201B
:1057B0004901002080B582B000AF786004F054FD4C
:1057C0000920FEF7DBFB06F0BDFF786800F026FF3E
:1057D0000320FEF7D3FB06F0B5FF786800F01EFF4C
:1057E0000A20FEF7CBFB06F0ADFF786800F016FF4D
:1057F0000B20FEF7C3FB06F0A5FF786800F00EFF54
:105800000820FEF7BBFB06F09DFF786800F006FF5E
:105810000C20FEF7B3FB06F095FF04F033FD0837CC
:10582000BD4680BD80B582B000AF786004F01CFD3D
:105830000920FEF7FDFB06F085FF786800F0EEFE1C
:105840000320FEF7F5FB06F07DFF786800F0E6FE2A
:105850000A20FEF7EDFB06F075FF786800F0DEFE2B
:105860000B20FEF7E5FB06F06DFF786800F0D6FE32
:105870000820FEF7DDFB06F065FF786800F0CEFE3D
:105880000C20FEF7D5FB06F05DFF04F0FBFC0837AB
:10589000BD4680BD80B582B000AF786004F0E4FC06
:1058A0000C20FEF76BFB06F04DFF786800F0B6FEAB
:1058B0000820FEF763FB06F045FF786800F0AEFEB7
:1058C0000B20FEF75BFB06F03DFF786800F0A6FEBC
:1058D0000A20FEF753FB06F035FF786800F09EFEC5
:1058E0000320FEF74BFB06F02DFF786800F096FED4
:1058F0000920FEF743FB06F025FF04F0C3FC083740
:10590000BD4680BD80B582B000AF786004F0ACFCCD
:105910000C20FEF78DFB06F015FF786800F07EFE88
:105920000820FEF785FB06F00DFF786800F076FE94
:105930000B20FEF77DFB06F005FF786800F06EFE99
:105940000A20FEF775FB06F0FDFE786800F066FEA3
:105950000320FEF76DFB06F0F5FE786800F05EFEB2
:105960000920FEF765FB06F0EDFE04F08BFC08371E
:10597000BD4680BD80B582B000AF786004F074FC95
:105980000A20FEF7FBFA0B20FEF7F8FA06F0DAFE23
:10599000786800F043FE0320FEF7F0FA0820FEF7D7
:1059A000EDFA06F0CFFE786800F038FE0920FEF729
:1059B000E5FA0C20FEF7E2FA06F0C4FE04F062FC01
:1059C0000837BD4680BD00BF80B582B000AF7860AB
:1059D00004F04AFC0A20FEF72BFB0B20FEF728FB05
:1059E00006F0B0FE786800F019FE0320FEF720FBF9
:1059F0000820FEF71DFB06F0A5FE786800F00EFEFD
:105A00000920FEF715FB0C20FEF712FB06F09AFEAC
:105A100004F038FC0837BD4680BD00BF80B582B0B9
:105A200000AF786004F020FC0920FEF7A7FA06F02A
:105A300089FE786800F0F2FD0320FEF79FFA092046
:105A4000FEF7F6FA06F07EFE786800F0E7FD0A2021
:105A5000FEF794FA0320FEF7EBFA06F073FE78687F
:105A600000F0DCFD0B20FEF789FA0A20FEF7E0FAD1
:105A700006F068FE786800F0D1FD0820FEF77EFA97
:105A80000B20FEF7D5FA06F05DFE786800F0C6FD43
:105A90000C20FEF773FA0820FEF7CAFA06F052FE51
:105AA000786800F0BBFD0C20FEF7C2FA06F04AFE53
:105AB00004F0E8FB0837BD4680BD00BF80B582B06A
:105AC00000AF786004F0D0FB06F03CFE0C20FEF73F
:105AD00055FA786800F0A2FD0820FEF74FFA0C2076
