:020000040800F2
:10000000C41B0020D907000835080008350800087F
:100010003508000835080008350800080000000011
:1000200000000000000000000000000071B800089F
:10003000350800080000000045B9000881B9000833
:10004000350800083508000835080008350800089C
:100050003508000835080008D9400008F5400008B8
:100060001141000835080008350800083508000867
:100070003508000835080008E93B0008FD3B00088A
:1000800035080008350800083508000800000000A1
:1000900000000000000000000000000041600008B7
:1000A0003508000829600008356000083508000898
:1000B0003508000835080008E56000083508000824
:1000C000350800083508000835080008350800081C
:1000D00035080008C9200008350800083508000860
:1000E0001D41000835080008350800080000000020
:1000F0000000000000000000000000000000000000
:1001000000000000000000000000000000000000EF
:100110000000000000000000350800083508000855
:100120005FF808F180B588B000AF786007F1080388
:10013000184609F029FCFB68094AA2FB03235B0B64
:100140007A6802FB03F3FB610023FB6102E0FB69B9
:10015000013BFB61FB69002BF9D12037BD4680BD17
:100160005917B7D180B485B000AF786039600023EB
:10017000FB817B681B88FB817B682E4A934213D0EE
:100180007B682D4A93420FD07B68B3F1804F0BD030
:100190007B682A4A934207D07B68294A934203D05E
:1001A0007B68284A934208D1FB8923F07003FB81C6
:1001B0003B685A88FB891343FB817B68224A934240
:1001C0000CD07B68214A934208D0FB8923F440730A
:1001D000FB813B68DA88FB891343FB817B68FA89E2
:1001E0001A803B689A887B689A853B681A887B6886
:1001F0001A857B680F4A93420FD07B680E4A934260
:100200000BD07B68124A934207D07B68114A934215
:1002100003D07B68104A934204D13B681B7A9AB2A0
:100220007B681A867B6801229A821437BD465DF886
:10023000047B7047002C0140003401400004004062
:1002400000080040000C0040001000400014004076
:1002500000400140004401400048014080B485B0A6
:1002600000AF7860396000237B810023FB8100238D
:10027000BB817B681B8C9BB223F001039AB27B6825
:100280001A847B681B8CFB817B689B88BB817B68A5
:100290001B8B7B817B8923F070037B817B8923F01F
:1002A00003037B813B681A887B8913437B81FB892D
:1002B00023F00203FB813B681A89FB891343FB810E
:1002C0003B685A88FB891343FB817B68244A93422D
:1002D0000FD07B68234A93420BD07B68224A93421B
:1002E00007D07B68214A934203D07B68204A93421F
:1002F00023D1FB8923F00803FB813B685A89FB89E2
:100300001343FB81FB8923F00403FB813B689A883C
:10031000FB891343FB81BB8923F48073BB81BB89B9
:1003200023F40073BB813B689A89BB891343BB816B
:100330003B68DA89BB891343BB817B68BA899A80A1
:100340007B687A891A833B68DA887B689A867B683F
:10035000FA891A841437BD465DF8047B704700BFE4
:10036000002C0140003401400040014000440140A5
:100370000048014080B485B000AF78603960002348
:100380007B810023FB810023BB817B681B8C9BB29C
:1003900023F010039AB27B681A847B681B8CFB8164
:1003A0007B689B88BB817B681B8B7B817B8923F46B
:1003B000E0437B817B8923F440737B813B681B880E
:1003C0001B029AB27B8913437B81FB8923F02003B4
:1003D000FB813B681B891B019AB2FB891343FB819C
:1003E0003B685B881B019AB2FB891343FB817B68E6
:1003F000224A934203D07B68214A93422BD1FB8946
:1004000023F08003FB813B685B891B019AB2FB8967
:100410001343FB81FB8923F04003FB813B689B88EE
:100420001B019AB2FB891343FB81BB8923F48063D0
:10043000BB81BB8923F40063BB813B689B899B0024
:100440009AB2BB891343BB813B68DB899B009AB29C
:10045000BB891343BB817B68BA899A807B687A89A0
:100460001A833B68DA887B681A877B68FA891A8462
:100470001437BD465DF8047B704700BF002C014077
:100480000034014080B485B000AF7860396000234B
:100490007B810023FB810023BB817B681B8C9BB28B
:1004A00023F480739AB27B681A847B681B8CFB816F
:1004B0007B689B88BB817B689B8B7B817B8923F0DE
:1004C00070037B817B8923F003037B813B681A885F
:1004D0007B8913437B81FB8923F40073FB813B6899
:1004E0001B891B029AB2FB891343FB813B685B8823
:1004F0001B029AB2FB891343FB817B68224A934219
:1005000003D07B68214A93422BD1FB8923F40063FB
:10051000FB813B685B891B029AB2FB891343FB8119
:10052000FB8923F48063FB813B689B881B029AB2A2
:10053000FB891343FB81BB8923F48053BB81BB89B7
:1005400023F40053BB813B689B891B019AB2BB8992
:100550001343BB813B68DB891B019AB2BB89134300
:10056000BB817B68BA899A807B687A899A833B6869
:10057000DA887B689A877B68FA891A841437BD46C3
:100580005DF8047B704700BF002C0140003401403F
:1005900080B485B000AF786039600023BB81002350
:1005A0007B810023FB817B681B8C9BB223F48053EF
:1005B0009AB27B681A847B681B8C7B817B689B88E2
:1005C000FB817B689B8BBB81BB8923F4E043BB81B0
:1005D000BB8923F44073BB813B681B881B029AB222
:1005E000BB891343BB817B8923F400537B813B6828
:1005F0001B891B039AB27B8913437B813B685B8811
:100600001B039AB27B8913437B817B68124A934216
:1006100003D07B68114A93420AD1FB8923F48043BB
:10062000FB813B689B899B019AB2FB891343FB8149
:100630007B68FA899A807B68BA899A833B68DA88F2
:100640007B68A3F840207B687A891A841437BD46FA
:100650005DF8047B704700BF002C0140003401406E
:1006600080B483B000AF78607B684FF6FF729A80E9
:100670007B6800221A807B680022DA807B68002277
:100680005A807B6800221A720C37BD465DF8047BE5
:10069000704700BF80B483B000AF78607B680022F1
:1006A0001A807B6800225A807B6800229A807B68CF
:1006B0000022DA807B6800221A817B6800225A813E
:1006C0007B6800229A817B680022DA810C37BD4664
:1006D0005DF8047B704700BF80B483B000AF7860E2
:1006E0000B46FB70FB78002B08D07B681B889BB205
:1006F00043F001039AB27B681A8007E07B681B888D
:100700009BB223F001039AB27B681A800C37BD4676
:100710005DF8047B704700BF80B483B000AF7860A1
:100720000B46FB70FB78002B0CD07B68B3F8443091
:100730009BB26FEA43436FEA53439AB27B68A3F8D4
:10074000442009E07B68B3F844309BB2C3F30E0346
:100750009AB27B68A3F844200C37BD465DF8047B51
:10076000704700BF80B485B000AF78600B467B80D7
:100770000023FB730023BB8100237B817B681B8AE2
:100780009AB27B881340BB817B689B899AB27B8835
:1007900013407B81BB89002B05D07B89002B02D0C5
:1007A0000123FB7301E00023FB73FB7B1846143726
:1007B000BD465DF8047B704780B483B000AF7860BD
:1007C0000B467B807B88DB439AB27B681A820C37AE
:1007D000BD465DF8047B704780B582B000AF104B1A
:1007E0007B60104B3B6007E03B681A1D3A607A68FB
:1007F000111D796012681A603B680B4A9342F3D36B
:100800000A480B494FF000028842B8BF40F8042B59
:10081000FADB00F023FA08F0C5FB0837BD4680BDBF
:1008200050CE000800000020680000206800002072
:10083000C817002080B400AFFEE700BF80B586B0C7
:1008400000AFF860B9607A60FB7000237B61002321
:100850003B61FB78022B40F0B7804FF6FF733B61A2
:10086000F868B9687A68002300F082F9FB689B8811
:100870009BB243F400639AB2FB689A80FB681B88C2
:100880009BB243F480739AB2FB681A8008E03B691C
:100890005A1E3A61002B01D1002357E10BF042FEB2
:1008A000FB689B8A9BB203F00103002BEFD04FF64D
:1008B000FF733B6197F8203023F0010387F8203065
:1008C000A44A97F820301370A24B1B78DBB29AB27F
:1008D000FB681A8208E03B695A1E3A61002B01D17D
:1008E000002333E10BF01EFEFB689B8A9BB203F0F2
:1008F0000203002BEFD04FF6FF733B61FB681B8BAD
:100900009BB27B61FB68944A934210D100BF4FF4C5
:1009100000100BF0B9F80346002BF8D08F480021E7
:100920000BF096F84FF400100BF0D8F81BE008E03D
:100930003B695A1E3A61002B01D1002306E10BF0FE
:10094000F1FD4FF400500BF09FF80346002BEFD061
:100950004FF6FF733B61824800210BF079F84FF4AA
:1009600000500BF0BBF808E03B695A1E3A61002BBF
:1009700001D10023EAE00BF0D5FDFB689B8A9BB216
:1009800003F00403002BEFD04FF6FF733B61FB68CD
:100990001B889BB243F400739AB2FB681A8008E08C
:1009A0003B695A1E3A61002B01D10023CEE00BF0C7
:1009B000B9FDFB681B889BB203F40073002BEFD1D9
:1009C0004FF6FF733B61C0E0FB78002B7DD14FF603
:1009D000FF733B61FB681B889BB243F480739AB240
:1009E000FB681A8008E00BF09DFD3B695A1E3A61D6
:1009F000002B01D10023A9E0FB689B8A9BB203F086
:100A00000103002BEFD097F8203023F0010387F883
:100A10002030504A97F8203013704E4B1B78DBB2D1
:100A20009AB2FB681A824FF6FF733B6108E00BF045
:100A300079FD3B695A1E3A61002B01D1002385E004
:100A4000FB689B8A9BB203F00203002BEFD0FB688C
:100A50001B8B9BB27B61BB681B789AB2FB681A82C6
:100A6000BB680133BB607B68013B7B600FE000BF6C
:100A7000FB689B8A9BB203F00403002BF8D0BB6891
:100A80001B789AB2FB681A82BB680133BB607B6833
:100A90005A1E7A60002BEAD100BFFB689B8A9BB28A
:100AA00003F00403002BF8D0FB681B889BB243F4CF
:100AB00000739AB2FB681A8000BFFB681B889BB268
:100AC00003F40073002BF8D13FE0FB689B889BB2D6
:100AD00043F400739AB2FB689A80FB689B889BB2D0
:100AE00043F480639AB2FB689A801E4B00221A601E
:100AF00097F8203023F0010387F82030154A97F843
:100B000020301370FB68144A934203D1164A7B6865
:100B1000136002E0154A7B681360FB681B889BB278
:100B200043F480739AB2FB681A8000BFFB681B888D
:100B30009BB203F48073002BF8D100BFFB681B8BC2
:100B40009BB203F00203002BF8D10123184618379B
:100B5000BD4680BD08170020005400406C000240D4
:100B60004400024068000020101700200C170020ED
:100B700080B584B000AFF860B9607A603B603B68D4
:100B8000002B2CD1BB682D4A53602C4B10229A604D
:100B90002A4A7B68D360FB68294A93420FD1274BCE
:100BA000284A1A60284800210AF052FF26482349A3
:100BB0000AF010FF244801210AF04AFF3BE01F4BD6
:100BC000224A1A60224800210AF042FF20481B49AD
:100BD0000AF000FF1E4801210AF03AFF2BE0BB6833
:100BE000164A5360154B00229A60144A7B68D36002
:100BF000FB68134A93420FD1104B124A1A601548F2
:100C000000210AF025FF13480C490AF0E3FE1148C1
:100C100001210AF01DFF0EE0084B0C4A1A600E4835
:100C200000210AF015FF0C4804490AF0D3FE0A48D7
:100C300001210AF00DFF1037BD4680BDDC160020F3
:100C400000540040105400406C0002401058004016
:100C500044000240800002405800024080B500AFCE
:100C6000164A164B1B6843F0010313601349134BDC
:100C70005A68134B13404B60104A104B1B6823F00B
:100C8000847323F4803313600C4A0C4B1B6823F4E9
:100C900080231360094A094B5B6823F4FE03536009
:100CA000064B4FF41F029A60044B0022DA6200F0F8
:100CB0000BF8044B4FF000629A6080BD00100240B8
:100CC0000000FFF800ED00E080B500AF00F002F892
:100CD00080BD00BF80B483B000AF00237B600023E1
:100CE0003B60304A2F4B1B6843F4803313602D4B1D
:100CF0001B6803F400333B607B6801337B603B6817
:100D0000002B03D17B68B3F5A06FF0D1254B1B6896
:100D100003F00203002B02D001233B6001E000231B
:100D20003B603B68012B37D11E4A1E4B5B6853600A
:100D30001C4A1C4B5B6853601A4A1A4B5B68536031
:100D4000184A184B5B6823F47C135360154A154B03
:100D50005B6843F498135360124A124B1B6843F0CC
:100D60008073136000BF0F4B1B6803F00073002BF0
:100D7000F9D00C4A0B4B5B6823F003035360094A1C
:100D8000084B5B6843F00203536000BF054B5B6890
:100D900003F00C03082BF9D10C37BD465DF8047B3A
:100DA000704700BF0010024080B584B002AF034618
:100DB0000A46FB711346BB713E4B00221A70072096
:100DC00005F01CFB3C4B1A78BB791343DAB2FB7974
:100DD00023F00F03DBB21343DBB243F00403DAB2B8
:100DE000344B1A70334B1B781A464E23009333480A
:100DF000114601220123FFF721FD022005F0FEFA32
:100E00002D4B1A78BB791343DBB2DAB2FB7923F0AE
:100E10000F03DBB21343DBB2DAB2264B1A70254B59
:100E20001B781A464E2300932448114601220123C1
:100E3000FFF704FD022005F0E1FA1F4B1A78BB7999
:100E40001343DAB2FB791B01DBB21343DBB243F08D
:100E50000403DAB2174B1A70164B1B781A464E234E
:100E600000931648114601220123FFF7E7FC0220F8
:100E700005F0C4FA104B1A78BB791343DBB2DAB22F
:100E8000FB791B01DBB21343DBB2DAB2094B1A70F8
:100E9000084B1B781A464E2300930848114601223E
:100EA0000123FFF7CBFC0A2005F0A8FA0837BD465E
:100EB00080BD00BF000000206C00002000540040F6
:100EC00080B489B000AF786039600023FB610023F3
:100ED0003B610023BB610023FB6000237B61002397
:100EE000BB603B68DB7803F00F03FB613B68DB789A
:100EF00003F01003002B05D03B689B781A46FB6972
:100F00001343FB613B681B88DBB2002B44D07B683A
:100F10001B687B610023BB6138E0BB69012202FAD8
:100F200003F3FB603B681B881A46FB6813403B6178
:100F30003A69FB689A4226D1BB699B00FB60FB685B
:100F40000F2202FA03F3BB60BB68DB437A691340EC
:100F50007B61FB68FA6902FA03F37A6913437B61E8
:100F60003B68DB78282B05D1BB6901229A407B685E
:100F70005A6108E03B68DB78482B04D1BB69012249
:100F80009A407B681A61BB690133BB61BB69072B5F
:100F9000C3D97B687A691A603B681B88FF2B4AD9E2
:100FA0007B685B687B610023BB613EE0BB69083303
:100FB0001A4601239340FB603B681B881A46FB6876
:100FC00013403B613A69FB689A422BD1BB699B0095
:100FD000FB60FB680F2202FA03F3BB60BB68DB43D4
:100FE0007A6913407B61FB68FA6902FA03F37A6954
:100FF00013437B613B68DB78282B07D1BB6908333F
:101000001A46012303FA02F27B685A613B68DB78D7
:10101000482B07D1BB6908331A46012303FA02F2B1
:101020007B681A61BB690133BB61BB69072BBDD902
:101030007B687A695A602437BD465DF8047B704747
:1010400080B483B000AF78607B684FF6FF721A807F
:101050007B6802229A707B680422DA700C37BD46E6
:101060005DF8047B704700BF80B487B000AF786044
:101070000B46FB7000233B610023FB6000237B6178
:101080000023BB607B68002B03DA2E4BDB697B619E
:1010900002E02C4B5B687B617B6803F470231B0CC4
:1010A000BB607B689BB23B617B6803F44013B3F584
:1010B000401F0AD17B6923F070637B61214A214B79
:1010C0005B6823F07063536021E07B6803F4801356
:1010D000002B0ED0BB68032202FA03F3FB60FB680F
:1010E000DB437A6913407B617B6943F070637B610A
:1010F0000DE07B685B0D1B011A463B699340DB43A7
:101100007A6913407B617B6943F070637B61FB7894
:10111000002B08D07B685B0D1B011A463B6993408E
:101120007A6913437B617B68002B03DA054A7B698C
:10113000D36102E0034A7B6953601C37BD465DF80A
:10114000047B70470000014090B484B000AF0346B8
:101150000A46FB711346BB710023FB60BB7903F0A9
:1011600003039B000F2202FA03F3FB601649BB79CD
:101170009B08DBB21846144ABB799B08DBB20233EA
:1011800052F82320FB68DB431A40831C41F82320DC
:101190000D48BB799B08DBB21C460B4ABB799B0808
:1011A000DBB2023352F82320F979BB7903F0030351
:1011B0009B0001FA03F31A43A31C40F823201037C5
:1011C000BD4690BC704700BF0000014080B483B0B2
:1011D00000AF0346FB71084997F907305B09FA79BC
:1011E00002F01F02012000FA02F241F823200C371E
:1011F000BD465DF8047B704700E100E080B483B039
:1012000000AF0346FB71094997F907305B09FA798A
:1012100002F01F02012000FA02F2203341F82320DD
:101220000C37BD465DF8047B704700BF00E100E06D
:1012300080B483B000AF0346FB71FB79002B02D072
:10124000012B05D009E0074B4FF480425A6104E0BE
:10125000044B4FF400425A6100BF0C37BD465DF8A5
:10126000047B7047000C014080B483B000AF03469C
:10127000FB71FB79002B02D0012B05D009E0074B55
:101280004FF480421A6104E0044B4FF400421A61AB
:1012900000BF0C37BD465DF8047B7047000C014071
:1012A00080B582B000AF0346FB71FB79184600F0B1
:1012B000A1FAFB791846FFF7BBFF45F2082005F0BD
:1012C00087F8FB791846FFF7CFFFFB79184600F047
:1012D00023FA094B07221A70084B00221A70084B98
:1012E00000221A70074B00221A70074B00221A8046
:1012F0000837BD4680BD00BF08000020AD000020BB
:10130000AF000020AE0000209000002080B584B027
:1013100000AF0346FB710120FFF7A6FF192008F07C
:1013200031FE0023FB7306E0FB7B0F4A0021D15402
:10133000FB7B0133FB73FB7B042BF5D90B4B0022AA
:101340001A802520FFF75AFFFB791846FFF7A8FF00
:10135000C82008F017FE2520FFF738FF00F008F836
:101360001037BD4680BD00BFC01700209000002090
:1013700080B582B000AF0A2008F004FE0023FB71A4
:10138000804B1B78DBB2012B40F0B0810A2008F0C3
:10139000F9FD7D4B1B781B029AB27B4B5B789BB2AD
:1013A00013449AB2794B5A80774B9B781B029AB2BE
:1013B000754BDB789BB213449AB2744B1A80724B14
:1013C0001A79724B1A71714B5B889AB2704B1B88F9
:1013D0009BB29A420AD96D4B5B889AB26D4B1B88BF
:1013E0009BB29A4202D26C4B00221A70674B5B8808
:1013F0009AB2674B1B889BB29A4202D2664B01227B
:101400001A70624B5B889AB2624B1B889BB29A42FD
:1014100002D9614B02221A705B480021042200F0BD
:1014200021FA03461A46584B1B799A4240F05E81D6
:101430000A2008F0A7FD594B1B78DBB2002B03D024
:10144000012B00F09B804EE10023FB7108E0FB794B
:10145000FA794D49895C524AD154FB790133FB71C9
:10146000FB79032BF3D90A2008F08CFD474B1B882E
:101470009BB24C4AA2FB031292094FF47A7101FB12
:1014800002F29B1A9BB2484AA2FB03235B099BB260
:10149000DBB23033DAB2454B1A703C4B1B889BB23F
:1014A000414AA2FB03125209642101FB02F29B1A7A
:1014B0009BB23F4AA2FB0323DB089BB2DBB2303373
:1014C000DAB23A4B5A70394B2E229A702F4B1B8846
:1014D0009AB2374BA3FB0213D9080B469B000B446F
:1014E0005B00D31A9BB2DBB23033DAB22F4BDA7027
:1014F0000A2008F047FD254B5B889BB2294AA2FBD6
:10150000031292094FF47A7101FB02F29B1A9BB20B
:10151000254AA2FB03235B099BB2DBB23033DAB26C
:10152000244B1A70194B5B889BB21F4AA2FB031213
:101530005209642101FB02F29B1A9BB21C4AA2FBD6
:101540000323DB089BB2DBB23033DAB2194B5A709B
:10155000184B2E229A700D4B5B889AB2144BA3FB4A
:101560000213D9080B469B000B445B00D31A9BB2B5
:10157000DBB23033DAB20F4BDA70B4E00023FB7128
:1015800023E000BFAE000020C0170020980000201C
:101590008C0000208A0000208E000020090000201E
:1015A000A0000020D34D62101F85EB51B400002035
:1015B000CDCCCCCCB0000020FB79FA794D49895CC8
:1015C0004D4AD154FB790133FB71FB79032BF3D9DD
:1015D0000A2008F0D7FC494B1B889BB2484AA2FB63
:1015E000031292094FF47A7101FB02F29B1A9BB22B
:1015F000444AA2FB03235B099BB2DBB23033DAB26D
:10160000414B1A703D4B1B889BB23E4AA2FB031212
:101610005209642101FB02F29B1A9BB23B4AA2FBD6
:101620000323DB089BB2DBB23033DAB2364B5A709D
:10163000354B2E229A70314B1B889AB2334BA3FB49
:101640000213D9080B469B000B445B00D31A9BB2D4
:10165000DBB23033DAB22C4BDA700A2008F092FC9D
:10166000264B5B889BB2264AA2FB031292094FF4D9
:101670007A7101FB02F29B1A9BB2224AA2FB03235E
:101680005B099BB2DBB23033DAB2214B1A701B4BD1
:101690005B889BB21B4AA2FB03125209642101FB27
:1016A00002F29B1A9BB2194AA2FB0323DB089BB2EE
:1016B000DBB23033DAB2164B5A70154B2E229A70C9
:1016C0000E4B5B889AB2114BA3FB0213D9080B4651
:1016D0009B000B445B00D31A9BB2DBB23033DAB20F
:1016E0000B4BDA7000BF0B4B00221A700837BD4657
:1016F00080BD00BFC0170020A80000209800002077
:10170000D34D62101F85EB51BC000020CDCCCCCC5A
:10171000B8000020AE00002080B58AB000AF0346BC
:10172000FB7107F118031846FFF78AFC002387F8BE
:10173000273000233B620023FB770820012108F0BB
:10174000EFF94823FB76FB79002B02D0012B13D055
:1017500025E04FF480433B8307F1180322481946E4
:10176000FFF7AEFB28233B7301200E21FFF7ECFCB3
:101770004FF480433B6112E04FF400433B8307F199
:10178000180319481946FFF79BFB28233B730120D8
:101790000F21FFF7D9FC4FF400433B6100BF134A10
:1017A000124B9B6943F480339361114B00221A85DD
:1017B0000F4B01221A8000233B7510237B750123F8
:1017C000BB7507F11003184608F06AFA0F237B7304
:1017D0000F23BB730123FB7307F10C0318460AF0B8
:1017E00097F92837BD4680BD000C0140001002402B
:1017F0000040014080B487B000AF0346FB71002376
:101800003B610023FB60FB79012B0CD0022B13D032
:10181000002B12D1124B7B614FF040633B614FF0C4
:101820008073FB6009E00E4B7B614FF040433B61EE
:101830004FF08053FB6000E000BF7B695A683B6952
:10184000DB431A407B695A607B695A68FB681A431C
:101850007B695A601C37BD465DF8047B704700BF4A
:10186000000C014080B485B000AF78600B46FB707F
:101870001346BB700023FB730023BB730023BB73B1
:101880000CE0BA7BFB7813441A467B6813441A7841
:10189000FB7B1344FB73BB7B0133BB73BA7BBB780D
:1018A0009A42EED3FB7B18461437BD465DF8047BA5
:1018B000704700BF80B582B000AF404B1B78DBB2F1
:1018C00003F004039B10012B72D13D4B9B889BB20C
:1018D00040F68C22934204D905F030FA394B3D2270
:1018E0001A70012008F04EFB06F052FD7860334B71
:1018F0001B78DBB203F00803DB10012B22D1304B45
:101900009B889AB2304B1B889BB29A421AD22B4BBF
:101910001B78DBB203F00103002B13D02B4B1B68A9
:101920007A689A420DD9274B3E221A7005F006FAC2
:10193000274B1B78DBB243F00803DAB2244B1A7052
:1019400009E008E006F024FD0246224B1B889BB20A
:1019500013441E4A1360012008F014FB1E4B1B8821
:101960009AB21E4B1B889BB29A4207D21A4B1B8815
:101970009BB2002B02D0002002F052FB012008F0A5
:1019800001FB154B5B889AB2144B5B889BB29A4261
:1019900007D2114B5B889BB2002B02D0022002F0D1
:1019A0003FFB012008F0EEFA0B4B5B880C4B5B8889
:1019B000012008F0E7FA0837BD4680BD0C00002082
:1019C0003C0100200A0100201C0100201801002019
:1019D0000B0100201E0100207800002034010020AF
:1019E0003801002080B584B000AF0346FB8000239F
:1019F000FB730023BB730023FB7311E0FA88FB7BAE
:101A000042FA03F3DBB203F00103BB73BB7B012B90
:101A100003D1FB7B184602F0A9FAFB7B0133FB7371
:101A2000FB7B0F2BEAD91037BD4680BD80B582B055
:101A300000AF0023FB710023FB7106E0FB79184621
:101A400002F0EEFAFB790133FB71FB790E2BF5D92D
:101A50000837BD4680BD00BF80B584B000AF786058
:101A60000023BB600023FB6006F092FCF86006F0E8
:101A70008FFC02467B681344BB6005F035F91E20DD
:101A800008F080FA22E00020002107F0C9FC1C4881
:101A900007F088FC1B4B1B78DBB2184607F040F8B8
:101AA0004FF4FA7008F06EFA05F05EF9BB68DAB22E
:101AB000FB68DBB2D31ADAB2124B1A7006F068FC7C
:101AC000F860322008F05EFA0AF02CFD0E4B1B780D
:101AD000DBB203F00803DB10002B03D1FA68BB680C
:101AE0009A42D0D3094B1B78DBB223F00103DAB260
:101AF000064B1A7005F022F91037BD4680BD00BFB5
:101B000044C700080A0100200B0100200C0000203F
:101B100080B582B000AF7860FFF788FF042002F044
:101B200025FA4FF4FA7008F02DFA012002F01EFA9F
:101B30004FF4FA7008F026FA7868FFF78DFF08373F
:101B4000BD4680BD80B582B000AF0346FB711D4B22
:101B50001B78DBB2002B12D11B4B1B78DBB25A1C5B
:101B6000D1B2194A11701946FB79184AA2FB032316
:101B70005B09DBB23033DAB2154B5A5411E0124B29
:101B80001B78DBB25A1CD1B20F4A11701946FB798F
:101B90000E4AA2FB03235B09DBB23033DAB20D4BF2
:101BA0005A54FB79094AA2FB03125209642101FB32
:101BB00002F29B1ADBB2184606F0B2FF0837BD46A8
:101BC00080BD00BFF5000020F40000201F85EB5110
:101BD000D4000020E400002080B584B000AF0023D2
:101BE000FB730023BB7300237B7300237B810023E3
:101BF0007B6000233B6007F037FC744807F0D2FBA2
:101C00004FF4FA7008F0BEF9714B00221A7034E0FC
:101C100006F066FE03461A466D4B1A70002000213E
:101C200007F0FEFB6B4807F0BDFB6B4B1B689BB2DC
:101C3000184600F0EDF9694807F0B4FB664B5B68A5
:101C40009BB2184600F0E4F90120002107F0E8FB00
:101C50000A2008F097F9624807F0A4FB5E4B9B68E6
:101C60009BB2184600F0D4F95E4807F09BFB5A4B34
:101C7000DB689BB2184600F0CBF9554B1B78DBB202
:101C8000002BC5D007F0F0FB514B1B78DBB2013BBA
:101C9000BB734F4B00221A70534807F083FBFB7B4A
:101CA000184605F029FC0346FB73FB7B184602F03F
:101CB000B7F907F0D9FB4D4807F074FB7B7B18465A
:101CC00005F01AFC03467B73BB7B434A52F8233072
:101CD0007B6007F0C9FB464807F064FBFB7B1846B6
:101CE00002F044F93A4B00221A7019E00A2008F079
:101CF00049F906F0F5FD03461A46354B1A7007F010
:101D0000B3FB3C4807F04EFB0120002107F088FBA5
:101D1000BB7B314A52F823309BB2184600F078F969
:101D20002B4B1B78DBB2022BE0D1BB7B2A4A52F84B
:101D300023303B60FB7B184602F072F9C82008F0A4
:101D400021F93B689AB27B689BB2D31A9BB21A46C0
:101D50007B7B92FBF3F37B81BB7B27497A8921F85C
:101D6000132007F081FB254807F01CFB3B689BB262
:101D7000184600F04DF90120002107F051FB2048E2
:101D800007F010FB7B89184600F042F97B8940F28E
:101D9000426019460AF08AF90D4B00221A7008E0D9
:101DA0000A2008F0EFF806F09BFD03461A46084BA0
:101DB0001A70074B1B78DBB2022BF1D107F054FBF2
:101DC000C82008F0DFF81037BD4680BD4CC70008BA
:101DD0000901002058C70008201700205CC7000830
:101DE00060C7000864C7000868C7000878C7000813
:101DF00088C7000898C7000848170020A8C700082F
:101E0000B0C7000880B584B000AF0346FB710B4635
:101E1000BB711346BB800023FB60BB88104A12884D
:101E200092B202FB03F30F4AA2FB0323DB08FB6021
:101E3000002002F09BF8BB790B4A002142F82310E6
:101E400002E00A2008F09EF8074B1A68FB689A42E5
:101E5000F7D3002002F0E4F81037BD4680BD00BF84
:101E600048170020CDCCCCCC2017002080B584B002
:101E700000AF0346FB710B46BB711346BB800023CA
:101E8000BB600023FB8107F0EFFA564807F08AFA9F
:101E900008E00A2008F076F806F022FD03461A460C
:101EA000514B1A70504B1B78DBB2002BF1D04E4BCC
:101EB0001B78DBB2022B01D1FFF78EFE01237B736F
:101EC00089E007F0D1FA494807F06CFA484B1B88C3
:101ED0009BB2184600F09CF8FB891846052105F0D6
:101EE000BDFB0346FB81FB89414A128892B202FB8B
:101EF00003F3404AA2FB0323DB08BB6007F0B4FAFC
:101F00003D4807F04FFABB689BB2184600F080F8D6
:101F10000120002107F084FA384807F043FABB7922
:101F2000374A52F82330364A52F823309BB21846CB
:101F300000F06EF82C4B00221A70002002F016F808
:101F4000BB792F4A002142F823101BE00A2008F039
:101F500019F807F089FA2B4807F024FABB79284AC8
:101F600052F823309BB2184600F052F801200021AD
:101F700007F056FA244807F015FABB689BB21846DA
:101F800000F046F81E4B1A68BB689A42DED3002068
:101F900002F046F807F068FA1C4807F003FA08E078
:101FA0000A2007F0EFFF06F09BFC03461A460E4B93
:101FB0001A700D4B1B78DBB2002BF1D00A4B1B784B
:101FC000DBB2022B05D101237B730D4B00221A607B
:101FD00001E000237B737B7B012B3FF472AF103752
:101FE000BD4680BDB8C7000809010020C8C7000869
:101FF00048170020CDCCCCCCD4C70008DCC70008E3
:1020000020170020E0C70008E8C70008ECC7000858
:1020100080B582B000AF0346FB80FB88164AA2FB66
:1020200003235B0B9BB2DBB2184606F079FDFB88FD
:10203000114AA2FB0312520B42F2107101FB02F291
:102040009B1A9BB20D4AA2FB03235B099BB2DBB236
:10205000184606F065FDFB88084AA2FB03125209E8
:10206000642101FB02F29B1A9BB2DBB2184606F018
:1020700057FD0837BD4680BD5917B7D11F85EB51B5
:1020800080B485B000AF03463960FB711346BB7165
:102090000023FB730023FB730AE0FB7B3A681344C5
:1020A0001B78DAB2FB795340FB71FB7B0133FB7386
:1020B000FA7BBB799A42F0D3FB7918461437BD46B8
:1020C0005DF8047B704700BF80B500AF784840F2F0
:1020D000255108F0F9FD0346002B2AD0744808F07A
:1020E000B3FD0346DAB2734B1A70734B1B78DBB245
:1020F0005A1CD1B2704A11701A466E4B1B78D9B275
:102100006E4B99546E4B1B8801339AB26C4B1A80FC
:102110006B4B1B884EF66022934202D9684B00221B
:102120001A80634A624B1B889BB223F020039BB248
:102130001380644B1B78DBB2012B15D1624B1B78EB
:10214000DAB2624B1B78DBB29A420DD2584A5E4B30
:102150001B78DBB2591CC8B25B49087019465C4B4E
:102160005B5CDBB29BB29380514A514B1B889BB2A4
:1021700023F040039BB21380564B1B78DBB2002B3D
:1021800040F09580544B1B78DBB2042B52D1534B5B
:102190001B78DBB2002B04D1464B1B78DAB2504BD4
:1021A0001A704E4B1B78DBB25A1CD1B24B4A1170DD
:1021B0001A46404B1B78D9B2404B9954474B1B7879
:1021C000DBB21A46464B1B78DBB2033B9A4231D155
:1021D000434B1B78DBB2043BDBB2302037491A4655
:1021E000FFF74EFF03461A463E4B1A703A4B002249
:1021F0001A703A4B00221A703B4B00221A70394B6E
:102200001B78DBB2002B13D1354B1B78DBB2043BC0
:102210002A4AD35CDAB2354B1A70354B1B78DBB2E5
:102220000133DAB2324B1A702A4B01221A7001E0E4
:1022300000F0FEF81F4B1B78DBB25A2B03D12A4B60
:1022400001221A7033E01B4B1B78DBB2582B08D1EC
:10225000254B1B78DBB2012B03D1234B02221A70D2
:1022600025E0214B1B78DBB2022B20D1114B1B78D0
:10227000DBB2302B18D00F4B1B78DBB2312B06D1E1
:10228000154B03221A70154B00221A700CE0094BF3
:102290001B78DBB2322B07D10F4B04221A700F4B85
:1022A00000221A7000F0C4F80F4B00221A7080BD93
:1022B00000380140CE000020D1000020541700203B
:1022C000C0000020CF000020D00000200B00002024
:1022D000881700204E0100204D0100204B010020F6
:1022E0004C010020D20000204A0100208400002080
:1022F0008000002080B584B000AF78604FF47A6031
:1023000007F040FE0023FB720023FB6008F038FD5D
:102310000120012106F0F6FD0023BB7206F038F81B
:1023200003463C33FB6006F033F80246FB689A42F2
:102330000FD90120002106F0E5FDC82007F022FE9C
:102340000120012106F0DEFD06F022F803460A33E3
:10235000FB60642007F016FE642007F013FE04F013
:1023600003FD0020FEF7D2FF0AF092F8FFF7A2FA71
:102370000120FEF7CBFF4FF4FA7007F003FED2E71F
:1023800080B584B000AF78600023FB730AF0CAF810
:10239000224B1B78DBB203F00803DAB21F4B1A7032
:1023A0001E2007F0EFFD1E4B1B78DBB2012B30D156
:1023B00000F05AF91B4B5B78DBB2312B04D9194B77
:1023C0005B78DBB2632B21D9164B5B78DAB2164B04
:1023D0001A700023FB7311E0124B1B78DBB2043B35
:1023E000104AD35CDBB2184600F0C4F8192007F09D
:1023F000C9FD0AF097F8FB7B0133FB73FB7B092BCC
:10240000EAD900F015F8094B00221A70044B00229B
:102410001A701E2007F0B6FDB8E700BF5401002077
:102420004E01002054170020740100204B010020B1
:1024300080B483B000AF0023FB710023FB7106E082
:10244000FB79074A0021D154FB790133FB71FB79F9
:10245000292BF5D90C37BD465DF8047B704700BFCA
:102460005417002080B582B000AF0023FB710B4BE6
:1024700000221A700023FB7109E0FB79084A002151
:10248000D154012007F07EFDFB790133FB71FB790C
:10249000292BF2D90837BD4680BD00BF0B000020B4
:1024A0008817002080B500AF1D4B00221A701D4B0D
:1024B000DB78DBB20133DAB21B4B1A70194BDB78D5
:1024C000DBB21A46174B0D219954184B00221A7093
:1024D000134B01221A70164A144B1B78DBB2591C9D
:1024E000C8B21249087019460E4B5B5CDBB29BB256
:1024F000938004E0052007F045FD0AF013F80B4B2C
:102500001B78DAB2084B1B78DBB29A42F2D3064B47
:1025100000221A70FFF7A6FF014B00221A7080BD3F
:10252000CF000020881700200B000020D0000020E2
:102530000038014080B584B000AF03460A46FB7105
:102540001346BB710023FB730023FB730BE0FB7985
:10255000184600F00FF8322007F014FD09F0E2FFF2
:10256000FB7B0133FB73FA7BBB799A42EFD31037C5
:10257000BD4680BD90B583B000AF0346FB71FFF749
:1025800071FF1D4B5A221A701B4B58225A701A4B5E
:1025900037229A70184B0722DA70174AFB791371A9
:1025A000154BDB78DBB29C1E134BDB78DBB2013BB7
:1025B000DBB2002010491A46FFF762FD03461A46B7
:1025C0000D4B1A550C4BDB78DBB2013B0A4A00215C
:1025D000D154012007F0D6FCFFF764FF074B1B78AE
:1025E000DBB20133DAB2054B1A70054AFB7913707E
:1025F0000C37BD4690BD00BF88170020CC000020DE
:10260000CD00002080B582B000AF0346FB710B46C1
:10261000BB8013467B80FFF709FAFB79184601F06F
:10262000A5FCBB881846FFF7DDF90837BD4680BD1D
:1026300080B582B000AF0023FB800023BB800DE09B
:10264000FB8803F5B863BB80BB88184600F064FFC5
:10265000FB881033FB80022007F094FCFB88C72B1B
:10266000EED90837BD4680BD80B586B002AF0023E5
:10267000FB8100237B800023BB810023FB720023AE
:102680007B60C44B5B78DBB23F2B00F22D8301A251
:1026900052F823F095270008C1270008D727000823
:1026A000E3270008EB270008F9270008072800089F
:1026B000E92C0008152800082D28000867280008C4
:1026C00087280008CD280008F928000819290008E3
:1026D0004B2900086F290008B1290008D5290008F6
:1026E000F9290008E92C0008E92C0008FF29000856
:1026F0000B2A0008172A0008E92C0008E92C00081A
:10270000E92C0008E92C0008E92C0008E92C000855
:10271000232A0008AB2A0008F32A00083B2B0008F4
:10272000412B00084F2B0008972B00089D2B000819
:10273000E92C0008E92C0008E92C0008E92C000825
:10274000E92C0008E92C0008E92C0008E92C000815
:10275000E92C0008E92C0008E92C0008E92C000805
:10276000D32B0008E12B0008E92C0008E92C000815
:10277000E92C0008EF2B0008112C00084D2C000854
:10278000712C0008932C0008992C00089F2C00083D
:10279000AD2C00087F4B9B78D8B27E4BDB78D9B24A
:1027A0007C4B1B79DBB29BB21B029AB2794B5B79F3
:1027B000DBB29BB213449BB21A46FFF723FB93E2B2
:1027C000744B9B78DAB2734BDB78DBB21046194658
:1027D00004F070FD88E2704B33221A7004F0AEFAF8
:1027E00082E26D4B30221A707EE26A4B9B78DBB23C
:1027F000184601F0BBFB77E2664B9B78DBB21846CC
:1028000001F00EFC70E2634B9B78DBB2184600F0DF
:1028100013FF69E2604B1B78DBB2332B05D15D4BB4
:102820009B78DAB25D4B1A705EE25DE2594B1B7821
:10283000DBB21A46574B9B5CDBB218460F21FFF701
:1028400079FEC82007F09EFB524B9B78D9B2514BC2
:10285000DB78DAB24F4B1B79DBB2084611461A46D9
:1028600000F0D2FC40E205F093FD03463C334C4AB5
:1028700013604C4B00221A704B4B00221A704B4BCA
:1028800000221A7030E2454B00221A70424B33226C
:102890001A70444B1B78DBB203F00103DAB2414BF0
:1028A0001A700020002104F005FD0120002104F031
:1028B00001FD0220002104F0FDFC0320002104F0B2
:1028C000F9FC04F03BFAFFF7B1F80DE2314B9B78CD
:1028D000DBB21B022F4AD278D2B213441B022D4A1C
:1028E0001279D2B213441B022A4A5279D2B213444B
:1028F000184605F05FFDF7E1264B1B78DBB21A4660
:10290000244B9B5CDBB218460521FFF713FE42F215
:10291000107007F037FBE7E11E4B1B78DBB21A465D
:102920001C4B9B5CDBB218460F21FFF703FE052012
:1029300007F028FB174B9B78DAB2164BDB78DBB23B
:102940001046194602F0A8FCCEE1124B9B78DBB290
:102950009AB2104BDB78DBB29BB21B029BB21344E2
:10296000FB81FB891846012100F08CFCBCE1094B7E
:102970009B78DBB29AB2074BDB78DBB29BB21B02CF
:102980009BB21344FB81FB891846102100F07AFCAE
:10299000AAE100BF541700200A0000200C0000200C
:1029A000180100200B0100200A0100205401002022
:1029B000A04B9B78DBB29AB29E4BDB78DBB29BB22A
:1029C0001B029BB21344FB81FB8918460A2100F0CD
:1029D00059FC89E1974B9B78DBB29AB2954BDB7837
:1029E000DBB29BB21B029BB21344FB81FB891846EE
:1029F0000B2100F047FC77E106F0F6FB74E18D4B0C
:102A00009B78DAB28C4B1A706EE18A4B9B78DAB203
:102A10008A4B1A7068E1874B9B78DAB2884B1A7040
:102A200062E1844B9B78DBB21B029AB2814BDB786C
:102A3000DBB29BB21344FB81FA89BB1C10461946DA
:102A400009F0E8FA7B4B1B79DBB2002B14D17B88B1
:102A5000DBB29BB27B80774B5B79DBB21B029BB214
:102A60009AB27B8813449BB27B807B88FA8910469C
:102A7000194609F01BFB17E06E4B1B79DBB2012BEB
:102A800012D17B8823F0FF039BB27B80694B5B797B
:102A9000DBB29AB27B8813449BB27B807B88FA8935
:102AA0001046194609F002FB1EE1624B9B78DBB22F
:102AB0001B029AB25F4BDB78DBB29BB21344FB8103
:102AC0005C4B1B79DBB21B029AB25A4B5B79DBB2CF
:102AD0009BB213449BB27B807B88FA8910461946CF
:102AE00009F0E4FA7A88574B1A80574AFB89138019
:102AF000FAE0504B9B78DBB21B029AB24D4BDB786D
:102B0000DBB29BB21344FB814A4B1B79DBB21B0245
:102B1000484A5279D2B213441B02464A9279D2B241
:102B200013441B02434AD279D2B213447B60FB891F
:102B30001846796804F004FCD6E002F043FFD3E0C5
:102B40003C4B9B78DBB2184600F0ECF8CCE0394BFC
:102B50001B79DBB29AB2374BDB78DBB29BB21B023C
:102B60009BB213449BB27B80324B9B79DBB29AB20F
:102B7000304B5B79DBB29BB21B029BB21344BB812F
:102B80002C4B9B78D9B27A88BB89084611461A46E5
:102B9000FFF738FDA8E0FEF749FFA5E0254B9B793C
:102BA000DBB21A46234B5B79DBB21B029BB21A44A1
:102BB000204B1B79DBB21B0403F47F031A441D4B2B
:102BC000DB78DBB21B0613447B607868FEF7A0FF5E
:102BD0008AE0184B9B78DBB2184600F083FD83E057
:102BE000012000F07FFD022000F07CFD7CE0114B15
:102BF0009B78DBB29AB20F4BDB78DBB21B029BB245
:102C000013409BB29BB21846022100F03BFB6BE0E5
:102C1000084B9B78DBB29AB2064BDB78DBB29BB2F7
:102C20001B029BB213449BB21846012100F0E0FB4B
:102C30005AE000BF54170020290100202A0100207B
:102C40002B0100208800002086000020324B9B785A
:102C5000DBB29AB2304BDB78DBB29BB21B029BB289
:102C60001344FB81FB891846022100F0C1FB3BE0C5
:102C7000294B9B78DBB29AB2274BDB78DBB29BB255
:102C80001B029BB21344FB81FB89184600F044FCF5
:102C90002AE0FFF7CDFC27E000F0BAF824E04FF47B
:102CA00000704FF4B86100F09BF91DE01A4B9B785F
:102CB000DBB29AB2184BDB78DBB29BB21B029BB241
:102CC0001344FB81144B1B79DBB29AB2124B5B7934
:102CD000DBB29BB21B029BB213449BB24FF4007059
:102CE000194600F07DF900BF322007F04BF90A4B7E
:102CF0005B78DBB2632B0CD90223009306480749AB
:102D00000722002305F0E0FB034B5B78DAB2044BAB
:102D10001A701037BD4680BD5417002030170020B0
:102D20004901002080B584B000AF78600023FB60CB
:102D300005F02EFB02467B681344FB6007E00A4B5C
:102D400000229A86642007F01DF909F0EBFB05F0DC
:102D50001FFB0246FB689A42F1D3034B4FF47A7291
:102D60009A861037BD4680BD002C014080B584B0E6
:102D700000AF03460A46FB8013467B710023BB81EC
:102D80000023BB600023FB73FFF76CFB0023FB7386
:102D900032E00023BB81FB7B9BB25B009BB2DBB2CA
:102DA0009AB2FB881344BB810023BB60BB891846E1
:102DB00006F028F8B860FB7B9B00BA68120ED1B20F
:102DC000124AD154FB7B9B000133BA68120CD1B27A
:102DD0000E4AD154FB7B9B000233BA68120AD1B26F
:102DE0000A4AD154FB7B9B000333BA68D1B2074A2D
:102DF000D154FB7B0133FB737B795B08DBB2FA7B3D
:102E00009A42C6D31037BD4680BD00BF8817002048
:102E100080B584B000AF0023FB8100237B730023C7
:102E2000BB600023FB8000233B73684B5A221A705F
:102E3000664B58225A70654B31229A70634B0422BC
:102E4000DA70624B0A221A71614B00221A70614BD0
:102E500005221A70604B00221A705D4B01221A7015
:102E60005E4A5D4B1B78DBB2591CC8B25A490870E8
:102E70001946564B5B5CDBB29BB2938004E00520A5
:102E800007F080F809F04EFB534B1B78DAB2514B38
:102E90001B78DBB29A42F2D30F2007F073F80020C0
:102EA0004A490522FFF7ECF803463B73FFF7DAFACD
:102EB000474B00221A70642007F064F80023FB815E
:102EC00049E0FB89DBB25C339BB21B019BB2184625
:102ED0001021FFF74BFF00237B7309E07B7B3B4A0C
:102EE000D35CDAB23B7B53403B737B7B01337B7318
:102EF0007B7B1F2BF2D9364B00221A70354B2022D8
:102F00001A70354B00221A70314B01221A70334A65
:102F1000314B1B78DBB2591CC8B22F4908701946D7
:102F20002A4B5B5CDBB29BB2938004E0012007F08C
:102F300029F809F0F7FA284B1B78DAB2254B1B78F1
:102F4000DBB29A42F2D3FFF78DFA214B00221A70BE
:102F5000FB890133FB81FB891E2BB2D901237B73D3
:102F600006E07B7B19497A7BCA547B7B01337B73F8
:102F70007B7B042BF5D9154A3B7B1370144B002245
:102F80001A70144B04221A70134B00221A70104B43
:102F900001221A70114B00229A8004E0012006F0F1
:102FA000F1FF09F0BFFA0C4B1B78DAB2094B1B7822
:102FB000DBB29A42F2D30F2006F0E4FFFFF752FA99
:102FC000034B00221A701037BD4680BD88170020C1
:102FD000CF0000200B000020D0000020003801406E
:102FE00080B586B000AF03460A46FB801346BB801F
:102FF0000023FB8200237B7500233B610023FB81C0
:1030000000233B757B4B5A221A707A4B58225A7018
:10301000784B31229A70FB881B099BB25B010C3301
:103020001B12DAB2734BDA70FB881B099BB2DBB25E
:103030005B01DBB20C33DAB26E4B1A71BB881B0A30
:103040009BB2DAB26B4B5A71BB88DAB2694B9A7198
:10305000694B00221A70694B07221A70684B0022D4
:103060001A70654B01221A70664A654B1B78DBB2F9
:10307000591CC8B26249087019465E4B5B5CDBB2F2
:103080009BB2938004E0052006F07CFF09F04AFA29
:103090005B4B1B78DAB2594B1B78DBB29A42F2D306
:1030A0000F2006F06FFF002052490722FEF7E8FFCD
:1030B00003463B75FFF7D6F94F4B00221A70642088
:1030C00006F060FF0023FB824BE0FB8ADBB29BB281
:1030D0001B019AB2BB8813449BB218461021FFF71C
:1030E00045FE00237B7509E07B7D424AD35CDAB262
:1030F0003B7D53403B757B7D01337B757B7D1F2B77
:10310000F2D93D4B00221A703C4B20221A703C4BE6
:1031100000221A70384B01221A703A4A384B1B7839
:10312000DBB2591CC8B2364908701946314B5B5C9A
:10313000DBB29BB2938004E0012006F023FF09F08C
:10314000F1F92F4B1B78DAB22C4B1B78DBB29A4289
:10315000F2D3FFF787F9284B00221A70FB8A01335C
:10316000FB82FB881B099BB2FA8A9A42ADD30123EA
:103170007B7506E07B7D1F497A7DCA547B7D0133D8
:103180007B757B7D042BF5D91A4A3B7D13701A4B56
:1031900000221A70194B04221A70194B00221A705F
:1031A000154B01221A70174A154B1B78DBB2591CBC
:1031B000C8B21349087019460E4B5B5CDBB29BB278
:1031C000938004E0012006F0DDFE09F0ABF90C4B22
:1031D0001B78DAB2094B1B78DBB29A42F2D30F208C
:1031E00006F0D0FEFFF73EF9034B00221A701837A5
:1031F000BD4680BD88170020CF0000200B000020B6
:10320000D00000200038014080B584B000AF0346F4
:10321000FB710B46BB7113467B710023BB6000231F
:10322000FB6005F0B5F8F860BA79FB681344BB6041
:10323000FB791846012101F0B1FF022006F0A2FE41
:10324000FA797B791046194601F0A8FF0DE005F0E8
:103250009FF8F86009F066F90A2006F093FE012055
:1032600000F040FA0A2006F08DFEFA68BB689A4228
:10327000EDD3FB791846002101F090FF1037BD46D1
:1032800080BD00BF80B586B000AF03460A46FB8014
:1032900013467B7100233B610023FB757B79012B77
:1032A00014D1514B1B79DBB29AB24F4B5B79DBB235
:1032B0009BB21B029BB213449AB24C4B1A804B4BED
:1032C0001B88FA881046194608F0F0FE7B79022B1D
:1032D00018D1454B1B79DBB21A46434B5B79DBB205
:1032E0001B021A44404B9B79DBB21B041A443E4B31
:1032F000DB79DBB21B0613443B61FB881846396956
:1033000004F01EF87B79102B2AD10023FB7524E0F2
:10331000364B00221A80FB7D02335B00324AD35CBD
:10332000DBB29AB2FB7D5B0203F5A0632E49CB5C56
:10333000DBB29BB213449AB22C4B1A80FB885A1C06
:10334000FA802A4A12881846114608F0AFFE01207A
:1033500006F018FEFB7D0133FB75FB7D1F2BD7D9D3
:103360007B790A2B1DD10023FB81FA8807F10E031C
:103370001046194608F04EFEFB89DBB29BB2FB817A
:10338000194B1B79DBB21B029AB2FB899BB213402B
:103390009BB29BB2FB81FB89FA881046194608F064
:1033A00085FE7B790B2B1BD10023BB81FA8807F1AB
:1033B0000C031046194608F02DFEBB8923F0FF03CD
:1033C0009BB2BB81084B1B79DBB29AB2BB8913401D
:1033D0009BB2BB81BB89FA881046194608F066FE8D
:1033E0001837BD4680BD00BF541700207A01002069
:1033F00090B585B000AF03460A46FB8013467B714B
:10340000404B5A221A703F4B58225A703D4B312282
:103410009A707B79012B1DD1FA8807F10A031046B7
:10342000194608F0F7FD374B0922DA70364B9B78C6
:10343000DAB2344B1A71344BDB78DAB2314B5A7151
:103440007B89DAB22F4B9A717B891B0A9BB2DAB265
:103450002C4BDA717B79022B24D1FB88184605F0BE
:10346000D1FCF860274B0B22DA70274B9B78DAB23D
:10347000244B1A71244BDB78DAB2224B5A71FB6869
:10348000DAB2204B9A71FB681B0ADAB21D4BDA7173
:10349000FB681B0CDAB21B4B1A72FB681B0EDAB20C
:1034A000184B5A72174BDB78DBB25C1E154BDB787E
:1034B000DBB2013BDBB2002012491A46FEF7E0FD09
:1034C00003461A460F4B1A550E4BDB78DAB20F4BF8
:1034D0001A700F4B00221A700E4B01221A7002E074
:1034E000012006F04FFD0A4B1B78DAB2074B1B7820
:1034F000DBB29A42F4D3074B00221A701437BD4650
:1035000090BD00BF88170020541700200B0000203A
:10351000D0000020CF00002090B585B000AF03465A
:10352000FB800023FB730623BB733E4B5A221A70A9
:103530003C4B58225A703B4B31229A70394B272210
:10354000DA70394B9B78DAB2364B1A71364BDB782E
:10355000DAB2344B5A710023FB7332E00023BB60B4
:10356000FB7B9BB25B009AB2FB8813449BB218466C
:1035700005F048FCB860BB7B5A1CBA731A46BB689E
:103580001B0ED9B2274B9954BB7B5A1CBA731A46EF
:10359000BB681B0CD9B2234B9954BB7B5A1CBA7322
:1035A0001A46BB681B0AD9B21E4B9954BB7B5A1CE6
:1035B000BA731A46BB68D9B21A4B9954FB7B0133D4
:1035C000FB73FB7B072BC9D9BC7B164BDB78DBB2CB
:1035D000013BDBB2002013491A46FEF751FD0346BA
:1035E0001A46104B1A550F4BDB78DAB20F4B1A7094
:1035F0000F4B00221A700F4B01221A7002E00120BB
:1036000006F0C0FC0A4B1B78DAB2084B1B78DBB221
:103610009A42F4D3074B00221A70FEF723FF1437A7
:10362000BD4690BD88170020541700200B000020D5
:10363000D0000020CF00002080B584B000AF03464A
:10364000FB710023FB730023BB8100237B81234B91
:103650005A221A70214B58225A70204B31229A70EC
:103660001E4B2A22DA701D4AFB7913710023FB736B
:103670002AE0FB799BB21A46D20013449AB2FB7B34
:103680009BB213449BB203F538739BB25B00BB81C2
:10369000BA8907F10A031046194608F0BBFCFB7B08
:1036A0005B0005330D4A0021D154FB7B03335B00E3
:1036B0007A89D2B25242D1B2084AD154012006F0DE
:1036C00061FCFB7B0133FB73FB7B112BD1D9044BDA
:1036D00001221A701037BD4680BD00BF8817002038
:1036E000CF00002090B583B000AF0346FB71974B2D
:1036F0001B78DBB2002B40F06182954B5A221A7086
:10370000934B58225A70924B33229A70904B292235
:10371000DA70FB79012B40F0DB808E4B1B78DAB23C
:103720008B4B1A718C4B1B68DAB2894B5A718B4BDD
:103730001B68DAB2864B9A71854B0022DA71884B8E
:103740001B889BB2DAB2824B1A72864B1B78DAB2B4
:103750007F4B5A72844B1B78DAB27D4B9A72824B44
:103760005B78DAB27A4BDA727F4B9B78DAB2784BBD
:103770001A737D4BDB78DAB2754B5A737B4B1B8B1C
:103780009BB2DAB2724B9A73784B1B8B9BB21B0ABB
:103790009BB2DAB26E4BDA73744B9B8B9BB2DAB28C
:1037A0006B4B1A74714B9B8B9BB21B0A9BB2DAB2A8
:1037B000674B5A746E4B1B889BB2DAB2644B9A7497
:1037C0006B4B1B889BB21B0A9BB2DAB2604BDA745C
:1037D000674B5B889BB2DAB25D4B1A75644B5B88B2
:1037E0009BB21B0A9BB2DAB2594B5A75614B1B88CC
:1037F000DAB2574B9A755F4B1B881B0A9BB2DAB241
:10380000534BDA755C4B5B889BB2DAB2504B1A763D
:10381000594B5B889BB21B0A9BB2DAB24C4B5A766F
:10382000554B9B889BB2DAB2494B9A76524B9B8898
:103830009BB21B0A9BB2DAB2454BDA764E4BDB8861
:103840009BB2DAB2424B1A774B4BDB889BB21B0A16
:103850009BB2DAB23E4B5A77484B1B78DAB23C4BFC
:103860009A77474B1B889BB21B0A9BB2DAB2384B44
:10387000DA77434B1B889BB2DAB2354B83F82020B2
:10388000404B9B8E9BB2404AA2FB0323DB089BB2BA
:10389000DAB22F4B83F821203C4B1B78DAB22C4B49
:1038A00083F822203A4B1B78DAB2294B83F8232085
:1038B000384B1B78DAB2264B83F82420364B1B7822
:1038C000DAB2234B83F82520214AFB7982F826308F
:1038D000FB79022B74D1314B1B889BB2DAB21C4BA3
:1038E0001A712E4B1B889BB21B0A9BB2DAB2184B83
:1038F0005A712B4B1B889BB2DAB2154B9A71284B2D
:103900001B889BB21B0A9BB2DAB2114BDA71104BC7
:1039100000221A72184B1B889BB21B0A9BB2DAB2A8
:103920000B4B5A72144B5B889BB2DAB2084B9A72FB
:10393000114B5B889BB21B0A9BB2DAB2044BDA7262
:103940000D4B9B889BB2DAB22CE000BFCF00002069
:10395000881700200A0000200C0100201001002020
:103960002601002044010020A00000200028004083
:1039700078000020700100203C010020540100204C
:10398000CA000020002C0140CDCCCCCC4601002048
:103990000C0000200A0100200B0100202E01002055
:1039A00030010020874B1A73874B9B889BB21B0A00
:1039B0009BB2DAB2834B5A73824AFB7982F8263083
:1039C000FB79032B3BD1814B9B68DAB27D4B1A719B
:1039D0007E4B9B681B0ADAB27A4B5A717B4B9B6811
:1039E0001B0CDAB2774B9A71784B9B681B0EDAB2DC
:1039F000744BDA71764B9B68DAB2724B1A72744B65
:103A00009B681B0ADAB26F4B5A72714B9B681B0C96
:103A1000DAB26C4B9A726E4B9B681B0EDAB2694B32
:103A2000DA726C4B9B78DAB2664B1A73694BDB78AF
:103A3000DAB2644B5A73634AFB7982F82630FB7919
:103A4000042B1CD15F4B00225A72634B1B78DAB2F5
:103A50005C4B9A72614B1B889BB2DAB2594BDA729B
:103A60005E4B1B889BB21B0A9BB2DAB2554B1A7392
:103A7000544B4D225A73534AFB7982F82630FB7916
:103A8000052B39D1564B1B889BB2DAB24D4B1A71BC
:103A9000534B1B889BB21B0A9BB2DAB2494B5A713B
:103AA0004F4B5B889BB2DAB2464B9A714C4B5B88AA
:103AB0009BB21B0A9BB2DAB2424BDA71494B1B68CC
:103AC000DAB2404B1A72474B1B681B0ADAB23D4B05
:103AD0005A72444B1B681B0CDAB23A4B9A72414B38
:103AE0001B681B0EDAB2374BDA72364B4D225A7313
:103AF000344AFB7982F82630FB79062B43D1384BC8
:103B00001B889BB2DAB22F4B1A71354B1B889BB2C4
:103B10001B0A9BB2DAB22B4B5A71314B5B889BB2BA
:103B2000DAB2284B9A712E4B5B889BB21B0A9BB270
:103B3000DAB2244B5A712B4B5B68DAB2214B1A7202
:103B4000284B5B681B0ADAB21E4B5A72254B5B6826
:103B50001B0CDAB21B4B9A72224B5B681B0EDAB25B
:103B6000184BDA721D4B5B889BB2DAB2154B1A7395
:103B70001A4B5B889BB21B0A9BB2DAB2114B5A7389
:103B8000104AFB7993750F4BDB78DBB29C1E0D4B13
:103B9000DB78DBB2023BDBB200200A491A46FEF7B3
:103BA0006FFA03461A46074B1A55064BDB78DBB211
:103BB000013B044A0021D154FEF774FC0C37BD468A
:103BC00090BD00BF881700203C0100200008014084
:103BD000000C0140A80000204601002048170020EA
:103BE000780000202017002080B400AF024B1B6833
:103BF000BD465DF8047B70470000024080B400AF12
:103C0000024B1B68BD465DF8047B70470000024014
:103C100080B586B000AF0120012105F063FF0520CB
:103C2000012105F07DFF25233B7500237B750023D3
:103C3000BB750123FB7507F11403184607F068FFF5
:103C40004FF400733B820323BB741823FB7407F10A
:103C5000100324481946FDF733F94FF480633B8283
:103C60000423FB7407F110031E481946FDF728F9D9
:103C70001D4806F0B3FE4FF48040012105F050FFCF
:103C80004FF416533B600023BB800023FB800023CE
:103C90003B810023BB810C237B813B4612481946A4
:103CA00006F0F8FE10484FF4587106F0FDFF0E4A7A
:103CB0000D4B9B899BB243F020039BB293810A4A30
:103CC000094B9B899BB243F040039BB2938106480A
:103CD000012106F099FF2520FDF778FA1837BD4637
:103CE00080BD00BF000801400038014080B588B0A9
:103CF00000AF1020012105F013FF0220012105F083
:103D00002DFF07F11C031846FDF79AF94FF4707365
:103D1000BB830323BB771823FB7707F11C032148E0
:103D20001946FDF7CDF820480121FDF79DF907F16F
:103D300010031846FCF794FC4FF40073FB8240F22A
:103D4000E733BB82EF233B8207F110031748194684
:103D5000FCF708FA3B461846FCF79CFC01237B80E5
:103D600060233B800023FB803B4610481946FCF74C
:103D700075FA3B460D481946FCF7FCFA3B460B48E2
:103D80001946FCF77FFB3B4608481946FCF700FC48
:103D900006480121FCF7A0FC00F00AF82037BD46D8
:103DA00080BD00BF00100140000C1A00000400405C
:103DB00080B582B000AF0023FB710023FB7107E0E8
:103DC000FB791846002101F0E9F9FB790133FB7119
:103DD000FB79032BF4D90837BD4680BD80B588B088
:103DE00000AF0120012105F09BFE0820012105F014
:103DF00097FE4FF40060012105F092FE07F11C03CD
:103E00001846FDF71DF94FF40053BB830323BB771E
:103E10001823FB7707F11C0321481946FDF750F8DA
:103E200007F110031846FCF71BFC4FF40073FB82EC
:103E300040F2E733BB8217233B8200237B8207F1EA
:103E4000100318481946FCF78DF93B461846FCF755
:103E500021FC01237B8070233B804FF4FA73FB80AD
:103E600002233B8100237B8101237B800423BB80D1
:103E70004FF48073BB810023FB813B460948194600
:103E8000FCF7ECF907480121FCF726FC0548012165
:103E9000FCF742FC02F052FF2037BD4680BD00BF58
:103EA000000C0140002C014080B582B000AF05F04D
:103EB000DBFA0023FB8000237B7105F0D5FA0A2092
:103EC00006F060F805F0D0FA234805F06BFA234BB2
:103ED00000221A701EE004F003FD03461A461F4B31
:103EE0001A701F4B1B88FB80052006F04BF8012041
:103EF000002105F095FAFB881A4AA2FB03235B090F
:103F00009BB2DBB2184604F00BFEFB88DBB218460E
:103F100004F006FE114B1B78DBB2022BDBD10A202A
:103F200006F030F8FB8840F2D650194608F0BEF88B
:103F300002F0C4FE4FF4FA6006F024F80A4805F0D7
:103F400031FA064B00221A7005F08EFA05F04CF992
:103F50000837BD4680BD00BF0CC80008090100201D
:103F6000780000201F85EB5120C8000880B483B082
:103F700000AF0346FB71FB79002B0DD0FB79042BBE
:103F80000AD82449234B5B69FA790332012000FAED
:103F900002F213434B612AE0FB79042B0DD9FB7924
:103FA000072B0AD81C491C4B5B69FA7905320120A2
:103FB00000FA02F213434B6119E0FB79072B0DD98C
:103FC000FB790B2B0AD81349124B5B69FA79033240
:103FD000012000FA02F213434B6108E0FB790C2B3D
:103FE00005D10C4A0B4B5B6943F480735361FB7939
:103FF000012202FA03F39AB2084B1B889BB29BB2D0
:1040000013439BB29AB2054B1A800C37BD465DF83C
:10401000047B70470008014000100140CA000020E6
:1040200080B483B000AF0346FB71FB79002B0DD049
:10403000FB79042B0AD82549244B1B69FA790332F2
:10404000012000FA02F213430B612AE0FB79042BF2
:104050000DD9FB79072B0AD81D491D4B1B69FA792D
:104060000532012000FA02F213430B6119E0FB79DB
:10407000072B0DD9FB790B2B0AD81449134B1B695D
:10408000FA790332012000FA02F213430B6108E0CF
:10409000FB790C2B05D10D4A0C4B1B6943F4807343
:1040A0001361FB79012202FA03F39BB2DB439AB25C
:1040B000084B1B889BB29BB213409BB29AB2054B34
:1040C0001A800C37BD465DF8047B7047000801403C
:1040D00000100140CA00002080B500AF012005F0AB
:1040E00075FE034B1B680133014A136080BD00BF9E
:1040F0002017002080B500AF022005F067FE034BBB
:104100005B680133014A536080BD00BF2017002067
:1041100080B500AF042005F059FE80BD80B500AF2A
:104120004FF4806005F052FE4FF4006005F04EFE43
:104130004FF4805005F04AFE4FF4004005F022FE97
:104140000346002B00F09F804FF4004005F03EFE38
:104150009E4B9B6803F40043002B40F08F809C4BE8
:104160001B889BB2002B00F089809A4B9B8C9AB2E3
:10417000994B1A80974B00229A84954B1B889BB2CF
:104180001A46642303FB02F3934A128892B293FB0C
:10419000F2F39AB2914B1A80914B1B78DBB2002B51
:1041A00061D0904B1B78DBB2002B5CD18B4B1B8812
:1041B0009BB23C2B1BD9894B1B889BB24A2B16D830
:1041C000894B1B78DBB21A4601239340D843874BB7
:1041D0001B781A46854B1B781946854B5B5CD9B218
:1041E000C3B20B40DBB2D9B2814B995415E07E4B80
:1041F0001B78DBB21A46012303FA02F07B4B1B78D3
:104200001A467A4B1B781946794B5B5CD9B2C3B21C
:104210000B43DBB2D9B2764B9954734B1B78DBB2AC
:10422000002B19D1704B07221A70704B1B78013389
:10423000DAB26E4B1A706D4B1B78052B13D1694B9C
:1042400001221A70694B00221A70674B07221A70FC
:10425000684B01221A7006E0634B1B78DBB2013B0E
:10426000DAB2614B1A705E4B1B78DBB20133DAB203
:104270005B4B1A70564B00221A8004E0554B9B8C06
:104280009AB2534B1A804FF4804005F07BFD0346F1
:10429000002B00F0B6804FF4804005F097FD4B4BAB
:1042A0009B6803F48043002B40F0A680484B1B889A
:1042B0009BB2002B00F0A080464B9B8C9AB2464BE1
:1042C0001A80444B00229A84414B1B889BB21A46A9
:1042D000642303FB02F3404A128892B293FBF2F389
:1042E0009AB23E4B1A803E4B1B78DBB2002B61D05A
:1042F0003C4B1B78DBB2002B5CD1384B1B889BB24C
:104300003C2B1BD9354B1B889BB24A2B16D8364BFE
:104310001B78DBB21A4601239340D843334B1B78FA
:104320001A46324B1B781946314B5B5CD9B2C3B28B
:104330000B40DBB2D9B22E4B995415E02A4B1B78B7
:10434000DBB21A46012303FA02F0284B1B781A4607
:10435000264B1B781946264B5B5CD9B2C3B20B4384
:10436000DBB2D9B2224B99541F4B1B78DBB2002B26
:1043700019D11D4B07221A701C4B1B780133DAB27E
:104380001A4B1A70194B1B78052B13D1154B0122B0
:104390001A70164B00221A70134B07221A70154B15
:1043A00000221A7006E0104B1B78DBB2013BDAB238
:1043B0000D4B1A700A4B1B78DBB20133DAB2084B93
:1043C0001A70034B00221A801BE000BF000C014052
:1043D0009000002000400140920000209400002046
:1043E000AD000020AE00002008000020AF0000203B
:1043F000C017002009000020024B9B8C9AB2024B90
:104400001A8080BD004001409000002080B582B03D
:1044100000AF40F2DC53FB800023BB80294B00221D
:104420001A7047E004F05CFA03461A46254B1A70EE
:104430000023BB80FA883B1D1046194607F0EAFDB1
:10444000052005F09FFD05F00FF81F4804F0AAFFB6
:10445000FB881846FDF7DCFD0120002104F0E0FF99
:104460001A4804F09FFFBB881846FDF7D1FD154B95
:104470001B78DBB2022B0AD1FB88B3F5FA6F03D2AB
:10448000FB880133FB8002E04FF4AF63FB800D4BF0
:104490001B78DBB2012B0AD1FB88B3F5AF6F03D9D0
:1044A000FB88013BFB8002E04FF4FA63FB8019209C
:1044B00005F068FD034B1B78DBB2042BB2D1083743
:1044C000BD4680BD090100202CC8000834C8000882
:1044D00080B582B000AF052005F054FD0023FB71CC
:1044E00004F0C2FF464B00221A707DE0142005F054
:1044F00049FD04F0F5F903461A46414B1A700020B5
:10450000002104F08DFF3F4804F04CFFFB79184672
:1045100004F006FB3A4B1B78DBB2042B03D1FB798A
:104520001846FFF723FD364B1B78DBB2032B03D174
:10453000FB791846FFF774FD314B1B78DBB2012B7A
:1045400008D1FB79092B03D8FB790133FB7101E01A
:104550000023FB71012005F015FD0120002104F06E
:104560005FFF294804F01EFF284B1B889BB21846AA
:10457000FDF74EFD012005F005FD254804F012FF72
:10458000244B9B6803F01003002B03D0224804F057
:1045900009FF02E0214804F005FF1E4B9B6803F071
:1045A0002003002B03D01C4804F0FCFE1CE01B4839
:1045B00004F0F8FE174B9B6803F04003002B03D078
:1045C000154804F0EFFE02E0144804F0EBFE114B36
:1045D0009B6803F48073002B03D00F4804F0E2FEC5
:1045E00002E00E4804F0DEFE054B1B78DBB2022B26
:1045F0007FF47CAF04F038FF0837BD4680BD00BFB4
:10460000090100203CC8000848C80008CA00002072
:104610004CC800080008014054C8000858C80008E9
:1046200080B584B000AF0346FB800B467B71134618
:104630003B710023FB730023BB7300237B73FA8859
:104640007B7942FA03F37B730020002104F0E8FE3B
:10465000514804F0A7FE514B00221A7060E004F0AC
:104660003FF903461A464D4B1A700120002104F011
:10467000D7FE0023FB7305E0494804F093FEFB7B63
:104680000133FB73FA7B39797B79CB1A9A42F3DBDE
:10469000012005F077FC0023FB7309E000200021D6
:1046A00004F0BEFE3F4804F07DFEFB7B0133FB734C
:1046B000FA7B39797B79CB1A9A42EFDBBB7B0020FE
:1046C000194604F0ADFE344804F06CFE052005F0F8
:1046D00059FC324B1B78DBB2042B08D1BA7B3979F9
:1046E0007B79CB1A9A4202DABB7B0133BB732B4B2B
:1046F0001B78DBB2012B05D1BB7B002B02D0BB7B2F
:10470000013BBB73254B1B78DBB2032B08D1BB7B72
:10471000012202FA03F3DAB27B7B5340DBB27B73F4
:104720001E4B1B78DBB2022B99D10023FB7325E0D3
:104730007A7BFB7B42FA03F303F00103002B0DD0DD
:10474000FA7B7B791344012BCCBF01230023DBB21E
:104750009AB2FB8813439BB2FB800CE0FA7B7B7917
:104760001344012202FA03F39BB2DB439AB2FB88A3
:1047700013409BB2FB80FB7B0133FB73FA7B3979DF
:104780007B79CB1A9A42D3DB02F098FAFB88184661
:104790001037BD4680BD00BF6CC80008090100206D
:1047A00054C8000864C8000880B586B000AF03464E
:1047B000FB710023BB8200237B8100233B8100230C
:1047C0003B6104F051FE654804F0ECFDC82005F0A3
:1047D000D9FBFB799BB21A461201D31A9BB203F2A2
:1047E0001E63BB82BA8A07F10A031046194607F016
:1047F00011FC7B89DBB2184602F07EFE03469BB2B9
:104800007B817B89BA8A1046194607F04FFC04F079
:104810002BFE0020052104F003FE514804F0C2FDE8
:10482000C82005F0AFFBFB799BB21A461201D31AE0
:104830009BB203F22763BB82BA8A07F108031046D2
:10484000194607F0E7FB3B89184600210322FFF7D2
:10485000E7FE03463B810023FB7511E004F040F8BE
:1048600003461A463F4B1A703E4B1B78DBB2042BB3
:1048700003D1FB7DC3F10103FB75192005F082FB19
:10488000384B1B78DBB2002BE8D0FB7D012B05D128
:104890003B8943F001039BB23B8104E03B8923F059
:1048A00001039BB23B813B89BA8A1046194607F047
:1048B000FDFB052005F066FB02F000FA0023FB601B
:1048C000FB799BB21A461201D31A9BB203F2216301
:1048D000BB82BB8A184604F095FAF860F86801219B
:1048E00003F01EF9F860FB689BB2BA8A10461946BD
:1048F00007F0DCFBFB799BB21A461201D31A9BB27C
:1049000003F22363BB82BB8A184604F07BFAF8608B
:10491000F868012103F004F9F860FB689BB2BA8AD9
:104920001046194607F0C2FBFB799BB21A461201EA
:10493000D31A9BB203F21F63BB82BB8A184604F0F2
:1049400061FAF860F86802F0EDFEF860BB8A18467C
:10495000F96802F0F5FC1837BD4680BD70C8000844
:1049600078C800080901002080B582B000AF00239C
:10497000FB7104F079FD094804F014FDC82005F02E
:1049800001FBFB79184602F0B7FD0346FB71FB798A
:10499000184600F021F80837BD4680BD84C80008DD
:1049A00080B582B000AF0023FB7104F05DFD0948C3
:1049B00004F0F8FCC82005F0E5FAFB79184602F08F
:1049C0009BFD0346FB71FB791846FFF7EDFE0837A8
:1049D000BD4680BD84C8000880B584B000AF0346E2
:1049E000FB710023FB810023BB81FB799BB21A463C
:1049F000920013449BB203F2A563FB81FA8907F18D
:104A00000C031046194607F005FB04F02DFD57482E
:104A100004F0C8FCBB89184602F0C4FD0346BB8104
:104A2000BB89FA891046194607F040FBFB799BB217
:104A30001A46920013449BB203F2A663FB81FA89E3
:104A400007F10C031046194607F0E4FA04F00CFDD8
:104A5000474804F0A7FCBB89184602F0A3FD0346B3
:104A6000BB81BB89FA891046194607F01FFBFA89FA
:104A700007F10C031046194607F0CCFA04F0F4FCD9
:104A80003C4804F08FFCBB89184602F08BFD0346BE
:104A9000BB81BB89FA891046194607F007FBFB79F1
:104AA0009BB21A46920013449BB203F2A763FB81A8
:104AB000FA8907F10C031046194607F0ABFA04F027
:104AC000D3FC2D4804F06EFCBB89184602F06AFD49
:104AD0000346BB81BB89FA891046194607F0E6FAFE
:104AE000FB799BB21A46920013449BB203F2A76370
:104AF000FB81FA8907F10C031046194607F08AFA80
:104B000004F0B2FC1D4804F04DFCBB89184602F0CD
:104B100049FD0346BB81BB89FA891046194607F057
:104B2000C5FAFA8907F10C031046194607F072FA24
:104B300004F09AFC124804F035FCBB89184602F0D8
:104B400031FD0346BB810A2005F01CFABB89FA89B6
:104B50001046194607F0AAFA04F086FC0A2005F070
:104B600011FA04F041FB1037BD4680BD90C8000823
:104B7000A4C80008B4C80008C4C80008D0C8000809
:104B8000E0C8000890B585B000AF0023BB730023D8
:104B9000FB7304F069FC354804F004FCC82005F000
:104BA000F1F9BB7B184602F0A7FC0346BB7304F087
:104BB0005BFC2F4804F0F6FBBB7B184603F0B0FF0C
:104BC0002C4804F0EFFB0023FB7306E01E2005F0E9
:104BD000D9F903F085FE0346FB73FB7B022B02D061
:104BE000FB7B032BF2D1C82005F0CCF9FB7B022B19
:104BF00033D1BA7B13461B019B1A03F21F63BB60C0
:104C0000BB689BB2184604F0FDF87860BA7B134687
:104C10001B019B1A03F22163BB6003F0B9FB3860F0
:104C2000BB689BB21846396802F08AFBBA7B134610
:104C30001B019B1A03F22563BB60BB689CB203F0A7
:104C4000A7FB02467B68D31A05332046194602F0BB
:104C500077FBBB7B184600F00FF804F005FCC8207A
:104C600005F090F91437BD4690BD00BF84C8000818
:104C7000ECC80008F8C8000880B590B000AF034643
:104C8000FB719D4B00221A709C4B02221A70FB791B
:104C9000012202FA03F3DAB2994B1B78DBB2DBB2E2
:104CA0001343DBB2DAB2964B1A700023BB6303F0F6
:104CB0006FFBB863914B03221A7000233B820023E1
:104CC00087F83F3000237B6300233B630023FB62B4
:104CD0000023BB628B4B7B6200237B8400233B84DD
:104CE0000023FB830023FB810023BB8300237B8302
:104CF0000023BB8100233B830023FB750023BB758E
:104D000003F046FBB862BB6AFB627C4B04221A705C
:104D1000642005F037F97C4B5B883B84FB799BB2C0
:104D20001A461201D31A9BB203F21E63BB83BA8BDD
:104D300007F10E031046194607F06CF9FB89DBB248
:104D40009BB2FB81642005F01DF9704B5B889AB221
:104D50006D4B5B889BB2D31A7B8404F085FB6C4857
:104D600004F020FB7B8C6B4AA2FB03235B099BB204
:104D7000DBB2184603F0D4FE7B8CDBB2184603F09E
:104D8000CFFE654804F00EFB5F4B5B889BB2184674
:104D9000FDF73EF90120002104F042FB5F4804F0DA
:104DA00001FB5A4B5B889BB21846FDF731F95C4812
:104DB00004F0F8FAFB891846FDF72AF94FF4FA5087
:104DC00005F0E0F8FCF732FEFB89564AA2FB03230C
:104DD0005B089BB27A8C9A4280F0E180FB893A8C26
:104DE000D31A7B847B8C1846002100F0D7FFC820A3
:104DF00005F0C8F807F096FB404B06221A703B8C72
:104E0000DAB2414B5B889BB2DBB2D31AFB75FB89EC
:104E10001A461346DB001344434A82FB03129210E6
:104E2000DB17D31ABB75002387F83F30B2E00A20A6
:104E300005F0A8F897F83F305733DAB22F4B1A70C5
:104E40000023BB83FB799BB21A461201D31A9BB293
:104E500003F21F63BB83BB8B184603F0D3FF386399
:104E6000FB799BB21A461201D31A9BB203F221635B
:104E7000BB83BB8B184603F0C5FFF862642005F0C6
:104E800081F897F83F309BB21A46920013449BB2C8
:104E900003F2A763BB83BA8B07F1100310461946D0
:104EA00007F0B8F80023BB8700237B75642005F06A
:104EB00069F83B8A9BB2002B38D003F069FA0246AE
:104EC000FB6AD21A3B6BB2FBF3F37B63642005F001
:104ED00059F80A4BC8221A70C82005F053F83B8ACB
:104EE0009BB2DAB27B6BB3FBF2F102FB01F29B1ACD
:104EF0007B750123BB871BE0140000200A01002002
:104F00004401002000286BEE7800002038010020CA
:104F1000FCC800081F85EB5100C9000804C900083F
:104F200008C90008ABAAAAAA676666660023BB8701
:104F3000322005F027F83B8A9BB21B0A7B830023B3
:104F4000BB83FB799BB27A8B9A4218D1BB8F002B23
:104F500015D0584B63221A704FF4C87005F012F840
:104F600097F83F30184600F0AFF897F83F306433B9
:104F7000DAB2504B1A704FF4FA6005F003F864206F
:104F800005F000F84B4B08221A7097F83F300133B8
:104F900087F83F3097F83F30082B7FF648AF322034
:104FA00004F0F0FF434B09221A70FB799BB21A46BA
:104FB0001201D31A9BB203F22763BB83BA8B07F1AA
:104FC0000C031046194607F025F8FCF72FFD0120C9
:104FD000FEF7CCFFBB891846FCF704FD354B0A22CF
:104FE0001A7000233B7500237B82334B1B783B7583
:104FF000314B30221A70322004F0C4FFFB799BB28F
:105000001A461201D31A9BB203F21D63BB8300231D
:10501000FB81BA8B07F10E031046194606F0FAFF22
:10502000FB891A46BB891046194600F07BFEFB79C6
:105030009BB21A461201D31A9BB203F22563BB83BB
:10504000BB8B1846B96B02F07BF91A4B0C221A7015
:1050500044F6206004F096FF174A3B7D1370174B0F
:105060001B78DBB223F00803DAB2144B1A70114B31
:105070000D221A704FF47A7004F084FFFCF7D6FC0E
:10508000FB79012202FA03F3DBB2DB43DAB20C4B09
:105090001B78DBB2DBB21340DBB2DAB2084B1A701A
:1050A000084B01221A70C82004F06CFF4037BD463F
:1050B00080BD00BF0A0100200A0000200B01002073
:1050C000440100201400002080B586B000AF0346E4
:1050D000FB71FCF7ABFC322004F054FF00237B6132
:1050E000FB799BB21A46920013449BB203F2A6636B
:1050F0007B827A8A07F110031046194606F08AFF70
:10510000322004F03FFFFB799BB21A469200134411
:105110009BB203F2A5637B827A8A07F10E031046E5
:10512000194606F077FF1C4B5F221A70282004F006
:1051300029FF07F0F7F900237B82FB799BB21A461F
:10514000920013449BB203F5D5637B82124B5E221F
:105150001A70282004F016FF7A8A07F10C03104613
:10516000194606F057FF0C4B5D221A70282004F0F8
:1051700009FF07F0D7F9B9893A8AFB89DBB20846FB
:1051800011461A46012300F02DFD4FF4C87004F0BB
:10519000F9FE1837BD4680BD0A01002080B584B0F5
:1051A00000AF03460A46FB711346BB710023FB8127
:1051B000BB79002B0ED0FB79012202FA03F3DAB29D
:1051C000334B1B78DBB2DBB21343DBB2DAB2304BCA
:1051D0001A700FE0FB79012202FA03F3DBB2DB4322
:1051E000DAB22B4B1B78DBB2DBB21340DBB2DAB2A4
:1051F000274B1A70BB79012B02D10023BB7113E03E
:10520000BB79652B0CD107F10E0340F217601946EC
:1052100006F000FF022004F0B5FEFB89BB7103E03D
:10522000BB79C3F16403BB71FB79002B08D1194A28
:10523000BB799BB2194689000B445B009BB29386F5
:10524000FB79012B08D1134ABB799BB2194689001F
:105250000B445B009BB21387FB79022B08D10D4AEC
:10526000BB799BB2194689000B445B009BB29387C4
:10527000FB79032B09D1074ABB799BB219468900F8
:105280000B445B009BB2A2F840301037BD4680BD96
:10529000460100200004004080B584B000AF034602
:1052A0000A46FB711346BB710023FB6003F070F8E4
:1052B00003460133FB6002E0022004F063FE03F0CA
:1052C00067F80246FB689A42F6D303F061F802469B
:1052D000BB791344FB60FB7918460121FFF75EFFA1
:1052E00002E0022004F04EFE03F052F80246FB6892
:1052F0009A42F6D3FB7918460021FFF74FFF10378B
:10530000BD4680BD80B58CB000AF786000237B6265
:1053100000233B620023FB610023FB620023BB618F
:1053200000237B6100237B820023BB8100237B74ED
:10533000002387F82B3000233B74002387F82A30A2
:105340000023FB81FCF772FB44F6206004F01AFE98
:10535000002387F82B30D4E00A2004F013FE97F8DE
:105360002B309BB21A461201D31A9BB203F221636F
:105370007B827B8A184603F045FDB86197F82B3095
:105380009BB21A461201D31A9BB203F223637B82AB
:105390007B8A184603F036FD7861322004F0F2FD76
:1053A00097F82B309BB21A461201D31A9BB203F224
:1053B0001E637B827A8A07F10C031046194606F0B9
:1053C00029FEBB891B0A9BB287F82A30322004F0E1
:1053D000D9FD4F4B1B68DAB297F82A3013403B7463
:1053E0003B7C002B03D0012387F82A3002E0002306
:1053F00087F82A30142004F0C5FD00233B7497F889
:105400002B309BB21A461201D31A9BB203F22763C8
:105410007B820023BB817A8A07F10C031046194670
:1054200006F0F8FD4FF4FA7004F0ACFDBB89FB8187
:1054300097F82B309BB21A461201D31A9BB203F293
:1054400025637B827B8A184603F0DCFC386297F880
:105450002B309BB21A461201D31A9BB203F21F6380
:105460007B827B8A184603F0CDFCF8610A2004F0A9
:1054700089FD02F08DFF02463B6A9A4206D902F08E
:1054800087FF02463B6AD31AFB6201E00023FB62FE
:1054900002F07EFF7862FA6AFB699A4217D97A6A4B
:1054A000BB699A4213D97A6A7B699A420FD2FB8907
:1054B000002B0CD097F82A30012B08D1154B1B6814
:1054C000002B04D197F82B301846FFF7D5FB32207C
:1054D00004F058FD104B1B78642B0AD90D4B0122A8
:1054E0001A600D4B1B78184600F0F2FC094B0022A5
:1054F0001A60322004F046FD97F82B30013387F80C
:105500002B3097F82B30072B7FF626AF20E700BF14
:105510000C010020500100204901002080B582B01C
:1055200000AF786004F090FD0920FEF71FFD06F043
:10553000F9FF786800F062FF0320FEF717FD06F020
:10554000F1FF786800F05AFF0A20FEF70FFD06F021
:10555000E9FF786800F052FF0B20FEF707FD06F028
:10556000E1FF786800F04AFF0820FEF7FFFC06F034
:10557000D9FF786800F042FF0C20FEF7F7FC06F038
:10558000D1FF04F06FFD0837BD4680BD80B582B005
:1055900000AF786004F058FD0920FEF741FD06F0E9
:1055A000C1FF786800F02AFF0320FEF739FD06F0FE
:1055B000B9FF786800F022FF0A20FEF731FD06F0FF
:1055C000B1FF786800F01AFF0B20FEF729FD06F006
:1055D000A9FF786800F012FF0820FEF721FD06F011
:1055E000A1FF786800F00AFF0C20FEF719FD06F015
:1055F00099FF04F037FD0837BD4680BD80B582B005
:1056000000AF786004F020FD0C20FEF7AFFC06F040
:1056100089FF786800F0F2FE0820FEF7A7FC06F08C
:1056200081FF786800F0EAFE0B20FEF79FFC06F091
:1056300079FF786800F0E2FE0A20FEF797FC06F09A
:1056400071FF786800F0DAFE0320FEF78FFC06F0A9
:1056500069FF786800F0D2FE0920FEF787FC06F0AB
:1056600061FF04F0FFFC0837BD4680BD80B582B005
:1056700000AF786004F0E8FC0C20FEF7D1FC06F0E7
:1056800051FF786800F0BAFE0820FEF7C9FC06F06A
:1056900049FF786800F0B2FE0B20FEF7C1FC06F06F
:1056A00041FF786800F0AAFE0A20FEF7B9FC06F078
:1056B00039FF786800F0A2FE0320FEF7B1FC06F087
:1056C00031FF786800F09AFE0920FEF7A9FC06F089
:1056D00029FF04F0C7FC0837BD4680BD80B582B005
:1056E00000AF786004F0B0FC0A20FEF73FFC0B200E
:1056F000FEF73CFC06F016FF786800F07FFE032002
:10570000FEF734FC0820FEF731FC06F00BFF78684A
:1057100000F074FE0920FEF729FC0C20FEF726FCA1
:1057200006F000FF04F09EFC0837BD4680BD00BFB8
:1057300080B582B000AF786004F086FC0A20FEF7E6
:105740006FFC0B20FEF76CFC06F0ECFE786800F0B6
:1057500055FE0320FEF764FC0820FEF761FC06F00E
:10576000E1FE786800F04AFE0920FEF759FC0C20A3
:10577000FEF756FC06F0D6FE04F074FC0837BD4672
:1057800080BD00BF80B582B000AF786004F05CFCE3
:105790000920FEF7EBFB06F0C5FE786800F02EFE50
:1057A0000320FEF7E3FB0920FEF73AFC06F0BAFE01
:1057B000786800F023FE0A20FEF7D8FB0320FEF7EE
:1057C0002FFC06F0AFFE786800F018FE0B20FEF705
:1057D000CDFB0A20FEF724FC06F0A4FE786800F05A
:1057E0000DFE0820FEF7C2FB0B20FEF719FC06F0A9
:1057F00099FE786800F002FE0C20FEF7B7FB082047
:10580000FEF70EFC06F08EFE786800F0F7FD0C2027
:10581000FEF706FC06F086FE04F024FC0837BD46C1
:1058200080BD00BF80B582B000AF786004F00CFC92
:1058300006F078FE0C20FEF799FB786800F0DEFD9C
:105840000820FEF793FB0C20FEF7EAFB06F06AFE49
:10585000786800F0D3FD0B20FEF788FB0820FEF7E8
:10586000DFFB06F05FFE786800F0C8FD0A20FEF757
:105870007DFB0B20FEF7D4FB06F054FE786800F0A9
:10588000BDFD0320FEF772FB0A20FEF7C9FB06F000
:1058900049FE786800F0B2FD0920FEF767FB03209F
:1058A000FEF7BEFB06F03EFE786800F0A7FD09207B
:1058B000FEF7B6FB06F036FE04F0D4FB0837BD4613
:1058C00080BD00BF80B584B000AF0346FB710023EC
:1058D000FB73FB791846FEF749FB0023FB7307E0D7
:1058E00006F020FE0A2004F04DFBFB7B0133FB7326
:1058F000FB7B312BF4D9FB791846FEF791FB10376F
:10590000BD4680BD80B582B000AF0023FB7100238F
:10591000FB7106E0FB791846FFF7D4FFFB790133F2
:10592000FB71FB790E2BF5D9642003F025FB0023D6
:10593000BB714FF47A70FFF7F1FD4FF47A70FFF707
:1059400025FE4FF4FA7004F01DFB4FF47A70FFF758
:1059500055FE4FF47A70FFF789FE4FF4FA7004F0A9
:1059600011FBFCF763F80023BB7112E0BB794FF425
:10597000FA7202FB03F31846FFF704FFBB794FF4FA
:10598000FA7202FB03F31846FFF74CFFBB790133B1
:10599000BB71BB79042BE9D9642004F0F3FA4FF40E
:1059A0007A70FFF79BFE642004F0ECFA4FF47A70F3
:1059B000FFF7BEFE4FF4FA7004F0E4FA0837BD4674
:1059C00080BD00BF80B582B000AF0023FB71002313
:1059D000BB710023BB711BE0FFF794FF0023FB7139
:1059E00010E0FB791846FEF7C1FAC82004F0CAFAA5
:1059F000FB791846FEF714FBC82004F0C3FAFB79C4
:105A00000133FB71FB790F2BEBD9BB790133BB71F0
:105A1000BB79042BE0D90220012103F073FAC820DE
:105A200004F0B0FA0220002103F06CFAC82004F060
:105A3000A9FA0220012103F065FAC82004F0A2FAB5
:105A40000220002103F05EFAC82004F09BFA002334
:105A5000FB710EE0444AFB799BB2194689000B4466
:105A60005B009BB293860A2004F08CFAFB79013329
:105A7000FB71FB793B2BEDD93C23FB710EE03A4ADD
:105A8000FB799BB2194689000B445B009BB293865D
:105A90000A2004F077FAFB79013BFB71FB79002BBC
:105AA000EDD1314B4FF47A729A860023FB710EE0F0
:105AB0002D4AFB799BB2194689000B445B009BB2CF
:105AC00013870A2004F05EFAFB790133FB71FB793E
:105AD0003B2BEDD9244B4FF47A721A870023FB71CC
